{
  "_format": "hh-sol-artifact-1",
  "contractName": "ExchangeManager",
  "sourceName": "contracts/ExchangeManager.sol",
  "abi": [
    {
      "inputs": [
        {
          "internalType": "address",
          "name": "_dajuToken",
          "type": "address"
        },
        {
          "internalType": "address",
          "name": "_usdcAddress",
          "type": "address"
        },
        {
          "internalType": "uint256",
          "name": "_usdcToEthRate",
          "type": "uint256"
        },
        {
          "internalType": "uint256",
          "name": "_usdcToDajuRate",
          "type": "uint256"
        },
        {
          "internalType": "address",
          "name": "_supportedTokenAddress",
          "type": "address"
        },
        {
          "internalType": "uint256",
          "name": "_supportedTokenToEthRate",
          "type": "uint256"
        },
        {
          "internalType": "uint256",
          "name": "_supportedTokenToDajuRate",
          "type": "uint256"
        },
        {
          "internalType": "uint8",
          "name": "_supportedTokenDecimals",
          "type": "uint8"
        },
        {
          "internalType": "uint256",
          "name": "initialUsdcDeposit",
          "type": "uint256"
        }
      ],
      "stateMutability": "payable",
      "type": "constructor"
    },
    {
      "inputs": [],
      "name": "ETHTransferFailed",
      "type": "error"
    },
    {
      "inputs": [],
      "name": "InsufficientAllowance",
      "type": "error"
    },
    {
      "inputs": [],
      "name": "InsufficientContractBalance",
      "type": "error"
    },
    {
      "inputs": [],
      "name": "InsufficientDajuBalance",
      "type": "error"
    },
    {
      "inputs": [],
      "name": "InsufficientTokenBalance",
      "type": "error"
    },
    {
      "inputs": [
        {
          "internalType": "uint256",
          "name": "required",
          "type": "uint256"
        },
        {
          "internalType": "uint256",
          "name": "available",
          "type": "uint256"
        }
      ],
      "name": "InsufficientTokenReserves",
      "type": "error"
    },
    {
      "inputs": [],
      "name": "ReentrancyGuardReentrantCall",
      "type": "error"
    },
    {
      "inputs": [],
      "name": "TokenTransferFailed",
      "type": "error"
    },
    {
      "inputs": [],
      "name": "ZeroAmount",
      "type": "error"
    },
    {
      "anonymous": false,
      "inputs": [
        {
          "indexed": true,
          "internalType": "address",
          "name": "user",
          "type": "address"
        },
        {
          "indexed": false,
          "internalType": "uint256",
          "name": "tokenAmount",
          "type": "uint256"
        },
        {
          "indexed": false,
          "internalType": "uint256",
          "name": "ethAmount",
          "type": "uint256"
        }
      ],
      "name": "BuyETHWithSupportedToken",
      "type": "event"
    },
    {
      "anonymous": false,
      "inputs": [
        {
          "indexed": true,
          "internalType": "address",
          "name": "user",
          "type": "address"
        },
        {
          "indexed": false,
          "internalType": "uint256",
          "name": "usdcAmount",
          "type": "uint256"
        },
        {
          "indexed": false,
          "internalType": "uint256",
          "name": "ethAmount",
          "type": "uint256"
        }
      ],
      "name": "BuyETHWithUSDC",
      "type": "event"
    },
    {
      "anonymous": false,
      "inputs": [
        {
          "indexed": true,
          "internalType": "address",
          "name": "from",
          "type": "address"
        },
        {
          "indexed": false,
          "internalType": "uint256",
          "name": "amount",
          "type": "uint256"
        }
      ],
      "name": "DAJUDeposited",
      "type": "event"
    },
    {
      "anonymous": false,
      "inputs": [
        {
          "indexed": false,
          "internalType": "address",
          "name": "from",
          "type": "address"
        },
        {
          "indexed": false,
          "internalType": "uint256",
          "name": "amount",
          "type": "uint256"
        }
      ],
      "name": "ETHReceived",
      "type": "event"
    },
    {
      "anonymous": false,
      "inputs": [
        {
          "indexed": true,
          "internalType": "address",
          "name": "user",
          "type": "address"
        },
        {
          "indexed": false,
          "internalType": "string",
          "name": "tokenSymbol",
          "type": "string"
        },
        {
          "indexed": false,
          "internalType": "uint256",
          "name": "inputAmount",
          "type": "uint256"
        },
        {
          "indexed": false,
          "internalType": "uint256",
          "name": "outputAmount",
          "type": "uint256"
        },
        {
          "indexed": false,
          "internalType": "bool",
          "name": "isBuy",
          "type": "bool"
        }
      ],
      "name": "ExchangeCompleted",
      "type": "event"
    },
    {
      "anonymous": false,
      "inputs": [
        {
          "indexed": true,
          "internalType": "address",
          "name": "user",
          "type": "address"
        },
        {
          "indexed": false,
          "internalType": "uint256",
          "name": "ethAmount",
          "type": "uint256"
        },
        {
          "indexed": false,
          "internalType": "uint256",
          "name": "tokenAmount",
          "type": "uint256"
        }
      ],
      "name": "SellETHForSupportedToken",
      "type": "event"
    },
    {
      "anonymous": false,
      "inputs": [
        {
          "indexed": true,
          "internalType": "address",
          "name": "user",
          "type": "address"
        },
        {
          "indexed": false,
          "internalType": "uint256",
          "name": "ethAmount",
          "type": "uint256"
        },
        {
          "indexed": false,
          "internalType": "uint256",
          "name": "usdcAmount",
          "type": "uint256"
        }
      ],
      "name": "SellETHForUSDC",
      "type": "event"
    },
    {
      "anonymous": false,
      "inputs": [
        {
          "indexed": true,
          "internalType": "address",
          "name": "from",
          "type": "address"
        },
        {
          "indexed": false,
          "internalType": "uint256",
          "name": "amount",
          "type": "uint256"
        }
      ],
      "name": "USDCDeposited",
      "type": "event"
    },
    {
      "inputs": [],
      "name": "USDC_DECIMALS",
      "outputs": [
        {
          "internalType": "uint8",
          "name": "",
          "type": "uint8"
        }
      ],
      "stateMutability": "view",
      "type": "function"
    },
    {
      "inputs": [
        {
          "internalType": "uint256",
          "name": "tokenAmount",
          "type": "uint256"
        }
      ],
      "name": "buyETHWithSupportedToken",
      "outputs": [],
      "stateMutability": "nonpayable",
      "type": "function"
    },
    {
      "inputs": [
        {
          "internalType": "uint256",
          "name": "usdcAmount",
          "type": "uint256"
        }
      ],
      "name": "buyETHWithUSDC",
      "outputs": [],
      "stateMutability": "nonpayable",
      "type": "function"
    },
    {
      "inputs": [],
      "name": "dajuToken",
      "outputs": [
        {
          "internalType": "contract DajuToken",
          "name": "",
          "type": "address"
        }
      ],
      "stateMutability": "view",
      "type": "function"
    },
    {
      "inputs": [
        {
          "internalType": "uint256",
          "name": "dajuAmount",
          "type": "uint256"
        }
      ],
      "name": "depositDAJU",
      "outputs": [],
      "stateMutability": "nonpayable",
      "type": "function"
    },
    {
      "inputs": [
        {
          "internalType": "uint256",
          "name": "usdcAmount",
          "type": "uint256"
        }
      ],
      "name": "depositUSDC",
      "outputs": [],
      "stateMutability": "nonpayable",
      "type": "function"
    },
    {
      "inputs": [
        {
          "internalType": "uint256",
          "name": "dajuAmount",
          "type": "uint256"
        }
      ],
      "name": "exchangeDAJUForSupportedToken",
      "outputs": [],
      "stateMutability": "nonpayable",
      "type": "function"
    },
    {
      "inputs": [
        {
          "internalType": "uint256",
          "name": "dajuAmount",
          "type": "uint256"
        }
      ],
      "name": "exchangeDAJUForUSDC",
      "outputs": [],
      "stateMutability": "nonpayable",
      "type": "function"
    },
    {
      "inputs": [
        {
          "internalType": "uint256",
          "name": "tokenAmount",
          "type": "uint256"
        }
      ],
      "name": "exchangeSupportedTokenForDAJU",
      "outputs": [],
      "stateMutability": "nonpayable",
      "type": "function"
    },
    {
      "inputs": [
        {
          "internalType": "uint256",
          "name": "usdcAmount",
          "type": "uint256"
        }
      ],
      "name": "exchangeUSDCForDAJU",
      "outputs": [],
      "stateMutability": "nonpayable",
      "type": "function"
    },
    {
      "inputs": [],
      "name": "getDajuBalance",
      "outputs": [
        {
          "internalType": "uint256",
          "name": "",
          "type": "uint256"
        }
      ],
      "stateMutability": "view",
      "type": "function"
    },
    {
      "inputs": [],
      "name": "getETHBalance",
      "outputs": [
        {
          "internalType": "uint256",
          "name": "",
          "type": "uint256"
        }
      ],
      "stateMutability": "view",
      "type": "function"
    },
    {
      "inputs": [],
      "name": "getSupportedTokenBalance",
      "outputs": [
        {
          "internalType": "uint256",
          "name": "",
          "type": "uint256"
        }
      ],
      "stateMutability": "view",
      "type": "function"
    },
    {
      "inputs": [],
      "name": "getUSDCBalance",
      "outputs": [
        {
          "internalType": "uint256",
          "name": "",
          "type": "uint256"
        }
      ],
      "stateMutability": "view",
      "type": "function"
    },
    {
      "inputs": [],
      "name": "owner",
      "outputs": [
        {
          "internalType": "address",
          "name": "",
          "type": "address"
        }
      ],
      "stateMutability": "view",
      "type": "function"
    },
    {
      "inputs": [],
      "name": "paused",
      "outputs": [
        {
          "internalType": "bool",
          "name": "",
          "type": "bool"
        }
      ],
      "stateMutability": "view",
      "type": "function"
    },
    {
      "inputs": [],
      "name": "sellETHForSupportedToken",
      "outputs": [],
      "stateMutability": "payable",
      "type": "function"
    },
    {
      "inputs": [],
      "name": "sellETHForUSDC",
      "outputs": [],
      "stateMutability": "payable",
      "type": "function"
    },
    {
      "inputs": [],
      "name": "supportedTokenAddress",
      "outputs": [
        {
          "internalType": "address",
          "name": "",
          "type": "address"
        }
      ],
      "stateMutability": "view",
      "type": "function"
    },
    {
      "inputs": [],
      "name": "supportedTokenDecimals",
      "outputs": [
        {
          "internalType": "uint8",
          "name": "",
          "type": "uint8"
        }
      ],
      "stateMutability": "view",
      "type": "function"
    },
    {
      "inputs": [],
      "name": "supportedTokenToDajuRate",
      "outputs": [
        {
          "internalType": "uint256",
          "name": "",
          "type": "uint256"
        }
      ],
      "stateMutability": "view",
      "type": "function"
    },
    {
      "inputs": [],
      "name": "supportedTokenToEthRate",
      "outputs": [
        {
          "internalType": "uint256",
          "name": "",
          "type": "uint256"
        }
      ],
      "stateMutability": "view",
      "type": "function"
    },
    {
      "inputs": [],
      "name": "togglePause",
      "outputs": [],
      "stateMutability": "nonpayable",
      "type": "function"
    },
    {
      "inputs": [
        {
          "internalType": "uint256",
          "name": "_usdcToEthRate",
          "type": "uint256"
        },
        {
          "internalType": "uint256",
          "name": "_usdcToDajuRate",
          "type": "uint256"
        },
        {
          "internalType": "uint256",
          "name": "_supportedTokenToEthRate",
          "type": "uint256"
        },
        {
          "internalType": "uint256",
          "name": "_supportedTokenToDajuRate",
          "type": "uint256"
        }
      ],
      "name": "updateRates",
      "outputs": [],
      "stateMutability": "nonpayable",
      "type": "function"
    },
    {
      "inputs": [],
      "name": "usdcAddress",
      "outputs": [
        {
          "internalType": "address",
          "name": "",
          "type": "address"
        }
      ],
      "stateMutability": "view",
      "type": "function"
    },
    {
      "inputs": [],
      "name": "usdcToDajuRate",
      "outputs": [
        {
          "internalType": "uint256",
          "name": "",
          "type": "uint256"
        }
      ],
      "stateMutability": "view",
      "type": "function"
    },
    {
      "inputs": [],
      "name": "usdcToEthRate",
      "outputs": [
        {
          "internalType": "uint256",
          "name": "",
          "type": "uint256"
        }
      ],
      "stateMutability": "view",
      "type": "function"
    },
    {
      "inputs": [
        {
          "internalType": "uint256",
          "name": "amount",
          "type": "uint256"
        }
      ],
      "name": "withdrawDAJU",
      "outputs": [],
      "stateMutability": "nonpayable",
      "type": "function"
    },
    {
      "inputs": [
        {
          "internalType": "uint256",
          "name": "amount",
          "type": "uint256"
        }
      ],
      "name": "withdrawETH",
      "outputs": [],
      "stateMutability": "nonpayable",
      "type": "function"
    },
    {
      "inputs": [
        {
          "internalType": "uint256",
          "name": "amount",
          "type": "uint256"
        }
      ],
      "name": "withdrawSupportedToken",
      "outputs": [],
      "stateMutability": "nonpayable",
      "type": "function"
    },
    {
      "inputs": [
        {
          "internalType": "uint256",
          "name": "amount",
          "type": "uint256"
        }
      ],
      "name": "withdrawUSDC",
      "outputs": [],
      "stateMutability": "nonpayable",
      "type": "function"
    },
    {
      "stateMutability": "payable",
      "type": "receive"
    }
  ],
  "bytecode": "0x60806040526040516151f83803806151f88339818101604052810190610025919061075f565b6001600081905550600073ffffffffffffffffffffffffffffffffffffffff168973ffffffffffffffffffffffffffffffffffffffff160361009c576040517f08c379a000000000000000000000000000000000000000000000000000000000815260040161009390610886565b60405180910390fd5b600073ffffffffffffffffffffffffffffffffffffffff168873ffffffffffffffffffffffffffffffffffffffff160361010b576040517f08c379a0000000000000000000000000000000000000000000000000000000008152600401610102906108f2565b60405180910390fd5b600073ffffffffffffffffffffffffffffffffffffffff168573ffffffffffffffffffffffffffffffffffffffff160361017a576040517f08c379a00000000000000000000000000000000000000000000000000000000081526004016101719061095e565b60405180910390fd5b60008711801561018a5750600086115b6101c9576040517f08c379a00000000000000000000000000000000000000000000000000000000081526004016101c0906109ca565b60405180910390fd5b6000841180156101d95750600083115b610218576040517f08c379a000000000000000000000000000000000000000000000000000000000815260040161020f90610a36565b60405180910390fd5b6000341161025b576040517f08c379a000000000000000000000000000000000000000000000000000000000815260040161025290610aa2565b60405180910390fd5b33600860016101000a81548173ffffffffffffffffffffffffffffffffffffffff021916908373ffffffffffffffffffffffffffffffffffffffff16021790555088600160006101000a81548173ffffffffffffffffffffffffffffffffffffffff021916908373ffffffffffffffffffffffffffffffffffffffff16021790555087600260006101000a81548173ffffffffffffffffffffffffffffffffffffffff021916908373ffffffffffffffffffffffffffffffffffffffff16021790555084600360006101000a81548173ffffffffffffffffffffffffffffffffffffffff021916908373ffffffffffffffffffffffffffffffffffffffff1602179055508660048190555085600581905550836006819055508260078190555081600860006101000a81548160ff021916908360ff1602179055507fbfe611b001dfcd411432f7bf0d79b82b4b2ee81511edac123a3403c357fb972a33346040516103c7929190610ae0565b60405180910390a1600081111561067f576000600260009054906101000a900473ffffffffffffffffffffffffffffffffffffffff169050818173ffffffffffffffffffffffffffffffffffffffff166370a08231336040518263ffffffff1660e01b81526004016104399190610b09565b602060405180830381865afa158015610456573d6000803e3d6000fd5b505050506040513d601f19601f8201168201806040525081019061047a9190610b24565b10156104bb576040517f08c379a00000000000000000000000000000000000000000000000000000000081526004016104b290610b9d565b60405180910390fd5b818173ffffffffffffffffffffffffffffffffffffffff1663dd62ed3e33306040518363ffffffff1660e01b81526004016104f7929190610bbd565b602060405180830381865afa158015610514573d6000803e3d6000fd5b505050506040513d601f19601f820116820180604052508101906105389190610b24565b1015610579576040517f08c379a000000000000000000000000000000000000000000000000000000000815260040161057090610c32565b60405180910390fd5b8073ffffffffffffffffffffffffffffffffffffffff166323b872dd3330856040518463ffffffff1660e01b81526004016105b693929190610c52565b6020604051808303816000875af11580156105d5573d6000803e3d6000fd5b505050506040513d601f19601f820116820180604052508101906105f99190610cc1565b61062f576040517f045c4b0200000000000000000000000000000000000000000000000000000000815260040160405180910390fd5b3373ffffffffffffffffffffffffffffffffffffffff167f80ecc532cf2e08856601df42646970d676a686d8eeacbfd2038fae4ff288da56836040516106759190610cee565b60405180910390a2505b505050505050505050610d09565b600080fd5b600073ffffffffffffffffffffffffffffffffffffffff82169050919050565b60006106bd82610692565b9050919050565b6106cd816106b2565b81146106d857600080fd5b50565b6000815190506106ea816106c4565b92915050565b6000819050919050565b610703816106f0565b811461070e57600080fd5b50565b600081519050610720816106fa565b92915050565b600060ff82169050919050565b61073c81610726565b811461074757600080fd5b50565b60008151905061075981610733565b92915050565b60008060008060008060008060006101208a8c0312156107825761078161068d565b5b60006107908c828d016106db565b99505060206107a18c828d016106db565b98505060406107b28c828d01610711565b97505060606107c38c828d01610711565b96505060806107d48c828d016106db565b95505060a06107e58c828d01610711565b94505060c06107f68c828d01610711565b93505060e06108078c828d0161074a565b9250506101006108198c828d01610711565b9150509295985092959850929598565b600082825260208201905092915050565b7f496e76616c69642044616a75546f6b656e206164647265737300000000000000600082015250565b6000610870601983610829565b915061087b8261083a565b602082019050919050565b6000602082019050818103600083015261089f81610863565b9050919050565b7f496e76616c696420555344432061646472657373000000000000000000000000600082015250565b60006108dc601483610829565b91506108e7826108a6565b602082019050919050565b6000602082019050818103600083015261090b816108cf565b9050919050565b7f496e76616c696420537570706f72746564546f6b656e20616464726573730000600082015250565b6000610948601e83610829565b915061095382610912565b602082019050919050565b600060208201905081810360008301526109778161093b565b9050919050565b7f496e76616c696420555344432072617465730000000000000000000000000000600082015250565b60006109b4601283610829565b91506109bf8261097e565b602082019050919050565b600060208201905081810360008301526109e3816109a7565b9050919050565b7f496e76616c696420537570706f72746564546f6b656e20726174657300000000600082015250565b6000610a20601c83610829565b9150610a2b826109ea565b602082019050919050565b60006020820190508181036000830152610a4f81610a13565b9050919050565b7f4d7573742073656e642045544820647572696e67206465706c6f796d656e7400600082015250565b6000610a8c601f83610829565b9150610a9782610a56565b602082019050919050565b60006020820190508181036000830152610abb81610a7f565b9050919050565b610acb816106b2565b82525050565b610ada816106f0565b82525050565b6000604082019050610af56000830185610ac2565b610b026020830184610ad1565b9392505050565b6000602082019050610b1e6000830184610ac2565b92915050565b600060208284031215610b3a57610b3961068d565b5b6000610b4884828501610711565b91505092915050565b7f496e73756666696369656e7420555344432062616c616e636500000000000000600082015250565b6000610b87601983610829565b9150610b9282610b51565b602082019050919050565b60006020820190508181036000830152610bb681610b7a565b9050919050565b6000604082019050610bd26000830185610ac2565b610bdf6020830184610ac2565b9392505050565b7f496e73756666696369656e74205553444320616c6c6f77616e63650000000000600082015250565b6000610c1c601b83610829565b9150610c2782610be6565b602082019050919050565b60006020820190508181036000830152610c4b81610c0f565b9050919050565b6000606082019050610c676000830186610ac2565b610c746020830185610ac2565b610c816040830184610ad1565b949350505050565b60008115159050919050565b610c9e81610c89565b8114610ca957600080fd5b50565b600081519050610cbb81610c95565b92915050565b600060208284031215610cd757610cd661068d565b5b6000610ce584828501610cac565b91505092915050565b6000602082019050610d036000830184610ad1565b92915050565b6144e080610d186000396000f3fe6080604052600436106101dc5760003560e01c80638da5cb5b11610102578063c4ae316811610095578063de0aef9a11610064578063de0aef9a14610640578063e037f8f11461066b578063f14210a614610694578063f688bcfb146106bd5761021c565b8063c4ae3168146105aa578063c9f2798d146105c1578063ce2605af146105ec578063db81f99b146106175761021c565b8063a69cb9db116100d1578063a69cb9db14610500578063a87811101461052b578063ad5752e214610556578063c1419def1461057f5761021c565b80638da5cb5b1461047957806392348711146104a457806394ed1574146104cd578063a287585a146104d75761021c565b80634b00ec631161017a5780636e947298116101495780636e947298146103cf57806372ca219a146103fa578063883db8d1146104255780638d6d547d146104505761021c565b80634b00ec63146103295780634d2def0a146103525780635c7c8d5b1461037b5780635c975abb146103a45761021c565b806323038894116101b657806323038894146102a05780632558a64e146102cb5780633cfd1ccc146102f457806349190e811461031f5761021c565b806302d454571461022157806314b0cf951461024c5780631c9d677b146102775761021c565b3661021c577fbfe611b001dfcd411432f7bf0d79b82b4b2ee81511edac123a3403c357fb972a3334604051610212929190613bc4565b60405180910390a1005b600080fd5b34801561022d57600080fd5b506102366106e6565b6040516102439190613bed565b60405180910390f35b34801561025857600080fd5b5061026161070c565b60405161026e9190613c08565b60405180910390f35b34801561028357600080fd5b5061029e60048036038101906102999190613c54565b6107af565b005b3480156102ac57600080fd5b506102b5610b1e565b6040516102c29190613c9d565b60405180910390f35b3480156102d757600080fd5b506102f260048036038101906102ed9190613c54565b610b31565b005b34801561030057600080fd5b5061030961107e565b6040516103169190613c08565b60405180910390f35b610327611121565b005b34801561033557600080fd5b50610350600480360381019061034b9190613cb8565b6113f4565b005b34801561035e57600080fd5b5061037960048036038101906103749190613c54565b611544565b005b34801561038757600080fd5b506103a2600480360381019061039d9190613c54565b6119a0565b005b3480156103b057600080fd5b506103b9611e0a565b6040516103c69190613d3a565b60405180910390f35b3480156103db57600080fd5b506103e4611e1d565b6040516103f19190613c08565b60405180910390f35b34801561040657600080fd5b5061040f611e25565b60405161041c9190613c08565b60405180910390f35b34801561043157600080fd5b5061043a611e2b565b6040516104479190613c08565b60405180910390f35b34801561045c57600080fd5b5061047760048036038101906104729190613c54565b611e31565b005b34801561048557600080fd5b5061048e61235e565b60405161049b9190613bed565b60405180910390f35b3480156104b057600080fd5b506104cb60048036038101906104c69190613c54565b612384565b005b6104d56124f3565b005b3480156104e357600080fd5b506104fe60048036038101906104f99190613c54565b6127a4565b005b34801561050c57600080fd5b5061051561290d565b6040516105229190613bed565b60405180910390f35b34801561053757600080fd5b50610540612933565b60405161054d9190613c08565b60405180910390f35b34801561056257600080fd5b5061057d60048036038101906105789190613c54565b6129d6565b005b34801561058b57600080fd5b50610594612f31565b6040516105a19190613c9d565b60405180910390f35b3480156105b657600080fd5b506105bf612f36565b005b3480156105cd57600080fd5b506105d6612ff2565b6040516105e39190613c08565b60405180910390f35b3480156105f857600080fd5b50610601612ff8565b60405161060e9190613c08565b60405180910390f35b34801561062357600080fd5b5061063e60048036038101906106399190613c54565b612ffe565b005b34801561064c57600080fd5b5061065561316d565b6040516106629190613db4565b60405180910390f35b34801561067757600080fd5b50610692600480360381019061068d9190613c54565b613193565b005b3480156106a057600080fd5b506106bb60048036038101906106b69190613c54565b6136b2565b005b3480156106c957600080fd5b506106e460048036038101906106df9190613c54565b6137e9565b005b600260009054906101000a900473ffffffffffffffffffffffffffffffffffffffff1681565b6000600360009054906101000a900473ffffffffffffffffffffffffffffffffffffffff1673ffffffffffffffffffffffffffffffffffffffff166370a08231306040518263ffffffff1660e01b81526004016107699190613bed565b602060405180830381865afa158015610786573d6000803e3d6000fd5b505050506040513d601f19601f820116820180604052508101906107aa9190613de4565b905090565b6107b7613b1a565b600860159054906101000a900460ff1615610807576040517f08c379a00000000000000000000000000000000000000000000000000000000081526004016107fe90613e6e565b60405180910390fd5b60008103610841576040517f1f2a200500000000000000000000000000000000000000000000000000000000815260040160405180910390fd5b80600160009054906101000a900473ffffffffffffffffffffffffffffffffffffffff1673ffffffffffffffffffffffffffffffffffffffff166370a08231336040518263ffffffff1660e01b815260040161089d9190613bed565b602060405180830381865afa1580156108ba573d6000803e3d6000fd5b505050506040513d601f19601f820116820180604052508101906108de9190613de4565b1015610916576040517fe4455cae00000000000000000000000000000000000000000000000000000000815260040160405180910390fd5b80600160009054906101000a900473ffffffffffffffffffffffffffffffffffffffff1673ffffffffffffffffffffffffffffffffffffffff1663dd62ed3e33306040518363ffffffff1660e01b8152600401610974929190613e8e565b602060405180830381865afa158015610991573d6000803e3d6000fd5b505050506040513d601f19601f820116820180604052508101906109b59190613de4565b10156109ed576040517f13be252b00000000000000000000000000000000000000000000000000000000815260040160405180910390fd5b600160009054906101000a900473ffffffffffffffffffffffffffffffffffffffff1673ffffffffffffffffffffffffffffffffffffffff166323b872dd3330846040518463ffffffff1660e01b8152600401610a4c93929190613eb7565b6020604051808303816000875af1158015610a6b573d6000803e3d6000fd5b505050506040513d601f19601f82011682018060405250810190610a8f9190613f1a565b610ac5576040517f045c4b0200000000000000000000000000000000000000000000000000000000815260040160405180910390fd5b3373ffffffffffffffffffffffffffffffffffffffff167f337c69f01f88b6c1a3bd8d11f23e9900fa18bc0620e9000c7c4226ee847e96a282604051610b0b9190613c08565b60405180910390a2610b1b613b60565b50565b600860009054906101000a900460ff1681565b610b39613b1a565b600860159054906101000a900460ff1615610b89576040517f08c379a0000000000000000000000000000000000000000000000000000000008152600401610b8090613e6e565b60405180910390fd5b60008103610bc3576040517f1f2a200500000000000000000000000000000000000000000000000000000000815260040160405180910390fd5b600060066012610bd39190613f76565b600a610bdf91906140de565b60055483610bed9190614129565b610bf7919061419a565b905081600160009054906101000a900473ffffffffffffffffffffffffffffffffffffffff1673ffffffffffffffffffffffffffffffffffffffff166370a08231336040518263ffffffff1660e01b8152600401610c559190613bed565b602060405180830381865afa158015610c72573d6000803e3d6000fd5b505050506040513d601f19601f82011682018060405250810190610c969190613de4565b1015610cce576040517f0b5537c300000000000000000000000000000000000000000000000000000000815260040160405180910390fd5b81600160009054906101000a900473ffffffffffffffffffffffffffffffffffffffff1673ffffffffffffffffffffffffffffffffffffffff1663dd62ed3e33306040518363ffffffff1660e01b8152600401610d2c929190613e8e565b602060405180830381865afa158015610d49573d6000803e3d6000fd5b505050506040513d601f19601f82011682018060405250810190610d6d9190613de4565b1015610da5576040517f13be252b00000000000000000000000000000000000000000000000000000000815260040160405180910390fd5b600160009054906101000a900473ffffffffffffffffffffffffffffffffffffffff1673ffffffffffffffffffffffffffffffffffffffff166323b872dd3330856040518463ffffffff1660e01b8152600401610e0493929190613eb7565b6020604051808303816000875af1158015610e23573d6000803e3d6000fd5b505050506040513d601f19601f82011682018060405250810190610e479190613f1a565b610e7d576040517f045c4b0200000000000000000000000000000000000000000000000000000000815260040160405180910390fd5b6000600260009054906101000a900473ffffffffffffffffffffffffffffffffffffffff16905060008173ffffffffffffffffffffffffffffffffffffffff166370a08231306040518263ffffffff1660e01b8152600401610edf9190613bed565b602060405180830381865afa158015610efc573d6000803e3d6000fd5b505050506040513d601f19601f82011682018060405250810190610f209190613de4565b905082811015610f695782816040517fbc191ce9000000000000000000000000000000000000000000000000000000008152600401610f609291906141cb565b60405180910390fd5b8173ffffffffffffffffffffffffffffffffffffffff1663a9059cbb33856040518363ffffffff1660e01b8152600401610fa4929190613bc4565b6020604051808303816000875af1158015610fc3573d6000803e3d6000fd5b505050506040513d601f19601f82011682018060405250810190610fe79190613f1a565b61101d576040517f045c4b0200000000000000000000000000000000000000000000000000000000815260040160405180910390fd5b3373ffffffffffffffffffffffffffffffffffffffff167fb2352db38d4ea2a35d8061501d14d4177e27825afdaa66c6d1c37dedad76de4c8585600060405161106893929190614240565b60405180910390a250505061107b613b60565b50565b6000600260009054906101000a900473ffffffffffffffffffffffffffffffffffffffff1673ffffffffffffffffffffffffffffffffffffffff166370a08231306040518263ffffffff1660e01b81526004016110db9190613bed565b602060405180830381865afa1580156110f8573d6000803e3d6000fd5b505050506040513d601f19601f8201168201806040525081019061111c9190613de4565b905090565b611129613b1a565b600860159054906101000a900460ff1615611179576040517f08c379a000000000000000000000000000000000000000000000000000000000815260040161117090613e6e565b60405180910390fd5b600034036111b3576040517f1f2a200500000000000000000000000000000000000000000000000000000000815260040160405180910390fd5b6000600860009054906101000a900460ff1660126111d19190613f76565b600a6111dd91906140de565b600654346111eb9190614129565b6111f5919061419a565b90506000600360009054906101000a900473ffffffffffffffffffffffffffffffffffffffff16905060008173ffffffffffffffffffffffffffffffffffffffff166370a08231306040518263ffffffff1660e01b81526004016112599190613bed565b602060405180830381865afa158015611276573d6000803e3d6000fd5b505050506040513d601f19601f8201168201806040525081019061129a9190613de4565b9050828110156112e35782816040517fbc191ce90000000000000000000000000000000000000000000000000000000081526004016112da9291906141cb565b60405180910390fd5b8173ffffffffffffffffffffffffffffffffffffffff1663a9059cbb33856040518363ffffffff1660e01b815260040161131e929190613bc4565b6020604051808303816000875af115801561133d573d6000803e3d6000fd5b505050506040513d601f19601f820116820180604052508101906113619190613f1a565b611397576040517f045c4b0200000000000000000000000000000000000000000000000000000000815260040160405180910390fd5b3373ffffffffffffffffffffffffffffffffffffffff167fd2345c2dfa8c95a4c1163560fb25b8e465ce49e6b2bc15967d916c40509244cc34856040516113df9291906141cb565b60405180910390a25050506113f2613b60565b565b600860019054906101000a900473ffffffffffffffffffffffffffffffffffffffff1673ffffffffffffffffffffffffffffffffffffffff163373ffffffffffffffffffffffffffffffffffffffff1614611484576040517f08c379a000000000000000000000000000000000000000000000000000000000815260040161147b906142d6565b60405180910390fd5b6000841180156114945750600083115b6114d3576040517f08c379a00000000000000000000000000000000000000000000000000000000081526004016114ca90614342565b60405180910390fd5b6000821180156114e35750600081115b611522576040517f08c379a0000000000000000000000000000000000000000000000000000000008152600401611519906143ae565b60405180910390fd5b8360048190555082600581905550816006819055508060078190555050505050565b61154c613b1a565b600860159054906101000a900460ff161561159c576040517f08c379a000000000000000000000000000000000000000000000000000000000815260040161159390613e6e565b60405180910390fd5b600081036115d6576040517f1f2a200500000000000000000000000000000000000000000000000000000000815260040160405180910390fd5b60006006600a6115e691906140de565b6004546115f39190614129565b670de0b6b3a7640000836116079190614129565b611611919061419a565b90506000600260009054906101000a900473ffffffffffffffffffffffffffffffffffffffff169050828173ffffffffffffffffffffffffffffffffffffffff166370a08231336040518263ffffffff1660e01b81526004016116749190613bed565b602060405180830381865afa158015611691573d6000803e3d6000fd5b505050506040513d601f19601f820116820180604052508101906116b59190613de4565b10156116ed576040517fe4455cae00000000000000000000000000000000000000000000000000000000815260040160405180910390fd5b828173ffffffffffffffffffffffffffffffffffffffff1663dd62ed3e33306040518363ffffffff1660e01b8152600401611729929190613e8e565b602060405180830381865afa158015611746573d6000803e3d6000fd5b505050506040513d601f19601f8201168201806040525081019061176a9190613de4565b10156117a2576040517f13be252b00000000000000000000000000000000000000000000000000000000815260040160405180910390fd5b8073ffffffffffffffffffffffffffffffffffffffff166323b872dd3330866040518463ffffffff1660e01b81526004016117df93929190613eb7565b6020604051808303816000875af11580156117fe573d6000803e3d6000fd5b505050506040513d601f19601f820116820180604052508101906118229190613f1a565b611858576040517f045c4b0200000000000000000000000000000000000000000000000000000000815260040160405180910390fd5b8147101561189f5781476040517fbc191ce90000000000000000000000000000000000000000000000000000000081526004016118969291906141cb565b60405180910390fd5b60003373ffffffffffffffffffffffffffffffffffffffff16836040516118c5906143ff565b60006040518083038185875af1925050503d8060008114611902576040519150601f19603f3d011682016040523d82523d6000602084013e611907565b606091505b5050905080611942576040517fb12d13eb00000000000000000000000000000000000000000000000000000000815260040160405180910390fd5b3373ffffffffffffffffffffffffffffffffffffffff167f0eb5bd79dbe1e692f74c8ef45c4a2ee8a52916c8dd0eb663b1de442b27c694ed858560405161198a9291906141cb565b60405180910390a250505061199d613b60565b50565b6119a8613b1a565b600860159054906101000a900460ff16156119f8576040517f08c379a00000000000000000000000000000000000000000000000000000000081526004016119ef90613e6e565b60405180910390fd5b60008103611a32576040517f1f2a200500000000000000000000000000000000000000000000000000000000815260040160405180910390fd5b6000600860009054906101000a900460ff16600a611a5091906140de565b600654611a5d9190614129565b670de0b6b3a764000083611a719190614129565b611a7b919061419a565b90506000600360009054906101000a900473ffffffffffffffffffffffffffffffffffffffff169050828173ffffffffffffffffffffffffffffffffffffffff166370a08231336040518263ffffffff1660e01b8152600401611ade9190613bed565b602060405180830381865afa158015611afb573d6000803e3d6000fd5b505050506040513d601f19601f82011682018060405250810190611b1f9190613de4565b1015611b57576040517fe4455cae00000000000000000000000000000000000000000000000000000000815260040160405180910390fd5b828173ffffffffffffffffffffffffffffffffffffffff1663dd62ed3e33306040518363ffffffff1660e01b8152600401611b93929190613e8e565b602060405180830381865afa158015611bb0573d6000803e3d6000fd5b505050506040513d601f19601f82011682018060405250810190611bd49190613de4565b1015611c0c576040517f13be252b00000000000000000000000000000000000000000000000000000000815260040160405180910390fd5b8073ffffffffffffffffffffffffffffffffffffffff166323b872dd3330866040518463ffffffff1660e01b8152600401611c4993929190613eb7565b6020604051808303816000875af1158015611c68573d6000803e3d6000fd5b505050506040513d601f19601f82011682018060405250810190611c8c9190613f1a565b611cc2576040517f045c4b0200000000000000000000000000000000000000000000000000000000815260040160405180910390fd5b81471015611d095781476040517fbc191ce9000000000000000000000000000000000000000000000000000000008152600401611d009291906141cb565b60405180910390fd5b60003373ffffffffffffffffffffffffffffffffffffffff1683604051611d2f906143ff565b60006040518083038185875af1925050503d8060008114611d6c576040519150601f19603f3d011682016040523d82523d6000602084013e611d71565b606091505b5050905080611dac576040517fb12d13eb00000000000000000000000000000000000000000000000000000000815260040160405180910390fd5b3373ffffffffffffffffffffffffffffffffffffffff167fba7e4b76de03f61e8362b5944bebb38986cad09e20432f2838f0ab11896b7de68585604051611df49291906141cb565b60405180910390a2505050611e07613b60565b50565b600860159054906101000a900460ff1681565b600047905090565b60075481565b60065481565b611e39613b1a565b600860159054906101000a900460ff1615611e89576040517f08c379a0000000000000000000000000000000000000000000000000000000008152600401611e8090613e6e565b60405180910390fd5b60008103611ec3576040517f1f2a200500000000000000000000000000000000000000000000000000000000815260040160405180910390fd5b6000600860009054906101000a900460ff16600a611ee191906140de565b600754611eee9190614129565b670de0b6b3a764000083611f029190614129565b611f0c919061419a565b90506000600360009054906101000a900473ffffffffffffffffffffffffffffffffffffffff169050828173ffffffffffffffffffffffffffffffffffffffff166370a08231336040518263ffffffff1660e01b8152600401611f6f9190613bed565b602060405180830381865afa158015611f8c573d6000803e3d6000fd5b505050506040513d601f19601f82011682018060405250810190611fb09190613de4565b1015611fe8576040517fe4455cae00000000000000000000000000000000000000000000000000000000815260040160405180910390fd5b828173ffffffffffffffffffffffffffffffffffffffff1663dd62ed3e33306040518363ffffffff1660e01b8152600401612024929190613e8e565b602060405180830381865afa158015612041573d6000803e3d6000fd5b505050506040513d601f19601f820116820180604052508101906120659190613de4565b101561209d576040517f13be252b00000000000000000000000000000000000000000000000000000000815260040160405180910390fd5b8073ffffffffffffffffffffffffffffffffffffffff166323b872dd3330866040518463ffffffff1660e01b81526004016120da93929190613eb7565b6020604051808303816000875af11580156120f9573d6000803e3d6000fd5b505050506040513d601f19601f8201168201806040525081019061211d9190613f1a565b612153576040517f045c4b0200000000000000000000000000000000000000000000000000000000815260040160405180910390fd5b81600160009054906101000a900473ffffffffffffffffffffffffffffffffffffffff1673ffffffffffffffffffffffffffffffffffffffff166370a08231306040518263ffffffff1660e01b81526004016121af9190613bed565b602060405180830381865afa1580156121cc573d6000803e3d6000fd5b505050506040513d601f19601f820116820180604052508101906121f09190613de4565b1015612228576040517f786e0a9900000000000000000000000000000000000000000000000000000000815260040160405180910390fd5b600160009054906101000a900473ffffffffffffffffffffffffffffffffffffffff1673ffffffffffffffffffffffffffffffffffffffff1663a9059cbb33846040518363ffffffff1660e01b8152600401612285929190613bc4565b6020604051808303816000875af11580156122a4573d6000803e3d6000fd5b505050506040513d601f19601f820116820180604052508101906122c89190613f1a565b6122fe576040517f045c4b0200000000000000000000000000000000000000000000000000000000815260040160405180910390fd5b3373ffffffffffffffffffffffffffffffffffffffff167fb2352db38d4ea2a35d8061501d14d4177e27825afdaa66c6d1c37dedad76de4c8484600160405161234993929190614460565b60405180910390a2505061235b613b60565b50565b600860019054906101000a900473ffffffffffffffffffffffffffffffffffffffff1681565b600860019054906101000a900473ffffffffffffffffffffffffffffffffffffffff1673ffffffffffffffffffffffffffffffffffffffff163373ffffffffffffffffffffffffffffffffffffffff1614612414576040517f08c379a000000000000000000000000000000000000000000000000000000000815260040161240b906142d6565b60405180910390fd5b6000600360009054906101000a900473ffffffffffffffffffffffffffffffffffffffff1690508073ffffffffffffffffffffffffffffffffffffffff1663a9059cbb33846040518363ffffffff1660e01b8152600401612476929190613bc4565b6020604051808303816000875af1158015612495573d6000803e3d6000fd5b505050506040513d601f19601f820116820180604052508101906124b99190613f1a565b6124ef576040517f045c4b0200000000000000000000000000000000000000000000000000000000815260040160405180910390fd5b5050565b6124fb613b1a565b600860159054906101000a900460ff161561254b576040517f08c379a000000000000000000000000000000000000000000000000000000000815260040161254290613e6e565b60405180910390fd5b60003403612585576040517f1f2a200500000000000000000000000000000000000000000000000000000000815260040160405180910390fd5b600064e8d4a510006004543461259b9190614129565b6125a5919061419a565b90506000600260009054906101000a900473ffffffffffffffffffffffffffffffffffffffff16905060008173ffffffffffffffffffffffffffffffffffffffff166370a08231306040518263ffffffff1660e01b81526004016126099190613bed565b602060405180830381865afa158015612626573d6000803e3d6000fd5b505050506040513d601f19601f8201168201806040525081019061264a9190613de4565b9050828110156126935782816040517fbc191ce900000000000000000000000000000000000000000000000000000000815260040161268a9291906141cb565b60405180910390fd5b8173ffffffffffffffffffffffffffffffffffffffff1663a9059cbb33856040518363ffffffff1660e01b81526004016126ce929190613bc4565b6020604051808303816000875af11580156126ed573d6000803e3d6000fd5b505050506040513d601f19601f820116820180604052508101906127119190613f1a565b612747576040517f045c4b0200000000000000000000000000000000000000000000000000000000815260040160405180910390fd5b3373ffffffffffffffffffffffffffffffffffffffff167f4a455cf8e9f1c71cf2aff60b08fd5b0b6efe7ae57afa973febc985064b353489348560405161278f9291906141cb565b60405180910390a25050506127a2613b60565b565b600860019054906101000a900473ffffffffffffffffffffffffffffffffffffffff1673ffffffffffffffffffffffffffffffffffffffff163373ffffffffffffffffffffffffffffffffffffffff1614612834576040517f08c379a000000000000000000000000000000000000000000000000000000000815260040161282b906142d6565b60405180910390fd5b600160009054906101000a900473ffffffffffffffffffffffffffffffffffffffff1673ffffffffffffffffffffffffffffffffffffffff1663a9059cbb33836040518363ffffffff1660e01b8152600401612891929190613bc4565b6020604051808303816000875af11580156128b0573d6000803e3d6000fd5b505050506040513d601f19601f820116820180604052508101906128d49190613f1a565b61290a576040517f045c4b0200000000000000000000000000000000000000000000000000000000815260040160405180910390fd5b50565b600360009054906101000a900473ffffffffffffffffffffffffffffffffffffffff1681565b6000600160009054906101000a900473ffffffffffffffffffffffffffffffffffffffff1673ffffffffffffffffffffffffffffffffffffffff166370a08231306040518263ffffffff1660e01b81526004016129909190613bed565b602060405180830381865afa1580156129ad573d6000803e3d6000fd5b505050506040513d601f19601f820116820180604052508101906129d19190613de4565b905090565b6129de613b1a565b600860159054906101000a900460ff1615612a2e576040517f08c379a0000000000000000000000000000000000000000000000000000000008152600401612a2590613e6e565b60405180910390fd5b60008103612a68576040517f1f2a200500000000000000000000000000000000000000000000000000000000815260040160405180910390fd5b6000600860009054906101000a900460ff166012612a869190613f76565b600a612a9291906140de565b60075483612aa09190614129565b612aaa919061419a565b905081600160009054906101000a900473ffffffffffffffffffffffffffffffffffffffff1673ffffffffffffffffffffffffffffffffffffffff166370a08231336040518263ffffffff1660e01b8152600401612b089190613bed565b602060405180830381865afa158015612b25573d6000803e3d6000fd5b505050506040513d601f19601f82011682018060405250810190612b499190613de4565b1015612b81576040517f0b5537c300000000000000000000000000000000000000000000000000000000815260040160405180910390fd5b81600160009054906101000a900473ffffffffffffffffffffffffffffffffffffffff1673ffffffffffffffffffffffffffffffffffffffff1663dd62ed3e33306040518363ffffffff1660e01b8152600401612bdf929190613e8e565b602060405180830381865afa158015612bfc573d6000803e3d6000fd5b505050506040513d601f19601f82011682018060405250810190612c209190613de4565b1015612c58576040517f13be252b00000000000000000000000000000000000000000000000000000000815260040160405180910390fd5b600160009054906101000a900473ffffffffffffffffffffffffffffffffffffffff1673ffffffffffffffffffffffffffffffffffffffff166323b872dd3330856040518463ffffffff1660e01b8152600401612cb793929190613eb7565b6020604051808303816000875af1158015612cd6573d6000803e3d6000fd5b505050506040513d601f19601f82011682018060405250810190612cfa9190613f1a565b612d30576040517f045c4b0200000000000000000000000000000000000000000000000000000000815260040160405180910390fd5b6000600360009054906101000a900473ffffffffffffffffffffffffffffffffffffffff16905060008173ffffffffffffffffffffffffffffffffffffffff166370a08231306040518263ffffffff1660e01b8152600401612d929190613bed565b602060405180830381865afa158015612daf573d6000803e3d6000fd5b505050506040513d601f19601f82011682018060405250810190612dd39190613de4565b905082811015612e1c5782816040517fbc191ce9000000000000000000000000000000000000000000000000000000008152600401612e139291906141cb565b60405180910390fd5b8173ffffffffffffffffffffffffffffffffffffffff1663a9059cbb33856040518363ffffffff1660e01b8152600401612e57929190613bc4565b6020604051808303816000875af1158015612e76573d6000803e3d6000fd5b505050506040513d601f19601f82011682018060405250810190612e9a9190613f1a565b612ed0576040517f045c4b0200000000000000000000000000000000000000000000000000000000815260040160405180910390fd5b3373ffffffffffffffffffffffffffffffffffffffff167fb2352db38d4ea2a35d8061501d14d4177e27825afdaa66c6d1c37dedad76de4c85856000604051612f1b93929190614460565b60405180910390a2505050612f2e613b60565b50565b600681565b600860019054906101000a900473ffffffffffffffffffffffffffffffffffffffff1673ffffffffffffffffffffffffffffffffffffffff163373ffffffffffffffffffffffffffffffffffffffff1614612fc6576040517f08c379a0000000000000000000000000000000000000000000000000000000008152600401612fbd906142d6565b60405180910390fd5b600860159054906101000a900460ff1615600860156101000a81548160ff021916908315150217905550565b60055481565b60045481565b600860019054906101000a900473ffffffffffffffffffffffffffffffffffffffff1673ffffffffffffffffffffffffffffffffffffffff163373ffffffffffffffffffffffffffffffffffffffff161461308e576040517f08c379a0000000000000000000000000000000000000000000000000000000008152600401613085906142d6565b60405180910390fd5b6000600260009054906101000a900473ffffffffffffffffffffffffffffffffffffffff1690508073ffffffffffffffffffffffffffffffffffffffff1663a9059cbb33846040518363ffffffff1660e01b81526004016130f0929190613bc4565b6020604051808303816000875af115801561310f573d6000803e3d6000fd5b505050506040513d601f19601f820116820180604052508101906131339190613f1a565b613169576040517f045c4b0200000000000000000000000000000000000000000000000000000000815260040160405180910390fd5b5050565b600160009054906101000a900473ffffffffffffffffffffffffffffffffffffffff1681565b61319b613b1a565b600860159054906101000a900460ff16156131eb576040517f08c379a00000000000000000000000000000000000000000000000000000000081526004016131e290613e6e565b60405180910390fd5b60008103613225576040517f1f2a200500000000000000000000000000000000000000000000000000000000815260040160405180910390fd5b60006006600a61323591906140de565b6005546132429190614129565b670de0b6b3a7640000836132569190614129565b613260919061419a565b90506000600260009054906101000a900473ffffffffffffffffffffffffffffffffffffffff169050828173ffffffffffffffffffffffffffffffffffffffff166370a08231336040518263ffffffff1660e01b81526004016132c39190613bed565b602060405180830381865afa1580156132e0573d6000803e3d6000fd5b505050506040513d601f19601f820116820180604052508101906133049190613de4565b101561333c576040517fe4455cae00000000000000000000000000000000000000000000000000000000815260040160405180910390fd5b828173ffffffffffffffffffffffffffffffffffffffff1663dd62ed3e33306040518363ffffffff1660e01b8152600401613378929190613e8e565b602060405180830381865afa158015613395573d6000803e3d6000fd5b505050506040513d601f19601f820116820180604052508101906133b99190613de4565b10156133f1576040517f13be252b00000000000000000000000000000000000000000000000000000000815260040160405180910390fd5b8073ffffffffffffffffffffffffffffffffffffffff166323b872dd3330866040518463ffffffff1660e01b815260040161342e93929190613eb7565b6020604051808303816000875af115801561344d573d6000803e3d6000fd5b505050506040513d601f19601f820116820180604052508101906134719190613f1a565b6134a7576040517f045c4b0200000000000000000000000000000000000000000000000000000000815260040160405180910390fd5b81600160009054906101000a900473ffffffffffffffffffffffffffffffffffffffff1673ffffffffffffffffffffffffffffffffffffffff166370a08231306040518263ffffffff1660e01b81526004016135039190613bed565b602060405180830381865afa158015613520573d6000803e3d6000fd5b505050506040513d601f19601f820116820180604052508101906135449190613de4565b101561357c576040517f786e0a9900000000000000000000000000000000000000000000000000000000815260040160405180910390fd5b600160009054906101000a900473ffffffffffffffffffffffffffffffffffffffff1673ffffffffffffffffffffffffffffffffffffffff1663a9059cbb33846040518363ffffffff1660e01b81526004016135d9929190613bc4565b6020604051808303816000875af11580156135f8573d6000803e3d6000fd5b505050506040513d601f19601f8201168201806040525081019061361c9190613f1a565b613652576040517f045c4b0200000000000000000000000000000000000000000000000000000000815260040160405180910390fd5b3373ffffffffffffffffffffffffffffffffffffffff167fb2352db38d4ea2a35d8061501d14d4177e27825afdaa66c6d1c37dedad76de4c8484600160405161369d93929190614240565b60405180910390a250506136af613b60565b50565b600860019054906101000a900473ffffffffffffffffffffffffffffffffffffffff1673ffffffffffffffffffffffffffffffffffffffff163373ffffffffffffffffffffffffffffffffffffffff1614613742576040517f08c379a0000000000000000000000000000000000000000000000000000000008152600401613739906142d6565b60405180910390fd5b60003373ffffffffffffffffffffffffffffffffffffffff1682604051613768906143ff565b60006040518083038185875af1925050503d80600081146137a5576040519150601f19603f3d011682016040523d82523d6000602084013e6137aa565b606091505b50509050806137e5576040517fb12d13eb00000000000000000000000000000000000000000000000000000000815260040160405180910390fd5b5050565b6137f1613b1a565b600860159054906101000a900460ff1615613841576040517f08c379a000000000000000000000000000000000000000000000000000000000815260040161383890613e6e565b60405180910390fd5b6000810361387b576040517f1f2a200500000000000000000000000000000000000000000000000000000000815260040160405180910390fd5b6000600260009054906101000a900473ffffffffffffffffffffffffffffffffffffffff169050818173ffffffffffffffffffffffffffffffffffffffff166370a08231336040518263ffffffff1660e01b81526004016138dc9190613bed565b602060405180830381865afa1580156138f9573d6000803e3d6000fd5b505050506040513d601f19601f8201168201806040525081019061391d9190613de4565b1015613955576040517fe4455cae00000000000000000000000000000000000000000000000000000000815260040160405180910390fd5b818173ffffffffffffffffffffffffffffffffffffffff1663dd62ed3e33306040518363ffffffff1660e01b8152600401613991929190613e8e565b602060405180830381865afa1580156139ae573d6000803e3d6000fd5b505050506040513d601f19601f820116820180604052508101906139d29190613de4565b1015613a0a576040517f13be252b00000000000000000000000000000000000000000000000000000000815260040160405180910390fd5b8073ffffffffffffffffffffffffffffffffffffffff166323b872dd3330856040518463ffffffff1660e01b8152600401613a4793929190613eb7565b6020604051808303816000875af1158015613a66573d6000803e3d6000fd5b505050506040513d601f19601f82011682018060405250810190613a8a9190613f1a565b613ac0576040517f045c4b0200000000000000000000000000000000000000000000000000000000815260040160405180910390fd5b3373ffffffffffffffffffffffffffffffffffffffff167f80ecc532cf2e08856601df42646970d676a686d8eeacbfd2038fae4ff288da5683604051613b069190613c08565b60405180910390a250613b17613b60565b50565b600260005403613b56576040517f3ee5aeb500000000000000000000000000000000000000000000000000000000815260040160405180910390fd5b6002600081905550565b6001600081905550565b600073ffffffffffffffffffffffffffffffffffffffff82169050919050565b6000613b9582613b6a565b9050919050565b613ba581613b8a565b82525050565b6000819050919050565b613bbe81613bab565b82525050565b6000604082019050613bd96000830185613b9c565b613be66020830184613bb5565b9392505050565b6000602082019050613c026000830184613b9c565b92915050565b6000602082019050613c1d6000830184613bb5565b92915050565b600080fd5b613c3181613bab565b8114613c3c57600080fd5b50565b600081359050613c4e81613c28565b92915050565b600060208284031215613c6a57613c69613c23565b5b6000613c7884828501613c3f565b91505092915050565b600060ff82169050919050565b613c9781613c81565b82525050565b6000602082019050613cb26000830184613c8e565b92915050565b60008060008060808587031215613cd257613cd1613c23565b5b6000613ce087828801613c3f565b9450506020613cf187828801613c3f565b9350506040613d0287828801613c3f565b9250506060613d1387828801613c3f565b91505092959194509250565b60008115159050919050565b613d3481613d1f565b82525050565b6000602082019050613d4f6000830184613d2b565b92915050565b6000819050919050565b6000613d7a613d75613d7084613b6a565b613d55565b613b6a565b9050919050565b6000613d8c82613d5f565b9050919050565b6000613d9e82613d81565b9050919050565b613dae81613d93565b82525050565b6000602082019050613dc96000830184613da5565b92915050565b600081519050613dde81613c28565b92915050565b600060208284031215613dfa57613df9613c23565b5b6000613e0884828501613dcf565b91505092915050565b600082825260208201905092915050565b7f436f6e7472616374207061757365640000000000000000000000000000000000600082015250565b6000613e58600f83613e11565b9150613e6382613e22565b602082019050919050565b60006020820190508181036000830152613e8781613e4b565b9050919050565b6000604082019050613ea36000830185613b9c565b613eb06020830184613b9c565b9392505050565b6000606082019050613ecc6000830186613b9c565b613ed96020830185613b9c565b613ee66040830184613bb5565b949350505050565b613ef781613d1f565b8114613f0257600080fd5b50565b600081519050613f1481613eee565b92915050565b600060208284031215613f3057613f2f613c23565b5b6000613f3e84828501613f05565b91505092915050565b7f4e487b7100000000000000000000000000000000000000000000000000000000600052601160045260246000fd5b6000613f8182613c81565b9150613f8c83613c81565b9250828203905060ff811115613fa557613fa4613f47565b5b92915050565b60008160011c9050919050565b6000808291508390505b600185111561400257808604811115613fde57613fdd613f47565b5b6001851615613fed5780820291505b8081029050613ffb85613fab565b9450613fc2565b94509492505050565b60008261401b57600190506140d7565b8161402957600090506140d7565b816001811461403f576002811461404957614078565b60019150506140d7565b60ff84111561405b5761405a613f47565b5b8360020a91508482111561407257614071613f47565b5b506140d7565b5060208310610133831016604e8410600b84101617156140ad5782820a9050838111156140a8576140a7613f47565b5b6140d7565b6140ba8484846001613fb8565b925090508184048111156140d1576140d0613f47565b5b81810290505b9392505050565b60006140e982613bab565b91506140f483613c81565b92506141217fffffffffffffffffffffffffffffffffffffffffffffffffffffffffffffffff848461400b565b905092915050565b600061413482613bab565b915061413f83613bab565b925082820261414d81613bab565b9150828204841483151761416457614163613f47565b5b5092915050565b7f4e487b7100000000000000000000000000000000000000000000000000000000600052601260045260246000fd5b60006141a582613bab565b91506141b083613bab565b9250826141c0576141bf61416b565b5b828204905092915050565b60006040820190506141e06000830185613bb5565b6141ed6020830184613bb5565b9392505050565b7f5553444300000000000000000000000000000000000000000000000000000000600082015250565b600061422a600483613e11565b9150614235826141f4565b602082019050919050565b600060808201905081810360008301526142598161421d565b90506142686020830186613bb5565b6142756040830185613bb5565b6142826060830184613d2b565b949350505050565b7f4e6f74206f776e65720000000000000000000000000000000000000000000000600082015250565b60006142c0600983613e11565b91506142cb8261428a565b602082019050919050565b600060208201905081810360008301526142ef816142b3565b9050919050565b7f496e76616c696420555344432072617465730000000000000000000000000000600082015250565b600061432c601283613e11565b9150614337826142f6565b602082019050919050565b6000602082019050818103600083015261435b8161431f565b9050919050565b7f496e76616c696420537570706f72746564546f6b656e20726174657300000000600082015250565b6000614398601c83613e11565b91506143a382614362565b602082019050919050565b600060208201905081810360008301526143c78161438b565b9050919050565b600081905092915050565b50565b60006143e96000836143ce565b91506143f4826143d9565b600082019050919050565b600061440a826143dc565b9150819050919050565b7f537570706f72746564546f6b656e000000000000000000000000000000000000600082015250565b600061444a600e83613e11565b915061445582614414565b602082019050919050565b600060808201905081810360008301526144798161443d565b90506144886020830186613bb5565b6144956040830185613bb5565b6144a26060830184613d2b565b94935050505056fea2646970667358221220144f4e4c55931c556fe85e0ebec8725f3ed395ae2da6bf87be72e8325701d70c64736f6c634300081c0033",
  "linkReferences": {},
  "deployedLinkReferences": {}
}