{
  "_format": "hh-sol-artifact-1",
  "contractName": "ExchangeManager",
  "sourceName": "contracts/ExchangeManager.sol",
  "abi": [
    {
      "inputs": [
        {
          "internalType": "address",
          "name": "_dajuToken",
          "type": "address"
        },
        {
          "internalType": "address",
          "name": "_usdcAddress",
          "type": "address"
        },
        {
          "internalType": "uint256",
          "name": "_usdcToEthRate",
          "type": "uint256"
        },
        {
          "internalType": "uint256",
          "name": "_usdcToDajuRate",
          "type": "uint256"
        },
        {
          "internalType": "address",
          "name": "_supportedTokenAddress",
          "type": "address"
        },
        {
          "internalType": "uint256",
          "name": "_supportedTokenToEthRate",
          "type": "uint256"
        },
        {
          "internalType": "uint256",
          "name": "_supportedTokenToDajuRate",
          "type": "uint256"
        },
        {
          "internalType": "uint8",
          "name": "_supportedTokenDecimals",
          "type": "uint8"
        }
      ],
      "stateMutability": "nonpayable",
      "type": "constructor"
    },
    {
      "inputs": [],
      "name": "ETHTransferFailed",
      "type": "error"
    },
    {
      "inputs": [],
      "name": "InsufficientAllowance",
      "type": "error"
    },
    {
      "inputs": [],
      "name": "InsufficientContractBalance",
      "type": "error"
    },
    {
      "inputs": [],
      "name": "InsufficientDajuBalance",
      "type": "error"
    },
    {
      "inputs": [],
      "name": "InsufficientTokenBalance",
      "type": "error"
    },
    {
      "inputs": [
        {
          "internalType": "uint256",
          "name": "required",
          "type": "uint256"
        },
        {
          "internalType": "uint256",
          "name": "available",
          "type": "uint256"
        }
      ],
      "name": "InsufficientTokenReserves",
      "type": "error"
    },
    {
      "inputs": [],
      "name": "ReentrancyGuardReentrantCall",
      "type": "error"
    },
    {
      "inputs": [],
      "name": "TokenTransferFailed",
      "type": "error"
    },
    {
      "inputs": [],
      "name": "ZeroAmount",
      "type": "error"
    },
    {
      "anonymous": false,
      "inputs": [
        {
          "indexed": true,
          "internalType": "address",
          "name": "user",
          "type": "address"
        },
        {
          "indexed": false,
          "internalType": "uint256",
          "name": "tokenAmount",
          "type": "uint256"
        },
        {
          "indexed": false,
          "internalType": "uint256",
          "name": "ethAmount",
          "type": "uint256"
        }
      ],
      "name": "BuyETHWithSupportedToken",
      "type": "event"
    },
    {
      "anonymous": false,
      "inputs": [
        {
          "indexed": true,
          "internalType": "address",
          "name": "user",
          "type": "address"
        },
        {
          "indexed": false,
          "internalType": "uint256",
          "name": "usdcAmount",
          "type": "uint256"
        },
        {
          "indexed": false,
          "internalType": "uint256",
          "name": "ethAmount",
          "type": "uint256"
        }
      ],
      "name": "BuyETHWithUSDC",
      "type": "event"
    },
    {
      "anonymous": false,
      "inputs": [
        {
          "indexed": false,
          "internalType": "address",
          "name": "from",
          "type": "address"
        },
        {
          "indexed": false,
          "internalType": "uint256",
          "name": "amount",
          "type": "uint256"
        }
      ],
      "name": "ETHReceived",
      "type": "event"
    },
    {
      "anonymous": false,
      "inputs": [
        {
          "indexed": true,
          "internalType": "address",
          "name": "user",
          "type": "address"
        },
        {
          "indexed": false,
          "internalType": "string",
          "name": "tokenSymbol",
          "type": "string"
        },
        {
          "indexed": false,
          "internalType": "uint256",
          "name": "inputAmount",
          "type": "uint256"
        },
        {
          "indexed": false,
          "internalType": "uint256",
          "name": "outputAmount",
          "type": "uint256"
        },
        {
          "indexed": false,
          "internalType": "bool",
          "name": "isBuy",
          "type": "bool"
        }
      ],
      "name": "ExchangeCompleted",
      "type": "event"
    },
    {
      "anonymous": false,
      "inputs": [
        {
          "indexed": true,
          "internalType": "address",
          "name": "user",
          "type": "address"
        },
        {
          "indexed": false,
          "internalType": "uint256",
          "name": "ethAmount",
          "type": "uint256"
        },
        {
          "indexed": false,
          "internalType": "uint256",
          "name": "tokenAmount",
          "type": "uint256"
        }
      ],
      "name": "SellETHForSupportedToken",
      "type": "event"
    },
    {
      "anonymous": false,
      "inputs": [
        {
          "indexed": true,
          "internalType": "address",
          "name": "user",
          "type": "address"
        },
        {
          "indexed": false,
          "internalType": "uint256",
          "name": "ethAmount",
          "type": "uint256"
        },
        {
          "indexed": false,
          "internalType": "uint256",
          "name": "usdcAmount",
          "type": "uint256"
        }
      ],
      "name": "SellETHForUSDC",
      "type": "event"
    },
    {
      "anonymous": false,
      "inputs": [
        {
          "indexed": true,
          "internalType": "address",
          "name": "from",
          "type": "address"
        },
        {
          "indexed": false,
          "internalType": "uint256",
          "name": "amount",
          "type": "uint256"
        }
      ],
      "name": "USDCDeposited",
      "type": "event"
    },
    {
      "inputs": [],
      "name": "USDC_DECIMALS",
      "outputs": [
        {
          "internalType": "uint8",
          "name": "",
          "type": "uint8"
        }
      ],
      "stateMutability": "view",
      "type": "function"
    },
    {
      "inputs": [
        {
          "internalType": "uint256",
          "name": "tokenAmount",
          "type": "uint256"
        }
      ],
      "name": "buyETHWithSupportedToken",
      "outputs": [],
      "stateMutability": "nonpayable",
      "type": "function"
    },
    {
      "inputs": [
        {
          "internalType": "uint256",
          "name": "usdcAmount",
          "type": "uint256"
        }
      ],
      "name": "buyETHWithUSDC",
      "outputs": [],
      "stateMutability": "nonpayable",
      "type": "function"
    },
    {
      "inputs": [],
      "name": "dajuToken",
      "outputs": [
        {
          "internalType": "contract DajuToken",
          "name": "",
          "type": "address"
        }
      ],
      "stateMutability": "view",
      "type": "function"
    },
    {
      "inputs": [
        {
          "internalType": "uint256",
          "name": "usdcAmount",
          "type": "uint256"
        }
      ],
      "name": "depositUSDC",
      "outputs": [],
      "stateMutability": "nonpayable",
      "type": "function"
    },
    {
      "inputs": [
        {
          "internalType": "uint256",
          "name": "dajuAmount",
          "type": "uint256"
        }
      ],
      "name": "exchangeDAJUForSupportedToken",
      "outputs": [],
      "stateMutability": "nonpayable",
      "type": "function"
    },
    {
      "inputs": [
        {
          "internalType": "uint256",
          "name": "dajuAmount",
          "type": "uint256"
        }
      ],
      "name": "exchangeDAJUForUSDC",
      "outputs": [],
      "stateMutability": "nonpayable",
      "type": "function"
    },
    {
      "inputs": [
        {
          "internalType": "uint256",
          "name": "tokenAmount",
          "type": "uint256"
        }
      ],
      "name": "exchangeSupportedTokenForDAJU",
      "outputs": [],
      "stateMutability": "nonpayable",
      "type": "function"
    },
    {
      "inputs": [
        {
          "internalType": "uint256",
          "name": "usdcAmount",
          "type": "uint256"
        }
      ],
      "name": "exchangeUSDCForDAJU",
      "outputs": [],
      "stateMutability": "nonpayable",
      "type": "function"
    },
    {
      "inputs": [],
      "name": "paused",
      "outputs": [
        {
          "internalType": "bool",
          "name": "",
          "type": "bool"
        }
      ],
      "stateMutability": "view",
      "type": "function"
    },
    {
      "inputs": [],
      "name": "sellETHForSupportedToken",
      "outputs": [],
      "stateMutability": "payable",
      "type": "function"
    },
    {
      "inputs": [],
      "name": "sellETHForUSDC",
      "outputs": [],
      "stateMutability": "payable",
      "type": "function"
    },
    {
      "inputs": [],
      "name": "supportedTokenAddress",
      "outputs": [
        {
          "internalType": "address",
          "name": "",
          "type": "address"
        }
      ],
      "stateMutability": "view",
      "type": "function"
    },
    {
      "inputs": [],
      "name": "supportedTokenDecimals",
      "outputs": [
        {
          "internalType": "uint8",
          "name": "",
          "type": "uint8"
        }
      ],
      "stateMutability": "view",
      "type": "function"
    },
    {
      "inputs": [],
      "name": "supportedTokenToDajuRate",
      "outputs": [
        {
          "internalType": "uint256",
          "name": "",
          "type": "uint256"
        }
      ],
      "stateMutability": "view",
      "type": "function"
    },
    {
      "inputs": [],
      "name": "supportedTokenToEthRate",
      "outputs": [
        {
          "internalType": "uint256",
          "name": "",
          "type": "uint256"
        }
      ],
      "stateMutability": "view",
      "type": "function"
    },
    {
      "inputs": [],
      "name": "usdcAddress",
      "outputs": [
        {
          "internalType": "address",
          "name": "",
          "type": "address"
        }
      ],
      "stateMutability": "view",
      "type": "function"
    },
    {
      "inputs": [],
      "name": "usdcToDajuRate",
      "outputs": [
        {
          "internalType": "uint256",
          "name": "",
          "type": "uint256"
        }
      ],
      "stateMutability": "view",
      "type": "function"
    },
    {
      "inputs": [],
      "name": "usdcToEthRate",
      "outputs": [
        {
          "internalType": "uint256",
          "name": "",
          "type": "uint256"
        }
      ],
      "stateMutability": "view",
      "type": "function"
    },
    {
      "stateMutability": "payable",
      "type": "receive"
    }
  ],
  "bytecode": "0x608060405234801561001057600080fd5b506040516138c33803806138c3833981810160405281019061003291906103fe565b6001600081905550600073ffffffffffffffffffffffffffffffffffffffff168873ffffffffffffffffffffffffffffffffffffffff16036100a9576040517f08c379a00000000000000000000000000000000000000000000000000000000081526004016100a090610511565b60405180910390fd5b600073ffffffffffffffffffffffffffffffffffffffff168773ffffffffffffffffffffffffffffffffffffffff1603610118576040517f08c379a000000000000000000000000000000000000000000000000000000000815260040161010f9061057d565b60405180910390fd5b600073ffffffffffffffffffffffffffffffffffffffff168473ffffffffffffffffffffffffffffffffffffffff1603610187576040517f08c379a000000000000000000000000000000000000000000000000000000000815260040161017e906105e9565b60405180910390fd5b6000861180156101975750600085115b6101d6576040517f08c379a00000000000000000000000000000000000000000000000000000000081526004016101cd90610655565b60405180910390fd5b6000831180156101e65750600082115b610225576040517f08c379a000000000000000000000000000000000000000000000000000000000815260040161021c906106c1565b60405180910390fd5b87600160006101000a81548173ffffffffffffffffffffffffffffffffffffffff021916908373ffffffffffffffffffffffffffffffffffffffff16021790555086600260006101000a81548173ffffffffffffffffffffffffffffffffffffffff021916908373ffffffffffffffffffffffffffffffffffffffff16021790555083600360006101000a81548173ffffffffffffffffffffffffffffffffffffffff021916908373ffffffffffffffffffffffffffffffffffffffff1602179055508560048190555084600581905550826006819055508160078190555080600860006101000a81548160ff021916908360ff16021790555050505050505050506106e1565b600080fd5b600073ffffffffffffffffffffffffffffffffffffffff82169050919050565b600061035c82610331565b9050919050565b61036c81610351565b811461037757600080fd5b50565b60008151905061038981610363565b92915050565b6000819050919050565b6103a28161038f565b81146103ad57600080fd5b50565b6000815190506103bf81610399565b92915050565b600060ff82169050919050565b6103db816103c5565b81146103e657600080fd5b50565b6000815190506103f8816103d2565b92915050565b600080600080600080600080610100898b03121561041f5761041e61032c565b5b600061042d8b828c0161037a565b985050602061043e8b828c0161037a565b975050604061044f8b828c016103b0565b96505060606104608b828c016103b0565b95505060806104718b828c0161037a565b94505060a06104828b828c016103b0565b93505060c06104938b828c016103b0565b92505060e06104a48b828c016103e9565b9150509295985092959890939650565b600082825260208201905092915050565b7f496e76616c69642044616a75546f6b656e206164647265737300000000000000600082015250565b60006104fb6019836104b4565b9150610506826104c5565b602082019050919050565b6000602082019050818103600083015261052a816104ee565b9050919050565b7f496e76616c696420555344432061646472657373000000000000000000000000600082015250565b60006105676014836104b4565b915061057282610531565b602082019050919050565b600060208201905081810360008301526105968161055a565b9050919050565b7f496e76616c696420537570706f72746564546f6b656e20616464726573730000600082015250565b60006105d3601e836104b4565b91506105de8261059d565b602082019050919050565b60006020820190508181036000830152610602816105c6565b9050919050565b7f496e76616c696420555344432072617465730000000000000000000000000000600082015250565b600061063f6012836104b4565b915061064a82610609565b602082019050919050565b6000602082019050818103600083015261066e81610632565b9050919050565b7f496e76616c696420537570706f72746564546f6b656e20726174657300000000600082015250565b60006106ab601c836104b4565b91506106b682610675565b602082019050919050565b600060208201905081810360008301526106da8161069e565b9050919050565b6131d3806106f06000396000f3fe6080604052600436106101185760003560e01c80638d6d547d116100a0578063c9f2798d11610064578063c9f2798d1461036b578063ce2605af14610396578063de0aef9a146103c1578063e037f8f1146103ec578063f688bcfb1461041557610158565b80638d6d547d146102b957806394ed1574146102e2578063a69cb9db146102ec578063ad5752e214610317578063c1419def1461034057610158565b80634d2def0a116100e75780634d2def0a146101e65780635c7c8d5b1461020f5780635c975abb1461023857806372ca219a14610263578063883db8d11461028e57610158565b806302d454571461015d57806323038894146101885780632558a64e146101b357806349190e81146101dc57610158565b36610158577fbfe611b001dfcd411432f7bf0d79b82b4b2ee81511edac123a3403c357fb972a333460405161014e929190612a62565b60405180910390a1005b600080fd5b34801561016957600080fd5b5061017261043e565b60405161017f9190612a8b565b60405180910390f35b34801561019457600080fd5b5061019d610464565b6040516101aa9190612ac2565b60405180910390f35b3480156101bf57600080fd5b506101da60048036038101906101d59190612b0e565b610477565b005b6101e46108ed565b005b3480156101f257600080fd5b5061020d60048036038101906102089190612b0e565b610bc0565b005b34801561021b57600080fd5b5061023660048036038101906102319190612b0e565b61101c565b005b34801561024457600080fd5b5061024d611486565b60405161025a9190612b56565b60405180910390f35b34801561026f57600080fd5b50610278611499565b6040516102859190612b71565b60405180910390f35b34801561029a57600080fd5b506102a361149f565b6040516102b09190612b71565b60405180910390f35b3480156102c557600080fd5b506102e060048036038101906102db9190612b0e565b6114a5565b005b6102ea6119d4565b005b3480156102f857600080fd5b50610301611c85565b60405161030e9190612a8b565b60405180910390f35b34801561032357600080fd5b5061033e60048036038101906103399190612b0e565b611cab565b005b34801561034c57600080fd5b5061035561212f565b6040516103629190612ac2565b60405180910390f35b34801561037757600080fd5b50610380612134565b60405161038d9190612b71565b60405180910390f35b3480156103a257600080fd5b506103ab61213a565b6040516103b89190612b71565b60405180910390f35b3480156103cd57600080fd5b506103d6612140565b6040516103e39190612beb565b60405180910390f35b3480156103f857600080fd5b50610413600480360381019061040e9190612b0e565b612166565b005b34801561042157600080fd5b5061043c60048036038101906104379190612b0e565b612687565b005b600260009054906101000a900473ffffffffffffffffffffffffffffffffffffffff1681565b600860009054906101000a900460ff1681565b61047f6129b8565b600860019054906101000a900460ff16156104cf576040517f08c379a00000000000000000000000000000000000000000000000000000000081526004016104c690612c63565b60405180910390fd5b60008103610509576040517f1f2a200500000000000000000000000000000000000000000000000000000000815260040160405180910390fd5b6000600660126105199190612cb2565b600a6105259190612e1a565b600554836105339190612e65565b61053d9190612ed6565b905081600160009054906101000a900473ffffffffffffffffffffffffffffffffffffffff1673ffffffffffffffffffffffffffffffffffffffff166370a08231336040518263ffffffff1660e01b815260040161059b9190612a8b565b602060405180830381865afa1580156105b8573d6000803e3d6000fd5b505050506040513d601f19601f820116820180604052508101906105dc9190612f1c565b1015610614576040517f0b5537c300000000000000000000000000000000000000000000000000000000815260040160405180910390fd5b600160009054906101000a900473ffffffffffffffffffffffffffffffffffffffff1673ffffffffffffffffffffffffffffffffffffffff166323b872dd3330856040518463ffffffff1660e01b815260040161067393929190612f49565b6020604051808303816000875af1158015610692573d6000803e3d6000fd5b505050506040513d601f19601f820116820180604052508101906106b69190612fac565b6106ec576040517f045c4b0200000000000000000000000000000000000000000000000000000000815260040160405180910390fd5b6000600260009054906101000a900473ffffffffffffffffffffffffffffffffffffffff16905060008173ffffffffffffffffffffffffffffffffffffffff166370a08231306040518263ffffffff1660e01b815260040161074e9190612a8b565b602060405180830381865afa15801561076b573d6000803e3d6000fd5b505050506040513d601f19601f8201168201806040525081019061078f9190612f1c565b9050828110156107d85782816040517fbc191ce90000000000000000000000000000000000000000000000000000000081526004016107cf929190612fd9565b60405180910390fd5b8173ffffffffffffffffffffffffffffffffffffffff1663a9059cbb33856040518363ffffffff1660e01b8152600401610813929190612a62565b6020604051808303816000875af1158015610832573d6000803e3d6000fd5b505050506040513d601f19601f820116820180604052508101906108569190612fac565b61088c576040517f045c4b0200000000000000000000000000000000000000000000000000000000815260040160405180910390fd5b3373ffffffffffffffffffffffffffffffffffffffff167fb2352db38d4ea2a35d8061501d14d4177e27825afdaa66c6d1c37dedad76de4c858560006040516108d79392919061304e565b60405180910390a25050506108ea6129fe565b50565b6108f56129b8565b600860019054906101000a900460ff1615610945576040517f08c379a000000000000000000000000000000000000000000000000000000000815260040161093c90612c63565b60405180910390fd5b6000340361097f576040517f1f2a200500000000000000000000000000000000000000000000000000000000815260040160405180910390fd5b6000600860009054906101000a900460ff16601261099d9190612cb2565b600a6109a99190612e1a565b600654346109b79190612e65565b6109c19190612ed6565b90506000600360009054906101000a900473ffffffffffffffffffffffffffffffffffffffff16905060008173ffffffffffffffffffffffffffffffffffffffff166370a08231306040518263ffffffff1660e01b8152600401610a259190612a8b565b602060405180830381865afa158015610a42573d6000803e3d6000fd5b505050506040513d601f19601f82011682018060405250810190610a669190612f1c565b905082811015610aaf5782816040517fbc191ce9000000000000000000000000000000000000000000000000000000008152600401610aa6929190612fd9565b60405180910390fd5b8173ffffffffffffffffffffffffffffffffffffffff1663a9059cbb33856040518363ffffffff1660e01b8152600401610aea929190612a62565b6020604051808303816000875af1158015610b09573d6000803e3d6000fd5b505050506040513d601f19601f82011682018060405250810190610b2d9190612fac565b610b63576040517f045c4b0200000000000000000000000000000000000000000000000000000000815260040160405180910390fd5b3373ffffffffffffffffffffffffffffffffffffffff167fd2345c2dfa8c95a4c1163560fb25b8e465ce49e6b2bc15967d916c40509244cc3485604051610bab929190612fd9565b60405180910390a2505050610bbe6129fe565b565b610bc86129b8565b600860019054906101000a900460ff1615610c18576040517f08c379a0000000000000000000000000000000000000000000000000000000008152600401610c0f90612c63565b60405180910390fd5b60008103610c52576040517f1f2a200500000000000000000000000000000000000000000000000000000000815260040160405180910390fd5b60006006600a610c629190612e1a565b600454610c6f9190612e65565b670de0b6b3a764000083610c839190612e65565b610c8d9190612ed6565b90506000600260009054906101000a900473ffffffffffffffffffffffffffffffffffffffff169050828173ffffffffffffffffffffffffffffffffffffffff166370a08231336040518263ffffffff1660e01b8152600401610cf09190612a8b565b602060405180830381865afa158015610d0d573d6000803e3d6000fd5b505050506040513d601f19601f82011682018060405250810190610d319190612f1c565b1015610d69576040517fe4455cae00000000000000000000000000000000000000000000000000000000815260040160405180910390fd5b828173ffffffffffffffffffffffffffffffffffffffff1663dd62ed3e33306040518363ffffffff1660e01b8152600401610da5929190613098565b602060405180830381865afa158015610dc2573d6000803e3d6000fd5b505050506040513d601f19601f82011682018060405250810190610de69190612f1c565b1015610e1e576040517f13be252b00000000000000000000000000000000000000000000000000000000815260040160405180910390fd5b8073ffffffffffffffffffffffffffffffffffffffff166323b872dd3330866040518463ffffffff1660e01b8152600401610e5b93929190612f49565b6020604051808303816000875af1158015610e7a573d6000803e3d6000fd5b505050506040513d601f19601f82011682018060405250810190610e9e9190612fac565b610ed4576040517f045c4b0200000000000000000000000000000000000000000000000000000000815260040160405180910390fd5b81471015610f1b5781476040517fbc191ce9000000000000000000000000000000000000000000000000000000008152600401610f12929190612fd9565b60405180910390fd5b60003373ffffffffffffffffffffffffffffffffffffffff1683604051610f41906130f2565b60006040518083038185875af1925050503d8060008114610f7e576040519150601f19603f3d011682016040523d82523d6000602084013e610f83565b606091505b5050905080610fbe576040517fb12d13eb00000000000000000000000000000000000000000000000000000000815260040160405180910390fd5b3373ffffffffffffffffffffffffffffffffffffffff167f0eb5bd79dbe1e692f74c8ef45c4a2ee8a52916c8dd0eb663b1de442b27c694ed8585604051611006929190612fd9565b60405180910390a25050506110196129fe565b50565b6110246129b8565b600860019054906101000a900460ff1615611074576040517f08c379a000000000000000000000000000000000000000000000000000000000815260040161106b90612c63565b60405180910390fd5b600081036110ae576040517f1f2a200500000000000000000000000000000000000000000000000000000000815260040160405180910390fd5b6000600860009054906101000a900460ff16600a6110cc9190612e1a565b6006546110d99190612e65565b670de0b6b3a7640000836110ed9190612e65565b6110f79190612ed6565b90506000600360009054906101000a900473ffffffffffffffffffffffffffffffffffffffff169050828173ffffffffffffffffffffffffffffffffffffffff166370a08231336040518263ffffffff1660e01b815260040161115a9190612a8b565b602060405180830381865afa158015611177573d6000803e3d6000fd5b505050506040513d601f19601f8201168201806040525081019061119b9190612f1c565b10156111d3576040517fe4455cae00000000000000000000000000000000000000000000000000000000815260040160405180910390fd5b828173ffffffffffffffffffffffffffffffffffffffff1663dd62ed3e33306040518363ffffffff1660e01b815260040161120f929190613098565b602060405180830381865afa15801561122c573d6000803e3d6000fd5b505050506040513d601f19601f820116820180604052508101906112509190612f1c565b1015611288576040517f13be252b00000000000000000000000000000000000000000000000000000000815260040160405180910390fd5b8073ffffffffffffffffffffffffffffffffffffffff166323b872dd3330866040518463ffffffff1660e01b81526004016112c593929190612f49565b6020604051808303816000875af11580156112e4573d6000803e3d6000fd5b505050506040513d601f19601f820116820180604052508101906113089190612fac565b61133e576040517f045c4b0200000000000000000000000000000000000000000000000000000000815260040160405180910390fd5b814710156113855781476040517fbc191ce900000000000000000000000000000000000000000000000000000000815260040161137c929190612fd9565b60405180910390fd5b60003373ffffffffffffffffffffffffffffffffffffffff16836040516113ab906130f2565b60006040518083038185875af1925050503d80600081146113e8576040519150601f19603f3d011682016040523d82523d6000602084013e6113ed565b606091505b5050905080611428576040517fb12d13eb00000000000000000000000000000000000000000000000000000000815260040160405180910390fd5b3373ffffffffffffffffffffffffffffffffffffffff167fba7e4b76de03f61e8362b5944bebb38986cad09e20432f2838f0ab11896b7de68585604051611470929190612fd9565b60405180910390a25050506114836129fe565b50565b600860019054906101000a900460ff1681565b60075481565b60065481565b6114ad6129b8565b600860019054906101000a900460ff16156114fd576040517f08c379a00000000000000000000000000000000000000000000000000000000081526004016114f490612c63565b60405180910390fd5b60008103611537576040517f1f2a200500000000000000000000000000000000000000000000000000000000815260040160405180910390fd5b6000600860009054906101000a900460ff16600a6115559190612e1a565b6007546115629190612e65565b670de0b6b3a7640000836115769190612e65565b6115809190612ed6565b90506000600360009054906101000a900473ffffffffffffffffffffffffffffffffffffffff169050828173ffffffffffffffffffffffffffffffffffffffff166370a08231336040518263ffffffff1660e01b81526004016115e39190612a8b565b602060405180830381865afa158015611600573d6000803e3d6000fd5b505050506040513d601f19601f820116820180604052508101906116249190612f1c565b101561165c576040517fe4455cae00000000000000000000000000000000000000000000000000000000815260040160405180910390fd5b828173ffffffffffffffffffffffffffffffffffffffff1663dd62ed3e33306040518363ffffffff1660e01b8152600401611698929190613098565b602060405180830381865afa1580156116b5573d6000803e3d6000fd5b505050506040513d601f19601f820116820180604052508101906116d99190612f1c565b1015611711576040517f13be252b00000000000000000000000000000000000000000000000000000000815260040160405180910390fd5b8073ffffffffffffffffffffffffffffffffffffffff166323b872dd3330866040518463ffffffff1660e01b815260040161174e93929190612f49565b6020604051808303816000875af115801561176d573d6000803e3d6000fd5b505050506040513d601f19601f820116820180604052508101906117919190612fac565b6117c7576040517f045c4b0200000000000000000000000000000000000000000000000000000000815260040160405180910390fd5b81600160009054906101000a900473ffffffffffffffffffffffffffffffffffffffff1673ffffffffffffffffffffffffffffffffffffffff166370a08231306040518263ffffffff1660e01b81526004016118239190612a8b565b602060405180830381865afa158015611840573d6000803e3d6000fd5b505050506040513d601f19601f820116820180604052508101906118649190612f1c565b101561189c576040517f786e0a9900000000000000000000000000000000000000000000000000000000815260040160405180910390fd5b600160009054906101000a900473ffffffffffffffffffffffffffffffffffffffff1673ffffffffffffffffffffffffffffffffffffffff166323b872dd3033856040518463ffffffff1660e01b81526004016118fb93929190612f49565b6020604051808303816000875af115801561191a573d6000803e3d6000fd5b505050506040513d601f19601f8201168201806040525081019061193e9190612fac565b611974576040517f045c4b0200000000000000000000000000000000000000000000000000000000815260040160405180910390fd5b3373ffffffffffffffffffffffffffffffffffffffff167fb2352db38d4ea2a35d8061501d14d4177e27825afdaa66c6d1c37dedad76de4c848460016040516119bf93929190613153565b60405180910390a250506119d16129fe565b50565b6119dc6129b8565b600860019054906101000a900460ff1615611a2c576040517f08c379a0000000000000000000000000000000000000000000000000000000008152600401611a2390612c63565b60405180910390fd5b60003403611a66576040517f1f2a200500000000000000000000000000000000000000000000000000000000815260040160405180910390fd5b600064e8d4a5100060045434611a7c9190612e65565b611a869190612ed6565b90506000600260009054906101000a900473ffffffffffffffffffffffffffffffffffffffff16905060008173ffffffffffffffffffffffffffffffffffffffff166370a08231306040518263ffffffff1660e01b8152600401611aea9190612a8b565b602060405180830381865afa158015611b07573d6000803e3d6000fd5b505050506040513d601f19601f82011682018060405250810190611b2b9190612f1c565b905082811015611b745782816040517fbc191ce9000000000000000000000000000000000000000000000000000000008152600401611b6b929190612fd9565b60405180910390fd5b8173ffffffffffffffffffffffffffffffffffffffff1663a9059cbb33856040518363ffffffff1660e01b8152600401611baf929190612a62565b6020604051808303816000875af1158015611bce573d6000803e3d6000fd5b505050506040513d601f19601f82011682018060405250810190611bf29190612fac565b611c28576040517f045c4b0200000000000000000000000000000000000000000000000000000000815260040160405180910390fd5b3373ffffffffffffffffffffffffffffffffffffffff167f4a455cf8e9f1c71cf2aff60b08fd5b0b6efe7ae57afa973febc985064b3534893485604051611c70929190612fd9565b60405180910390a2505050611c836129fe565b565b600360009054906101000a900473ffffffffffffffffffffffffffffffffffffffff1681565b611cb36129b8565b600860019054906101000a900460ff1615611d03576040517f08c379a0000000000000000000000000000000000000000000000000000000008152600401611cfa90612c63565b60405180910390fd5b60008103611d3d576040517f1f2a200500000000000000000000000000000000000000000000000000000000815260040160405180910390fd5b6000600860009054906101000a900460ff166012611d5b9190612cb2565b600a611d679190612e1a565b60075483611d759190612e65565b611d7f9190612ed6565b905081600160009054906101000a900473ffffffffffffffffffffffffffffffffffffffff1673ffffffffffffffffffffffffffffffffffffffff166370a08231336040518263ffffffff1660e01b8152600401611ddd9190612a8b565b602060405180830381865afa158015611dfa573d6000803e3d6000fd5b505050506040513d601f19601f82011682018060405250810190611e1e9190612f1c565b1015611e56576040517f0b5537c300000000000000000000000000000000000000000000000000000000815260040160405180910390fd5b600160009054906101000a900473ffffffffffffffffffffffffffffffffffffffff1673ffffffffffffffffffffffffffffffffffffffff166323b872dd3330856040518463ffffffff1660e01b8152600401611eb593929190612f49565b6020604051808303816000875af1158015611ed4573d6000803e3d6000fd5b505050506040513d601f19601f82011682018060405250810190611ef89190612fac565b611f2e576040517f045c4b0200000000000000000000000000000000000000000000000000000000815260040160405180910390fd5b6000600360009054906101000a900473ffffffffffffffffffffffffffffffffffffffff16905060008173ffffffffffffffffffffffffffffffffffffffff166370a08231306040518263ffffffff1660e01b8152600401611f909190612a8b565b602060405180830381865afa158015611fad573d6000803e3d6000fd5b505050506040513d601f19601f82011682018060405250810190611fd19190612f1c565b90508281101561201a5782816040517fbc191ce9000000000000000000000000000000000000000000000000000000008152600401612011929190612fd9565b60405180910390fd5b8173ffffffffffffffffffffffffffffffffffffffff1663a9059cbb33856040518363ffffffff1660e01b8152600401612055929190612a62565b6020604051808303816000875af1158015612074573d6000803e3d6000fd5b505050506040513d601f19601f820116820180604052508101906120989190612fac565b6120ce576040517f045c4b0200000000000000000000000000000000000000000000000000000000815260040160405180910390fd5b3373ffffffffffffffffffffffffffffffffffffffff167fb2352db38d4ea2a35d8061501d14d4177e27825afdaa66c6d1c37dedad76de4c8585600060405161211993929190613153565b60405180910390a250505061212c6129fe565b50565b600681565b60055481565b60045481565b600160009054906101000a900473ffffffffffffffffffffffffffffffffffffffff1681565b61216e6129b8565b600860019054906101000a900460ff16156121be576040517f08c379a00000000000000000000000000000000000000000000000000000000081526004016121b590612c63565b60405180910390fd5b600081036121f8576040517f1f2a200500000000000000000000000000000000000000000000000000000000815260040160405180910390fd5b60006006600a6122089190612e1a565b6005546122159190612e65565b670de0b6b3a7640000836122299190612e65565b6122339190612ed6565b90506000600260009054906101000a900473ffffffffffffffffffffffffffffffffffffffff169050828173ffffffffffffffffffffffffffffffffffffffff166370a08231336040518263ffffffff1660e01b81526004016122969190612a8b565b602060405180830381865afa1580156122b3573d6000803e3d6000fd5b505050506040513d601f19601f820116820180604052508101906122d79190612f1c565b101561230f576040517fe4455cae00000000000000000000000000000000000000000000000000000000815260040160405180910390fd5b828173ffffffffffffffffffffffffffffffffffffffff1663dd62ed3e33306040518363ffffffff1660e01b815260040161234b929190613098565b602060405180830381865afa158015612368573d6000803e3d6000fd5b505050506040513d601f19601f8201168201806040525081019061238c9190612f1c565b10156123c4576040517f13be252b00000000000000000000000000000000000000000000000000000000815260040160405180910390fd5b8073ffffffffffffffffffffffffffffffffffffffff166323b872dd3330866040518463ffffffff1660e01b815260040161240193929190612f49565b6020604051808303816000875af1158015612420573d6000803e3d6000fd5b505050506040513d601f19601f820116820180604052508101906124449190612fac565b61247a576040517f045c4b0200000000000000000000000000000000000000000000000000000000815260040160405180910390fd5b81600160009054906101000a900473ffffffffffffffffffffffffffffffffffffffff1673ffffffffffffffffffffffffffffffffffffffff166370a08231306040518263ffffffff1660e01b81526004016124d69190612a8b565b602060405180830381865afa1580156124f3573d6000803e3d6000fd5b505050506040513d601f19601f820116820180604052508101906125179190612f1c565b101561254f576040517f786e0a9900000000000000000000000000000000000000000000000000000000815260040160405180910390fd5b600160009054906101000a900473ffffffffffffffffffffffffffffffffffffffff1673ffffffffffffffffffffffffffffffffffffffff166323b872dd3033856040518463ffffffff1660e01b81526004016125ae93929190612f49565b6020604051808303816000875af11580156125cd573d6000803e3d6000fd5b505050506040513d601f19601f820116820180604052508101906125f19190612fac565b612627576040517f045c4b0200000000000000000000000000000000000000000000000000000000815260040160405180910390fd5b3373ffffffffffffffffffffffffffffffffffffffff167fb2352db38d4ea2a35d8061501d14d4177e27825afdaa66c6d1c37dedad76de4c848460016040516126729392919061304e565b60405180910390a250506126846129fe565b50565b61268f6129b8565b600860019054906101000a900460ff16156126df576040517f08c379a00000000000000000000000000000000000000000000000000000000081526004016126d690612c63565b60405180910390fd5b60008103612719576040517f1f2a200500000000000000000000000000000000000000000000000000000000815260040160405180910390fd5b6000600260009054906101000a900473ffffffffffffffffffffffffffffffffffffffff169050818173ffffffffffffffffffffffffffffffffffffffff166370a08231336040518263ffffffff1660e01b815260040161277a9190612a8b565b602060405180830381865afa158015612797573d6000803e3d6000fd5b505050506040513d601f19601f820116820180604052508101906127bb9190612f1c565b10156127f3576040517fe4455cae00000000000000000000000000000000000000000000000000000000815260040160405180910390fd5b818173ffffffffffffffffffffffffffffffffffffffff1663dd62ed3e33306040518363ffffffff1660e01b815260040161282f929190613098565b602060405180830381865afa15801561284c573d6000803e3d6000fd5b505050506040513d601f19601f820116820180604052508101906128709190612f1c565b10156128a8576040517f13be252b00000000000000000000000000000000000000000000000000000000815260040160405180910390fd5b8073ffffffffffffffffffffffffffffffffffffffff166323b872dd3330856040518463ffffffff1660e01b81526004016128e593929190612f49565b6020604051808303816000875af1158015612904573d6000803e3d6000fd5b505050506040513d601f19601f820116820180604052508101906129289190612fac565b61295e576040517f045c4b0200000000000000000000000000000000000000000000000000000000815260040160405180910390fd5b3373ffffffffffffffffffffffffffffffffffffffff167f80ecc532cf2e08856601df42646970d676a686d8eeacbfd2038fae4ff288da56836040516129a49190612b71565b60405180910390a2506129b56129fe565b50565b6002600054036129f4576040517f3ee5aeb500000000000000000000000000000000000000000000000000000000815260040160405180910390fd5b6002600081905550565b6001600081905550565b600073ffffffffffffffffffffffffffffffffffffffff82169050919050565b6000612a3382612a08565b9050919050565b612a4381612a28565b82525050565b6000819050919050565b612a5c81612a49565b82525050565b6000604082019050612a776000830185612a3a565b612a846020830184612a53565b9392505050565b6000602082019050612aa06000830184612a3a565b92915050565b600060ff82169050919050565b612abc81612aa6565b82525050565b6000602082019050612ad76000830184612ab3565b92915050565b600080fd5b612aeb81612a49565b8114612af657600080fd5b50565b600081359050612b0881612ae2565b92915050565b600060208284031215612b2457612b23612add565b5b6000612b3284828501612af9565b91505092915050565b60008115159050919050565b612b5081612b3b565b82525050565b6000602082019050612b6b6000830184612b47565b92915050565b6000602082019050612b866000830184612a53565b92915050565b6000819050919050565b6000612bb1612bac612ba784612a08565b612b8c565b612a08565b9050919050565b6000612bc382612b96565b9050919050565b6000612bd582612bb8565b9050919050565b612be581612bca565b82525050565b6000602082019050612c006000830184612bdc565b92915050565b600082825260208201905092915050565b7f436f6e7472616374207061757365640000000000000000000000000000000000600082015250565b6000612c4d600f83612c06565b9150612c5882612c17565b602082019050919050565b60006020820190508181036000830152612c7c81612c40565b9050919050565b7f4e487b7100000000000000000000000000000000000000000000000000000000600052601160045260246000fd5b6000612cbd82612aa6565b9150612cc883612aa6565b9250828203905060ff811115612ce157612ce0612c83565b5b92915050565b60008160011c9050919050565b6000808291508390505b6001851115612d3e57808604811115612d1a57612d19612c83565b5b6001851615612d295780820291505b8081029050612d3785612ce7565b9450612cfe565b94509492505050565b600082612d575760019050612e13565b81612d655760009050612e13565b8160018114612d7b5760028114612d8557612db4565b6001915050612e13565b60ff841115612d9757612d96612c83565b5b8360020a915084821115612dae57612dad612c83565b5b50612e13565b5060208310610133831016604e8410600b8410161715612de95782820a905083811115612de457612de3612c83565b5b612e13565b612df68484846001612cf4565b92509050818404811115612e0d57612e0c612c83565b5b81810290505b9392505050565b6000612e2582612a49565b9150612e3083612aa6565b9250612e5d7fffffffffffffffffffffffffffffffffffffffffffffffffffffffffffffffff8484612d47565b905092915050565b6000612e7082612a49565b9150612e7b83612a49565b9250828202612e8981612a49565b91508282048414831517612ea057612e9f612c83565b5b5092915050565b7f4e487b7100000000000000000000000000000000000000000000000000000000600052601260045260246000fd5b6000612ee182612a49565b9150612eec83612a49565b925082612efc57612efb612ea7565b5b828204905092915050565b600081519050612f1681612ae2565b92915050565b600060208284031215612f3257612f31612add565b5b6000612f4084828501612f07565b91505092915050565b6000606082019050612f5e6000830186612a3a565b612f6b6020830185612a3a565b612f786040830184612a53565b949350505050565b612f8981612b3b565b8114612f9457600080fd5b50565b600081519050612fa681612f80565b92915050565b600060208284031215612fc257612fc1612add565b5b6000612fd084828501612f97565b91505092915050565b6000604082019050612fee6000830185612a53565b612ffb6020830184612a53565b9392505050565b7f5553444300000000000000000000000000000000000000000000000000000000600082015250565b6000613038600483612c06565b915061304382613002565b602082019050919050565b600060808201905081810360008301526130678161302b565b90506130766020830186612a53565b6130836040830185612a53565b6130906060830184612b47565b949350505050565b60006040820190506130ad6000830185612a3a565b6130ba6020830184612a3a565b9392505050565b600081905092915050565b50565b60006130dc6000836130c1565b91506130e7826130cc565b600082019050919050565b60006130fd826130cf565b9150819050919050565b7f537570706f72746564546f6b656e000000000000000000000000000000000000600082015250565b600061313d600e83612c06565b915061314882613107565b602082019050919050565b6000608082019050818103600083015261316c81613130565b905061317b6020830186612a53565b6131886040830185612a53565b6131956060830184612b47565b94935050505056fea264697066735822122091822f2e50fe9fe7cfdf9a5c50467cf6c716efb99a6ec23c77bdeb4df577b8c164736f6c634300081c0033",
  "linkReferences": {},
  "deployedLinkReferences": {}
}