{
  "_format": "hh-sol-artifact-1",
  "contractName": "DajuToken",
  "sourceName": "contracts/DajuToken.sol",
  "abi": [
    {
      "inputs": [
        {
          "internalType": "address",
          "name": "initialOwner",
          "type": "address"
        },
        {
          "internalType": "uint256",
          "name": "cap",
          "type": "uint256"
        }
      ],
      "stateMutability": "nonpayable",
      "type": "constructor"
    },
    {
      "inputs": [],
      "name": "AccessControlBadConfirmation",
      "type": "error"
    },
    {
      "inputs": [
        {
          "internalType": "address",
          "name": "account",
          "type": "address"
        },
        {
          "internalType": "bytes32",
          "name": "neededRole",
          "type": "bytes32"
        }
      ],
      "name": "AccessControlUnauthorizedAccount",
      "type": "error"
    },
    {
      "inputs": [],
      "name": "ECDSAInvalidSignature",
      "type": "error"
    },
    {
      "inputs": [
        {
          "internalType": "uint256",
          "name": "length",
          "type": "uint256"
        }
      ],
      "name": "ECDSAInvalidSignatureLength",
      "type": "error"
    },
    {
      "inputs": [
        {
          "internalType": "bytes32",
          "name": "s",
          "type": "bytes32"
        }
      ],
      "name": "ECDSAInvalidSignatureS",
      "type": "error"
    },
    {
      "inputs": [
        {
          "internalType": "address",
          "name": "spender",
          "type": "address"
        },
        {
          "internalType": "uint256",
          "name": "allowance",
          "type": "uint256"
        },
        {
          "internalType": "uint256",
          "name": "needed",
          "type": "uint256"
        }
      ],
      "name": "ERC20InsufficientAllowance",
      "type": "error"
    },
    {
      "inputs": [
        {
          "internalType": "address",
          "name": "sender",
          "type": "address"
        },
        {
          "internalType": "uint256",
          "name": "balance",
          "type": "uint256"
        },
        {
          "internalType": "uint256",
          "name": "needed",
          "type": "uint256"
        }
      ],
      "name": "ERC20InsufficientBalance",
      "type": "error"
    },
    {
      "inputs": [
        {
          "internalType": "address",
          "name": "approver",
          "type": "address"
        }
      ],
      "name": "ERC20InvalidApprover",
      "type": "error"
    },
    {
      "inputs": [
        {
          "internalType": "address",
          "name": "receiver",
          "type": "address"
        }
      ],
      "name": "ERC20InvalidReceiver",
      "type": "error"
    },
    {
      "inputs": [
        {
          "internalType": "address",
          "name": "sender",
          "type": "address"
        }
      ],
      "name": "ERC20InvalidSender",
      "type": "error"
    },
    {
      "inputs": [
        {
          "internalType": "address",
          "name": "spender",
          "type": "address"
        }
      ],
      "name": "ERC20InvalidSpender",
      "type": "error"
    },
    {
      "inputs": [
        {
          "internalType": "uint256",
          "name": "deadline",
          "type": "uint256"
        }
      ],
      "name": "ERC2612ExpiredSignature",
      "type": "error"
    },
    {
      "inputs": [
        {
          "internalType": "address",
          "name": "signer",
          "type": "address"
        },
        {
          "internalType": "address",
          "name": "owner",
          "type": "address"
        }
      ],
      "name": "ERC2612InvalidSigner",
      "type": "error"
    },
    {
      "inputs": [
        {
          "internalType": "address",
          "name": "account",
          "type": "address"
        },
        {
          "internalType": "uint256",
          "name": "currentNonce",
          "type": "uint256"
        }
      ],
      "name": "InvalidAccountNonce",
      "type": "error"
    },
    {
      "inputs": [],
      "name": "InvalidShortString",
      "type": "error"
    },
    {
      "inputs": [
        {
          "internalType": "address",
          "name": "owner",
          "type": "address"
        }
      ],
      "name": "OwnableInvalidOwner",
      "type": "error"
    },
    {
      "inputs": [
        {
          "internalType": "address",
          "name": "account",
          "type": "address"
        }
      ],
      "name": "OwnableUnauthorizedAccount",
      "type": "error"
    },
    {
      "inputs": [],
      "name": "ReentrancyGuardReentrantCall",
      "type": "error"
    },
    {
      "inputs": [
        {
          "internalType": "string",
          "name": "str",
          "type": "string"
        }
      ],
      "name": "StringTooLong",
      "type": "error"
    },
    {
      "anonymous": false,
      "inputs": [
        {
          "indexed": true,
          "internalType": "address",
          "name": "owner",
          "type": "address"
        },
        {
          "indexed": true,
          "internalType": "address",
          "name": "spender",
          "type": "address"
        },
        {
          "indexed": false,
          "internalType": "uint256",
          "name": "value",
          "type": "uint256"
        }
      ],
      "name": "Approval",
      "type": "event"
    },
    {
      "anonymous": false,
      "inputs": [],
      "name": "EIP712DomainChanged",
      "type": "event"
    },
    {
      "anonymous": false,
      "inputs": [
        {
          "indexed": true,
          "internalType": "address",
          "name": "user",
          "type": "address"
        },
        {
          "indexed": false,
          "internalType": "string",
          "name": "tokenSymbol",
          "type": "string"
        },
        {
          "indexed": false,
          "internalType": "uint256",
          "name": "inputAmount",
          "type": "uint256"
        },
        {
          "indexed": false,
          "internalType": "uint256",
          "name": "outputAmount",
          "type": "uint256"
        },
        {
          "indexed": false,
          "internalType": "bool",
          "name": "isBuying",
          "type": "bool"
        }
      ],
      "name": "ExchangeCompleted",
      "type": "event"
    },
    {
      "anonymous": false,
      "inputs": [
        {
          "indexed": false,
          "internalType": "string",
          "name": "tokenSymbol",
          "type": "string"
        },
        {
          "indexed": false,
          "internalType": "uint256",
          "name": "oldRate",
          "type": "uint256"
        },
        {
          "indexed": false,
          "internalType": "uint256",
          "name": "newRate",
          "type": "uint256"
        }
      ],
      "name": "ExchangeRateUpdated",
      "type": "event"
    },
    {
      "anonymous": false,
      "inputs": [
        {
          "indexed": true,
          "internalType": "address",
          "name": "previousOwner",
          "type": "address"
        },
        {
          "indexed": true,
          "internalType": "address",
          "name": "newOwner",
          "type": "address"
        }
      ],
      "name": "OwnershipTransferred",
      "type": "event"
    },
    {
      "anonymous": false,
      "inputs": [
        {
          "indexed": false,
          "internalType": "bool",
          "name": "isPaused",
          "type": "bool"
        }
      ],
      "name": "PausedStateChanged",
      "type": "event"
    },
    {
      "anonymous": false,
      "inputs": [
        {
          "indexed": true,
          "internalType": "bytes32",
          "name": "role",
          "type": "bytes32"
        },
        {
          "indexed": true,
          "internalType": "bytes32",
          "name": "previousAdminRole",
          "type": "bytes32"
        },
        {
          "indexed": true,
          "internalType": "bytes32",
          "name": "newAdminRole",
          "type": "bytes32"
        }
      ],
      "name": "RoleAdminChanged",
      "type": "event"
    },
    {
      "anonymous": false,
      "inputs": [
        {
          "indexed": true,
          "internalType": "bytes32",
          "name": "role",
          "type": "bytes32"
        },
        {
          "indexed": true,
          "internalType": "address",
          "name": "account",
          "type": "address"
        },
        {
          "indexed": true,
          "internalType": "address",
          "name": "sender",
          "type": "address"
        }
      ],
      "name": "RoleGranted",
      "type": "event"
    },
    {
      "anonymous": false,
      "inputs": [
        {
          "indexed": true,
          "internalType": "bytes32",
          "name": "role",
          "type": "bytes32"
        },
        {
          "indexed": true,
          "internalType": "address",
          "name": "account",
          "type": "address"
        },
        {
          "indexed": true,
          "internalType": "address",
          "name": "sender",
          "type": "address"
        }
      ],
      "name": "RoleRevoked",
      "type": "event"
    },
    {
      "anonymous": false,
      "inputs": [
        {
          "indexed": false,
          "internalType": "string",
          "name": "tokenSymbol",
          "type": "string"
        },
        {
          "indexed": false,
          "internalType": "address",
          "name": "tokenAddress",
          "type": "address"
        },
        {
          "indexed": false,
          "internalType": "uint256",
          "name": "initialRate",
          "type": "uint256"
        }
      ],
      "name": "TokenSupported",
      "type": "event"
    },
    {
      "anonymous": false,
      "inputs": [
        {
          "indexed": true,
          "internalType": "address",
          "name": "from",
          "type": "address"
        },
        {
          "indexed": false,
          "internalType": "uint256",
          "name": "amount",
          "type": "uint256"
        }
      ],
      "name": "TokensBurned",
      "type": "event"
    },
    {
      "anonymous": false,
      "inputs": [
        {
          "indexed": true,
          "internalType": "address",
          "name": "to",
          "type": "address"
        },
        {
          "indexed": false,
          "internalType": "uint256",
          "name": "amount",
          "type": "uint256"
        }
      ],
      "name": "TokensMinted",
      "type": "event"
    },
    {
      "anonymous": false,
      "inputs": [
        {
          "indexed": true,
          "internalType": "address",
          "name": "from",
          "type": "address"
        },
        {
          "indexed": true,
          "internalType": "address",
          "name": "to",
          "type": "address"
        },
        {
          "indexed": false,
          "internalType": "uint256",
          "name": "value",
          "type": "uint256"
        }
      ],
      "name": "Transfer",
      "type": "event"
    },
    {
      "inputs": [],
      "name": "CAP",
      "outputs": [
        {
          "internalType": "uint256",
          "name": "",
          "type": "uint256"
        }
      ],
      "stateMutability": "view",
      "type": "function"
    },
    {
      "inputs": [],
      "name": "DEFAULT_ADMIN_ROLE",
      "outputs": [
        {
          "internalType": "bytes32",
          "name": "",
          "type": "bytes32"
        }
      ],
      "stateMutability": "view",
      "type": "function"
    },
    {
      "inputs": [],
      "name": "DOMAIN_SEPARATOR",
      "outputs": [
        {
          "internalType": "bytes32",
          "name": "",
          "type": "bytes32"
        }
      ],
      "stateMutability": "view",
      "type": "function"
    },
    {
      "inputs": [],
      "name": "EXCHANGE_MANAGER_ROLE",
      "outputs": [
        {
          "internalType": "bytes32",
          "name": "",
          "type": "bytes32"
        }
      ],
      "stateMutability": "view",
      "type": "function"
    },
    {
      "inputs": [],
      "name": "MINTER_ROLE",
      "outputs": [
        {
          "internalType": "bytes32",
          "name": "",
          "type": "bytes32"
        }
      ],
      "stateMutability": "view",
      "type": "function"
    },
    {
      "inputs": [
        {
          "internalType": "string",
          "name": "tokenSymbol",
          "type": "string"
        },
        {
          "internalType": "address",
          "name": "tokenAddress",
          "type": "address"
        },
        {
          "internalType": "uint256",
          "name": "initialRate",
          "type": "uint256"
        },
        {
          "internalType": "uint8",
          "name": "decimals",
          "type": "uint8"
        }
      ],
      "name": "addSupportedToken",
      "outputs": [],
      "stateMutability": "nonpayable",
      "type": "function"
    },
    {
      "inputs": [
        {
          "internalType": "address",
          "name": "owner",
          "type": "address"
        },
        {
          "internalType": "address",
          "name": "spender",
          "type": "address"
        }
      ],
      "name": "allowance",
      "outputs": [
        {
          "internalType": "uint256",
          "name": "",
          "type": "uint256"
        }
      ],
      "stateMutability": "view",
      "type": "function"
    },
    {
      "inputs": [
        {
          "internalType": "address",
          "name": "spender",
          "type": "address"
        },
        {
          "internalType": "uint256",
          "name": "value",
          "type": "uint256"
        }
      ],
      "name": "approve",
      "outputs": [
        {
          "internalType": "bool",
          "name": "",
          "type": "bool"
        }
      ],
      "stateMutability": "nonpayable",
      "type": "function"
    },
    {
      "inputs": [
        {
          "internalType": "address",
          "name": "account",
          "type": "address"
        }
      ],
      "name": "balanceOf",
      "outputs": [
        {
          "internalType": "uint256",
          "name": "",
          "type": "uint256"
        }
      ],
      "stateMutability": "view",
      "type": "function"
    },
    {
      "inputs": [
        {
          "internalType": "uint256",
          "name": "amount",
          "type": "uint256"
        }
      ],
      "name": "burn",
      "outputs": [],
      "stateMutability": "nonpayable",
      "type": "function"
    },
    {
      "inputs": [
        {
          "internalType": "address",
          "name": "account",
          "type": "address"
        },
        {
          "internalType": "uint256",
          "name": "value",
          "type": "uint256"
        }
      ],
      "name": "burnFrom",
      "outputs": [],
      "stateMutability": "nonpayable",
      "type": "function"
    },
    {
      "inputs": [
        {
          "internalType": "string",
          "name": "tokenSymbol",
          "type": "string"
        },
        {
          "internalType": "uint256",
          "name": "amount",
          "type": "uint256"
        },
        {
          "internalType": "bool",
          "name": "isBuying",
          "type": "bool"
        }
      ],
      "name": "calculateExchange",
      "outputs": [
        {
          "internalType": "uint256",
          "name": "",
          "type": "uint256"
        }
      ],
      "stateMutability": "view",
      "type": "function"
    },
    {
      "inputs": [],
      "name": "decimals",
      "outputs": [
        {
          "internalType": "uint8",
          "name": "",
          "type": "uint8"
        }
      ],
      "stateMutability": "view",
      "type": "function"
    },
    {
      "inputs": [],
      "name": "eip712Domain",
      "outputs": [
        {
          "internalType": "bytes1",
          "name": "fields",
          "type": "bytes1"
        },
        {
          "internalType": "string",
          "name": "name",
          "type": "string"
        },
        {
          "internalType": "string",
          "name": "version",
          "type": "string"
        },
        {
          "internalType": "uint256",
          "name": "chainId",
          "type": "uint256"
        },
        {
          "internalType": "address",
          "name": "verifyingContract",
          "type": "address"
        },
        {
          "internalType": "bytes32",
          "name": "salt",
          "type": "bytes32"
        },
        {
          "internalType": "uint256[]",
          "name": "extensions",
          "type": "uint256[]"
        }
      ],
      "stateMutability": "view",
      "type": "function"
    },
    {
      "inputs": [
        {
          "internalType": "string",
          "name": "tokenSymbol",
          "type": "string"
        },
        {
          "internalType": "uint256",
          "name": "amount",
          "type": "uint256"
        },
        {
          "internalType": "bool",
          "name": "isBuying",
          "type": "bool"
        }
      ],
      "name": "exchange",
      "outputs": [],
      "stateMutability": "nonpayable",
      "type": "function"
    },
    {
      "inputs": [
        {
          "internalType": "string",
          "name": "",
          "type": "string"
        }
      ],
      "name": "exchangeRates",
      "outputs": [
        {
          "internalType": "uint256",
          "name": "",
          "type": "uint256"
        }
      ],
      "stateMutability": "view",
      "type": "function"
    },
    {
      "inputs": [
        {
          "internalType": "string",
          "name": "",
          "type": "string"
        }
      ],
      "name": "externalTokenAddress",
      "outputs": [
        {
          "internalType": "address",
          "name": "",
          "type": "address"
        }
      ],
      "stateMutability": "view",
      "type": "function"
    },
    {
      "inputs": [
        {
          "internalType": "bytes32",
          "name": "role",
          "type": "bytes32"
        }
      ],
      "name": "getRoleAdmin",
      "outputs": [
        {
          "internalType": "bytes32",
          "name": "",
          "type": "bytes32"
        }
      ],
      "stateMutability": "view",
      "type": "function"
    },
    {
      "inputs": [],
      "name": "getSupportedTokensAndRates",
      "outputs": [
        {
          "internalType": "string[]",
          "name": "tokens",
          "type": "string[]"
        },
        {
          "internalType": "uint256[]",
          "name": "rates",
          "type": "uint256[]"
        },
        {
          "internalType": "address[]",
          "name": "addresses",
          "type": "address[]"
        }
      ],
      "stateMutability": "view",
      "type": "function"
    },
    {
      "inputs": [
        {
          "internalType": "bytes32",
          "name": "role",
          "type": "bytes32"
        },
        {
          "internalType": "address",
          "name": "account",
          "type": "address"
        }
      ],
      "name": "grantRole",
      "outputs": [],
      "stateMutability": "nonpayable",
      "type": "function"
    },
    {
      "inputs": [
        {
          "internalType": "bytes32",
          "name": "role",
          "type": "bytes32"
        },
        {
          "internalType": "address",
          "name": "account",
          "type": "address"
        }
      ],
      "name": "hasRole",
      "outputs": [
        {
          "internalType": "bool",
          "name": "",
          "type": "bool"
        }
      ],
      "stateMutability": "view",
      "type": "function"
    },
    {
      "inputs": [
        {
          "internalType": "address",
          "name": "to",
          "type": "address"
        },
        {
          "internalType": "uint256",
          "name": "amount",
          "type": "uint256"
        }
      ],
      "name": "mint",
      "outputs": [],
      "stateMutability": "nonpayable",
      "type": "function"
    },
    {
      "inputs": [],
      "name": "name",
      "outputs": [
        {
          "internalType": "string",
          "name": "",
          "type": "string"
        }
      ],
      "stateMutability": "view",
      "type": "function"
    },
    {
      "inputs": [
        {
          "internalType": "address",
          "name": "owner",
          "type": "address"
        }
      ],
      "name": "nonces",
      "outputs": [
        {
          "internalType": "uint256",
          "name": "",
          "type": "uint256"
        }
      ],
      "stateMutability": "view",
      "type": "function"
    },
    {
      "inputs": [],
      "name": "owner",
      "outputs": [
        {
          "internalType": "address",
          "name": "",
          "type": "address"
        }
      ],
      "stateMutability": "view",
      "type": "function"
    },
    {
      "inputs": [],
      "name": "paused",
      "outputs": [
        {
          "internalType": "bool",
          "name": "",
          "type": "bool"
        }
      ],
      "stateMutability": "view",
      "type": "function"
    },
    {
      "inputs": [
        {
          "internalType": "address",
          "name": "owner",
          "type": "address"
        },
        {
          "internalType": "address",
          "name": "spender",
          "type": "address"
        },
        {
          "internalType": "uint256",
          "name": "value",
          "type": "uint256"
        },
        {
          "internalType": "uint256",
          "name": "deadline",
          "type": "uint256"
        },
        {
          "internalType": "uint8",
          "name": "v",
          "type": "uint8"
        },
        {
          "internalType": "bytes32",
          "name": "r",
          "type": "bytes32"
        },
        {
          "internalType": "bytes32",
          "name": "s",
          "type": "bytes32"
        }
      ],
      "name": "permit",
      "outputs": [],
      "stateMutability": "nonpayable",
      "type": "function"
    },
    {
      "inputs": [],
      "name": "renounceOwnership",
      "outputs": [],
      "stateMutability": "nonpayable",
      "type": "function"
    },
    {
      "inputs": [
        {
          "internalType": "bytes32",
          "name": "role",
          "type": "bytes32"
        },
        {
          "internalType": "address",
          "name": "callerConfirmation",
          "type": "address"
        }
      ],
      "name": "renounceRole",
      "outputs": [],
      "stateMutability": "nonpayable",
      "type": "function"
    },
    {
      "inputs": [
        {
          "internalType": "bytes32",
          "name": "role",
          "type": "bytes32"
        },
        {
          "internalType": "address",
          "name": "account",
          "type": "address"
        }
      ],
      "name": "revokeRole",
      "outputs": [],
      "stateMutability": "nonpayable",
      "type": "function"
    },
    {
      "inputs": [
        {
          "internalType": "bool",
          "name": "_paused",
          "type": "bool"
        }
      ],
      "name": "setPaused",
      "outputs": [],
      "stateMutability": "nonpayable",
      "type": "function"
    },
    {
      "inputs": [
        {
          "internalType": "string",
          "name": "tokenSymbol",
          "type": "string"
        },
        {
          "internalType": "address",
          "name": "tokenAddress",
          "type": "address"
        }
      ],
      "name": "setTokenAddress",
      "outputs": [],
      "stateMutability": "nonpayable",
      "type": "function"
    },
    {
      "inputs": [
        {
          "internalType": "uint256",
          "name": "",
          "type": "uint256"
        }
      ],
      "name": "supportedTokens",
      "outputs": [
        {
          "internalType": "string",
          "name": "",
          "type": "string"
        }
      ],
      "stateMutability": "view",
      "type": "function"
    },
    {
      "inputs": [
        {
          "internalType": "bytes4",
          "name": "interfaceId",
          "type": "bytes4"
        }
      ],
      "name": "supportsInterface",
      "outputs": [
        {
          "internalType": "bool",
          "name": "",
          "type": "bool"
        }
      ],
      "stateMutability": "view",
      "type": "function"
    },
    {
      "inputs": [],
      "name": "symbol",
      "outputs": [
        {
          "internalType": "string",
          "name": "",
          "type": "string"
        }
      ],
      "stateMutability": "view",
      "type": "function"
    },
    {
      "inputs": [
        {
          "internalType": "string",
          "name": "",
          "type": "string"
        }
      ],
      "name": "tokenDecimals",
      "outputs": [
        {
          "internalType": "uint8",
          "name": "",
          "type": "uint8"
        }
      ],
      "stateMutability": "view",
      "type": "function"
    },
    {
      "inputs": [],
      "name": "totalSupply",
      "outputs": [
        {
          "internalType": "uint256",
          "name": "",
          "type": "uint256"
        }
      ],
      "stateMutability": "view",
      "type": "function"
    },
    {
      "inputs": [
        {
          "internalType": "address",
          "name": "to",
          "type": "address"
        },
        {
          "internalType": "uint256",
          "name": "value",
          "type": "uint256"
        }
      ],
      "name": "transfer",
      "outputs": [
        {
          "internalType": "bool",
          "name": "",
          "type": "bool"
        }
      ],
      "stateMutability": "nonpayable",
      "type": "function"
    },
    {
      "inputs": [
        {
          "internalType": "address",
          "name": "from",
          "type": "address"
        },
        {
          "internalType": "address",
          "name": "to",
          "type": "address"
        },
        {
          "internalType": "uint256",
          "name": "value",
          "type": "uint256"
        }
      ],
      "name": "transferFrom",
      "outputs": [
        {
          "internalType": "bool",
          "name": "",
          "type": "bool"
        }
      ],
      "stateMutability": "nonpayable",
      "type": "function"
    },
    {
      "inputs": [
        {
          "internalType": "address",
          "name": "newOwner",
          "type": "address"
        }
      ],
      "name": "transferOwnership",
      "outputs": [],
      "stateMutability": "nonpayable",
      "type": "function"
    },
    {
      "inputs": [
        {
          "internalType": "string",
          "name": "tokenSymbol",
          "type": "string"
        },
        {
          "internalType": "uint256",
          "name": "newRate",
          "type": "uint256"
        }
      ],
      "name": "updateExchangeRate",
      "outputs": [],
      "stateMutability": "nonpayable",
      "type": "function"
    }
  ],
  "bytecode": "0x61018060405234801561001157600080fd5b5060405161664d38038061664d83398181016040528101906100339190610d34565b6040518060400160405280600981526020017f44616a75546f6b656e0000000000000000000000000000000000000000000000815250806040518060400160405280600181526020017f3100000000000000000000000000000000000000000000000000000000000000815250846040518060400160405280600981526020017f44616a75546f6b656e00000000000000000000000000000000000000000000008152506040518060400160405280600481526020017f44414a5500000000000000000000000000000000000000000000000000000000815250816003908161011c9190610fba565b50806004908161012c9190610fba565b505050600073ffffffffffffffffffffffffffffffffffffffff168173ffffffffffffffffffffffffffffffffffffffff16036101a15760006040517f1e4fbdf7000000000000000000000000000000000000000000000000000000008152600401610198919061109b565b60405180910390fd5b6101b08161041860201b60201c565b506101c560068361043e60201b90919060201c565b61012081815250506101e160078261043e60201b90919060201c565b6101408181525050818051906020012060e08181525050808051906020012061010081815250504660a0818152505061021e61048e60201b60201c565b608081815250503073ffffffffffffffffffffffffffffffffffffffff1660c08173ffffffffffffffffffffffffffffffffffffffff16815250505050506001600a81905550600081116102a7576040517f08c379a000000000000000000000000000000000000000000000000000000000815260040161029e90611113565b60405180910390fd5b8061016081815250506102c36000801b836104e960201b60201c565b506102f47f9f2df0fed2c77648de5860a4cc508cd0818c85b8b8a1ab4ceeef8d981c8956a6836104e960201b60201c565b506103257fe9eb2d474dbf4ad0af01dbc745ec0e55d70ca9366fe9b52307997e913bad905c836104e960201b60201c565b5061035d826103386105e760201b60201c565b600a61034491906112a2565b620f424061035291906112ed565b6105f060201b60201c565b6103ad6040518060400160405280600381526020017f455448000000000000000000000000000000000000000000000000000000000081525060006608e1bc9bf04000601261067860201b60201c565b6104116040518060400160405280600481526020017f555344430000000000000000000000000000000000000000000000000000000081525073a131ad247055fd2e2aa8b156a11bdec81b9ead956710a741a462780000600661067860201b60201c565b505061181b565b610427816108cb60201b60201c565b61043a6000801b826104e960201b60201c565b5050565b6000602083511015610460576104598361099160201b60201c565b9050610488565b82610470836109f960201b60201c565b600001908161047f9190610fba565b5060ff60001b90505b92915050565b60007f8b73c3c69bb8fe3d512ecc4cf759cc79239f7b179b0ffacaa9a75d522b39400f60e0516101005146306040516020016104ce959493929190611357565b60405160208183030381529060405280519060200120905090565b60006104fb8383610a0360201b60201c565b6105dc5760016009600085815260200190815260200160002060000160008473ffffffffffffffffffffffffffffffffffffffff1673ffffffffffffffffffffffffffffffffffffffff16815260200190815260200160002060006101000a81548160ff021916908315150217905550610579610a6e60201b60201c565b73ffffffffffffffffffffffffffffffffffffffff168273ffffffffffffffffffffffffffffffffffffffff16847f2f8788117e7eff1d82e926ec794901d17c78024a50270940304540a733656f0d60405160405180910390a4600190506105e1565b600090505b92915050565b60006012905090565b600073ffffffffffffffffffffffffffffffffffffffff168273ffffffffffffffffffffffffffffffffffffffff16036106625760006040517fec442f05000000000000000000000000000000000000000000000000000000008152600401610659919061109b565b60405180910390fd5b61067460008383610a7660201b60201c565b5050565b60008451116106bc576040517f08c379a00000000000000000000000000000000000000000000000000000000081526004016106b3906113f6565b60405180910390fd5b600082116106ff576040517f08c379a00000000000000000000000000000000000000000000000000000000081526004016106f690611462565b60405180910390fd5b6000600e80549050905060005b8181101561079c578580519060200120600e82815481106107305761072f611482565b5b906000526020600020016040516107479190611554565b60405180910390200361078f576040517f08c379a0000000000000000000000000000000000000000000000000000000008152600401610786906115b7565b60405180910390fd5b808060010191505061070c565b50600e859080600181540180825580915050600190039060005260206000200160009091909190915090816107d19190610fba565b5082600b866040516107e3919061163d565b90815260200160405180910390208190555083600c86604051610806919061163d565b908152602001604051809103902060006101000a81548173ffffffffffffffffffffffffffffffffffffffff021916908373ffffffffffffffffffffffffffffffffffffffff16021790555081600d86604051610863919061163d565b908152602001604051809103902060006101000a81548160ff021916908360ff1602179055507f84390a2096e2bf5a86745ae76997944b0f161f904f842ee21f1669a5dc93361b8585856040516108bc9392919061169e565b60405180910390a15050505050565b6000600560009054906101000a900473ffffffffffffffffffffffffffffffffffffffff16905081600560006101000a81548173ffffffffffffffffffffffffffffffffffffffff021916908373ffffffffffffffffffffffffffffffffffffffff1602179055508173ffffffffffffffffffffffffffffffffffffffff168173ffffffffffffffffffffffffffffffffffffffff167f8be0079c531659141344cd1fd0a4f28419497f9722a3daafe3b4186f6b6457e060405160405180910390a35050565b600080829050601f815111156109de57826040517f305a27a90000000000000000000000000000000000000000000000000000000081526004016109d591906116dc565b60405180910390fd5b8051816109ea9061172e565b60001c1760001b915050919050565b6000819050919050565b60006009600084815260200190815260200160002060000160008373ffffffffffffffffffffffffffffffffffffffff1673ffffffffffffffffffffffffffffffffffffffff16815260200190815260200160002060009054906101000a900460ff16905092915050565b600033905090565b600073ffffffffffffffffffffffffffffffffffffffff168373ffffffffffffffffffffffffffffffffffffffff1603610ac8578060026000828254610abc9190611795565b92505081905550610b9b565b60008060008573ffffffffffffffffffffffffffffffffffffffff1673ffffffffffffffffffffffffffffffffffffffff16815260200190815260200160002054905081811015610b54578381836040517fe450d38c000000000000000000000000000000000000000000000000000000008152600401610b4b939291906117c9565b60405180910390fd5b8181036000808673ffffffffffffffffffffffffffffffffffffffff1673ffffffffffffffffffffffffffffffffffffffff16815260200190815260200160002081905550505b600073ffffffffffffffffffffffffffffffffffffffff168273ffffffffffffffffffffffffffffffffffffffff1603610be45780600260008282540392505081905550610c31565b806000808473ffffffffffffffffffffffffffffffffffffffff1673ffffffffffffffffffffffffffffffffffffffff168152602001908152602001600020600082825401925050819055505b8173ffffffffffffffffffffffffffffffffffffffff168373ffffffffffffffffffffffffffffffffffffffff167fddf252ad1be2c89b69c2b068fc378daa952ba7f163c4a11628f55a4df523b3ef83604051610c8e9190611800565b60405180910390a3505050565b600080fd5b600073ffffffffffffffffffffffffffffffffffffffff82169050919050565b6000610ccb82610ca0565b9050919050565b610cdb81610cc0565b8114610ce657600080fd5b50565b600081519050610cf881610cd2565b92915050565b6000819050919050565b610d1181610cfe565b8114610d1c57600080fd5b50565b600081519050610d2e81610d08565b92915050565b60008060408385031215610d4b57610d4a610c9b565b5b6000610d5985828601610ce9565b9250506020610d6a85828601610d1f565b9150509250929050565b600081519050919050565b7f4e487b7100000000000000000000000000000000000000000000000000000000600052604160045260246000fd5b7f4e487b7100000000000000000000000000000000000000000000000000000000600052602260045260246000fd5b60006002820490506001821680610df557607f821691505b602082108103610e0857610e07610dae565b5b50919050565b60008190508160005260206000209050919050565b60006020601f8301049050919050565b600082821b905092915050565b600060088302610e707fffffffffffffffffffffffffffffffffffffffffffffffffffffffffffffffff82610e33565b610e7a8683610e33565b95508019841693508086168417925050509392505050565b6000819050919050565b6000610eb7610eb2610ead84610cfe565b610e92565b610cfe565b9050919050565b6000819050919050565b610ed183610e9c565b610ee5610edd82610ebe565b848454610e40565b825550505050565b600090565b610efa610eed565b610f05818484610ec8565b505050565b5b81811015610f2957610f1e600082610ef2565b600181019050610f0b565b5050565b601f821115610f6e57610f3f81610e0e565b610f4884610e23565b81016020851015610f57578190505b610f6b610f6385610e23565b830182610f0a565b50505b505050565b600082821c905092915050565b6000610f9160001984600802610f73565b1980831691505092915050565b6000610faa8383610f80565b9150826002028217905092915050565b610fc382610d74565b67ffffffffffffffff811115610fdc57610fdb610d7f565b5b610fe68254610ddd565b610ff1828285610f2d565b600060209050601f8311600181146110245760008415611012578287015190505b61101c8582610f9e565b865550611084565b601f19841661103286610e0e565b60005b8281101561105a57848901518255600182019150602085019450602081019050611035565b868310156110775784890151611073601f891682610f80565b8355505b6001600288020188555050505b505050505050565b61109581610cc0565b82525050565b60006020820190506110b0600083018461108c565b92915050565b600082825260208201905092915050565b7f436170206d7573742062652067726561746572207468616e207a65726f000000600082015250565b60006110fd601d836110b6565b9150611108826110c7565b602082019050919050565b6000602082019050818103600083015261112c816110f0565b9050919050565b7f4e487b7100000000000000000000000000000000000000000000000000000000600052601160045260246000fd5b60008160011c9050919050565b6000808291508390505b60018511156111b95780860481111561119557611194611133565b5b60018516156111a45780820291505b80810290506111b285611162565b9450611179565b94509492505050565b6000826111d2576001905061128e565b816111e0576000905061128e565b81600181146111f657600281146112005761122f565b600191505061128e565b60ff84111561121257611211611133565b5b8360020a91508482111561122957611228611133565b5b5061128e565b5060208310610133831016604e8410600b84101617156112645782820a90508381111561125f5761125e611133565b5b61128e565b611271848484600161116f565b9250905081840481111561128857611287611133565b5b81810290505b9392505050565b600060ff82169050919050565b60006112ad82610cfe565b91506112b883611295565b92506112e57fffffffffffffffffffffffffffffffffffffffffffffffffffffffffffffffff84846111c2565b905092915050565b60006112f882610cfe565b915061130383610cfe565b925082820261131181610cfe565b9150828204841483151761132857611327611133565b5b5092915050565b6000819050919050565b6113428161132f565b82525050565b61135181610cfe565b82525050565b600060a08201905061136c6000830188611339565b6113796020830187611339565b6113866040830186611339565b6113936060830185611348565b6113a0608083018461108c565b9695505050505050565b7f496e76616c696420746f6b656e2073796d626f6c000000000000000000000000600082015250565b60006113e06014836110b6565b91506113eb826113aa565b602082019050919050565b6000602082019050818103600083015261140f816113d3565b9050919050565b7f52617465206d75737420626520706f7369746976650000000000000000000000600082015250565b600061144c6015836110b6565b915061145782611416565b602082019050919050565b6000602082019050818103600083015261147b8161143f565b9050919050565b7f4e487b7100000000000000000000000000000000000000000000000000000000600052603260045260246000fd5b600081905092915050565b60008190508160005260206000209050919050565b600081546114de81610ddd565b6114e881866114b1565b9450600182166000811461150357600181146115185761154b565b60ff198316865281151582028601935061154b565b611521856114bc565b60005b8381101561154357815481890152600182019150602081019050611524565b838801955050505b50505092915050565b600061156082846114d1565b915081905092915050565b7f546f6b656e20616c726561647920737570706f72746564000000000000000000600082015250565b60006115a16017836110b6565b91506115ac8261156b565b602082019050919050565b600060208201905081810360008301526115d081611594565b9050919050565b600081905092915050565b60005b838110156116005780820151818401526020810190506115e5565b60008484015250505050565b600061161782610d74565b61162181856115d7565b93506116318185602086016115e2565b80840191505092915050565b6000611649828461160c565b915081905092915050565b6000601f19601f8301169050919050565b600061167082610d74565b61167a81856110b6565b935061168a8185602086016115e2565b61169381611654565b840191505092915050565b600060608201905081810360008301526116b88186611665565b90506116c7602083018561108c565b6116d46040830184611348565b949350505050565b600060208201905081810360008301526116f68184611665565b905092915050565b600081519050919050565b6000819050602082019050919050565b6000611725825161132f565b80915050919050565b6000611739826116fe565b8261174384611709565b905061174e81611719565b9250602082101561178e576117897fffffffffffffffffffffffffffffffffffffffffffffffffffffffffffffffff83602003600802610e33565b831692505b5050919050565b60006117a082610cfe565b91506117ab83610cfe565b92508282019050808211156117c3576117c2611133565b5b92915050565b60006060820190506117de600083018661108c565b6117eb6020830185611348565b6117f86040830184611348565b949350505050565b60006020820190506118156000830184611348565b92915050565b60805160a05160c05160e05161010051610120516101405161016051614dc661188760003960008181610d8c0152611d2f01526000612533015260006124f801526000612e3801526000612e17015260006121470152600061219d015260006121c60152614dc66000f3fe608060405234801561001057600080fd5b50600436106102535760003560e01c80637ecebe0011610146578063a96ffd64116100c3578063db0ca85711610087578063db0ca85714610728578063dd62ed3e14610744578063ec81b48314610774578063f2fde38b14610792578063f454fd9b146107ae578063fd48a1e6146107de57610253565b8063a96ffd6414610672578063c6255626146106a2578063d505accf146106d2578063d5391393146106ee578063d547741f1461070c57610253565b806391d148541161010a57806391d14854146105b657806395d89b41146105e65780639b72161314610604578063a217fddf14610624578063a9059cbb1461064257610253565b80637ecebe00146104f857806381386a7f1461052857806384b0196e14610558578063883f24ec1461057c5780638da5cb5b1461059857610253565b8063313ce567116101d457806343225acd1161019857806343225acd146104545780635c975abb1461048457806370a08231146104a2578063715018a6146104d257806379cc6790146104dc57610253565b8063313ce567146103c45780633644e515146103e257806336568abe1461040057806340c10f191461041c57806342966c681461043857610253565b806317456e561161021b57806317456e561461030e57806318160ddd1461032a57806323b872dd14610348578063248a9ca3146103785780632f2ff15d146103a857610253565b806301ffc9a71461025857806306fdde0314610288578063095ea7b3146102a657806314c360a2146102d657806316c38b3c146102f2575b600080fd5b610272600480360381019061026d91906133c7565b6107fc565b60405161027f919061340f565b60405180910390f35b610290610876565b60405161029d91906134ba565b60405180910390f35b6102c060048036038101906102bb9190613570565b610908565b6040516102cd919061340f565b60405180910390f35b6102f060048036038101906102eb91906136e5565b61092b565b005b61030c6004803603810190610307919061376d565b610b14565b005b6103286004803603810190610323919061379a565b610b76565b005b610332610c02565b60405161033f9190613805565b60405180910390f35b610362600480360381019061035d9190613820565b610c0c565b60405161036f919061340f565b60405180910390f35b610392600480360381019061038d91906138a9565b610c3b565b60405161039f91906138e5565b60405180910390f35b6103c260048036038101906103bd9190613900565b610c5b565b005b6103cc610c7d565b6040516103d9919061395c565b60405180910390f35b6103ea610c86565b6040516103f791906138e5565b60405180910390f35b61041a60048036038101906104159190613900565b610c95565b005b61043660048036038101906104319190613570565b610d10565b005b610452600480360381019061044d9190613977565b610e5c565b005b61046e600480360381019061046991906139a4565b610f06565b60405161047b9190613805565b60405180910390f35b61048c610f34565b604051610499919061340f565b60405180910390f35b6104bc60048036038101906104b791906139ed565b610f47565b6040516104c99190613805565b60405180910390f35b6104da610f8f565b005b6104f660048036038101906104f19190613570565b610fa3565b005b610512600480360381019061050d91906139ed565b610fc3565b60405161051f9190613805565b60405180910390f35b610542600480360381019061053d91906139a4565b610fd5565b60405161054f9190613a29565b60405180910390f35b61056061101e565b6040516105739796959493929190613b3d565b60405180910390f35b61059660048036038101906105919190613bed565b6110c8565b005b6105a0611155565b6040516105ad9190613a29565b60405180910390f35b6105d060048036038101906105cb9190613900565b61117f565b6040516105dd919061340f565b60405180910390f35b6105ee6111ea565b6040516105fb91906134ba565b60405180910390f35b61060c61127c565b60405161061b93929190613e3a565b60405180910390f35b61062c611599565b60405161063991906138e5565b60405180910390f35b61065c60048036038101906106579190613570565b6115a0565b604051610669919061340f565b60405180910390f35b61068c60048036038101906106879190613e86565b6115c3565b6040516106999190613805565b60405180910390f35b6106bc60048036038101906106b79190613977565b6116d0565b6040516106c991906134ba565b60405180910390f35b6106ec60048036038101906106e79190613ef5565b61177c565b005b6106f66118c4565b60405161070391906138e5565b60405180910390f35b61072660048036038101906107219190613900565b6118e8565b005b610742600480360381019061073d9190613e86565b61190a565b005b61075e60048036038101906107599190613f97565b611ca6565b60405161076b9190613805565b60405180910390f35b61077c611d2d565b6040516107899190613805565b60405180910390f35b6107ac60048036038101906107a791906139ed565b611d51565b005b6107c860048036038101906107c391906139a4565b611dd7565b6040516107d5919061395c565b60405180910390f35b6107e6611e0d565b6040516107f391906138e5565b60405180910390f35b60007f7965db0b000000000000000000000000000000000000000000000000000000007bffffffffffffffffffffffffffffffffffffffffffffffffffffffff1916827bffffffffffffffffffffffffffffffffffffffffffffffffffffffff1916148061086f575061086e82611e31565b5b9050919050565b60606003805461088590614006565b80601f01602080910402602001604051908101604052809291908181526020018280546108b190614006565b80156108fe5780601f106108d3576101008083540402835291602001916108fe565b820191906000526020600020905b8154815290600101906020018083116108e157829003601f168201915b5050505050905090565b600080610913611e9b565b9050610920818585611ea3565b600191505092915050565b7fe9eb2d474dbf4ad0af01dbc745ec0e55d70ca9366fe9b52307997e913bad905c61095581611eb5565b600f60009054906101000a900460ff16156109a5576040517f08c379a000000000000000000000000000000000000000000000000000000000815260040161099c90614083565b60405180910390fd5b60008351116109e9576040517f08c379a00000000000000000000000000000000000000000000000000000000081526004016109e0906140ef565b60405180910390fd5b60008211610a2c576040517f08c379a0000000000000000000000000000000000000000000000000000000008152600401610a239061415b565b60405180910390fd5b6000600b84604051610a3e91906141b7565b90815260200160405180910390205411610a8d576040517f08c379a0000000000000000000000000000000000000000000000000000000008152600401610a849061421a565b60405180910390fd5b6000600b84604051610a9f91906141b7565b908152602001604051809103902054905082600b85604051610ac191906141b7565b9081526020016040518091039020819055507f301886e6c7c3689607c20b38181febf7ed6a192d69f4fd79065fd0fc869323b6848285604051610b069392919061423a565b60405180910390a150505050565b6000801b610b2181611eb5565b81600f60006101000a81548160ff0219169083151502179055507f9e3a5e37224532dea67b89face185703738a228a6e8a23dee546960180d3be6482604051610b6a919061340f565b60405180910390a15050565b7fe9eb2d474dbf4ad0af01dbc745ec0e55d70ca9366fe9b52307997e913bad905c610ba081611eb5565b81600c84604051610bb191906141b7565b908152602001604051809103902060006101000a81548173ffffffffffffffffffffffffffffffffffffffff021916908373ffffffffffffffffffffffffffffffffffffffff160217905550505050565b6000600254905090565b600080610c17611e9b565b9050610c24858285611ec9565b610c2f858585611f5d565b60019150509392505050565b600060096000838152602001908152602001600020600101549050919050565b610c6482610c3b565b610c6d81611eb5565b610c778383612051565b50505050565b60006012905090565b6000610c90612143565b905090565b610c9d611e9b565b73ffffffffffffffffffffffffffffffffffffffff168173ffffffffffffffffffffffffffffffffffffffff1614610d01576040517f6697b23200000000000000000000000000000000000000000000000000000000815260040160405180910390fd5b610d0b82826121fa565b505050565b7f9f2df0fed2c77648de5860a4cc508cd0818c85b8b8a1ab4ceeef8d981c8956a6610d3a81611eb5565b600f60009054906101000a900460ff1615610d8a576040517f08c379a0000000000000000000000000000000000000000000000000000000008152600401610d8190614083565b60405180910390fd5b7f000000000000000000000000000000000000000000000000000000000000000082610db4610c02565b610dbe91906142a7565b1115610dff576040517f08c379a0000000000000000000000000000000000000000000000000000000008152600401610df690614327565b60405180910390fd5b610e0983836122ed565b8273ffffffffffffffffffffffffffffffffffffffff167f3f2c9d57c068687834f0de942a9babb9e5acab57d516d3480a3c16ee165a427383604051610e4f9190613805565b60405180910390a2505050565b600f60009054906101000a900460ff1615610eac576040517f08c379a0000000000000000000000000000000000000000000000000000000008152600401610ea390614083565b60405180910390fd5b610eb58161236f565b3373ffffffffffffffffffffffffffffffffffffffff167ffd38818f5291bf0bb3a2a48aadc06ba8757865d1dabd804585338aab3009dcb682604051610efb9190613805565b60405180910390a250565b600b818051602081018201805184825260208301602085012081835280955050505050506000915090505481565b600f60009054906101000a900460ff1681565b60008060008373ffffffffffffffffffffffffffffffffffffffff1673ffffffffffffffffffffffffffffffffffffffff168152602001908152602001600020549050919050565b610f97612383565b610fa1600061240a565b565b610fb582610faf611e9b565b83611ec9565b610fbf8282612424565b5050565b6000610fce826124a6565b9050919050565b600c818051602081018201805184825260208301602085012081835280955050505050506000915054906101000a900473ffffffffffffffffffffffffffffffffffffffff1681565b6000606080600080600060606110326124ef565b61103a61252a565b46306000801b600067ffffffffffffffff81111561105b5761105a6135ba565b5b6040519080825280602002602001820160405280156110895781602001602082028036833780820191505090505b507f0f00000000000000000000000000000000000000000000000000000000000000959493929190965096509650965096509650965090919293949596565b7fe9eb2d474dbf4ad0af01dbc745ec0e55d70ca9366fe9b52307997e913bad905c6110f281611eb5565b600f60009054906101000a900460ff1615611142576040517f08c379a000000000000000000000000000000000000000000000000000000000815260040161113990614083565b60405180910390fd5b61114e85858585612565565b5050505050565b6000600560009054906101000a900473ffffffffffffffffffffffffffffffffffffffff16905090565b60006009600084815260200190815260200160002060000160008373ffffffffffffffffffffffffffffffffffffffff1673ffffffffffffffffffffffffffffffffffffffff16815260200190815260200160002060009054906101000a900460ff16905092915050565b6060600480546111f990614006565b80601f016020809104026020016040519081016040528092919081815260200182805461122590614006565b80156112725780601f1061124757610100808354040283529160200191611272565b820191906000526020600020905b81548152906001019060200180831161125557829003601f168201915b5050505050905090565b60608060606000600e80549050905060008167ffffffffffffffff8111156112a7576112a66135ba565b5b6040519080825280602002602001820160405280156112d55781602001602082028036833780820191505090505b50905060008267ffffffffffffffff8111156112f4576112f36135ba565b5b6040519080825280602002602001820160405280156113225781602001602082028036833780820191505090505b50905060005b838110156114b3576000600e828154811061134657611345614347565b5b90600052602060002001805461135b90614006565b80601f016020809104026020016040519081016040528092919081815260200182805461138790614006565b80156113d45780601f106113a9576101008083540402835291602001916113d4565b820191906000526020600020905b8154815290600101906020018083116113b757829003601f168201915b50505050509050600b816040516113eb91906141b7565b90815260200160405180910390205484838151811061140d5761140c614347565b5b602002602001018181525050600c8160405161142991906141b7565b908152602001604051809103902060009054906101000a900473ffffffffffffffffffffffffffffffffffffffff1683838151811061146b5761146a614347565b5b602002602001019073ffffffffffffffffffffffffffffffffffffffff16908173ffffffffffffffffffffffffffffffffffffffff1681525050508080600101915050611328565b50600e828282805480602002602001604051908101604052809291908181526020016000905b828210156115855783829060005260206000200180546114f890614006565b80601f016020809104026020016040519081016040528092919081815260200182805461152490614006565b80156115715780601f1061154657610100808354040283529160200191611571565b820191906000526020600020905b81548152906001019060200180831161155457829003601f168201915b5050505050815260200190600101906114d9565b505050509250955095509550505050909192565b6000801b81565b6000806115ab611e9b565b90506115b8818585611f5d565b600191505092915050565b600080600b856040516115d691906141b7565b90815260200160405180910390205490506000811161162a576040517f08c379a0000000000000000000000000000000000000000000000000000000008152600401611621906143c2565b60405180910390fd5b6000841161166d576040517f08c379a00000000000000000000000000000000000000000000000000000000081526004016116649061442e565b60405180910390fd5b600061167a8686866127b8565b9050836116a557670de0b6b3a76400008282611696919061444e565b6116a091906144bf565b6116c5565b81670de0b6b3a7640000826116ba919061444e565b6116c491906144bf565b5b925050509392505050565b600e81815481106116e057600080fd5b9060005260206000200160009150905080546116fb90614006565b80601f016020809104026020016040519081016040528092919081815260200182805461172790614006565b80156117745780601f1061174957610100808354040283529160200191611774565b820191906000526020600020905b81548152906001019060200180831161175757829003601f168201915b505050505081565b834211156117c157836040517f627913020000000000000000000000000000000000000000000000000000000081526004016117b89190613805565b60405180910390fd5b60007f6e71edae12b1b97f4d1f60370fef10105fa2faae0126114a169c64845d6126c98888886117f08c6128b4565b89604051602001611806969594939291906144f0565b60405160208183030381529060405280519060200120905060006118298261290b565b9050600061183982878787612925565b90508973ffffffffffffffffffffffffffffffffffffffff168173ffffffffffffffffffffffffffffffffffffffff16146118ad57808a6040517f4b800e460000000000000000000000000000000000000000000000000000000081526004016118a4929190614551565b60405180910390fd5b6118b88a8a8a611ea3565b50505050505050505050565b7f9f2df0fed2c77648de5860a4cc508cd0818c85b8b8a1ab4ceeef8d981c8956a681565b6118f182610c3b565b6118fa81611eb5565b61190483836121fa565b50505050565b611912612955565b600f60009054906101000a900460ff1615611962576040517f08c379a000000000000000000000000000000000000000000000000000000000815260040161195990614083565b60405180910390fd5b600082116119a5576040517f08c379a000000000000000000000000000000000000000000000000000000000815260040161199c9061442e565b60405180910390fd5b60006119b28484846115c3565b90508115611b02576000600c856040516119cc91906141b7565b908152602001604051809103902060009054906101000a900473ffffffffffffffffffffffffffffffffffffffff169050600073ffffffffffffffffffffffffffffffffffffffff168173ffffffffffffffffffffffffffffffffffffffff1614611af1578073ffffffffffffffffffffffffffffffffffffffff166323b872dd3330876040518463ffffffff1660e01b8152600401611a6e9392919061457a565b6020604051808303816000875af1158015611a8d573d6000803e3d6000fd5b505050506040513d601f19601f82011682018060405250810190611ab191906145c6565b611af0576040517f08c379a0000000000000000000000000000000000000000000000000000000008152600401611ae79061463f565b60405180910390fd5b5b611afc303384611f5d565b50611c44565b611b0d333085611f5d565b6000600c85604051611b1f91906141b7565b908152602001604051809103902060009054906101000a900473ffffffffffffffffffffffffffffffffffffffff169050600073ffffffffffffffffffffffffffffffffffffffff168173ffffffffffffffffffffffffffffffffffffffff1614611c42578073ffffffffffffffffffffffffffffffffffffffff1663a9059cbb33846040518363ffffffff1660e01b8152600401611bbf92919061465f565b6020604051808303816000875af1158015611bde573d6000803e3d6000fd5b505050506040513d601f19601f82011682018060405250810190611c0291906145c6565b611c41576040517f08c379a0000000000000000000000000000000000000000000000000000000008152600401611c389061463f565b60405180910390fd5b5b505b3373ffffffffffffffffffffffffffffffffffffffff167fb2352db38d4ea2a35d8061501d14d4177e27825afdaa66c6d1c37dedad76de4c85858486604051611c909493929190614688565b60405180910390a250611ca161299b565b505050565b6000600160008473ffffffffffffffffffffffffffffffffffffffff1673ffffffffffffffffffffffffffffffffffffffff16815260200190815260200160002060008373ffffffffffffffffffffffffffffffffffffffff1673ffffffffffffffffffffffffffffffffffffffff16815260200190815260200160002054905092915050565b7f000000000000000000000000000000000000000000000000000000000000000081565b611d59612383565b600073ffffffffffffffffffffffffffffffffffffffff168173ffffffffffffffffffffffffffffffffffffffff1603611dcb5760006040517f1e4fbdf7000000000000000000000000000000000000000000000000000000008152600401611dc29190613a29565b60405180910390fd5b611dd48161240a565b50565b600d818051602081018201805184825260208301602085012081835280955050505050506000915054906101000a900460ff1681565b7fe9eb2d474dbf4ad0af01dbc745ec0e55d70ca9366fe9b52307997e913bad905c81565b60007f01ffc9a7000000000000000000000000000000000000000000000000000000007bffffffffffffffffffffffffffffffffffffffffffffffffffffffff1916827bffffffffffffffffffffffffffffffffffffffffffffffffffffffff1916149050919050565b600033905090565b611eb083838360016129a5565b505050565b611ec681611ec1611e9b565b612b7c565b50565b6000611ed58484611ca6565b90507fffffffffffffffffffffffffffffffffffffffffffffffffffffffffffffffff8114611f575781811015611f47578281836040517ffb8f41b2000000000000000000000000000000000000000000000000000000008152600401611f3e939291906146d4565b60405180910390fd5b611f56848484840360006129a5565b5b50505050565b600073ffffffffffffffffffffffffffffffffffffffff168373ffffffffffffffffffffffffffffffffffffffff1603611fcf5760006040517f96c6fd1e000000000000000000000000000000000000000000000000000000008152600401611fc69190613a29565b60405180910390fd5b600073ffffffffffffffffffffffffffffffffffffffff168273ffffffffffffffffffffffffffffffffffffffff16036120415760006040517fec442f050000000000000000000000000000000000000000000000000000000081526004016120389190613a29565b60405180910390fd5b61204c838383612bcd565b505050565b600061205d838361117f565b6121385760016009600085815260200190815260200160002060000160008473ffffffffffffffffffffffffffffffffffffffff1673ffffffffffffffffffffffffffffffffffffffff16815260200190815260200160002060006101000a81548160ff0219169083151502179055506120d5611e9b565b73ffffffffffffffffffffffffffffffffffffffff168273ffffffffffffffffffffffffffffffffffffffff16847f2f8788117e7eff1d82e926ec794901d17c78024a50270940304540a733656f0d60405160405180910390a46001905061213d565b600090505b92915050565b60007f000000000000000000000000000000000000000000000000000000000000000073ffffffffffffffffffffffffffffffffffffffff163073ffffffffffffffffffffffffffffffffffffffff161480156121bf57507f000000000000000000000000000000000000000000000000000000000000000046145b156121ec577f000000000000000000000000000000000000000000000000000000000000000090506121f7565b6121f4612df2565b90505b90565b6000612206838361117f565b156122e25760006009600085815260200190815260200160002060000160008473ffffffffffffffffffffffffffffffffffffffff1673ffffffffffffffffffffffffffffffffffffffff16815260200190815260200160002060006101000a81548160ff02191690831515021790555061227f611e9b565b73ffffffffffffffffffffffffffffffffffffffff168273ffffffffffffffffffffffffffffffffffffffff16847ff6391f5c32d9c69d2a47ea670b442974b53935d1edc7fd64eb21e047a839171b60405160405180910390a4600190506122e7565b600090505b92915050565b600073ffffffffffffffffffffffffffffffffffffffff168273ffffffffffffffffffffffffffffffffffffffff160361235f5760006040517fec442f050000000000000000000000000000000000000000000000000000000081526004016123569190613a29565b60405180910390fd5b61236b60008383612bcd565b5050565b61238061237a611e9b565b82612424565b50565b61238b611e9b565b73ffffffffffffffffffffffffffffffffffffffff166123a9611155565b73ffffffffffffffffffffffffffffffffffffffff1614612408576123cc611e9b565b6040517f118cdaa70000000000000000000000000000000000000000000000000000000081526004016123ff9190613a29565b60405180910390fd5b565b61241381612e88565b6124206000801b82612051565b5050565b600073ffffffffffffffffffffffffffffffffffffffff168273ffffffffffffffffffffffffffffffffffffffff16036124965760006040517f96c6fd1e00000000000000000000000000000000000000000000000000000000815260040161248d9190613a29565b60405180910390fd5b6124a282600083612bcd565b5050565b6000600860008373ffffffffffffffffffffffffffffffffffffffff1673ffffffffffffffffffffffffffffffffffffffff168152602001908152602001600020549050919050565b606061252560067f0000000000000000000000000000000000000000000000000000000000000000612f4e90919063ffffffff16565b905090565b606061256060077f0000000000000000000000000000000000000000000000000000000000000000612f4e90919063ffffffff16565b905090565b60008451116125a9576040517f08c379a00000000000000000000000000000000000000000000000000000000081526004016125a0906140ef565b60405180910390fd5b600082116125ec576040517f08c379a00000000000000000000000000000000000000000000000000000000081526004016125e39061415b565b60405180910390fd5b6000600e80549050905060005b81811015612689578580519060200120600e828154811061261d5761261c614347565b5b9060005260206000200160405161263491906147ae565b60405180910390200361267c576040517f08c379a000000000000000000000000000000000000000000000000000000000815260040161267390614811565b60405180910390fd5b80806001019150506125f9565b50600e859080600181540180825580915050600190039060005260206000200160009091909190915090816126be91906149dd565b5082600b866040516126d091906141b7565b90815260200160405180910390208190555083600c866040516126f391906141b7565b908152602001604051809103902060006101000a81548173ffffffffffffffffffffffffffffffffffffffff021916908373ffffffffffffffffffffffffffffffffffffffff16021790555081600d8660405161275091906141b7565b908152602001604051809103902060006101000a81548160ff021916908360ff1602179055507f84390a2096e2bf5a86745ae76997944b0f161f904f842ee21f1669a5dc93361b8585856040516127a993929190614aaf565b60405180910390a15050505050565b600080600d856040516127cb91906141b7565b908152602001604051809103902060009054906101000a900460ff16905082156128505760128160ff1610612823576012816128079190614aed565b600a6128139190614c55565b8461281e91906144bf565b612848565b8060126128309190614aed565b600a61283c9190614c55565b84612847919061444e565b5b9150506128ad565b60128160ff1610612884576012816128689190614aed565b600a6128749190614c55565b8461287f919061444e565b6128a9565b8060126128919190614aed565b600a61289d9190614c55565b846128a891906144bf565b5b9150505b9392505050565b6000600860008373ffffffffffffffffffffffffffffffffffffffff1673ffffffffffffffffffffffffffffffffffffffff1681526020019081526020016000206000815480929190600101919050559050919050565b600061291e612918612143565b83612ffe565b9050919050565b6000806000806129378888888861303f565b9250925092506129478282613133565b829350505050949350505050565b6002600a5403612991576040517f3ee5aeb500000000000000000000000000000000000000000000000000000000815260040160405180910390fd5b6002600a81905550565b6001600a81905550565b600073ffffffffffffffffffffffffffffffffffffffff168473ffffffffffffffffffffffffffffffffffffffff1603612a175760006040517fe602df05000000000000000000000000000000000000000000000000000000008152600401612a0e9190613a29565b60405180910390fd5b600073ffffffffffffffffffffffffffffffffffffffff168373ffffffffffffffffffffffffffffffffffffffff1603612a895760006040517f94280d62000000000000000000000000000000000000000000000000000000008152600401612a809190613a29565b60405180910390fd5b81600160008673ffffffffffffffffffffffffffffffffffffffff1673ffffffffffffffffffffffffffffffffffffffff16815260200190815260200160002060008573ffffffffffffffffffffffffffffffffffffffff1673ffffffffffffffffffffffffffffffffffffffff168152602001908152602001600020819055508015612b76578273ffffffffffffffffffffffffffffffffffffffff168473ffffffffffffffffffffffffffffffffffffffff167f8c5be1e5ebec7d5bd14f71427d1e84f3dd0314c0f7b2291e5b200ac8c7c3b92584604051612b6d9190613805565b60405180910390a35b50505050565b612b86828261117f565b612bc95780826040517fe2517d3f000000000000000000000000000000000000000000000000000000008152600401612bc0929190614ca0565b60405180910390fd5b5050565b600073ffffffffffffffffffffffffffffffffffffffff168373ffffffffffffffffffffffffffffffffffffffff1603612c1f578060026000828254612c1391906142a7565b92505081905550612cf2565b60008060008573ffffffffffffffffffffffffffffffffffffffff1673ffffffffffffffffffffffffffffffffffffffff16815260200190815260200160002054905081811015612cab578381836040517fe450d38c000000000000000000000000000000000000000000000000000000008152600401612ca2939291906146d4565b60405180910390fd5b8181036000808673ffffffffffffffffffffffffffffffffffffffff1673ffffffffffffffffffffffffffffffffffffffff16815260200190815260200160002081905550505b600073ffffffffffffffffffffffffffffffffffffffff168273ffffffffffffffffffffffffffffffffffffffff1603612d3b5780600260008282540392505081905550612d88565b806000808473ffffffffffffffffffffffffffffffffffffffff1673ffffffffffffffffffffffffffffffffffffffff168152602001908152602001600020600082825401925050819055505b8173ffffffffffffffffffffffffffffffffffffffff168373ffffffffffffffffffffffffffffffffffffffff167fddf252ad1be2c89b69c2b068fc378daa952ba7f163c4a11628f55a4df523b3ef83604051612de59190613805565b60405180910390a3505050565b60007f8b73c3c69bb8fe3d512ecc4cf759cc79239f7b179b0ffacaa9a75d522b39400f7f00000000000000000000000000000000000000000000000000000000000000007f00000000000000000000000000000000000000000000000000000000000000004630604051602001612e6d959493929190614cc9565b60405160208183030381529060405280519060200120905090565b6000600560009054906101000a900473ffffffffffffffffffffffffffffffffffffffff16905081600560006101000a81548173ffffffffffffffffffffffffffffffffffffffff021916908373ffffffffffffffffffffffffffffffffffffffff1602179055508173ffffffffffffffffffffffffffffffffffffffff168173ffffffffffffffffffffffffffffffffffffffff167f8be0079c531659141344cd1fd0a4f28419497f9722a3daafe3b4186f6b6457e060405160405180910390a35050565b606060ff60001b8314612f6b57612f6483613297565b9050612ff8565b818054612f7790614006565b80601f0160208091040260200160405190810160405280929190818152602001828054612fa390614006565b8015612ff05780601f10612fc557610100808354040283529160200191612ff0565b820191906000526020600020905b815481529060010190602001808311612fd357829003601f168201915b505050505090505b92915050565b60006040517f190100000000000000000000000000000000000000000000000000000000000081528360028201528260228201526042812091505092915050565b60008060007f7fffffffffffffffffffffffffffffff5d576e7357a4501ddfe92f46681b20a08460001c111561307f576000600385925092509250613129565b6000600188888888604051600081526020016040526040516130a49493929190614d1c565b6020604051602081039080840390855afa1580156130c6573d6000803e3d6000fd5b505050602060405103519050600073ffffffffffffffffffffffffffffffffffffffff168173ffffffffffffffffffffffffffffffffffffffff160361311a57600060016000801b93509350935050613129565b8060008060001b935093509350505b9450945094915050565b6000600381111561314757613146614d61565b5b82600381111561315a57613159614d61565b5b0315613293576001600381111561317457613173614d61565b5b82600381111561318757613186614d61565b5b036131be576040517ff645eedf00000000000000000000000000000000000000000000000000000000815260040160405180910390fd5b600260038111156131d2576131d1614d61565b5b8260038111156131e5576131e4614d61565b5b0361322a578060001c6040517ffce698f70000000000000000000000000000000000000000000000000000000081526004016132219190613805565b60405180910390fd5b60038081111561323d5761323c614d61565b5b8260038111156132505761324f614d61565b5b0361329257806040517fd78bce0c00000000000000000000000000000000000000000000000000000000815260040161328991906138e5565b60405180910390fd5b5b5050565b606060006132a48361330b565b90506000602067ffffffffffffffff8111156132c3576132c26135ba565b5b6040519080825280601f01601f1916602001820160405280156132f55781602001600182028036833780820191505090505b5090508181528360208201528092505050919050565b60008060ff8360001c169050601f811115613352576040517fb3512b0c00000000000000000000000000000000000000000000000000000000815260040160405180910390fd5b80915050919050565b6000604051905090565b600080fd5b600080fd5b60007fffffffff0000000000000000000000000000000000000000000000000000000082169050919050565b6133a48161336f565b81146133af57600080fd5b50565b6000813590506133c18161339b565b92915050565b6000602082840312156133dd576133dc613365565b5b60006133eb848285016133b2565b91505092915050565b60008115159050919050565b613409816133f4565b82525050565b60006020820190506134246000830184613400565b92915050565b600081519050919050565b600082825260208201905092915050565b60005b83811015613464578082015181840152602081019050613449565b60008484015250505050565b6000601f19601f8301169050919050565b600061348c8261342a565b6134968185613435565b93506134a6818560208601613446565b6134af81613470565b840191505092915050565b600060208201905081810360008301526134d48184613481565b905092915050565b600073ffffffffffffffffffffffffffffffffffffffff82169050919050565b6000613507826134dc565b9050919050565b613517816134fc565b811461352257600080fd5b50565b6000813590506135348161350e565b92915050565b6000819050919050565b61354d8161353a565b811461355857600080fd5b50565b60008135905061356a81613544565b92915050565b6000806040838503121561358757613586613365565b5b600061359585828601613525565b92505060206135a68582860161355b565b9150509250929050565b600080fd5b600080fd5b7f4e487b7100000000000000000000000000000000000000000000000000000000600052604160045260246000fd5b6135f282613470565b810181811067ffffffffffffffff82111715613611576136106135ba565b5b80604052505050565b600061362461335b565b905061363082826135e9565b919050565b600067ffffffffffffffff8211156136505761364f6135ba565b5b61365982613470565b9050602081019050919050565b82818337600083830152505050565b600061368861368384613635565b61361a565b9050828152602081018484840111156136a4576136a36135b5565b5b6136af848285613666565b509392505050565b600082601f8301126136cc576136cb6135b0565b5b81356136dc848260208601613675565b91505092915050565b600080604083850312156136fc576136fb613365565b5b600083013567ffffffffffffffff81111561371a5761371961336a565b5b613726858286016136b7565b92505060206137378582860161355b565b9150509250929050565b61374a816133f4565b811461375557600080fd5b50565b60008135905061376781613741565b92915050565b60006020828403121561378357613782613365565b5b600061379184828501613758565b91505092915050565b600080604083850312156137b1576137b0613365565b5b600083013567ffffffffffffffff8111156137cf576137ce61336a565b5b6137db858286016136b7565b92505060206137ec85828601613525565b9150509250929050565b6137ff8161353a565b82525050565b600060208201905061381a60008301846137f6565b92915050565b60008060006060848603121561383957613838613365565b5b600061384786828701613525565b935050602061385886828701613525565b92505060406138698682870161355b565b9150509250925092565b6000819050919050565b61388681613873565b811461389157600080fd5b50565b6000813590506138a38161387d565b92915050565b6000602082840312156138bf576138be613365565b5b60006138cd84828501613894565b91505092915050565b6138df81613873565b82525050565b60006020820190506138fa60008301846138d6565b92915050565b6000806040838503121561391757613916613365565b5b600061392585828601613894565b925050602061393685828601613525565b9150509250929050565b600060ff82169050919050565b61395681613940565b82525050565b6000602082019050613971600083018461394d565b92915050565b60006020828403121561398d5761398c613365565b5b600061399b8482850161355b565b91505092915050565b6000602082840312156139ba576139b9613365565b5b600082013567ffffffffffffffff8111156139d8576139d761336a565b5b6139e4848285016136b7565b91505092915050565b600060208284031215613a0357613a02613365565b5b6000613a1184828501613525565b91505092915050565b613a23816134fc565b82525050565b6000602082019050613a3e6000830184613a1a565b92915050565b60007fff0000000000000000000000000000000000000000000000000000000000000082169050919050565b613a7981613a44565b82525050565b600081519050919050565b600082825260208201905092915050565b6000819050602082019050919050565b613ab48161353a565b82525050565b6000613ac68383613aab565b60208301905092915050565b6000602082019050919050565b6000613aea82613a7f565b613af48185613a8a565b9350613aff83613a9b565b8060005b83811015613b30578151613b178882613aba565b9750613b2283613ad2565b925050600181019050613b03565b5085935050505092915050565b600060e082019050613b52600083018a613a70565b8181036020830152613b648189613481565b90508181036040830152613b788188613481565b9050613b8760608301876137f6565b613b946080830186613a1a565b613ba160a08301856138d6565b81810360c0830152613bb38184613adf565b905098975050505050505050565b613bca81613940565b8114613bd557600080fd5b50565b600081359050613be781613bc1565b92915050565b60008060008060808587031215613c0757613c06613365565b5b600085013567ffffffffffffffff811115613c2557613c2461336a565b5b613c31878288016136b7565b9450506020613c4287828801613525565b9350506040613c538782880161355b565b9250506060613c6487828801613bd8565b91505092959194509250565b600081519050919050565b600082825260208201905092915050565b6000819050602082019050919050565b600082825260208201905092915050565b6000613cb88261342a565b613cc28185613c9c565b9350613cd2818560208601613446565b613cdb81613470565b840191505092915050565b6000613cf28383613cad565b905092915050565b6000602082019050919050565b6000613d1282613c70565b613d1c8185613c7b565b935083602082028501613d2e85613c8c565b8060005b85811015613d6a5784840389528151613d4b8582613ce6565b9450613d5683613cfa565b925060208a01995050600181019050613d32565b50829750879550505050505092915050565b600081519050919050565b600082825260208201905092915050565b6000819050602082019050919050565b613db1816134fc565b82525050565b6000613dc38383613da8565b60208301905092915050565b6000602082019050919050565b6000613de782613d7c565b613df18185613d87565b9350613dfc83613d98565b8060005b83811015613e2d578151613e148882613db7565b9750613e1f83613dcf565b925050600181019050613e00565b5085935050505092915050565b60006060820190508181036000830152613e548186613d07565b90508181036020830152613e688185613adf565b90508181036040830152613e7c8184613ddc565b9050949350505050565b600080600060608486031215613e9f57613e9e613365565b5b600084013567ffffffffffffffff811115613ebd57613ebc61336a565b5b613ec9868287016136b7565b9350506020613eda8682870161355b565b9250506040613eeb86828701613758565b9150509250925092565b600080600080600080600060e0888a031215613f1457613f13613365565b5b6000613f228a828b01613525565b9750506020613f338a828b01613525565b9650506040613f448a828b0161355b565b9550506060613f558a828b0161355b565b9450506080613f668a828b01613bd8565b93505060a0613f778a828b01613894565b92505060c0613f888a828b01613894565b91505092959891949750929550565b60008060408385031215613fae57613fad613365565b5b6000613fbc85828601613525565b9250506020613fcd85828601613525565b9150509250929050565b7f4e487b7100000000000000000000000000000000000000000000000000000000600052602260045260246000fd5b6000600282049050600182168061401e57607f821691505b60208210810361403157614030613fd7565b5b50919050565b7f436f6e7472616374207061757365640000000000000000000000000000000000600082015250565b600061406d600f83613435565b915061407882614037565b602082019050919050565b6000602082019050818103600083015261409c81614060565b9050919050565b7f496e76616c696420746f6b656e2073796d626f6c000000000000000000000000600082015250565b60006140d9601483613435565b91506140e4826140a3565b602082019050919050565b60006020820190508181036000830152614108816140cc565b9050919050565b7f52617465206d75737420626520706f7369746976650000000000000000000000600082015250565b6000614145601583613435565b91506141508261410f565b602082019050919050565b6000602082019050818103600083015261417481614138565b9050919050565b600081905092915050565b60006141918261342a565b61419b818561417b565b93506141ab818560208601613446565b80840191505092915050565b60006141c38284614186565b915081905092915050565b7f546f6b656e206e6f7420737570706f7274656400000000000000000000000000600082015250565b6000614204601383613435565b915061420f826141ce565b602082019050919050565b60006020820190508181036000830152614233816141f7565b9050919050565b600060608201905081810360008301526142548186613481565b905061426360208301856137f6565b61427060408301846137f6565b949350505050565b7f4e487b7100000000000000000000000000000000000000000000000000000000600052601160045260246000fd5b60006142b28261353a565b91506142bd8361353a565b92508282019050808211156142d5576142d4614278565b5b92915050565b7f44616a75546f6b656e3a20636170206578636565646564000000000000000000600082015250565b6000614311601783613435565b915061431c826142db565b602082019050919050565b6000602082019050818103600083015261434081614304565b9050919050565b7f4e487b7100000000000000000000000000000000000000000000000000000000600052603260045260246000fd5b7f556e737570706f7274656420746f6b656e000000000000000000000000000000600082015250565b60006143ac601183613435565b91506143b782614376565b602082019050919050565b600060208201905081810360008301526143db8161439f565b9050919050565b7f416d6f756e74206d75737420626520706f736974697665000000000000000000600082015250565b6000614418601783613435565b9150614423826143e2565b602082019050919050565b600060208201905081810360008301526144478161440b565b9050919050565b60006144598261353a565b91506144648361353a565b92508282026144728161353a565b9150828204841483151761448957614488614278565b5b5092915050565b7f4e487b7100000000000000000000000000000000000000000000000000000000600052601260045260246000fd5b60006144ca8261353a565b91506144d58361353a565b9250826144e5576144e4614490565b5b828204905092915050565b600060c08201905061450560008301896138d6565b6145126020830188613a1a565b61451f6040830187613a1a565b61452c60608301866137f6565b61453960808301856137f6565b61454660a08301846137f6565b979650505050505050565b60006040820190506145666000830185613a1a565b6145736020830184613a1a565b9392505050565b600060608201905061458f6000830186613a1a565b61459c6020830185613a1a565b6145a960408301846137f6565b949350505050565b6000815190506145c081613741565b92915050565b6000602082840312156145dc576145db613365565b5b60006145ea848285016145b1565b91505092915050565b7f5472616e73666572206661696c65640000000000000000000000000000000000600082015250565b6000614629600f83613435565b9150614634826145f3565b602082019050919050565b600060208201905081810360008301526146588161461c565b9050919050565b60006040820190506146746000830185613a1a565b61468160208301846137f6565b9392505050565b600060808201905081810360008301526146a28187613481565b90506146b160208301866137f6565b6146be60408301856137f6565b6146cb6060830184613400565b95945050505050565b60006060820190506146e96000830186613a1a565b6146f660208301856137f6565b61470360408301846137f6565b949350505050565b600081905092915050565b60008190508160005260206000209050919050565b6000815461473881614006565b614742818661470b565b9450600182166000811461475d5760018114614772576147a5565b60ff19831686528115158202860193506147a5565b61477b85614716565b60005b8381101561479d5781548189015260018201915060208101905061477e565b838801955050505b50505092915050565b60006147ba828461472b565b915081905092915050565b7f546f6b656e20616c726561647920737570706f72746564000000000000000000600082015250565b60006147fb601783613435565b9150614806826147c5565b602082019050919050565b6000602082019050818103600083015261482a816147ee565b9050919050565b60008190508160005260206000209050919050565b60006020601f8301049050919050565b600082821b905092915050565b6000600883026148937fffffffffffffffffffffffffffffffffffffffffffffffffffffffffffffffff82614856565b61489d8683614856565b95508019841693508086168417925050509392505050565b6000819050919050565b60006148da6148d56148d08461353a565b6148b5565b61353a565b9050919050565b6000819050919050565b6148f4836148bf565b614908614900826148e1565b848454614863565b825550505050565b600090565b61491d614910565b6149288184846148eb565b505050565b5b8181101561494c57614941600082614915565b60018101905061492e565b5050565b601f8211156149915761496281614831565b61496b84614846565b8101602085101561497a578190505b61498e61498685614846565b83018261492d565b50505b505050565b600082821c905092915050565b60006149b460001984600802614996565b1980831691505092915050565b60006149cd83836149a3565b9150826002028217905092915050565b6149e68261342a565b67ffffffffffffffff8111156149ff576149fe6135ba565b5b614a098254614006565b614a14828285614950565b600060209050601f831160018114614a475760008415614a35578287015190505b614a3f85826149c1565b865550614aa7565b601f198416614a5586614831565b60005b82811015614a7d57848901518255600182019150602085019450602081019050614a58565b86831015614a9a5784890151614a96601f8916826149a3565b8355505b6001600288020188555050505b505050505050565b60006060820190508181036000830152614ac98186613481565b9050614ad86020830185613a1a565b614ae560408301846137f6565b949350505050565b6000614af882613940565b9150614b0383613940565b9250828203905060ff811115614b1c57614b1b614278565b5b92915050565b60008160011c9050919050565b6000808291508390505b6001851115614b7957808604811115614b5557614b54614278565b5b6001851615614b645780820291505b8081029050614b7285614b22565b9450614b39565b94509492505050565b600082614b925760019050614c4e565b81614ba05760009050614c4e565b8160018114614bb65760028114614bc057614bef565b6001915050614c4e565b60ff841115614bd257614bd1614278565b5b8360020a915084821115614be957614be8614278565b5b50614c4e565b5060208310610133831016604e8410600b8410161715614c245782820a905083811115614c1f57614c1e614278565b5b614c4e565b614c318484846001614b2f565b92509050818404811115614c4857614c47614278565b5b81810290505b9392505050565b6000614c608261353a565b9150614c6b83613940565b9250614c987fffffffffffffffffffffffffffffffffffffffffffffffffffffffffffffffff8484614b82565b905092915050565b6000604082019050614cb56000830185613a1a565b614cc260208301846138d6565b9392505050565b600060a082019050614cde60008301886138d6565b614ceb60208301876138d6565b614cf860408301866138d6565b614d0560608301856137f6565b614d126080830184613a1a565b9695505050505050565b6000608082019050614d3160008301876138d6565b614d3e602083018661394d565b614d4b60408301856138d6565b614d5860608301846138d6565b95945050505050565b7f4e487b7100000000000000000000000000000000000000000000000000000000600052602160045260246000fdfea26469706673582212209a1ab3215cb19e401979a586c28e7d52498f504d50d7d2e2e6da6bebf1b7824864736f6c634300081c0033",
  "linkReferences": {},
  "deployedLinkReferences": {}
}