{
  "_format": "hh-sol-artifact-1",
  "contractName": "DajuToken",
  "sourceName": "contracts/DajuToken.sol",
  "abi": [
    {
      "inputs": [
        {
          "internalType": "address",
          "name": "initialOwner",
          "type": "address"
        },
        {
          "internalType": "uint256",
          "name": "cap",
          "type": "uint256"
        }
      ],
      "stateMutability": "nonpayable",
      "type": "constructor"
    },
    {
      "inputs": [],
      "name": "AccessControlBadConfirmation",
      "type": "error"
    },
    {
      "inputs": [
        {
          "internalType": "address",
          "name": "account",
          "type": "address"
        },
        {
          "internalType": "bytes32",
          "name": "neededRole",
          "type": "bytes32"
        }
      ],
      "name": "AccessControlUnauthorizedAccount",
      "type": "error"
    },
    {
      "inputs": [],
      "name": "ECDSAInvalidSignature",
      "type": "error"
    },
    {
      "inputs": [
        {
          "internalType": "uint256",
          "name": "length",
          "type": "uint256"
        }
      ],
      "name": "ECDSAInvalidSignatureLength",
      "type": "error"
    },
    {
      "inputs": [
        {
          "internalType": "bytes32",
          "name": "s",
          "type": "bytes32"
        }
      ],
      "name": "ECDSAInvalidSignatureS",
      "type": "error"
    },
    {
      "inputs": [
        {
          "internalType": "address",
          "name": "spender",
          "type": "address"
        },
        {
          "internalType": "uint256",
          "name": "allowance",
          "type": "uint256"
        },
        {
          "internalType": "uint256",
          "name": "needed",
          "type": "uint256"
        }
      ],
      "name": "ERC20InsufficientAllowance",
      "type": "error"
    },
    {
      "inputs": [
        {
          "internalType": "address",
          "name": "sender",
          "type": "address"
        },
        {
          "internalType": "uint256",
          "name": "balance",
          "type": "uint256"
        },
        {
          "internalType": "uint256",
          "name": "needed",
          "type": "uint256"
        }
      ],
      "name": "ERC20InsufficientBalance",
      "type": "error"
    },
    {
      "inputs": [
        {
          "internalType": "address",
          "name": "approver",
          "type": "address"
        }
      ],
      "name": "ERC20InvalidApprover",
      "type": "error"
    },
    {
      "inputs": [
        {
          "internalType": "address",
          "name": "receiver",
          "type": "address"
        }
      ],
      "name": "ERC20InvalidReceiver",
      "type": "error"
    },
    {
      "inputs": [
        {
          "internalType": "address",
          "name": "sender",
          "type": "address"
        }
      ],
      "name": "ERC20InvalidSender",
      "type": "error"
    },
    {
      "inputs": [
        {
          "internalType": "address",
          "name": "spender",
          "type": "address"
        }
      ],
      "name": "ERC20InvalidSpender",
      "type": "error"
    },
    {
      "inputs": [
        {
          "internalType": "uint256",
          "name": "deadline",
          "type": "uint256"
        }
      ],
      "name": "ERC2612ExpiredSignature",
      "type": "error"
    },
    {
      "inputs": [
        {
          "internalType": "address",
          "name": "signer",
          "type": "address"
        },
        {
          "internalType": "address",
          "name": "owner",
          "type": "address"
        }
      ],
      "name": "ERC2612InvalidSigner",
      "type": "error"
    },
    {
      "inputs": [
        {
          "internalType": "address",
          "name": "account",
          "type": "address"
        },
        {
          "internalType": "uint256",
          "name": "currentNonce",
          "type": "uint256"
        }
      ],
      "name": "InvalidAccountNonce",
      "type": "error"
    },
    {
      "inputs": [],
      "name": "InvalidShortString",
      "type": "error"
    },
    {
      "inputs": [
        {
          "internalType": "address",
          "name": "owner",
          "type": "address"
        }
      ],
      "name": "OwnableInvalidOwner",
      "type": "error"
    },
    {
      "inputs": [
        {
          "internalType": "address",
          "name": "account",
          "type": "address"
        }
      ],
      "name": "OwnableUnauthorizedAccount",
      "type": "error"
    },
    {
      "inputs": [
        {
          "internalType": "string",
          "name": "str",
          "type": "string"
        }
      ],
      "name": "StringTooLong",
      "type": "error"
    },
    {
      "anonymous": false,
      "inputs": [
        {
          "indexed": true,
          "internalType": "address",
          "name": "owner",
          "type": "address"
        },
        {
          "indexed": true,
          "internalType": "address",
          "name": "spender",
          "type": "address"
        },
        {
          "indexed": false,
          "internalType": "uint256",
          "name": "value",
          "type": "uint256"
        }
      ],
      "name": "Approval",
      "type": "event"
    },
    {
      "anonymous": false,
      "inputs": [],
      "name": "EIP712DomainChanged",
      "type": "event"
    },
    {
      "anonymous": false,
      "inputs": [
        {
          "indexed": true,
          "internalType": "address",
          "name": "previousOwner",
          "type": "address"
        },
        {
          "indexed": true,
          "internalType": "address",
          "name": "newOwner",
          "type": "address"
        }
      ],
      "name": "OwnershipTransferred",
      "type": "event"
    },
    {
      "anonymous": false,
      "inputs": [
        {
          "indexed": true,
          "internalType": "bytes32",
          "name": "role",
          "type": "bytes32"
        },
        {
          "indexed": true,
          "internalType": "bytes32",
          "name": "previousAdminRole",
          "type": "bytes32"
        },
        {
          "indexed": true,
          "internalType": "bytes32",
          "name": "newAdminRole",
          "type": "bytes32"
        }
      ],
      "name": "RoleAdminChanged",
      "type": "event"
    },
    {
      "anonymous": false,
      "inputs": [
        {
          "indexed": true,
          "internalType": "bytes32",
          "name": "role",
          "type": "bytes32"
        },
        {
          "indexed": true,
          "internalType": "address",
          "name": "account",
          "type": "address"
        },
        {
          "indexed": true,
          "internalType": "address",
          "name": "sender",
          "type": "address"
        }
      ],
      "name": "RoleGranted",
      "type": "event"
    },
    {
      "anonymous": false,
      "inputs": [
        {
          "indexed": true,
          "internalType": "bytes32",
          "name": "role",
          "type": "bytes32"
        },
        {
          "indexed": true,
          "internalType": "address",
          "name": "account",
          "type": "address"
        },
        {
          "indexed": true,
          "internalType": "address",
          "name": "sender",
          "type": "address"
        }
      ],
      "name": "RoleRevoked",
      "type": "event"
    },
    {
      "anonymous": false,
      "inputs": [
        {
          "indexed": true,
          "internalType": "address",
          "name": "from",
          "type": "address"
        },
        {
          "indexed": false,
          "internalType": "uint256",
          "name": "amount",
          "type": "uint256"
        }
      ],
      "name": "TokensBurned",
      "type": "event"
    },
    {
      "anonymous": false,
      "inputs": [
        {
          "indexed": true,
          "internalType": "address",
          "name": "to",
          "type": "address"
        },
        {
          "indexed": false,
          "internalType": "uint256",
          "name": "amount",
          "type": "uint256"
        }
      ],
      "name": "TokensMinted",
      "type": "event"
    },
    {
      "anonymous": false,
      "inputs": [
        {
          "indexed": true,
          "internalType": "address",
          "name": "from",
          "type": "address"
        },
        {
          "indexed": true,
          "internalType": "address",
          "name": "to",
          "type": "address"
        },
        {
          "indexed": false,
          "internalType": "uint256",
          "name": "value",
          "type": "uint256"
        }
      ],
      "name": "Transfer",
      "type": "event"
    },
    {
      "inputs": [],
      "name": "CAP",
      "outputs": [
        {
          "internalType": "uint256",
          "name": "",
          "type": "uint256"
        }
      ],
      "stateMutability": "view",
      "type": "function"
    },
    {
      "inputs": [],
      "name": "DEFAULT_ADMIN_ROLE",
      "outputs": [
        {
          "internalType": "bytes32",
          "name": "",
          "type": "bytes32"
        }
      ],
      "stateMutability": "view",
      "type": "function"
    },
    {
      "inputs": [],
      "name": "DOMAIN_SEPARATOR",
      "outputs": [
        {
          "internalType": "bytes32",
          "name": "",
          "type": "bytes32"
        }
      ],
      "stateMutability": "view",
      "type": "function"
    },
    {
      "inputs": [],
      "name": "MINTER_ROLE",
      "outputs": [
        {
          "internalType": "bytes32",
          "name": "",
          "type": "bytes32"
        }
      ],
      "stateMutability": "view",
      "type": "function"
    },
    {
      "inputs": [
        {
          "internalType": "address",
          "name": "owner",
          "type": "address"
        },
        {
          "internalType": "address",
          "name": "spender",
          "type": "address"
        }
      ],
      "name": "allowance",
      "outputs": [
        {
          "internalType": "uint256",
          "name": "",
          "type": "uint256"
        }
      ],
      "stateMutability": "view",
      "type": "function"
    },
    {
      "inputs": [
        {
          "internalType": "address",
          "name": "spender",
          "type": "address"
        },
        {
          "internalType": "uint256",
          "name": "value",
          "type": "uint256"
        }
      ],
      "name": "approve",
      "outputs": [
        {
          "internalType": "bool",
          "name": "",
          "type": "bool"
        }
      ],
      "stateMutability": "nonpayable",
      "type": "function"
    },
    {
      "inputs": [
        {
          "internalType": "address",
          "name": "account",
          "type": "address"
        }
      ],
      "name": "balanceOf",
      "outputs": [
        {
          "internalType": "uint256",
          "name": "",
          "type": "uint256"
        }
      ],
      "stateMutability": "view",
      "type": "function"
    },
    {
      "inputs": [
        {
          "internalType": "uint256",
          "name": "amount",
          "type": "uint256"
        }
      ],
      "name": "burn",
      "outputs": [],
      "stateMutability": "nonpayable",
      "type": "function"
    },
    {
      "inputs": [
        {
          "internalType": "address",
          "name": "account",
          "type": "address"
        },
        {
          "internalType": "uint256",
          "name": "amount",
          "type": "uint256"
        }
      ],
      "name": "burnFrom",
      "outputs": [],
      "stateMutability": "nonpayable",
      "type": "function"
    },
    {
      "inputs": [],
      "name": "decimals",
      "outputs": [
        {
          "internalType": "uint8",
          "name": "",
          "type": "uint8"
        }
      ],
      "stateMutability": "view",
      "type": "function"
    },
    {
      "inputs": [],
      "name": "eip712Domain",
      "outputs": [
        {
          "internalType": "bytes1",
          "name": "fields",
          "type": "bytes1"
        },
        {
          "internalType": "string",
          "name": "name",
          "type": "string"
        },
        {
          "internalType": "string",
          "name": "version",
          "type": "string"
        },
        {
          "internalType": "uint256",
          "name": "chainId",
          "type": "uint256"
        },
        {
          "internalType": "address",
          "name": "verifyingContract",
          "type": "address"
        },
        {
          "internalType": "bytes32",
          "name": "salt",
          "type": "bytes32"
        },
        {
          "internalType": "uint256[]",
          "name": "extensions",
          "type": "uint256[]"
        }
      ],
      "stateMutability": "view",
      "type": "function"
    },
    {
      "inputs": [
        {
          "internalType": "bytes32",
          "name": "role",
          "type": "bytes32"
        }
      ],
      "name": "getRoleAdmin",
      "outputs": [
        {
          "internalType": "bytes32",
          "name": "",
          "type": "bytes32"
        }
      ],
      "stateMutability": "view",
      "type": "function"
    },
    {
      "inputs": [
        {
          "internalType": "bytes32",
          "name": "role",
          "type": "bytes32"
        },
        {
          "internalType": "address",
          "name": "account",
          "type": "address"
        }
      ],
      "name": "grantRole",
      "outputs": [],
      "stateMutability": "nonpayable",
      "type": "function"
    },
    {
      "inputs": [
        {
          "internalType": "bytes32",
          "name": "role",
          "type": "bytes32"
        },
        {
          "internalType": "address",
          "name": "account",
          "type": "address"
        }
      ],
      "name": "hasRole",
      "outputs": [
        {
          "internalType": "bool",
          "name": "",
          "type": "bool"
        }
      ],
      "stateMutability": "view",
      "type": "function"
    },
    {
      "inputs": [
        {
          "internalType": "address",
          "name": "to",
          "type": "address"
        },
        {
          "internalType": "uint256",
          "name": "amount",
          "type": "uint256"
        }
      ],
      "name": "mint",
      "outputs": [],
      "stateMutability": "nonpayable",
      "type": "function"
    },
    {
      "inputs": [],
      "name": "name",
      "outputs": [
        {
          "internalType": "string",
          "name": "",
          "type": "string"
        }
      ],
      "stateMutability": "view",
      "type": "function"
    },
    {
      "inputs": [
        {
          "internalType": "address",
          "name": "owner",
          "type": "address"
        }
      ],
      "name": "nonces",
      "outputs": [
        {
          "internalType": "uint256",
          "name": "",
          "type": "uint256"
        }
      ],
      "stateMutability": "view",
      "type": "function"
    },
    {
      "inputs": [],
      "name": "owner",
      "outputs": [
        {
          "internalType": "address",
          "name": "",
          "type": "address"
        }
      ],
      "stateMutability": "view",
      "type": "function"
    },
    {
      "inputs": [
        {
          "internalType": "address",
          "name": "owner",
          "type": "address"
        },
        {
          "internalType": "address",
          "name": "spender",
          "type": "address"
        },
        {
          "internalType": "uint256",
          "name": "value",
          "type": "uint256"
        },
        {
          "internalType": "uint256",
          "name": "deadline",
          "type": "uint256"
        },
        {
          "internalType": "uint8",
          "name": "v",
          "type": "uint8"
        },
        {
          "internalType": "bytes32",
          "name": "r",
          "type": "bytes32"
        },
        {
          "internalType": "bytes32",
          "name": "s",
          "type": "bytes32"
        }
      ],
      "name": "permit",
      "outputs": [],
      "stateMutability": "nonpayable",
      "type": "function"
    },
    {
      "inputs": [],
      "name": "renounceOwnership",
      "outputs": [],
      "stateMutability": "nonpayable",
      "type": "function"
    },
    {
      "inputs": [
        {
          "internalType": "bytes32",
          "name": "role",
          "type": "bytes32"
        },
        {
          "internalType": "address",
          "name": "callerConfirmation",
          "type": "address"
        }
      ],
      "name": "renounceRole",
      "outputs": [],
      "stateMutability": "nonpayable",
      "type": "function"
    },
    {
      "inputs": [
        {
          "internalType": "bytes32",
          "name": "role",
          "type": "bytes32"
        },
        {
          "internalType": "address",
          "name": "account",
          "type": "address"
        }
      ],
      "name": "revokeRole",
      "outputs": [],
      "stateMutability": "nonpayable",
      "type": "function"
    },
    {
      "inputs": [
        {
          "internalType": "bytes4",
          "name": "interfaceId",
          "type": "bytes4"
        }
      ],
      "name": "supportsInterface",
      "outputs": [
        {
          "internalType": "bool",
          "name": "",
          "type": "bool"
        }
      ],
      "stateMutability": "view",
      "type": "function"
    },
    {
      "inputs": [],
      "name": "symbol",
      "outputs": [
        {
          "internalType": "string",
          "name": "",
          "type": "string"
        }
      ],
      "stateMutability": "view",
      "type": "function"
    },
    {
      "inputs": [],
      "name": "totalSupply",
      "outputs": [
        {
          "internalType": "uint256",
          "name": "",
          "type": "uint256"
        }
      ],
      "stateMutability": "view",
      "type": "function"
    },
    {
      "inputs": [
        {
          "internalType": "address",
          "name": "to",
          "type": "address"
        },
        {
          "internalType": "uint256",
          "name": "value",
          "type": "uint256"
        }
      ],
      "name": "transfer",
      "outputs": [
        {
          "internalType": "bool",
          "name": "",
          "type": "bool"
        }
      ],
      "stateMutability": "nonpayable",
      "type": "function"
    },
    {
      "inputs": [
        {
          "internalType": "address",
          "name": "from",
          "type": "address"
        },
        {
          "internalType": "address",
          "name": "to",
          "type": "address"
        },
        {
          "internalType": "uint256",
          "name": "value",
          "type": "uint256"
        }
      ],
      "name": "transferFrom",
      "outputs": [
        {
          "internalType": "bool",
          "name": "",
          "type": "bool"
        }
      ],
      "stateMutability": "nonpayable",
      "type": "function"
    },
    {
      "inputs": [
        {
          "internalType": "address",
          "name": "newOwner",
          "type": "address"
        }
      ],
      "name": "transferOwnership",
      "outputs": [],
      "stateMutability": "nonpayable",
      "type": "function"
    }
  ],
  "bytecode": "0x61018060405234801561001157600080fd5b50604051613d96380380613d9683398181016040528101906100339190610a3d565b6040518060400160405280600981526020017f44616a75546f6b656e0000000000000000000000000000000000000000000000815250806040518060400160405280600181526020017f3100000000000000000000000000000000000000000000000000000000000000815250846040518060400160405280600981526020017f44616a75546f6b656e00000000000000000000000000000000000000000000008152506040518060400160405280600481526020017f44414a5500000000000000000000000000000000000000000000000000000000815250816003908161011c9190610cc3565b50806004908161012c9190610cc3565b505050600073ffffffffffffffffffffffffffffffffffffffff168173ffffffffffffffffffffffffffffffffffffffff16036101a15760006040517f1e4fbdf70000000000000000000000000000000000000000000000000000000081526004016101989190610da4565b60405180910390fd5b6101b08161039a60201b60201c565b506101c560068361046060201b90919060201c565b61012081815250506101e160078261046060201b90919060201c565b6101408181525050818051906020012060e08181525050808051906020012061010081815250504660a0818152505061021e6104b060201b60201c565b608081815250503073ffffffffffffffffffffffffffffffffffffffff1660c08173ffffffffffffffffffffffffffffffffffffffff1681525050505050600073ffffffffffffffffffffffffffffffffffffffff168273ffffffffffffffffffffffffffffffffffffffff16036102cb576040517f08c379a00000000000000000000000000000000000000000000000000000000081526004016102c290610e1c565b60405180910390fd5b6000811161030e576040517f08c379a000000000000000000000000000000000000000000000000000000000815260040161030590610e88565b60405180910390fd5b80610160818152505061032a6000801b8361050b60201b60201c565b5061035b7f9f2df0fed2c77648de5860a4cc508cd0818c85b8b8a1ab4ceeef8d981c8956a68361050b60201b60201c565b506103938261036e61060960201b60201c565b600a61037a9190611017565b620f42406103889190611062565b61061260201b60201c565b50506112d2565b6000600560009054906101000a900473ffffffffffffffffffffffffffffffffffffffff16905081600560006101000a81548173ffffffffffffffffffffffffffffffffffffffff021916908373ffffffffffffffffffffffffffffffffffffffff1602179055508173ffffffffffffffffffffffffffffffffffffffff168173ffffffffffffffffffffffffffffffffffffffff167f8be0079c531659141344cd1fd0a4f28419497f9722a3daafe3b4186f6b6457e060405160405180910390a35050565b60006020835110156104825761047b8361069a60201b60201c565b90506104aa565b826104928361070260201b60201c565b60000190816104a19190610cc3565b5060ff60001b90505b92915050565b60007f8b73c3c69bb8fe3d512ecc4cf759cc79239f7b179b0ffacaa9a75d522b39400f60e0516101005146306040516020016104f09594939291906110cc565b60405160208183030381529060405280519060200120905090565b600061051d838361070c60201b60201c565b6105fe5760016009600085815260200190815260200160002060000160008473ffffffffffffffffffffffffffffffffffffffff1673ffffffffffffffffffffffffffffffffffffffff16815260200190815260200160002060006101000a81548160ff02191690831515021790555061059b61077760201b60201c565b73ffffffffffffffffffffffffffffffffffffffff168273ffffffffffffffffffffffffffffffffffffffff16847f2f8788117e7eff1d82e926ec794901d17c78024a50270940304540a733656f0d60405160405180910390a460019050610603565b600090505b92915050565b60006012905090565b600073ffffffffffffffffffffffffffffffffffffffff168273ffffffffffffffffffffffffffffffffffffffff16036106845760006040517fec442f0500000000000000000000000000000000000000000000000000000000815260040161067b9190610da4565b60405180910390fd5b6106966000838361077f60201b60201c565b5050565b600080829050601f815111156106e757826040517f305a27a90000000000000000000000000000000000000000000000000000000081526004016106de9190611193565b60405180910390fd5b8051816106f3906111e5565b60001c1760001b915050919050565b6000819050919050565b60006009600084815260200190815260200160002060000160008373ffffffffffffffffffffffffffffffffffffffff1673ffffffffffffffffffffffffffffffffffffffff16815260200190815260200160002060009054906101000a900460ff16905092915050565b600033905090565b600073ffffffffffffffffffffffffffffffffffffffff168373ffffffffffffffffffffffffffffffffffffffff16036107d15780600260008282546107c5919061124c565b925050819055506108a4565b60008060008573ffffffffffffffffffffffffffffffffffffffff1673ffffffffffffffffffffffffffffffffffffffff1681526020019081526020016000205490508181101561085d578381836040517fe450d38c00000000000000000000000000000000000000000000000000000000815260040161085493929190611280565b60405180910390fd5b8181036000808673ffffffffffffffffffffffffffffffffffffffff1673ffffffffffffffffffffffffffffffffffffffff16815260200190815260200160002081905550505b600073ffffffffffffffffffffffffffffffffffffffff168273ffffffffffffffffffffffffffffffffffffffff16036108ed578060026000828254039250508190555061093a565b806000808473ffffffffffffffffffffffffffffffffffffffff1673ffffffffffffffffffffffffffffffffffffffff168152602001908152602001600020600082825401925050819055505b8173ffffffffffffffffffffffffffffffffffffffff168373ffffffffffffffffffffffffffffffffffffffff167fddf252ad1be2c89b69c2b068fc378daa952ba7f163c4a11628f55a4df523b3ef8360405161099791906112b7565b60405180910390a3505050565b600080fd5b600073ffffffffffffffffffffffffffffffffffffffff82169050919050565b60006109d4826109a9565b9050919050565b6109e4816109c9565b81146109ef57600080fd5b50565b600081519050610a01816109db565b92915050565b6000819050919050565b610a1a81610a07565b8114610a2557600080fd5b50565b600081519050610a3781610a11565b92915050565b60008060408385031215610a5457610a536109a4565b5b6000610a62858286016109f2565b9250506020610a7385828601610a28565b9150509250929050565b600081519050919050565b7f4e487b7100000000000000000000000000000000000000000000000000000000600052604160045260246000fd5b7f4e487b7100000000000000000000000000000000000000000000000000000000600052602260045260246000fd5b60006002820490506001821680610afe57607f821691505b602082108103610b1157610b10610ab7565b5b50919050565b60008190508160005260206000209050919050565b60006020601f8301049050919050565b600082821b905092915050565b600060088302610b797fffffffffffffffffffffffffffffffffffffffffffffffffffffffffffffffff82610b3c565b610b838683610b3c565b95508019841693508086168417925050509392505050565b6000819050919050565b6000610bc0610bbb610bb684610a07565b610b9b565b610a07565b9050919050565b6000819050919050565b610bda83610ba5565b610bee610be682610bc7565b848454610b49565b825550505050565b600090565b610c03610bf6565b610c0e818484610bd1565b505050565b5b81811015610c3257610c27600082610bfb565b600181019050610c14565b5050565b601f821115610c7757610c4881610b17565b610c5184610b2c565b81016020851015610c60578190505b610c74610c6c85610b2c565b830182610c13565b50505b505050565b600082821c905092915050565b6000610c9a60001984600802610c7c565b1980831691505092915050565b6000610cb38383610c89565b9150826002028217905092915050565b610ccc82610a7d565b67ffffffffffffffff811115610ce557610ce4610a88565b5b610cef8254610ae6565b610cfa828285610c36565b600060209050601f831160018114610d2d5760008415610d1b578287015190505b610d258582610ca7565b865550610d8d565b601f198416610d3b86610b17565b60005b82811015610d6357848901518255600182019150602085019450602081019050610d3e565b86831015610d805784890151610d7c601f891682610c89565b8355505b6001600288020188555050505b505050505050565b610d9e816109c9565b82525050565b6000602082019050610db96000830184610d95565b92915050565b600082825260208201905092915050565b7f496e76616c696420696e697469616c206f776e65720000000000000000000000600082015250565b6000610e06601583610dbf565b9150610e1182610dd0565b602082019050919050565b60006020820190508181036000830152610e3581610df9565b9050919050565b7f436170206d7573742062652067726561746572207468616e207a65726f000000600082015250565b6000610e72601d83610dbf565b9150610e7d82610e3c565b602082019050919050565b60006020820190508181036000830152610ea181610e65565b9050919050565b7f4e487b7100000000000000000000000000000000000000000000000000000000600052601160045260246000fd5b60008160011c9050919050565b6000808291508390505b6001851115610f2e57808604811115610f0a57610f09610ea8565b5b6001851615610f195780820291505b8081029050610f2785610ed7565b9450610eee565b94509492505050565b600082610f475760019050611003565b81610f555760009050611003565b8160018114610f6b5760028114610f7557610fa4565b6001915050611003565b60ff841115610f8757610f86610ea8565b5b8360020a915084821115610f9e57610f9d610ea8565b5b50611003565b5060208310610133831016604e8410600b8410161715610fd95782820a905083811115610fd457610fd3610ea8565b5b611003565b610fe68484846001610ee4565b92509050818404811115610ffd57610ffc610ea8565b5b81810290505b9392505050565b600060ff82169050919050565b600061102282610a07565b915061102d8361100a565b925061105a7fffffffffffffffffffffffffffffffffffffffffffffffffffffffffffffffff8484610f37565b905092915050565b600061106d82610a07565b915061107883610a07565b925082820261108681610a07565b9150828204841483151761109d5761109c610ea8565b5b5092915050565b6000819050919050565b6110b7816110a4565b82525050565b6110c681610a07565b82525050565b600060a0820190506110e160008301886110ae565b6110ee60208301876110ae565b6110fb60408301866110ae565b61110860608301856110bd565b6111156080830184610d95565b9695505050505050565b60005b8381101561113d578082015181840152602081019050611122565b60008484015250505050565b6000601f19601f8301169050919050565b600061116582610a7d565b61116f8185610dbf565b935061117f81856020860161111f565b61118881611149565b840191505092915050565b600060208201905081810360008301526111ad818461115a565b905092915050565b600081519050919050565b6000819050602082019050919050565b60006111dc82516110a4565b80915050919050565b60006111f0826111b5565b826111fa846111c0565b9050611205816111d0565b92506020821015611245576112407fffffffffffffffffffffffffffffffffffffffffffffffffffffffffffffffff83602003600802610b3c565b831692505b5050919050565b600061125782610a07565b915061126283610a07565b925082820190508082111561127a57611279610ea8565b5b92915050565b60006060820190506112956000830186610d95565b6112a260208301856110bd565b6112af60408301846110bd565b949350505050565b60006020820190506112cc60008301846110bd565b92915050565b60805160a05160c05160e05161010051610120516101405161016051612a5861133e600039600081816107fe0152610e04015260006115f8015260006115bd01526000611b5e01526000611b3d015260006111c201526000611218015260006112410152612a586000f3fe608060405234801561001057600080fd5b50600436106101c45760003560e01c806379cc6790116100f9578063a9059cbb11610097578063d547741f11610071578063d547741f1461050f578063dd62ed3e1461052b578063ec81b4831461055b578063f2fde38b14610579576101c4565b8063a9059cbb146104a5578063d505accf146104d5578063d5391393146104f1576101c4565b80638da5cb5b116100d35780638da5cb5b1461041b57806391d148541461043957806395d89b4114610469578063a217fddf14610487576101c4565b806379cc6790146103ab5780637ecebe00146103c757806384b0196e146103f7576101c4565b8063313ce5671161016657806340c10f191161014057806340c10f191461033957806342966c681461035557806370a0823114610371578063715018a6146103a1576101c4565b8063313ce567146102e15780633644e515146102ff57806336568abe1461031d576101c4565b806318160ddd116101a257806318160ddd1461024757806323b872dd14610265578063248a9ca3146102955780632f2ff15d146102c5576101c4565b806301ffc9a7146101c957806306fdde03146101f9578063095ea7b314610217575b600080fd5b6101e360048036038101906101de919061209a565b610595565b6040516101f091906120e2565b60405180910390f35b61020161060f565b60405161020e919061218d565b60405180910390f35b610231600480360381019061022c9190612243565b6106a1565b60405161023e91906120e2565b60405180910390f35b61024f6106c4565b60405161025c9190612292565b60405180910390f35b61027f600480360381019061027a91906122ad565b6106ce565b60405161028c91906120e2565b60405180910390f35b6102af60048036038101906102aa9190612336565b6106fd565b6040516102bc9190612372565b60405180910390f35b6102df60048036038101906102da919061238d565b61071d565b005b6102e961073f565b6040516102f691906123e9565b60405180910390f35b610307610748565b6040516103149190612372565b60405180910390f35b6103376004803603810190610332919061238d565b610757565b005b610353600480360381019061034e9190612243565b6107d2565b005b61036f600480360381019061036a9190612404565b6108ce565b005b61038b60048036038101906103869190612431565b610928565b6040516103989190612292565b60405180910390f35b6103a9610970565b005b6103c560048036038101906103c09190612243565b610984565b005b6103e160048036038101906103dc9190612431565b6109e0565b6040516103ee9190612292565b60405180910390f35b6103ff6109f2565b6040516104129796959493929190612566565b60405180910390f35b610423610a9c565b60405161043091906125ea565b60405180910390f35b610453600480360381019061044e919061238d565b610ac6565b60405161046091906120e2565b60405180910390f35b610471610b31565b60405161047e919061218d565b60405180910390f35b61048f610bc3565b60405161049c9190612372565b60405180910390f35b6104bf60048036038101906104ba9190612243565b610bca565b6040516104cc91906120e2565b60405180910390f35b6104ef60048036038101906104ea9190612631565b610bed565b005b6104f9610d35565b6040516105069190612372565b60405180910390f35b6105296004803603810190610524919061238d565b610d59565b005b610545600480360381019061054091906126d3565b610d7b565b6040516105529190612292565b60405180910390f35b610563610e02565b6040516105709190612292565b60405180910390f35b610593600480360381019061058e9190612431565b610e26565b005b60007f7965db0b000000000000000000000000000000000000000000000000000000007bffffffffffffffffffffffffffffffffffffffffffffffffffffffff1916827bffffffffffffffffffffffffffffffffffffffffffffffffffffffff19161480610608575061060782610eac565b5b9050919050565b60606003805461061e90612742565b80601f016020809104026020016040519081016040528092919081815260200182805461064a90612742565b80156106975780601f1061066c57610100808354040283529160200191610697565b820191906000526020600020905b81548152906001019060200180831161067a57829003601f168201915b5050505050905090565b6000806106ac610f16565b90506106b9818585610f1e565b600191505092915050565b6000600254905090565b6000806106d9610f16565b90506106e6858285610f30565b6106f1858585610fc4565b60019150509392505050565b600060096000838152602001908152602001600020600101549050919050565b610726826106fd565b61072f816110b8565b61073983836110cc565b50505050565b60006012905090565b60006107526111be565b905090565b61075f610f16565b73ffffffffffffffffffffffffffffffffffffffff168173ffffffffffffffffffffffffffffffffffffffff16146107c3576040517f6697b23200000000000000000000000000000000000000000000000000000000815260040160405180910390fd5b6107cd8282611275565b505050565b7f9f2df0fed2c77648de5860a4cc508cd0818c85b8b8a1ab4ceeef8d981c8956a66107fc816110b8565b7f0000000000000000000000000000000000000000000000000000000000000000826108266106c4565b61083091906127a2565b1115610871576040517f08c379a000000000000000000000000000000000000000000000000000000000815260040161086890612822565b60405180910390fd5b61087b8383611368565b8273ffffffffffffffffffffffffffffffffffffffff167f3f2c9d57c068687834f0de942a9babb9e5acab57d516d3480a3c16ee165a4273836040516108c19190612292565b60405180910390a2505050565b6108d7816113ea565b3373ffffffffffffffffffffffffffffffffffffffff167ffd38818f5291bf0bb3a2a48aadc06ba8757865d1dabd804585338aab3009dcb68260405161091d9190612292565b60405180910390a250565b60008060008373ffffffffffffffffffffffffffffffffffffffff1673ffffffffffffffffffffffffffffffffffffffff168152602001908152602001600020549050919050565b6109786113fe565b6109826000611485565b565b61098e828261154b565b8173ffffffffffffffffffffffffffffffffffffffff167ffd38818f5291bf0bb3a2a48aadc06ba8757865d1dabd804585338aab3009dcb6826040516109d49190612292565b60405180910390a25050565b60006109eb8261156b565b9050919050565b600060608060008060006060610a066115b4565b610a0e6115ef565b46306000801b600067ffffffffffffffff811115610a2f57610a2e612842565b5b604051908082528060200260200182016040528015610a5d5781602001602082028036833780820191505090505b507f0f00000000000000000000000000000000000000000000000000000000000000959493929190965096509650965096509650965090919293949596565b6000600560009054906101000a900473ffffffffffffffffffffffffffffffffffffffff16905090565b60006009600084815260200190815260200160002060000160008373ffffffffffffffffffffffffffffffffffffffff1673ffffffffffffffffffffffffffffffffffffffff16815260200190815260200160002060009054906101000a900460ff16905092915050565b606060048054610b4090612742565b80601f0160208091040260200160405190810160405280929190818152602001828054610b6c90612742565b8015610bb95780601f10610b8e57610100808354040283529160200191610bb9565b820191906000526020600020905b815481529060010190602001808311610b9c57829003601f168201915b5050505050905090565b6000801b81565b600080610bd5610f16565b9050610be2818585610fc4565b600191505092915050565b83421115610c3257836040517f62791302000000000000000000000000000000000000000000000000000000008152600401610c299190612292565b60405180910390fd5b60007f6e71edae12b1b97f4d1f60370fef10105fa2faae0126114a169c64845d6126c9888888610c618c61162a565b89604051602001610c7796959493929190612871565b6040516020818303038152906040528051906020012090506000610c9a82611681565b90506000610caa8287878761169b565b90508973ffffffffffffffffffffffffffffffffffffffff168173ffffffffffffffffffffffffffffffffffffffff1614610d1e57808a6040517f4b800e46000000000000000000000000000000000000000000000000000000008152600401610d159291906128d2565b60405180910390fd5b610d298a8a8a610f1e565b50505050505050505050565b7f9f2df0fed2c77648de5860a4cc508cd0818c85b8b8a1ab4ceeef8d981c8956a681565b610d62826106fd565b610d6b816110b8565b610d758383611275565b50505050565b6000600160008473ffffffffffffffffffffffffffffffffffffffff1673ffffffffffffffffffffffffffffffffffffffff16815260200190815260200160002060008373ffffffffffffffffffffffffffffffffffffffff1673ffffffffffffffffffffffffffffffffffffffff16815260200190815260200160002054905092915050565b7f000000000000000000000000000000000000000000000000000000000000000081565b610e2e6113fe565b600073ffffffffffffffffffffffffffffffffffffffff168173ffffffffffffffffffffffffffffffffffffffff1603610ea05760006040517f1e4fbdf7000000000000000000000000000000000000000000000000000000008152600401610e9791906125ea565b60405180910390fd5b610ea981611485565b50565b60007f01ffc9a7000000000000000000000000000000000000000000000000000000007bffffffffffffffffffffffffffffffffffffffffffffffffffffffff1916827bffffffffffffffffffffffffffffffffffffffffffffffffffffffff1916149050919050565b600033905090565b610f2b83838360016116cb565b505050565b6000610f3c8484610d7b565b90507fffffffffffffffffffffffffffffffffffffffffffffffffffffffffffffffff8114610fbe5781811015610fae578281836040517ffb8f41b2000000000000000000000000000000000000000000000000000000008152600401610fa5939291906128fb565b60405180910390fd5b610fbd848484840360006116cb565b5b50505050565b600073ffffffffffffffffffffffffffffffffffffffff168373ffffffffffffffffffffffffffffffffffffffff16036110365760006040517f96c6fd1e00000000000000000000000000000000000000000000000000000000815260040161102d91906125ea565b60405180910390fd5b600073ffffffffffffffffffffffffffffffffffffffff168273ffffffffffffffffffffffffffffffffffffffff16036110a85760006040517fec442f0500000000000000000000000000000000000000000000000000000000815260040161109f91906125ea565b60405180910390fd5b6110b38383836118a2565b505050565b6110c9816110c4610f16565b611ac7565b50565b60006110d88383610ac6565b6111b35760016009600085815260200190815260200160002060000160008473ffffffffffffffffffffffffffffffffffffffff1673ffffffffffffffffffffffffffffffffffffffff16815260200190815260200160002060006101000a81548160ff021916908315150217905550611150610f16565b73ffffffffffffffffffffffffffffffffffffffff168273ffffffffffffffffffffffffffffffffffffffff16847f2f8788117e7eff1d82e926ec794901d17c78024a50270940304540a733656f0d60405160405180910390a4600190506111b8565b600090505b92915050565b60007f000000000000000000000000000000000000000000000000000000000000000073ffffffffffffffffffffffffffffffffffffffff163073ffffffffffffffffffffffffffffffffffffffff1614801561123a57507f000000000000000000000000000000000000000000000000000000000000000046145b15611267577f00000000000000000000000000000000000000000000000000000000000000009050611272565b61126f611b18565b90505b90565b60006112818383610ac6565b1561135d5760006009600085815260200190815260200160002060000160008473ffffffffffffffffffffffffffffffffffffffff1673ffffffffffffffffffffffffffffffffffffffff16815260200190815260200160002060006101000a81548160ff0219169083151502179055506112fa610f16565b73ffffffffffffffffffffffffffffffffffffffff168273ffffffffffffffffffffffffffffffffffffffff16847ff6391f5c32d9c69d2a47ea670b442974b53935d1edc7fd64eb21e047a839171b60405160405180910390a460019050611362565b600090505b92915050565b600073ffffffffffffffffffffffffffffffffffffffff168273ffffffffffffffffffffffffffffffffffffffff16036113da5760006040517fec442f050000000000000000000000000000000000000000000000000000000081526004016113d191906125ea565b60405180910390fd5b6113e6600083836118a2565b5050565b6113fb6113f5610f16565b82611bae565b50565b611406610f16565b73ffffffffffffffffffffffffffffffffffffffff16611424610a9c565b73ffffffffffffffffffffffffffffffffffffffff161461148357611447610f16565b6040517f118cdaa700000000000000000000000000000000000000000000000000000000815260040161147a91906125ea565b60405180910390fd5b565b6000600560009054906101000a900473ffffffffffffffffffffffffffffffffffffffff16905081600560006101000a81548173ffffffffffffffffffffffffffffffffffffffff021916908373ffffffffffffffffffffffffffffffffffffffff1602179055508173ffffffffffffffffffffffffffffffffffffffff168173ffffffffffffffffffffffffffffffffffffffff167f8be0079c531659141344cd1fd0a4f28419497f9722a3daafe3b4186f6b6457e060405160405180910390a35050565b61155d82611557610f16565b83610f30565b6115678282611bae565b5050565b6000600860008373ffffffffffffffffffffffffffffffffffffffff1673ffffffffffffffffffffffffffffffffffffffff168152602001908152602001600020549050919050565b60606115ea60067f0000000000000000000000000000000000000000000000000000000000000000611c3090919063ffffffff16565b905090565b606061162560077f0000000000000000000000000000000000000000000000000000000000000000611c3090919063ffffffff16565b905090565b6000600860008373ffffffffffffffffffffffffffffffffffffffff1673ffffffffffffffffffffffffffffffffffffffff1681526020019081526020016000206000815480929190600101919050559050919050565b600061169461168e6111be565b83611ce0565b9050919050565b6000806000806116ad88888888611d21565b9250925092506116bd8282611e15565b829350505050949350505050565b600073ffffffffffffffffffffffffffffffffffffffff168473ffffffffffffffffffffffffffffffffffffffff160361173d5760006040517fe602df0500000000000000000000000000000000000000000000000000000000815260040161173491906125ea565b60405180910390fd5b600073ffffffffffffffffffffffffffffffffffffffff168373ffffffffffffffffffffffffffffffffffffffff16036117af5760006040517f94280d620000000000000000000000000000000000000000000000000000000081526004016117a691906125ea565b60405180910390fd5b81600160008673ffffffffffffffffffffffffffffffffffffffff1673ffffffffffffffffffffffffffffffffffffffff16815260200190815260200160002060008573ffffffffffffffffffffffffffffffffffffffff1673ffffffffffffffffffffffffffffffffffffffff16815260200190815260200160002081905550801561189c578273ffffffffffffffffffffffffffffffffffffffff168473ffffffffffffffffffffffffffffffffffffffff167f8c5be1e5ebec7d5bd14f71427d1e84f3dd0314c0f7b2291e5b200ac8c7c3b925846040516118939190612292565b60405180910390a35b50505050565b600073ffffffffffffffffffffffffffffffffffffffff168373ffffffffffffffffffffffffffffffffffffffff16036118f45780600260008282546118e891906127a2565b925050819055506119c7565b60008060008573ffffffffffffffffffffffffffffffffffffffff1673ffffffffffffffffffffffffffffffffffffffff16815260200190815260200160002054905081811015611980578381836040517fe450d38c000000000000000000000000000000000000000000000000000000008152600401611977939291906128fb565b60405180910390fd5b8181036000808673ffffffffffffffffffffffffffffffffffffffff1673ffffffffffffffffffffffffffffffffffffffff16815260200190815260200160002081905550505b600073ffffffffffffffffffffffffffffffffffffffff168273ffffffffffffffffffffffffffffffffffffffff1603611a105780600260008282540392505081905550611a5d565b806000808473ffffffffffffffffffffffffffffffffffffffff1673ffffffffffffffffffffffffffffffffffffffff168152602001908152602001600020600082825401925050819055505b8173ffffffffffffffffffffffffffffffffffffffff168373ffffffffffffffffffffffffffffffffffffffff167fddf252ad1be2c89b69c2b068fc378daa952ba7f163c4a11628f55a4df523b3ef83604051611aba9190612292565b60405180910390a3505050565b611ad18282610ac6565b611b145780826040517fe2517d3f000000000000000000000000000000000000000000000000000000008152600401611b0b929190612932565b60405180910390fd5b5050565b60007f8b73c3c69bb8fe3d512ecc4cf759cc79239f7b179b0ffacaa9a75d522b39400f7f00000000000000000000000000000000000000000000000000000000000000007f00000000000000000000000000000000000000000000000000000000000000004630604051602001611b9395949392919061295b565b60405160208183030381529060405280519060200120905090565b600073ffffffffffffffffffffffffffffffffffffffff168273ffffffffffffffffffffffffffffffffffffffff1603611c205760006040517f96c6fd1e000000000000000000000000000000000000000000000000000000008152600401611c1791906125ea565b60405180910390fd5b611c2c826000836118a2565b5050565b606060ff60001b8314611c4d57611c4683611f79565b9050611cda565b818054611c5990612742565b80601f0160208091040260200160405190810160405280929190818152602001828054611c8590612742565b8015611cd25780601f10611ca757610100808354040283529160200191611cd2565b820191906000526020600020905b815481529060010190602001808311611cb557829003601f168201915b505050505090505b92915050565b60006040517f190100000000000000000000000000000000000000000000000000000000000081528360028201528260228201526042812091505092915050565b60008060007f7fffffffffffffffffffffffffffffff5d576e7357a4501ddfe92f46681b20a08460001c1115611d61576000600385925092509250611e0b565b600060018888888860405160008152602001604052604051611d8694939291906129ae565b6020604051602081039080840390855afa158015611da8573d6000803e3d6000fd5b505050602060405103519050600073ffffffffffffffffffffffffffffffffffffffff168173ffffffffffffffffffffffffffffffffffffffff1603611dfc57600060016000801b93509350935050611e0b565b8060008060001b935093509350505b9450945094915050565b60006003811115611e2957611e286129f3565b5b826003811115611e3c57611e3b6129f3565b5b0315611f755760016003811115611e5657611e556129f3565b5b826003811115611e6957611e686129f3565b5b03611ea0576040517ff645eedf00000000000000000000000000000000000000000000000000000000815260040160405180910390fd5b60026003811115611eb457611eb36129f3565b5b826003811115611ec757611ec66129f3565b5b03611f0c578060001c6040517ffce698f7000000000000000000000000000000000000000000000000000000008152600401611f039190612292565b60405180910390fd5b600380811115611f1f57611f1e6129f3565b5b826003811115611f3257611f316129f3565b5b03611f7457806040517fd78bce0c000000000000000000000000000000000000000000000000000000008152600401611f6b9190612372565b60405180910390fd5b5b5050565b60606000611f8683611fed565b90506000602067ffffffffffffffff811115611fa557611fa4612842565b5b6040519080825280601f01601f191660200182016040528015611fd75781602001600182028036833780820191505090505b5090508181528360208201528092505050919050565b60008060ff8360001c169050601f811115612034576040517fb3512b0c00000000000000000000000000000000000000000000000000000000815260040160405180910390fd5b80915050919050565b600080fd5b60007fffffffff0000000000000000000000000000000000000000000000000000000082169050919050565b61207781612042565b811461208257600080fd5b50565b6000813590506120948161206e565b92915050565b6000602082840312156120b0576120af61203d565b5b60006120be84828501612085565b91505092915050565b60008115159050919050565b6120dc816120c7565b82525050565b60006020820190506120f760008301846120d3565b92915050565b600081519050919050565b600082825260208201905092915050565b60005b8381101561213757808201518184015260208101905061211c565b60008484015250505050565b6000601f19601f8301169050919050565b600061215f826120fd565b6121698185612108565b9350612179818560208601612119565b61218281612143565b840191505092915050565b600060208201905081810360008301526121a78184612154565b905092915050565b600073ffffffffffffffffffffffffffffffffffffffff82169050919050565b60006121da826121af565b9050919050565b6121ea816121cf565b81146121f557600080fd5b50565b600081359050612207816121e1565b92915050565b6000819050919050565b6122208161220d565b811461222b57600080fd5b50565b60008135905061223d81612217565b92915050565b6000806040838503121561225a5761225961203d565b5b6000612268858286016121f8565b92505060206122798582860161222e565b9150509250929050565b61228c8161220d565b82525050565b60006020820190506122a76000830184612283565b92915050565b6000806000606084860312156122c6576122c561203d565b5b60006122d4868287016121f8565b93505060206122e5868287016121f8565b92505060406122f68682870161222e565b9150509250925092565b6000819050919050565b61231381612300565b811461231e57600080fd5b50565b6000813590506123308161230a565b92915050565b60006020828403121561234c5761234b61203d565b5b600061235a84828501612321565b91505092915050565b61236c81612300565b82525050565b60006020820190506123876000830184612363565b92915050565b600080604083850312156123a4576123a361203d565b5b60006123b285828601612321565b92505060206123c3858286016121f8565b9150509250929050565b600060ff82169050919050565b6123e3816123cd565b82525050565b60006020820190506123fe60008301846123da565b92915050565b60006020828403121561241a5761241961203d565b5b60006124288482850161222e565b91505092915050565b6000602082840312156124475761244661203d565b5b6000612455848285016121f8565b91505092915050565b60007fff0000000000000000000000000000000000000000000000000000000000000082169050919050565b6124938161245e565b82525050565b6124a2816121cf565b82525050565b600081519050919050565b600082825260208201905092915050565b6000819050602082019050919050565b6124dd8161220d565b82525050565b60006124ef83836124d4565b60208301905092915050565b6000602082019050919050565b6000612513826124a8565b61251d81856124b3565b9350612528836124c4565b8060005b8381101561255957815161254088826124e3565b975061254b836124fb565b92505060018101905061252c565b5085935050505092915050565b600060e08201905061257b600083018a61248a565b818103602083015261258d8189612154565b905081810360408301526125a18188612154565b90506125b06060830187612283565b6125bd6080830186612499565b6125ca60a0830185612363565b81810360c08301526125dc8184612508565b905098975050505050505050565b60006020820190506125ff6000830184612499565b92915050565b61260e816123cd565b811461261957600080fd5b50565b60008135905061262b81612605565b92915050565b600080600080600080600060e0888a0312156126505761264f61203d565b5b600061265e8a828b016121f8565b975050602061266f8a828b016121f8565b96505060406126808a828b0161222e565b95505060606126918a828b0161222e565b94505060806126a28a828b0161261c565b93505060a06126b38a828b01612321565b92505060c06126c48a828b01612321565b91505092959891949750929550565b600080604083850312156126ea576126e961203d565b5b60006126f8858286016121f8565b9250506020612709858286016121f8565b9150509250929050565b7f4e487b7100000000000000000000000000000000000000000000000000000000600052602260045260246000fd5b6000600282049050600182168061275a57607f821691505b60208210810361276d5761276c612713565b5b50919050565b7f4e487b7100000000000000000000000000000000000000000000000000000000600052601160045260246000fd5b60006127ad8261220d565b91506127b88361220d565b92508282019050808211156127d0576127cf612773565b5b92915050565b7f4578636565647320636170000000000000000000000000000000000000000000600082015250565b600061280c600b83612108565b9150612817826127d6565b602082019050919050565b6000602082019050818103600083015261283b816127ff565b9050919050565b7f4e487b7100000000000000000000000000000000000000000000000000000000600052604160045260246000fd5b600060c0820190506128866000830189612363565b6128936020830188612499565b6128a06040830187612499565b6128ad6060830186612283565b6128ba6080830185612283565b6128c760a0830184612283565b979650505050505050565b60006040820190506128e76000830185612499565b6128f46020830184612499565b9392505050565b60006060820190506129106000830186612499565b61291d6020830185612283565b61292a6040830184612283565b949350505050565b60006040820190506129476000830185612499565b6129546020830184612363565b9392505050565b600060a0820190506129706000830188612363565b61297d6020830187612363565b61298a6040830186612363565b6129976060830185612283565b6129a46080830184612499565b9695505050505050565b60006080820190506129c36000830187612363565b6129d060208301866123da565b6129dd6040830185612363565b6129ea6060830184612363565b95945050505050565b7f4e487b7100000000000000000000000000000000000000000000000000000000600052602160045260246000fdfea264697066735822122055ac580fb13fea297786372a66f7c7c7f7ff0c7aa38ffb08f9ff14962f4eeb7f64736f6c634300081c0033",
  "linkReferences": {},
  "deployedLinkReferences": {}
}