{"contracts/DajuToken.sol":{"DajuToken":{"abi":[{"inputs":[{"internalType":"address","name":"initialOwner","type":"address"},{"internalType":"uint256","name":"cap","type":"uint256"}],"stateMutability":"nonpayable","type":"constructor"},{"inputs":[],"name":"AccessControlBadConfirmation","type":"error"},{"inputs":[{"internalType":"address","name":"account","type":"address"},{"internalType":"bytes32","name":"neededRole","type":"bytes32"}],"name":"AccessControlUnauthorizedAccount","type":"error"},{"inputs":[],"name":"ECDSAInvalidSignature","type":"error"},{"inputs":[{"internalType":"uint256","name":"length","type":"uint256"}],"name":"ECDSAInvalidSignatureLength","type":"error"},{"inputs":[{"internalType":"bytes32","name":"s","type":"bytes32"}],"name":"ECDSAInvalidSignatureS","type":"error"},{"inputs":[{"internalType":"address","name":"spender","type":"address"},{"internalType":"uint256","name":"allowance","type":"uint256"},{"internalType":"uint256","name":"needed","type":"uint256"}],"name":"ERC20InsufficientAllowance","type":"error"},{"inputs":[{"internalType":"address","name":"sender","type":"address"},{"internalType":"uint256","name":"balance","type":"uint256"},{"internalType":"uint256","name":"needed","type":"uint256"}],"name":"ERC20InsufficientBalance","type":"error"},{"inputs":[{"internalType":"address","name":"approver","type":"address"}],"name":"ERC20InvalidApprover","type":"error"},{"inputs":[{"internalType":"address","name":"receiver","type":"address"}],"name":"ERC20InvalidReceiver","type":"error"},{"inputs":[{"internalType":"address","name":"sender","type":"address"}],"name":"ERC20InvalidSender","type":"error"},{"inputs":[{"internalType":"address","name":"spender","type":"address"}],"name":"ERC20InvalidSpender","type":"error"},{"inputs":[{"internalType":"uint256","name":"deadline","type":"uint256"}],"name":"ERC2612ExpiredSignature","type":"error"},{"inputs":[{"internalType":"address","name":"signer","type":"address"},{"internalType":"address","name":"owner","type":"address"}],"name":"ERC2612InvalidSigner","type":"error"},{"inputs":[],"name":"EmptyTokenSymbol","type":"error"},{"inputs":[],"name":"IncorrectETHAmountSent","type":"error"},{"inputs":[],"name":"InsufficientAllowance","type":"error"},{"inputs":[],"name":"InsufficientContractBalance","type":"error"},{"inputs":[],"name":"InsufficientDajuBalance","type":"error"},{"inputs":[],"name":"InsufficientTokenBalance","type":"error"},{"inputs":[],"name":"InsufficientTokenReserves","type":"error"},{"inputs":[{"internalType":"address","name":"account","type":"address"},{"internalType":"uint256","name":"currentNonce","type":"uint256"}],"name":"InvalidAccountNonce","type":"error"},{"inputs":[],"name":"InvalidExchangeAmount","type":"error"},{"inputs":[],"name":"InvalidShortString","type":"error"},{"inputs":[{"internalType":"address","name":"owner","type":"address"}],"name":"OwnableInvalidOwner","type":"error"},{"inputs":[{"internalType":"address","name":"account","type":"address"}],"name":"OwnableUnauthorizedAccount","type":"error"},{"inputs":[],"name":"ReentrancyGuardReentrantCall","type":"error"},{"inputs":[{"internalType":"string","name":"str","type":"string"}],"name":"StringTooLong","type":"error"},{"inputs":[{"internalType":"string","name":"symbol","type":"string"}],"name":"TokenAlreadySupported","type":"error"},{"inputs":[{"internalType":"string","name":"symbol","type":"string"}],"name":"TokenNotSupported","type":"error"},{"inputs":[],"name":"TokenTransferFailed","type":"error"},{"inputs":[],"name":"ZeroAmount","type":"error"},{"anonymous":false,"inputs":[{"indexed":true,"internalType":"address","name":"owner","type":"address"},{"indexed":true,"internalType":"address","name":"spender","type":"address"},{"indexed":false,"internalType":"uint256","name":"value","type":"uint256"}],"name":"Approval","type":"event"},{"anonymous":false,"inputs":[],"name":"EIP712DomainChanged","type":"event"},{"anonymous":false,"inputs":[{"indexed":true,"internalType":"address","name":"user","type":"address"},{"indexed":false,"internalType":"string","name":"tokenSymbol","type":"string"},{"indexed":false,"internalType":"uint256","name":"inputAmount","type":"uint256"},{"indexed":false,"internalType":"uint256","name":"outputAmount","type":"uint256"},{"indexed":false,"internalType":"bool","name":"isBuy","type":"bool"}],"name":"ExchangeCompleted","type":"event"},{"anonymous":false,"inputs":[{"indexed":false,"internalType":"string","name":"tokenSymbol","type":"string"},{"indexed":false,"internalType":"uint256","name":"oldRate","type":"uint256"},{"indexed":false,"internalType":"uint256","name":"newRate","type":"uint256"}],"name":"ExchangeRateUpdated","type":"event"},{"anonymous":false,"inputs":[{"indexed":true,"internalType":"address","name":"previousOwner","type":"address"},{"indexed":true,"internalType":"address","name":"newOwner","type":"address"}],"name":"OwnershipTransferred","type":"event"},{"anonymous":false,"inputs":[{"indexed":false,"internalType":"bool","name":"isPaused","type":"bool"}],"name":"PausedStateChanged","type":"event"},{"anonymous":false,"inputs":[{"indexed":true,"internalType":"bytes32","name":"role","type":"bytes32"},{"indexed":true,"internalType":"bytes32","name":"previousAdminRole","type":"bytes32"},{"indexed":true,"internalType":"bytes32","name":"newAdminRole","type":"bytes32"}],"name":"RoleAdminChanged","type":"event"},{"anonymous":false,"inputs":[{"indexed":true,"internalType":"bytes32","name":"role","type":"bytes32"},{"indexed":true,"internalType":"address","name":"account","type":"address"},{"indexed":true,"internalType":"address","name":"sender","type":"address"}],"name":"RoleGranted","type":"event"},{"anonymous":false,"inputs":[{"indexed":true,"internalType":"bytes32","name":"role","type":"bytes32"},{"indexed":true,"internalType":"address","name":"account","type":"address"},{"indexed":true,"internalType":"address","name":"sender","type":"address"}],"name":"RoleRevoked","type":"event"},{"anonymous":false,"inputs":[{"indexed":false,"internalType":"string","name":"tokenSymbol","type":"string"},{"indexed":false,"internalType":"address","name":"tokenAddress","type":"address"},{"indexed":false,"internalType":"uint256","name":"rate","type":"uint256"}],"name":"TokenSupported","type":"event"},{"anonymous":false,"inputs":[{"indexed":true,"internalType":"address","name":"from","type":"address"},{"indexed":false,"internalType":"uint256","name":"amount","type":"uint256"}],"name":"TokensBurned","type":"event"},{"anonymous":false,"inputs":[{"indexed":true,"internalType":"address","name":"to","type":"address"},{"indexed":false,"internalType":"uint256","name":"amount","type":"uint256"}],"name":"TokensMinted","type":"event"},{"anonymous":false,"inputs":[{"indexed":true,"internalType":"address","name":"from","type":"address"},{"indexed":true,"internalType":"address","name":"to","type":"address"},{"indexed":false,"internalType":"uint256","name":"value","type":"uint256"}],"name":"Transfer","type":"event"},{"inputs":[],"name":"CAP","outputs":[{"internalType":"uint256","name":"","type":"uint256"}],"stateMutability":"view","type":"function"},{"inputs":[],"name":"DEFAULT_ADMIN_ROLE","outputs":[{"internalType":"bytes32","name":"","type":"bytes32"}],"stateMutability":"view","type":"function"},{"inputs":[],"name":"DOMAIN_SEPARATOR","outputs":[{"internalType":"bytes32","name":"","type":"bytes32"}],"stateMutability":"view","type":"function"},{"inputs":[],"name":"EXCHANGE_MANAGER_ROLE","outputs":[{"internalType":"bytes32","name":"","type":"bytes32"}],"stateMutability":"view","type":"function"},{"inputs":[],"name":"MINTER_ROLE","outputs":[{"internalType":"bytes32","name":"","type":"bytes32"}],"stateMutability":"view","type":"function"},{"inputs":[{"internalType":"string","name":"tokenSymbol","type":"string"},{"internalType":"address","name":"tokenAddress","type":"address"},{"internalType":"uint256","name":"rate","type":"uint256"},{"internalType":"uint8","name":"decimals","type":"uint8"}],"name":"addSupportedToken","outputs":[],"stateMutability":"nonpayable","type":"function"},{"inputs":[{"internalType":"address","name":"owner","type":"address"},{"internalType":"address","name":"spender","type":"address"}],"name":"allowance","outputs":[{"internalType":"uint256","name":"","type":"uint256"}],"stateMutability":"view","type":"function"},{"inputs":[{"internalType":"address","name":"spender","type":"address"},{"internalType":"uint256","name":"value","type":"uint256"}],"name":"approve","outputs":[{"internalType":"bool","name":"","type":"bool"}],"stateMutability":"nonpayable","type":"function"},{"inputs":[{"internalType":"address","name":"account","type":"address"}],"name":"balanceOf","outputs":[{"internalType":"uint256","name":"","type":"uint256"}],"stateMutability":"view","type":"function"},{"inputs":[{"internalType":"uint256","name":"amount","type":"uint256"}],"name":"burn","outputs":[],"stateMutability":"nonpayable","type":"function"},{"inputs":[{"internalType":"address","name":"account","type":"address"},{"internalType":"uint256","name":"value","type":"uint256"}],"name":"burnFrom","outputs":[],"stateMutability":"nonpayable","type":"function"},{"inputs":[{"internalType":"string","name":"tokenSymbol","type":"string"},{"internalType":"uint256","name":"amount","type":"uint256"},{"internalType":"bool","name":"isBuy","type":"bool"}],"name":"calculateExchange","outputs":[{"internalType":"uint256","name":"","type":"uint256"}],"stateMutability":"view","type":"function"},{"inputs":[],"name":"decimals","outputs":[{"internalType":"uint8","name":"","type":"uint8"}],"stateMutability":"view","type":"function"},{"inputs":[],"name":"eip712Domain","outputs":[{"internalType":"bytes1","name":"fields","type":"bytes1"},{"internalType":"string","name":"name","type":"string"},{"internalType":"string","name":"version","type":"string"},{"internalType":"uint256","name":"chainId","type":"uint256"},{"internalType":"address","name":"verifyingContract","type":"address"},{"internalType":"bytes32","name":"salt","type":"bytes32"},{"internalType":"uint256[]","name":"extensions","type":"uint256[]"}],"stateMutability":"view","type":"function"},{"inputs":[{"internalType":"string","name":"tokenSymbol","type":"string"},{"internalType":"uint256","name":"amount","type":"uint256"},{"internalType":"bool","name":"isBuy","type":"bool"}],"name":"exchange","outputs":[],"stateMutability":"nonpayable","type":"function"},{"inputs":[{"internalType":"bytes32","name":"role","type":"bytes32"}],"name":"getRoleAdmin","outputs":[{"internalType":"bytes32","name":"","type":"bytes32"}],"stateMutability":"view","type":"function"},{"inputs":[],"name":"getSupportedTokens","outputs":[{"internalType":"string[]","name":"","type":"string[]"}],"stateMutability":"view","type":"function"},{"inputs":[{"internalType":"string","name":"tokenSymbol","type":"string"}],"name":"getTokenInfo","outputs":[{"components":[{"internalType":"uint256","name":"rate","type":"uint256"},{"internalType":"address","name":"tokenAddress","type":"address"},{"internalType":"uint8","name":"decimals","type":"uint8"}],"internalType":"struct DajuToken.TokenInfo","name":"","type":"tuple"}],"stateMutability":"view","type":"function"},{"inputs":[{"internalType":"bytes32","name":"role","type":"bytes32"},{"internalType":"address","name":"account","type":"address"}],"name":"grantRole","outputs":[],"stateMutability":"nonpayable","type":"function"},{"inputs":[{"internalType":"bytes32","name":"role","type":"bytes32"},{"internalType":"address","name":"account","type":"address"}],"name":"hasRole","outputs":[{"internalType":"bool","name":"","type":"bool"}],"stateMutability":"view","type":"function"},{"inputs":[{"internalType":"address","name":"to","type":"address"},{"internalType":"uint256","name":"amount","type":"uint256"}],"name":"mint","outputs":[],"stateMutability":"nonpayable","type":"function"},{"inputs":[],"name":"name","outputs":[{"internalType":"string","name":"","type":"string"}],"stateMutability":"view","type":"function"},{"inputs":[{"internalType":"address","name":"owner","type":"address"}],"name":"nonces","outputs":[{"internalType":"uint256","name":"","type":"uint256"}],"stateMutability":"view","type":"function"},{"inputs":[],"name":"owner","outputs":[{"internalType":"address","name":"","type":"address"}],"stateMutability":"view","type":"function"},{"inputs":[],"name":"paused","outputs":[{"internalType":"bool","name":"","type":"bool"}],"stateMutability":"view","type":"function"},{"inputs":[{"internalType":"address","name":"owner","type":"address"},{"internalType":"address","name":"spender","type":"address"},{"internalType":"uint256","name":"value","type":"uint256"},{"internalType":"uint256","name":"deadline","type":"uint256"},{"internalType":"uint8","name":"v","type":"uint8"},{"internalType":"bytes32","name":"r","type":"bytes32"},{"internalType":"bytes32","name":"s","type":"bytes32"}],"name":"permit","outputs":[],"stateMutability":"nonpayable","type":"function"},{"inputs":[],"name":"renounceOwnership","outputs":[],"stateMutability":"nonpayable","type":"function"},{"inputs":[{"internalType":"bytes32","name":"role","type":"bytes32"},{"internalType":"address","name":"callerConfirmation","type":"address"}],"name":"renounceRole","outputs":[],"stateMutability":"nonpayable","type":"function"},{"inputs":[{"internalType":"bytes32","name":"role","type":"bytes32"},{"internalType":"address","name":"account","type":"address"}],"name":"revokeRole","outputs":[],"stateMutability":"nonpayable","type":"function"},{"inputs":[{"internalType":"bool","name":"_paused","type":"bool"}],"name":"setPaused","outputs":[],"stateMutability":"nonpayable","type":"function"},{"inputs":[{"internalType":"string","name":"tokenSymbol","type":"string"},{"internalType":"address","name":"tokenAddress","type":"address"}],"name":"setTokenAddress","outputs":[],"stateMutability":"nonpayable","type":"function"},{"inputs":[{"internalType":"bytes4","name":"interfaceId","type":"bytes4"}],"name":"supportsInterface","outputs":[{"internalType":"bool","name":"","type":"bool"}],"stateMutability":"view","type":"function"},{"inputs":[],"name":"symbol","outputs":[{"internalType":"string","name":"","type":"string"}],"stateMutability":"view","type":"function"},{"inputs":[{"internalType":"string","name":"","type":"string"}],"name":"tokenInfo","outputs":[{"internalType":"uint256","name":"rate","type":"uint256"},{"internalType":"address","name":"tokenAddress","type":"address"},{"internalType":"uint8","name":"decimals","type":"uint8"}],"stateMutability":"view","type":"function"},{"inputs":[],"name":"totalSupply","outputs":[{"internalType":"uint256","name":"","type":"uint256"}],"stateMutability":"view","type":"function"},{"inputs":[{"internalType":"address","name":"to","type":"address"},{"internalType":"uint256","name":"value","type":"uint256"}],"name":"transfer","outputs":[{"internalType":"bool","name":"","type":"bool"}],"stateMutability":"nonpayable","type":"function"},{"inputs":[{"internalType":"address","name":"from","type":"address"},{"internalType":"address","name":"to","type":"address"},{"internalType":"uint256","name":"value","type":"uint256"}],"name":"transferFrom","outputs":[{"internalType":"bool","name":"","type":"bool"}],"stateMutability":"nonpayable","type":"function"},{"inputs":[{"internalType":"address","name":"newOwner","type":"address"}],"name":"transferOwnership","outputs":[],"stateMutability":"nonpayable","type":"function"},{"inputs":[{"internalType":"string","name":"tokenSymbol","type":"string"},{"internalType":"uint256","name":"newRate","type":"uint256"}],"name":"updateExchangeRate","outputs":[],"stateMutability":"nonpayable","type":"function"}],"evm":{"bytecode":{"linkReferences":{},"object":"61018060405234801561001157600080fd5b5060405161641238038061641283398181016040528101906100339190610cdf565b6040518060400160405280600981526020017f44616a75546f6b656e0000000000000000000000000000000000000000000000815250806040518060400160405280600181526020017f3100000000000000000000000000000000000000000000000000000000000000815250846040518060400160405280600981526020017f44616a75546f6b656e00000000000000000000000000000000000000000000008152506040518060400160405280600481526020017f44414a5500000000000000000000000000000000000000000000000000000000815250816003908161011c9190610f65565b50806004908161012c9190610f65565b505050600073ffffffffffffffffffffffffffffffffffffffff168173ffffffffffffffffffffffffffffffffffffffff16036101a15760006040517f1e4fbdf70000000000000000000000000000000000000000000000000000000081526004016101989190611046565b60405180910390fd5b6101b08161040760201b60201c565b506101c560068361042d60201b90919060201c565b61012081815250506101e160078261042d60201b90919060201c565b6101408181525050818051906020012060e08181525050808051906020012061010081815250504660a0818152505061021e61047d60201b60201c565b608081815250503073ffffffffffffffffffffffffffffffffffffffff1660c08173ffffffffffffffffffffffffffffffffffffffff16815250505050506001600a81905550600073ffffffffffffffffffffffffffffffffffffffff168273ffffffffffffffffffffffffffffffffffffffff16036102d3576040517f08c379a00000000000000000000000000000000000000000000000000000000081526004016102ca906110be565b60405180910390fd5b60008111610316576040517f08c379a000000000000000000000000000000000000000000000000000000000815260040161030d9061112a565b60405180910390fd5b8061016081815250506103326000801b836104d860201b60201c565b506103637f9f2df0fed2c77648de5860a4cc508cd0818c85b8b8a1ab4ceeef8d981c8956a6836104d860201b60201c565b506103947fe9eb2d474dbf4ad0af01dbc745ec0e55d70ca9366fe9b52307997e913bad905c836104d860201b60201c565b506103af8269d3c21bcecceda10000006105d660201b60201c565b6104006040518060400160405280600481526020017f555344430000000000000000000000000000000000000000000000000000000081525060006710a741a462780000600661065e60201b60201c565b5050611438565b6104168161087660201b60201c565b6104296000801b826104d860201b60201c565b5050565b600060208351101561044f576104488361093c60201b60201c565b9050610477565b8261045f836109a460201b60201c565b600001908161046e9190610f65565b5060ff60001b90505b92915050565b60007f8b73c3c69bb8fe3d512ecc4cf759cc79239f7b179b0ffacaa9a75d522b39400f60e0516101005146306040516020016104bd959493929190611172565b60405160208183030381529060405280519060200120905090565b60006104ea83836109ae60201b60201c565b6105cb5760016009600085815260200190815260200160002060000160008473ffffffffffffffffffffffffffffffffffffffff1673ffffffffffffffffffffffffffffffffffffffff16815260200190815260200160002060006101000a81548160ff021916908315150217905550610568610a1960201b60201c565b73ffffffffffffffffffffffffffffffffffffffff168273ffffffffffffffffffffffffffffffffffffffff16847f2f8788117e7eff1d82e926ec794901d17c78024a50270940304540a733656f0d60405160405180910390a4600190506105d0565b600090505b92915050565b600073ffffffffffffffffffffffffffffffffffffffff168273ffffffffffffffffffffffffffffffffffffffff16036106485760006040517fec442f0500000000000000000000000000000000000000000000000000000000815260040161063f9190611046565b60405180910390fd5b61065a60008383610a2160201b60201c565b5050565b6000845103610699576040517f19c7070a00000000000000000000000000000000000000000000000000000000815260040160405180910390fd5b600082036106d3576040517f2689ac4300000000000000000000000000000000000000000000000000000000815260040160405180910390fd5b6000600d856040516106e5919061122b565b9081526020016040518091039020600001541461073957836040517fa094d48d000000000000000000000000000000000000000000000000000000008152600401610730919061128c565b60405180910390fd5b600c8490806001815401808255809150506001900390600052602060002001600090919091909150908161076d9190610f65565b5060405180606001604052808381526020018473ffffffffffffffffffffffffffffffffffffffff1681526020018260ff16815250600d856040516107b2919061122b565b90815260200160405180910390206000820151816000015560208201518160010160006101000a81548173ffffffffffffffffffffffffffffffffffffffff021916908373ffffffffffffffffffffffffffffffffffffffff16021790555060408201518160010160146101000a81548160ff021916908360ff1602179055509050507f84390a2096e2bf5a86745ae76997944b0f161f904f842ee21f1669a5dc93361b848484604051610868939291906112ae565b60405180910390a150505050565b6000600560009054906101000a900473ffffffffffffffffffffffffffffffffffffffff16905081600560006101000a81548173ffffffffffffffffffffffffffffffffffffffff021916908373ffffffffffffffffffffffffffffffffffffffff1602179055508173ffffffffffffffffffffffffffffffffffffffff168173ffffffffffffffffffffffffffffffffffffffff167f8be0079c531659141344cd1fd0a4f28419497f9722a3daafe3b4186f6b6457e060405160405180910390a35050565b600080829050601f8151111561098957826040517f305a27a9000000000000000000000000000000000000000000000000000000008152600401610980919061128c565b60405180910390fd5b8051816109959061131c565b60001c1760001b915050919050565b6000819050919050565b60006009600084815260200190815260200160002060000160008373ffffffffffffffffffffffffffffffffffffffff1673ffffffffffffffffffffffffffffffffffffffff16815260200190815260200160002060009054906101000a900460ff16905092915050565b600033905090565b600073ffffffffffffffffffffffffffffffffffffffff168373ffffffffffffffffffffffffffffffffffffffff1603610a73578060026000828254610a6791906113b2565b92505081905550610b46565b60008060008573ffffffffffffffffffffffffffffffffffffffff1673ffffffffffffffffffffffffffffffffffffffff16815260200190815260200160002054905081811015610aff578381836040517fe450d38c000000000000000000000000000000000000000000000000000000008152600401610af6939291906113e6565b60405180910390fd5b8181036000808673ffffffffffffffffffffffffffffffffffffffff1673ffffffffffffffffffffffffffffffffffffffff16815260200190815260200160002081905550505b600073ffffffffffffffffffffffffffffffffffffffff168273ffffffffffffffffffffffffffffffffffffffff1603610b8f5780600260008282540392505081905550610bdc565b806000808473ffffffffffffffffffffffffffffffffffffffff1673ffffffffffffffffffffffffffffffffffffffff168152602001908152602001600020600082825401925050819055505b8173ffffffffffffffffffffffffffffffffffffffff168373ffffffffffffffffffffffffffffffffffffffff167fddf252ad1be2c89b69c2b068fc378daa952ba7f163c4a11628f55a4df523b3ef83604051610c39919061141d565b60405180910390a3505050565b600080fd5b600073ffffffffffffffffffffffffffffffffffffffff82169050919050565b6000610c7682610c4b565b9050919050565b610c8681610c6b565b8114610c9157600080fd5b50565b600081519050610ca381610c7d565b92915050565b6000819050919050565b610cbc81610ca9565b8114610cc757600080fd5b50565b600081519050610cd981610cb3565b92915050565b60008060408385031215610cf657610cf5610c46565b5b6000610d0485828601610c94565b9250506020610d1585828601610cca565b9150509250929050565b600081519050919050565b7f4e487b7100000000000000000000000000000000000000000000000000000000600052604160045260246000fd5b7f4e487b7100000000000000000000000000000000000000000000000000000000600052602260045260246000fd5b60006002820490506001821680610da057607f821691505b602082108103610db357610db2610d59565b5b50919050565b60008190508160005260206000209050919050565b60006020601f8301049050919050565b600082821b905092915050565b600060088302610e1b7fffffffffffffffffffffffffffffffffffffffffffffffffffffffffffffffff82610dde565b610e258683610dde565b95508019841693508086168417925050509392505050565b6000819050919050565b6000610e62610e5d610e5884610ca9565b610e3d565b610ca9565b9050919050565b6000819050919050565b610e7c83610e47565b610e90610e8882610e69565b848454610deb565b825550505050565b600090565b610ea5610e98565b610eb0818484610e73565b505050565b5b81811015610ed457610ec9600082610e9d565b600181019050610eb6565b5050565b601f821115610f1957610eea81610db9565b610ef384610dce565b81016020851015610f02578190505b610f16610f0e85610dce565b830182610eb5565b50505b505050565b600082821c905092915050565b6000610f3c60001984600802610f1e565b1980831691505092915050565b6000610f558383610f2b565b9150826002028217905092915050565b610f6e82610d1f565b67ffffffffffffffff811115610f8757610f86610d2a565b5b610f918254610d88565b610f9c828285610ed8565b600060209050601f831160018114610fcf5760008415610fbd578287015190505b610fc78582610f49565b86555061102f565b601f198416610fdd86610db9565b60005b8281101561100557848901518255600182019150602085019450602081019050610fe0565b86831015611022578489015161101e601f891682610f2b565b8355505b6001600288020188555050505b505050505050565b61104081610c6b565b82525050565b600060208201905061105b6000830184611037565b92915050565b600082825260208201905092915050565b7f496e76616c696420696e697469616c206f776e65720000000000000000000000600082015250565b60006110a8601583611061565b91506110b382611072565b602082019050919050565b600060208201905081810360008301526110d78161109b565b9050919050565b7f436170206d7573742062652067726561746572207468616e207a65726f000000600082015250565b6000611114601d83611061565b915061111f826110de565b602082019050919050565b6000602082019050818103600083015261114381611107565b9050919050565b6000819050919050565b61115d8161114a565b82525050565b61116c81610ca9565b82525050565b600060a0820190506111876000830188611154565b6111946020830187611154565b6111a16040830186611154565b6111ae6060830185611163565b6111bb6080830184611037565b9695505050505050565b600081905092915050565b60005b838110156111ee5780820151818401526020810190506111d3565b60008484015250505050565b600061120582610d1f565b61120f81856111c5565b935061121f8185602086016111d0565b80840191505092915050565b600061123782846111fa565b915081905092915050565b6000601f19601f8301169050919050565b600061125e82610d1f565b6112688185611061565b93506112788185602086016111d0565b61128181611242565b840191505092915050565b600060208201905081810360008301526112a68184611253565b905092915050565b600060608201905081810360008301526112c88186611253565b90506112d76020830185611037565b6112e46040830184611163565b949350505050565b600081519050919050565b6000819050602082019050919050565b6000611313825161114a565b80915050919050565b6000611327826112ec565b82611331846112f7565b905061133c81611307565b9250602082101561137c576113777fffffffffffffffffffffffffffffffffffffffffffffffffffffffffffffffff83602003600802610dde565b831692505b5050919050565b7f4e487b7100000000000000000000000000000000000000000000000000000000600052601160045260246000fd5b60006113bd82610ca9565b91506113c883610ca9565b92508282019050808211156113e0576113df611383565b5b92915050565b60006060820190506113fb6000830186611037565b6114086020830185611163565b6114156040830184611163565b949350505050565b60006020820190506114326000830184611163565b92915050565b60805160a05160c05160e05161010051610120516101405161016051614f6e6114a460003960008181610e370152611bb8015260006123860152600061234b015260006130da015260006130b901526000611f9a01526000611ff0015260006120190152614f6e6000f3fe608060405234801561001057600080fd5b506004361061023d5760003560e01c806379cc67901161013b578063a96ffd64116100b8578063db0ca8571161007c578063db0ca857146106e2578063dd62ed3e146106fe578063ec81b4831461072e578063f2fde38b1461074c578063fd48a1e6146107685761023d565b8063a96ffd641461063e578063d3c7c2c71461066e578063d505accf1461068c578063d5391393146106a8578063d547741f146106c65761023d565b80638e0ad1cc116100ff5780638e0ad1cc1461057257806391d14854146105a257806395d89b41146105d2578063a217fddf146105f0578063a9059cbb1461060e5761023d565b806379cc6790146104c85780637ecebe00146104e457806384b0196e14610514578063883f24ec146105385780638da5cb5b146105545761023d565b80632f2ff15d116101c957806342966c681161018d57806342966c6814610422578063587bbca21461043e5780635c975abb1461047057806370a082311461048e578063715018a6146104be5761023d565b80632f2ff15d14610392578063313ce567146103ae5780633644e515146103cc57806336568abe146103ea57806340c10f19146104065761023d565b806316c38b3c1161021057806316c38b3c146102dc57806317456e56146102f857806318160ddd1461031457806323b872dd14610332578063248a9ca3146103625761023d565b806301ffc9a71461024257806306fdde0314610272578063095ea7b31461029057806314c360a2146102c0575b600080fd5b61025c60048036038101906102579190613782565b610786565b60405161026991906137ca565b60405180910390f35b61027a610800565b6040516102879190613875565b60405180910390f35b6102aa60048036038101906102a5919061392b565b610892565b6040516102b791906137ca565b60405180910390f35b6102da60048036038101906102d591906139d0565b6108b5565b005b6102f660048036038101906102f19190613a5c565b610a6c565b005b610312600480360381019061030d9190613a89565b610aea565b005b61031c610c73565b6040516103299190613af8565b60405180910390f35b61034c60048036038101906103479190613b13565b610c7d565b60405161035991906137ca565b60405180910390f35b61037c60048036038101906103779190613b9c565b610cac565b6040516103899190613bd8565b60405180910390f35b6103ac60048036038101906103a79190613bf3565b610ccc565b005b6103b6610cee565b6040516103c39190613c4f565b60405180910390f35b6103d4610cf7565b6040516103e19190613bd8565b60405180910390f35b61040460048036038101906103ff9190613bf3565b610d06565b005b610420600480360381019061041b919061392b565b610d81565b005b61043c60048036038101906104379190613c6a565b610f07565b005b61045860048036038101906104539190613dc7565b610feb565b60405161046793929190613e1f565b60405180910390f35b610478611058565b60405161048591906137ca565b60405180910390f35b6104a860048036038101906104a39190613e56565b61106b565b6040516104b59190613af8565b60405180910390f35b6104c66110b3565b005b6104e260048036038101906104dd919061392b565b6110c7565b005b6104fe60048036038101906104f99190613e56565b6110e7565b60405161050b9190613af8565b60405180910390f35b61051c6110f9565b60405161052f9796959493929190613f7c565b60405180910390f35b610552600480360381019061054d919061402c565b6111a3565b005b61055c611275565b60405161056991906140b4565b60405180910390f35b61058c600480360381019061058791906140cf565b61129f565b604051610599919061417c565b60405180910390f35b6105bc60048036038101906105b79190613bf3565b6113a8565b6040516105c991906137ca565b60405180910390f35b6105da611413565b6040516105e79190613875565b60405180910390f35b6105f86114a5565b6040516106059190613bd8565b60405180910390f35b6106286004803603810190610623919061392b565b6114ac565b60405161063591906137ca565b60405180910390f35b61065860048036038101906106539190614197565b6114cf565b6040516106659190613af8565b60405180910390f35b610676611620565b6040516106839190614317565b60405180910390f35b6106a660048036038101906106a19190614339565b6116f9565b005b6106b0611841565b6040516106bd9190613bd8565b60405180910390f35b6106e060048036038101906106db9190613bf3565b611865565b005b6106fc60048036038101906106f79190614197565b611887565b005b610718600480360381019061071391906143db565b611b2f565b6040516107259190613af8565b60405180910390f35b610736611bb6565b6040516107439190613af8565b60405180910390f35b61076660048036038101906107619190613e56565b611bda565b005b610770611c60565b60405161077d9190613bd8565b60405180910390f35b60007f7965db0b000000000000000000000000000000000000000000000000000000007bffffffffffffffffffffffffffffffffffffffffffffffffffffffff1916827bffffffffffffffffffffffffffffffffffffffffffffffffffffffff191614806107f957506107f882611c84565b5b9050919050565b60606003805461080f9061444a565b80601f016020809104026020016040519081016040528092919081815260200182805461083b9061444a565b80156108885780601f1061085d57610100808354040283529160200191610888565b820191906000526020600020905b81548152906001019060200180831161086b57829003601f168201915b5050505050905090565b60008061089d611cee565b90506108aa818585611cf6565b600191505092915050565b7fe9eb2d474dbf4ad0af01dbc745ec0e55d70ca9366fe9b52307997e913bad905c6108df81611d08565b600b60009054906101000a900460ff161561092f576040517f08c379a0000000000000000000000000000000000000000000000000000000008152600401610926906144c7565b60405180910390fd5b6000848490500361096c576040517f19c7070a00000000000000000000000000000000000000000000000000000000815260040160405180910390fd5b600082036109a6576040517f2689ac4300000000000000000000000000000000000000000000000000000000815260040160405180910390fd5b6000600d85856040516109ba929190614517565b908152602001604051809103902090506000816000015403610a155784846040517fc16fc3ad000000000000000000000000000000000000000000000000000000008152600401610a0c92919061455d565b60405180910390fd5b6000816000015490508382600001819055507f301886e6c7c3689607c20b38181febf7ed6a192d69f4fd79065fd0fc869323b686868387604051610a5c9493929190614581565b60405180910390a1505050505050565b6000801b610a7981611d08565b811515600b60009054906101000a900460ff1615150315610ae65781600b60006101000a81548160ff0219169083151502179055507f9e3a5e37224532dea67b89face185703738a228a6e8a23dee546960180d3be6482604051610add91906137ca565b60405180910390a15b5050565b7fe9eb2d474dbf4ad0af01dbc745ec0e55d70ca9366fe9b52307997e913bad905c610b1481611d08565b600b60009054906101000a900460ff1615610b64576040517f08c379a0000000000000000000000000000000000000000000000000000000008152600401610b5b906144c7565b60405180910390fd5b60008484905003610ba1576040517f19c7070a00000000000000000000000000000000000000000000000000000000815260040160405180910390fd5b6000600d8585604051610bb5929190614517565b90815260200160405180910390206000015403610c0b5783836040517fc16fc3ad000000000000000000000000000000000000000000000000000000008152600401610c0292919061455d565b60405180910390fd5b81600d8585604051610c1e929190614517565b908152602001604051809103902060010160006101000a81548173ffffffffffffffffffffffffffffffffffffffff021916908373ffffffffffffffffffffffffffffffffffffffff16021790555050505050565b6000600254905090565b600080610c88611cee565b9050610c95858285611d1c565b610ca0858585611db0565b60019150509392505050565b600060096000838152602001908152602001600020600101549050919050565b610cd582610cac565b610cde81611d08565b610ce88383611ea4565b50505050565b60006012905090565b6000610d01611f96565b905090565b610d0e611cee565b73ffffffffffffffffffffffffffffffffffffffff168173ffffffffffffffffffffffffffffffffffffffff1614610d72576040517f6697b23200000000000000000000000000000000000000000000000000000000815260040160405180910390fd5b610d7c828261204d565b505050565b7f9f2df0fed2c77648de5860a4cc508cd0818c85b8b8a1ab4ceeef8d981c8956a6610dab81611d08565b600b60009054906101000a900460ff1615610dfb576040517f08c379a0000000000000000000000000000000000000000000000000000000008152600401610df2906144c7565b60405180910390fd5b60008203610e35576040517f1f2a200500000000000000000000000000000000000000000000000000000000815260040160405180910390fd5b7f000000000000000000000000000000000000000000000000000000000000000082610e5f610c73565b610e6991906145f0565b1115610eaa576040517f08c379a0000000000000000000000000000000000000000000000000000000008152600401610ea190614670565b60405180910390fd5b610eb48383612140565b8273ffffffffffffffffffffffffffffffffffffffff167f3f2c9d57c068687834f0de942a9babb9e5acab57d516d3480a3c16ee165a427383604051610efa9190613af8565b60405180910390a2505050565b600b60009054906101000a900460ff1615610f57576040517f08c379a0000000000000000000000000000000000000000000000000000000008152600401610f4e906144c7565b60405180910390fd5b60008103610f91576040517f1f2a200500000000000000000000000000000000000000000000000000000000815260040160405180910390fd5b610f9a816121c2565b3373ffffffffffffffffffffffffffffffffffffffff167ffd38818f5291bf0bb3a2a48aadc06ba8757865d1dabd804585338aab3009dcb682604051610fe09190613af8565b60405180910390a250565b600d818051602081018201805184825260208301602085012081835280955050505050506000915090508060000154908060010160009054906101000a900473ffffffffffffffffffffffffffffffffffffffff16908060010160149054906101000a900460ff16905083565b600b60009054906101000a900460ff1681565b60008060008373ffffffffffffffffffffffffffffffffffffffff1673ffffffffffffffffffffffffffffffffffffffff168152602001908152602001600020549050919050565b6110bb6121d6565b6110c5600061225d565b565b6110d9826110d3611cee565b83611d1c565b6110e38282612277565b5050565b60006110f2826122f9565b9050919050565b60006060806000806000606061110d612342565b61111561237d565b46306000801b600067ffffffffffffffff81111561113657611135613c9c565b5b6040519080825280602002602001820160405280156111645781602001602082028036833780820191505090505b507f0f00000000000000000000000000000000000000000000000000000000000000959493929190965096509650965096509650965090919293949596565b7fe9eb2d474dbf4ad0af01dbc745ec0e55d70ca9366fe9b52307997e913bad905c6111cd81611d08565b600b60009054906101000a900460ff161561121d576040517f08c379a0000000000000000000000000000000000000000000000000000000008152600401611214906144c7565b60405180910390fd5b61126d86868080601f016020809104026020016040519081016040528093929190818152602001838380828437600081840152601f19601f820116905080830192505050505050508585856123b8565b505050505050565b6000600560009054906101000a900473ffffffffffffffffffffffffffffffffffffffff16905090565b6112a76136dc565b6000600d84846040516112bb929190614517565b9081526020016040518091039020604051806060016040529081600082015481526020016001820160009054906101000a900473ffffffffffffffffffffffffffffffffffffffff1673ffffffffffffffffffffffffffffffffffffffff1673ffffffffffffffffffffffffffffffffffffffff1681526020016001820160149054906101000a900460ff1660ff1660ff16815250509050600081600001510361139e5783836040517fc16fc3ad00000000000000000000000000000000000000000000000000000000815260040161139592919061455d565b60405180910390fd5b8091505092915050565b60006009600084815260200190815260200160002060000160008373ffffffffffffffffffffffffffffffffffffffff1673ffffffffffffffffffffffffffffffffffffffff16815260200190815260200160002060009054906101000a900460ff16905092915050565b6060600480546114229061444a565b80601f016020809104026020016040519081016040528092919081815260200182805461144e9061444a565b801561149b5780601f106114705761010080835404028352916020019161149b565b820191906000526020600020905b81548152906001019060200180831161147e57829003601f168201915b5050505050905090565b6000801b81565b6000806114b7611cee565b90506114c4818585611db0565b600191505092915050565b600080830361150a576040517f1f2a200500000000000000000000000000000000000000000000000000000000815260040160405180910390fd5b6000600d868660405161151e929190614517565b9081526020016040518091039020604051806060016040529081600082015481526020016001820160009054906101000a900473ffffffffffffffffffffffffffffffffffffffff1673ffffffffffffffffffffffffffffffffffffffff1673ffffffffffffffffffffffffffffffffffffffff1681526020016001820160149054906101000a900460ff1660ff1660ff1681525050905060008160000151036116015785856040517fc16fc3ad0000000000000000000000000000000000000000000000000000000081526004016115f892919061455d565b60405180910390fd5b6116158482600001518360400151866125d0565b915050949350505050565b6060600c805480602002602001604051908101604052809291908181526020016000905b828210156116f05783829060005260206000200180546116639061444a565b80601f016020809104026020016040519081016040528092919081815260200182805461168f9061444a565b80156116dc5780601f106116b1576101008083540402835291602001916116dc565b820191906000526020600020905b8154815290600101906020018083116116bf57829003601f168201915b505050505081526020019060010190611644565b50505050905090565b8342111561173e57836040517f627913020000000000000000000000000000000000000000000000000000000081526004016117359190613af8565b60405180910390fd5b60007f6e71edae12b1b97f4d1f60370fef10105fa2faae0126114a169c64845d6126c988888861176d8c612634565b8960405160200161178396959493929190614690565b60405160208183030381529060405280519060200120905060006117a68261268b565b905060006117b6828787876126a5565b90508973ffffffffffffffffffffffffffffffffffffffff168173ffffffffffffffffffffffffffffffffffffffff161461182a57808a6040517f4b800e460000000000000000000000000000000000000000000000000000000081526004016118219291906146f1565b60405180910390fd5b6118358a8a8a611cf6565b50505050505050505050565b7f9f2df0fed2c77648de5860a4cc508cd0818c85b8b8a1ab4ceeef8d981c8956a681565b61186e82610cac565b61187781611d08565b611881838361204d565b50505050565b61188f6126d5565b600b60009054906101000a900460ff16156118df576040517f08c379a00000000000000000000000000000000000000000000000000000000081526004016118d6906144c7565b60405180910390fd5b60008203611919576040517f1f2a200500000000000000000000000000000000000000000000000000000000815260040160405180910390fd5b60008484905003611956576040517f19c7070a00000000000000000000000000000000000000000000000000000000815260040160405180910390fd5b6000600d858560405161196a929190614517565b9081526020016040518091039020604051806060016040529081600082015481526020016001820160009054906101000a900473ffffffffffffffffffffffffffffffffffffffff1673ffffffffffffffffffffffffffffffffffffffff1673ffffffffffffffffffffffffffffffffffffffff1681526020016001820160149054906101000a900460ff1660ff1660ff168152505090506000816000015103611a4d5784846040517fc16fc3ad000000000000000000000000000000000000000000000000000000008152600401611a4492919061455d565b60405180910390fd5b6000611a638483600001518460400151866125d0565b905060008103611a9f576040517f2689ac4300000000000000000000000000000000000000000000000000000000815260040160405180910390fd5b8215611ab957611ab48260200151858361271b565b611ac9565b611ac882602001518583612a0a565b5b3373ffffffffffffffffffffffffffffffffffffffff167fb2352db38d4ea2a35d8061501d14d4177e27825afdaa66c6d1c37dedad76de4c8787878588604051611b1795949392919061471a565b60405180910390a25050611b29612c3d565b50505050565b6000600160008473ffffffffffffffffffffffffffffffffffffffff1673ffffffffffffffffffffffffffffffffffffffff16815260200190815260200160002060008373ffffffffffffffffffffffffffffffffffffffff1673ffffffffffffffffffffffffffffffffffffffff16815260200190815260200160002054905092915050565b7f000000000000000000000000000000000000000000000000000000000000000081565b611be26121d6565b600073ffffffffffffffffffffffffffffffffffffffff168173ffffffffffffffffffffffffffffffffffffffff1603611c545760006040517f1e4fbdf7000000000000000000000000000000000000000000000000000000008152600401611c4b91906140b4565b60405180910390fd5b611c5d8161225d565b50565b7fe9eb2d474dbf4ad0af01dbc745ec0e55d70ca9366fe9b52307997e913bad905c81565b60007f01ffc9a7000000000000000000000000000000000000000000000000000000007bffffffffffffffffffffffffffffffffffffffffffffffffffffffff1916827bffffffffffffffffffffffffffffffffffffffffffffffffffffffff1916149050919050565b600033905090565b611d038383836001612c47565b505050565b611d1981611d14611cee565b612e1e565b50565b6000611d288484611b2f565b90507fffffffffffffffffffffffffffffffffffffffffffffffffffffffffffffffff8114611daa5781811015611d9a578281836040517ffb8f41b2000000000000000000000000000000000000000000000000000000008152600401611d9193929190614768565b60405180910390fd5b611da984848484036000612c47565b5b50505050565b600073ffffffffffffffffffffffffffffffffffffffff168373ffffffffffffffffffffffffffffffffffffffff1603611e225760006040517f96c6fd1e000000000000000000000000000000000000000000000000000000008152600401611e1991906140b4565b60405180910390fd5b600073ffffffffffffffffffffffffffffffffffffffff168273ffffffffffffffffffffffffffffffffffffffff1603611e945760006040517fec442f05000000000000000000000000000000000000000000000000000000008152600401611e8b91906140b4565b60405180910390fd5b611e9f838383612e6f565b505050565b6000611eb083836113a8565b611f8b5760016009600085815260200190815260200160002060000160008473ffffffffffffffffffffffffffffffffffffffff1673ffffffffffffffffffffffffffffffffffffffff16815260200190815260200160002060006101000a81548160ff021916908315150217905550611f28611cee565b73ffffffffffffffffffffffffffffffffffffffff168273ffffffffffffffffffffffffffffffffffffffff16847f2f8788117e7eff1d82e926ec794901d17c78024a50270940304540a733656f0d60405160405180910390a460019050611f90565b600090505b92915050565b60007f000000000000000000000000000000000000000000000000000000000000000073ffffffffffffffffffffffffffffffffffffffff163073ffffffffffffffffffffffffffffffffffffffff1614801561201257507f000000000000000000000000000000000000000000000000000000000000000046145b1561203f577f0000000000000000000000000000000000000000000000000000000000000000905061204a565b612047613094565b90505b90565b600061205983836113a8565b156121355760006009600085815260200190815260200160002060000160008473ffffffffffffffffffffffffffffffffffffffff1673ffffffffffffffffffffffffffffffffffffffff16815260200190815260200160002060006101000a81548160ff0219169083151502179055506120d2611cee565b73ffffffffffffffffffffffffffffffffffffffff168273ffffffffffffffffffffffffffffffffffffffff16847ff6391f5c32d9c69d2a47ea670b442974b53935d1edc7fd64eb21e047a839171b60405160405180910390a46001905061213a565b600090505b92915050565b600073ffffffffffffffffffffffffffffffffffffffff168273ffffffffffffffffffffffffffffffffffffffff16036121b25760006040517fec442f050000000000000000000000000000000000000000000000000000000081526004016121a991906140b4565b60405180910390fd5b6121be60008383612e6f565b5050565b6121d36121cd611cee565b82612277565b50565b6121de611cee565b73ffffffffffffffffffffffffffffffffffffffff166121fc611275565b73ffffffffffffffffffffffffffffffffffffffff161461225b5761221f611cee565b6040517f118cdaa700000000000000000000000000000000000000000000000000000000815260040161225291906140b4565b60405180910390fd5b565b6122668161312a565b6122736000801b82611ea4565b5050565b600073ffffffffffffffffffffffffffffffffffffffff168273ffffffffffffffffffffffffffffffffffffffff16036122e95760006040517f96c6fd1e0000000000000000000000000000000000000000000000000000000081526004016122e091906140b4565b60405180910390fd5b6122f582600083612e6f565b5050565b6000600860008373ffffffffffffffffffffffffffffffffffffffff1673ffffffffffffffffffffffffffffffffffffffff168152602001908152602001600020549050919050565b606061237860067f00000000000000000000000000000000000000000000000000000000000000006131f090919063ffffffff16565b905090565b60606123b360077f00000000000000000000000000000000000000000000000000000000000000006131f090919063ffffffff16565b905090565b60008451036123f3576040517f19c7070a00000000000000000000000000000000000000000000000000000000815260040160405180910390fd5b6000820361242d576040517f2689ac4300000000000000000000000000000000000000000000000000000000815260040160405180910390fd5b6000600d8560405161243f91906147d0565b9081526020016040518091039020600001541461249357836040517fa094d48d00000000000000000000000000000000000000000000000000000000815260040161248a9190613875565b60405180910390fd5b600c849080600181540180825580915050600190039060005260206000200160009091909190915090816124c79190614993565b5060405180606001604052808381526020018473ffffffffffffffffffffffffffffffffffffffff1681526020018260ff16815250600d8560405161250c91906147d0565b90815260200160405180910390206000820151816000015560208201518160010160006101000a81548173ffffffffffffffffffffffffffffffffffffffff021916908373ffffffffffffffffffffffffffffffffffffffff16021790555060408201518160010160146101000a81548160ff021916908360ff1602179055509050507f84390a2096e2bf5a86745ae76997944b0f161f904f842ee21f1669a5dc93361b8484846040516125c293929190614a65565b60405180910390a150505050565b6000806125de8685856132a0565b90508261260957670de0b6b3a764000085826125fa9190614aa3565b6126049190614b14565b612629565b84670de0b6b3a76400008261261e9190614aa3565b6126289190614b14565b5b915050949350505050565b6000600860008373ffffffffffffffffffffffffffffffffffffffff1673ffffffffffffffffffffffffffffffffffffffff1681526020019081526020016000206000815480929190600101919050559050919050565b600061269e612698611f96565b8361337f565b9050919050565b6000806000806126b7888888886133c0565b9250925092506126c782826134b4565b829350505050949350505050565b6002600a5403612711576040517f3ee5aeb500000000000000000000000000000000000000000000000000000000815260040160405180910390fd5b6002600a81905550565b600073ffffffffffffffffffffffffffffffffffffffff168373ffffffffffffffffffffffffffffffffffffffff161461297e576000839050828173ffffffffffffffffffffffffffffffffffffffff166370a08231336040518263ffffffff1660e01b815260040161278e91906140b4565b602060405180830381865afa1580156127ab573d6000803e3d6000fd5b505050506040513d601f19601f820116820180604052508101906127cf9190614b5a565b1015612807576040517fe4455cae00000000000000000000000000000000000000000000000000000000815260040160405180910390fd5b828173ffffffffffffffffffffffffffffffffffffffff1663dd62ed3e33306040518363ffffffff1660e01b81526004016128439291906146f1565b602060405180830381865afa158015612860573d6000803e3d6000fd5b505050506040513d601f19601f820116820180604052508101906128849190614b5a565b10156128bc576040517f13be252b00000000000000000000000000000000000000000000000000000000815260040160405180910390fd5b60008173ffffffffffffffffffffffffffffffffffffffff166323b872dd3330876040518463ffffffff1660e01b81526004016128fb93929190614b87565b6020604051808303816000875af115801561291a573d6000803e3d6000fd5b505050506040513d601f19601f8201168201806040525081019061293e9190614bd3565b905080612977576040517f045c4b0200000000000000000000000000000000000000000000000000000000815260040160405180910390fd5b50506129b8565b8134146129b7576040517f8de8ec2000000000000000000000000000000000000000000000000000000000815260040160405180910390fd5b5b806129c23061106b565b10156129fa576040517f786e0a9900000000000000000000000000000000000000000000000000000000815260040160405180910390fd5b612a05303383611db0565b505050565b81612a143361106b565b1015612a4c576040517f0b5537c300000000000000000000000000000000000000000000000000000000815260040160405180910390fd5b612a57333084611db0565b600073ffffffffffffffffffffffffffffffffffffffff168373ffffffffffffffffffffffffffffffffffffffff1614612bfd576000839050818173ffffffffffffffffffffffffffffffffffffffff166370a08231306040518263ffffffff1660e01b8152600401612aca91906140b4565b602060405180830381865afa158015612ae7573d6000803e3d6000fd5b505050506040513d601f19601f82011682018060405250810190612b0b9190614b5a565b1015612b43576040517f904db1ff00000000000000000000000000000000000000000000000000000000815260040160405180910390fd5b8073ffffffffffffffffffffffffffffffffffffffff1663a9059cbb33846040518363ffffffff1660e01b8152600401612b7e929190614c00565b6020604051808303816000875af1158015612b9d573d6000803e3d6000fd5b505050506040513d601f19601f82011682018060405250810190612bc19190614bd3565b612bf7576040517f045c4b0200000000000000000000000000000000000000000000000000000000815260040160405180910390fd5b50612c38565b6040517f08c379a0000000000000000000000000000000000000000000000000000000008152600401612c2f90614c75565b60405180910390fd5b505050565b6001600a81905550565b600073ffffffffffffffffffffffffffffffffffffffff168473ffffffffffffffffffffffffffffffffffffffff1603612cb95760006040517fe602df05000000000000000000000000000000000000000000000000000000008152600401612cb091906140b4565b60405180910390fd5b600073ffffffffffffffffffffffffffffffffffffffff168373ffffffffffffffffffffffffffffffffffffffff1603612d2b5760006040517f94280d62000000000000000000000000000000000000000000000000000000008152600401612d2291906140b4565b60405180910390fd5b81600160008673ffffffffffffffffffffffffffffffffffffffff1673ffffffffffffffffffffffffffffffffffffffff16815260200190815260200160002060008573ffffffffffffffffffffffffffffffffffffffff1673ffffffffffffffffffffffffffffffffffffffff168152602001908152602001600020819055508015612e18578273ffffffffffffffffffffffffffffffffffffffff168473ffffffffffffffffffffffffffffffffffffffff167f8c5be1e5ebec7d5bd14f71427d1e84f3dd0314c0f7b2291e5b200ac8c7c3b92584604051612e0f9190613af8565b60405180910390a35b50505050565b612e2882826113a8565b612e6b5780826040517fe2517d3f000000000000000000000000000000000000000000000000000000008152600401612e62929190614c95565b60405180910390fd5b5050565b600073ffffffffffffffffffffffffffffffffffffffff168373ffffffffffffffffffffffffffffffffffffffff1603612ec1578060026000828254612eb591906145f0565b92505081905550612f94565b60008060008573ffffffffffffffffffffffffffffffffffffffff1673ffffffffffffffffffffffffffffffffffffffff16815260200190815260200160002054905081811015612f4d578381836040517fe450d38c000000000000000000000000000000000000000000000000000000008152600401612f4493929190614768565b60405180910390fd5b8181036000808673ffffffffffffffffffffffffffffffffffffffff1673ffffffffffffffffffffffffffffffffffffffff16815260200190815260200160002081905550505b600073ffffffffffffffffffffffffffffffffffffffff168273ffffffffffffffffffffffffffffffffffffffff1603612fdd578060026000828254039250508190555061302a565b806000808473ffffffffffffffffffffffffffffffffffffffff1673ffffffffffffffffffffffffffffffffffffffff168152602001908152602001600020600082825401925050819055505b8173ffffffffffffffffffffffffffffffffffffffff168373ffffffffffffffffffffffffffffffffffffffff167fddf252ad1be2c89b69c2b068fc378daa952ba7f163c4a11628f55a4df523b3ef836040516130879190613af8565b60405180910390a3505050565b60007f8b73c3c69bb8fe3d512ecc4cf759cc79239f7b179b0ffacaa9a75d522b39400f7f00000000000000000000000000000000000000000000000000000000000000007f0000000000000000000000000000000000000000000000000000000000000000463060405160200161310f959493929190614cbe565b60405160208183030381529060405280519060200120905090565b6000600560009054906101000a900473ffffffffffffffffffffffffffffffffffffffff16905081600560006101000a81548173ffffffffffffffffffffffffffffffffffffffff021916908373ffffffffffffffffffffffffffffffffffffffff1602179055508173ffffffffffffffffffffffffffffffffffffffff168173ffffffffffffffffffffffffffffffffffffffff167f8be0079c531659141344cd1fd0a4f28419497f9722a3daafe3b4186f6b6457e060405160405180910390a35050565b606060ff60001b831461320d5761320683613618565b905061329a565b8180546132199061444a565b80601f01602080910402602001604051908101604052809291908181526020018280546132459061444a565b80156132925780601f1061326757610100808354040283529160200191613292565b820191906000526020600020905b81548152906001019060200180831161327557829003601f168201915b505050505090505b92915050565b600060128360ff16036132b557839050613378565b600060128460ff16106132d4576012846132cf9190614d11565b6132e2565b8360126132e19190614d11565b5b60ff169050826133325760128460ff16106133145780600a6133049190614e79565b8561330f9190614aa3565b61332d565b80600a6133219190614e79565b8561332c9190614b14565b5b613374565b60128460ff161061335a5780600a61334a9190614e79565b856133559190614b14565b613373565b80600a6133679190614e79565b856133729190614aa3565b5b5b9150505b9392505050565b60006040517f190100000000000000000000000000000000000000000000000000000000000081528360028201528260228201526042812091505092915050565b60008060007f7fffffffffffffffffffffffffffffff5d576e7357a4501ddfe92f46681b20a08460001c11156134005760006003859250925092506134aa565b6000600188888888604051600081526020016040526040516134259493929190614ec4565b6020604051602081039080840390855afa158015613447573d6000803e3d6000fd5b505050602060405103519050600073ffffffffffffffffffffffffffffffffffffffff168173ffffffffffffffffffffffffffffffffffffffff160361349b57600060016000801b935093509350506134aa565b8060008060001b935093509350505b9450945094915050565b600060038111156134c8576134c7614f09565b5b8260038111156134db576134da614f09565b5b031561361457600160038111156134f5576134f4614f09565b5b82600381111561350857613507614f09565b5b0361353f576040517ff645eedf00000000000000000000000000000000000000000000000000000000815260040160405180910390fd5b6002600381111561355357613552614f09565b5b82600381111561356657613565614f09565b5b036135ab578060001c6040517ffce698f70000000000000000000000000000000000000000000000000000000081526004016135a29190613af8565b60405180910390fd5b6003808111156135be576135bd614f09565b5b8260038111156135d1576135d0614f09565b5b0361361357806040517fd78bce0c00000000000000000000000000000000000000000000000000000000815260040161360a9190613bd8565b60405180910390fd5b5b5050565b606060006136258361368c565b90506000602067ffffffffffffffff81111561364457613643613c9c565b5b6040519080825280601f01601f1916602001820160405280156136765781602001600182028036833780820191505090505b5090508181528360208201528092505050919050565b60008060ff8360001c169050601f8111156136d3576040517fb3512b0c00000000000000000000000000000000000000000000000000000000815260040160405180910390fd5b80915050919050565b604051806060016040528060008152602001600073ffffffffffffffffffffffffffffffffffffffff168152602001600060ff1681525090565b6000604051905090565b600080fd5b600080fd5b60007fffffffff0000000000000000000000000000000000000000000000000000000082169050919050565b61375f8161372a565b811461376a57600080fd5b50565b60008135905061377c81613756565b92915050565b60006020828403121561379857613797613720565b5b60006137a68482850161376d565b91505092915050565b60008115159050919050565b6137c4816137af565b82525050565b60006020820190506137df60008301846137bb565b92915050565b600081519050919050565b600082825260208201905092915050565b60005b8381101561381f578082015181840152602081019050613804565b60008484015250505050565b6000601f19601f8301169050919050565b6000613847826137e5565b61385181856137f0565b9350613861818560208601613801565b61386a8161382b565b840191505092915050565b6000602082019050818103600083015261388f818461383c565b905092915050565b600073ffffffffffffffffffffffffffffffffffffffff82169050919050565b60006138c282613897565b9050919050565b6138d2816138b7565b81146138dd57600080fd5b50565b6000813590506138ef816138c9565b92915050565b6000819050919050565b613908816138f5565b811461391357600080fd5b50565b600081359050613925816138ff565b92915050565b6000806040838503121561394257613941613720565b5b6000613950858286016138e0565b925050602061396185828601613916565b9150509250929050565b600080fd5b600080fd5b600080fd5b60008083601f8401126139905761398f61396b565b5b8235905067ffffffffffffffff8111156139ad576139ac613970565b5b6020830191508360018202830111156139c9576139c8613975565b5b9250929050565b6000806000604084860312156139e9576139e8613720565b5b600084013567ffffffffffffffff811115613a0757613a06613725565b5b613a138682870161397a565b93509350506020613a2686828701613916565b9150509250925092565b613a39816137af565b8114613a4457600080fd5b50565b600081359050613a5681613a30565b92915050565b600060208284031215613a7257613a71613720565b5b6000613a8084828501613a47565b91505092915050565b600080600060408486031215613aa257613aa1613720565b5b600084013567ffffffffffffffff811115613ac057613abf613725565b5b613acc8682870161397a565b93509350506020613adf868287016138e0565b9150509250925092565b613af2816138f5565b82525050565b6000602082019050613b0d6000830184613ae9565b92915050565b600080600060608486031215613b2c57613b2b613720565b5b6000613b3a868287016138e0565b9350506020613b4b868287016138e0565b9250506040613b5c86828701613916565b9150509250925092565b6000819050919050565b613b7981613b66565b8114613b8457600080fd5b50565b600081359050613b9681613b70565b92915050565b600060208284031215613bb257613bb1613720565b5b6000613bc084828501613b87565b91505092915050565b613bd281613b66565b82525050565b6000602082019050613bed6000830184613bc9565b92915050565b60008060408385031215613c0a57613c09613720565b5b6000613c1885828601613b87565b9250506020613c29858286016138e0565b9150509250929050565b600060ff82169050919050565b613c4981613c33565b82525050565b6000602082019050613c646000830184613c40565b92915050565b600060208284031215613c8057613c7f613720565b5b6000613c8e84828501613916565b91505092915050565b600080fd5b7f4e487b7100000000000000000000000000000000000000000000000000000000600052604160045260246000fd5b613cd48261382b565b810181811067ffffffffffffffff82111715613cf357613cf2613c9c565b5b80604052505050565b6000613d06613716565b9050613d128282613ccb565b919050565b600067ffffffffffffffff821115613d3257613d31613c9c565b5b613d3b8261382b565b9050602081019050919050565b82818337600083830152505050565b6000613d6a613d6584613d17565b613cfc565b905082815260208101848484011115613d8657613d85613c97565b5b613d91848285613d48565b509392505050565b600082601f830112613dae57613dad61396b565b5b8135613dbe848260208601613d57565b91505092915050565b600060208284031215613ddd57613ddc613720565b5b600082013567ffffffffffffffff811115613dfb57613dfa613725565b5b613e0784828501613d99565b91505092915050565b613e19816138b7565b82525050565b6000606082019050613e346000830186613ae9565b613e416020830185613e10565b613e4e6040830184613c40565b949350505050565b600060208284031215613e6c57613e6b613720565b5b6000613e7a848285016138e0565b91505092915050565b60007fff0000000000000000000000000000000000000000000000000000000000000082169050919050565b613eb881613e83565b82525050565b600081519050919050565b600082825260208201905092915050565b6000819050602082019050919050565b613ef3816138f5565b82525050565b6000613f058383613eea565b60208301905092915050565b6000602082019050919050565b6000613f2982613ebe565b613f338185613ec9565b9350613f3e83613eda565b8060005b83811015613f6f578151613f568882613ef9565b9750613f6183613f11565b925050600181019050613f42565b5085935050505092915050565b600060e082019050613f91600083018a613eaf565b8181036020830152613fa3818961383c565b90508181036040830152613fb7818861383c565b9050613fc66060830187613ae9565b613fd36080830186613e10565b613fe060a0830185613bc9565b81810360c0830152613ff28184613f1e565b905098975050505050505050565b61400981613c33565b811461401457600080fd5b50565b60008135905061402681614000565b92915050565b60008060008060006080868803121561404857614047613720565b5b600086013567ffffffffffffffff81111561406657614065613725565b5b6140728882890161397a565b95509550506020614085888289016138e0565b935050604061409688828901613916565b92505060606140a788828901614017565b9150509295509295909350565b60006020820190506140c96000830184613e10565b92915050565b600080602083850312156140e6576140e5613720565b5b600083013567ffffffffffffffff81111561410457614103613725565b5b6141108582860161397a565b92509250509250929050565b614125816138b7565b82525050565b61413481613c33565b82525050565b6060820160008201516141506000850182613eea565b506020820151614163602085018261411c565b506040820151614176604085018261412b565b50505050565b6000606082019050614191600083018461413a565b92915050565b600080600080606085870312156141b1576141b0613720565b5b600085013567ffffffffffffffff8111156141cf576141ce613725565b5b6141db8782880161397a565b945094505060206141ee87828801613916565b92505060406141ff87828801613a47565b91505092959194509250565b600081519050919050565b600082825260208201905092915050565b6000819050602082019050919050565b600082825260208201905092915050565b6000614253826137e5565b61425d8185614237565b935061426d818560208601613801565b6142768161382b565b840191505092915050565b600061428d8383614248565b905092915050565b6000602082019050919050565b60006142ad8261420b565b6142b78185614216565b9350836020820285016142c985614227565b8060005b8581101561430557848403895281516142e68582614281565b94506142f183614295565b925060208a019950506001810190506142cd565b50829750879550505050505092915050565b6000602082019050818103600083015261433181846142a2565b905092915050565b600080600080600080600060e0888a03121561435857614357613720565b5b60006143668a828b016138e0565b97505060206143778a828b016138e0565b96505060406143888a828b01613916565b95505060606143998a828b01613916565b94505060806143aa8a828b01614017565b93505060a06143bb8a828b01613b87565b92505060c06143cc8a828b01613b87565b91505092959891949750929550565b600080604083850312156143f2576143f1613720565b5b6000614400858286016138e0565b9250506020614411858286016138e0565b9150509250929050565b7f4e487b7100000000000000000000000000000000000000000000000000000000600052602260045260246000fd5b6000600282049050600182168061446257607f821691505b6020821081036144755761447461441b565b5b50919050565b7f436f6e7472616374207061757365640000000000000000000000000000000000600082015250565b60006144b1600f836137f0565b91506144bc8261447b565b602082019050919050565b600060208201905081810360008301526144e0816144a4565b9050919050565b600081905092915050565b60006144fe83856144e7565b935061450b838584613d48565b82840190509392505050565b60006145248284866144f2565b91508190509392505050565b600061453c83856137f0565b9350614549838584613d48565b6145528361382b565b840190509392505050565b60006020820190508181036000830152614578818486614530565b90509392505050565b6000606082019050818103600083015261459c818688614530565b90506145ab6020830185613ae9565b6145b86040830184613ae9565b95945050505050565b7f4e487b7100000000000000000000000000000000000000000000000000000000600052601160045260246000fd5b60006145fb826138f5565b9150614606836138f5565b925082820190508082111561461e5761461d6145c1565b5b92915050565b7f4361702065786365656465640000000000000000000000000000000000000000600082015250565b600061465a600c836137f0565b915061466582614624565b602082019050919050565b600060208201905081810360008301526146898161464d565b9050919050565b600060c0820190506146a56000830189613bc9565b6146b26020830188613e10565b6146bf6040830187613e10565b6146cc6060830186613ae9565b6146d96080830185613ae9565b6146e660a0830184613ae9565b979650505050505050565b60006040820190506147066000830185613e10565b6147136020830184613e10565b9392505050565b60006080820190508181036000830152614735818789614530565b90506147446020830186613ae9565b6147516040830185613ae9565b61475e60608301846137bb565b9695505050505050565b600060608201905061477d6000830186613e10565b61478a6020830185613ae9565b6147976040830184613ae9565b949350505050565b60006147aa826137e5565b6147b481856144e7565b93506147c4818560208601613801565b80840191505092915050565b60006147dc828461479f565b915081905092915050565b60008190508160005260206000209050919050565b60006020601f8301049050919050565b600082821b905092915050565b6000600883026148497fffffffffffffffffffffffffffffffffffffffffffffffffffffffffffffffff8261480c565b614853868361480c565b95508019841693508086168417925050509392505050565b6000819050919050565b600061489061488b614886846138f5565b61486b565b6138f5565b9050919050565b6000819050919050565b6148aa83614875565b6148be6148b682614897565b848454614819565b825550505050565b600090565b6148d36148c6565b6148de8184846148a1565b505050565b5b81811015614902576148f76000826148cb565b6001810190506148e4565b5050565b601f82111561494757614918816147e7565b614921846147fc565b81016020851015614930578190505b61494461493c856147fc565b8301826148e3565b50505b505050565b600082821c905092915050565b600061496a6000198460080261494c565b1980831691505092915050565b60006149838383614959565b9150826002028217905092915050565b61499c826137e5565b67ffffffffffffffff8111156149b5576149b4613c9c565b5b6149bf825461444a565b6149ca828285614906565b600060209050601f8311600181146149fd57600084156149eb578287015190505b6149f58582614977565b865550614a5d565b601f198416614a0b866147e7565b60005b82811015614a3357848901518255600182019150602085019450602081019050614a0e565b86831015614a505784890151614a4c601f891682614959565b8355505b6001600288020188555050505b505050505050565b60006060820190508181036000830152614a7f818661383c565b9050614a8e6020830185613e10565b614a9b6040830184613ae9565b949350505050565b6000614aae826138f5565b9150614ab9836138f5565b9250828202614ac7816138f5565b91508282048414831517614ade57614add6145c1565b5b5092915050565b7f4e487b7100000000000000000000000000000000000000000000000000000000600052601260045260246000fd5b6000614b1f826138f5565b9150614b2a836138f5565b925082614b3a57614b39614ae5565b5b828204905092915050565b600081519050614b54816138ff565b92915050565b600060208284031215614b7057614b6f613720565b5b6000614b7e84828501614b45565b91505092915050565b6000606082019050614b9c6000830186613e10565b614ba96020830185613e10565b614bb66040830184613ae9565b949350505050565b600081519050614bcd81613a30565b92915050565b600060208284031215614be957614be8613720565b5b6000614bf784828501614bbe565b91505092915050565b6000604082019050614c156000830185613e10565b614c226020830184613ae9565b9392505050565b7f4554482073656c6c696e67206e6f7420696d706c656d656e7465640000000000600082015250565b6000614c5f601b836137f0565b9150614c6a82614c29565b602082019050919050565b60006020820190508181036000830152614c8e81614c52565b9050919050565b6000604082019050614caa6000830185613e10565b614cb76020830184613bc9565b9392505050565b600060a082019050614cd36000830188613bc9565b614ce06020830187613bc9565b614ced6040830186613bc9565b614cfa6060830185613ae9565b614d076080830184613e10565b9695505050505050565b6000614d1c82613c33565b9150614d2783613c33565b9250828203905060ff811115614d4057614d3f6145c1565b5b92915050565b60008160011c9050919050565b6000808291508390505b6001851115614d9d57808604811115614d7957614d786145c1565b5b6001851615614d885780820291505b8081029050614d9685614d46565b9450614d5d565b94509492505050565b600082614db65760019050614e72565b81614dc45760009050614e72565b8160018114614dda5760028114614de457614e13565b6001915050614e72565b60ff841115614df657614df56145c1565b5b8360020a915084821115614e0d57614e0c6145c1565b5b50614e72565b5060208310610133831016604e8410600b8410161715614e485782820a905083811115614e4357614e426145c1565b5b614e72565b614e558484846001614d53565b92509050818404811115614e6c57614e6b6145c1565b5b81810290505b9392505050565b6000614e84826138f5565b9150614e8f836138f5565b9250614ebc7fffffffffffffffffffffffffffffffffffffffffffffffffffffffffffffffff8484614da6565b905092915050565b6000608082019050614ed96000830187613bc9565b614ee66020830186613c40565b614ef36040830185613bc9565b614f006060830184613bc9565b95945050505050565b7f4e487b7100000000000000000000000000000000000000000000000000000000600052602160045260246000fdfea26469706673582212200f39f4c6d06b70077927ea86d5ec0bc10998b97b8060fd5c190cbbe13166933364736f6c634300081c0033","opcodes":"PUSH2 0x180 PUSH1 0x40 MSTORE CALLVALUE DUP1 ISZERO PUSH2 0x11 JUMPI PUSH1 0x0 DUP1 REVERT JUMPDEST POP PUSH1 0x40 MLOAD PUSH2 0x6412 CODESIZE SUB DUP1 PUSH2 0x6412 DUP4 CODECOPY DUP2 DUP2 ADD PUSH1 0x40 MSTORE DUP2 ADD SWAP1 PUSH2 0x33 SWAP2 SWAP1 PUSH2 0xCDF JUMP JUMPDEST PUSH1 0x40 MLOAD DUP1 PUSH1 0x40 ADD PUSH1 0x40 MSTORE DUP1 PUSH1 0x9 DUP2 MSTORE PUSH1 0x20 ADD PUSH32 0x44616A75546F6B656E0000000000000000000000000000000000000000000000 DUP2 MSTORE POP DUP1 PUSH1 0x40 MLOAD DUP1 PUSH1 0x40 ADD PUSH1 0x40 MSTORE DUP1 PUSH1 0x1 DUP2 MSTORE PUSH1 0x20 ADD PUSH32 0x3100000000000000000000000000000000000000000000000000000000000000 DUP2 MSTORE POP DUP5 PUSH1 0x40 MLOAD DUP1 PUSH1 0x40 ADD PUSH1 0x40 MSTORE DUP1 PUSH1 0x9 DUP2 MSTORE PUSH1 0x20 ADD PUSH32 0x44616A75546F6B656E0000000000000000000000000000000000000000000000 DUP2 MSTORE POP PUSH1 0x40 MLOAD DUP1 PUSH1 0x40 ADD PUSH1 0x40 MSTORE DUP1 PUSH1 0x4 DUP2 MSTORE PUSH1 0x20 ADD PUSH32 0x44414A5500000000000000000000000000000000000000000000000000000000 DUP2 MSTORE POP DUP2 PUSH1 0x3 SWAP1 DUP2 PUSH2 0x11C SWAP2 SWAP1 PUSH2 0xF65 JUMP JUMPDEST POP DUP1 PUSH1 0x4 SWAP1 DUP2 PUSH2 0x12C SWAP2 SWAP1 PUSH2 0xF65 JUMP JUMPDEST POP POP POP PUSH1 0x0 PUSH20 0xFFFFFFFFFFFFFFFFFFFFFFFFFFFFFFFFFFFFFFFF AND DUP2 PUSH20 0xFFFFFFFFFFFFFFFFFFFFFFFFFFFFFFFFFFFFFFFF AND SUB PUSH2 0x1A1 JUMPI PUSH1 0x0 PUSH1 0x40 MLOAD PUSH32 0x1E4FBDF700000000000000000000000000000000000000000000000000000000 DUP2 MSTORE PUSH1 0x4 ADD PUSH2 0x198 SWAP2 SWAP1 PUSH2 0x1046 JUMP JUMPDEST PUSH1 0x40 MLOAD DUP1 SWAP2 SUB SWAP1 REVERT JUMPDEST PUSH2 0x1B0 DUP2 PUSH2 0x407 PUSH1 0x20 SHL PUSH1 0x20 SHR JUMP JUMPDEST POP PUSH2 0x1C5 PUSH1 0x6 DUP4 PUSH2 0x42D PUSH1 0x20 SHL SWAP1 SWAP2 SWAP1 PUSH1 0x20 SHR JUMP JUMPDEST PUSH2 0x120 DUP2 DUP2 MSTORE POP POP PUSH2 0x1E1 PUSH1 0x7 DUP3 PUSH2 0x42D PUSH1 0x20 SHL SWAP1 SWAP2 SWAP1 PUSH1 0x20 SHR JUMP JUMPDEST PUSH2 0x140 DUP2 DUP2 MSTORE POP POP DUP2 DUP1 MLOAD SWAP1 PUSH1 0x20 ADD KECCAK256 PUSH1 0xE0 DUP2 DUP2 MSTORE POP POP DUP1 DUP1 MLOAD SWAP1 PUSH1 0x20 ADD KECCAK256 PUSH2 0x100 DUP2 DUP2 MSTORE POP POP CHAINID PUSH1 0xA0 DUP2 DUP2 MSTORE POP POP PUSH2 0x21E PUSH2 0x47D PUSH1 0x20 SHL PUSH1 0x20 SHR JUMP JUMPDEST PUSH1 0x80 DUP2 DUP2 MSTORE POP POP ADDRESS PUSH20 0xFFFFFFFFFFFFFFFFFFFFFFFFFFFFFFFFFFFFFFFF AND PUSH1 0xC0 DUP2 PUSH20 0xFFFFFFFFFFFFFFFFFFFFFFFFFFFFFFFFFFFFFFFF AND DUP2 MSTORE POP POP POP POP POP PUSH1 0x1 PUSH1 0xA DUP2 SWAP1 SSTORE POP PUSH1 0x0 PUSH20 0xFFFFFFFFFFFFFFFFFFFFFFFFFFFFFFFFFFFFFFFF AND DUP3 PUSH20 0xFFFFFFFFFFFFFFFFFFFFFFFFFFFFFFFFFFFFFFFF AND SUB PUSH2 0x2D3 JUMPI PUSH1 0x40 MLOAD PUSH32 0x8C379A000000000000000000000000000000000000000000000000000000000 DUP2 MSTORE PUSH1 0x4 ADD PUSH2 0x2CA SWAP1 PUSH2 0x10BE JUMP JUMPDEST PUSH1 0x40 MLOAD DUP1 SWAP2 SUB SWAP1 REVERT JUMPDEST PUSH1 0x0 DUP2 GT PUSH2 0x316 JUMPI PUSH1 0x40 MLOAD PUSH32 0x8C379A000000000000000000000000000000000000000000000000000000000 DUP2 MSTORE PUSH1 0x4 ADD PUSH2 0x30D SWAP1 PUSH2 0x112A JUMP JUMPDEST PUSH1 0x40 MLOAD DUP1 SWAP2 SUB SWAP1 REVERT JUMPDEST DUP1 PUSH2 0x160 DUP2 DUP2 MSTORE POP POP PUSH2 0x332 PUSH1 0x0 DUP1 SHL DUP4 PUSH2 0x4D8 PUSH1 0x20 SHL PUSH1 0x20 SHR JUMP JUMPDEST POP PUSH2 0x363 PUSH32 0x9F2DF0FED2C77648DE5860A4CC508CD0818C85B8B8A1AB4CEEEF8D981C8956A6 DUP4 PUSH2 0x4D8 PUSH1 0x20 SHL PUSH1 0x20 SHR JUMP JUMPDEST POP PUSH2 0x394 PUSH32 0xE9EB2D474DBF4AD0AF01DBC745EC0E55D70CA9366FE9B52307997E913BAD905C DUP4 PUSH2 0x4D8 PUSH1 0x20 SHL PUSH1 0x20 SHR JUMP JUMPDEST POP PUSH2 0x3AF DUP3 PUSH10 0xD3C21BCECCEDA1000000 PUSH2 0x5D6 PUSH1 0x20 SHL PUSH1 0x20 SHR JUMP JUMPDEST PUSH2 0x400 PUSH1 0x40 MLOAD DUP1 PUSH1 0x40 ADD PUSH1 0x40 MSTORE DUP1 PUSH1 0x4 DUP2 MSTORE PUSH1 0x20 ADD PUSH32 0x5553444300000000000000000000000000000000000000000000000000000000 DUP2 MSTORE POP PUSH1 0x0 PUSH8 0x10A741A462780000 PUSH1 0x6 PUSH2 0x65E PUSH1 0x20 SHL PUSH1 0x20 SHR JUMP JUMPDEST POP POP PUSH2 0x1438 JUMP JUMPDEST PUSH2 0x416 DUP2 PUSH2 0x876 PUSH1 0x20 SHL PUSH1 0x20 SHR JUMP JUMPDEST PUSH2 0x429 PUSH1 0x0 DUP1 SHL DUP3 PUSH2 0x4D8 PUSH1 0x20 SHL PUSH1 0x20 SHR JUMP JUMPDEST POP POP JUMP JUMPDEST PUSH1 0x0 PUSH1 0x20 DUP4 MLOAD LT ISZERO PUSH2 0x44F JUMPI PUSH2 0x448 DUP4 PUSH2 0x93C PUSH1 0x20 SHL PUSH1 0x20 SHR JUMP JUMPDEST SWAP1 POP PUSH2 0x477 JUMP JUMPDEST DUP3 PUSH2 0x45F DUP4 PUSH2 0x9A4 PUSH1 0x20 SHL PUSH1 0x20 SHR JUMP JUMPDEST PUSH1 0x0 ADD SWAP1 DUP2 PUSH2 0x46E SWAP2 SWAP1 PUSH2 0xF65 JUMP JUMPDEST POP PUSH1 0xFF PUSH1 0x0 SHL SWAP1 POP JUMPDEST SWAP3 SWAP2 POP POP JUMP JUMPDEST PUSH1 0x0 PUSH32 0x8B73C3C69BB8FE3D512ECC4CF759CC79239F7B179B0FFACAA9A75D522B39400F PUSH1 0xE0 MLOAD PUSH2 0x100 MLOAD CHAINID ADDRESS PUSH1 0x40 MLOAD PUSH1 0x20 ADD PUSH2 0x4BD SWAP6 SWAP5 SWAP4 SWAP3 SWAP2 SWAP1 PUSH2 0x1172 JUMP JUMPDEST PUSH1 0x40 MLOAD PUSH1 0x20 DUP2 DUP4 SUB SUB DUP2 MSTORE SWAP1 PUSH1 0x40 MSTORE DUP1 MLOAD SWAP1 PUSH1 0x20 ADD KECCAK256 SWAP1 POP SWAP1 JUMP JUMPDEST PUSH1 0x0 PUSH2 0x4EA DUP4 DUP4 PUSH2 0x9AE PUSH1 0x20 SHL PUSH1 0x20 SHR JUMP JUMPDEST PUSH2 0x5CB JUMPI PUSH1 0x1 PUSH1 0x9 PUSH1 0x0 DUP6 DUP2 MSTORE PUSH1 0x20 ADD SWAP1 DUP2 MSTORE PUSH1 0x20 ADD PUSH1 0x0 KECCAK256 PUSH1 0x0 ADD PUSH1 0x0 DUP5 PUSH20 0xFFFFFFFFFFFFFFFFFFFFFFFFFFFFFFFFFFFFFFFF AND PUSH20 0xFFFFFFFFFFFFFFFFFFFFFFFFFFFFFFFFFFFFFFFF AND DUP2 MSTORE PUSH1 0x20 ADD SWAP1 DUP2 MSTORE PUSH1 0x20 ADD PUSH1 0x0 KECCAK256 PUSH1 0x0 PUSH2 0x100 EXP DUP2 SLOAD DUP2 PUSH1 0xFF MUL NOT AND SWAP1 DUP4 ISZERO ISZERO MUL OR SWAP1 SSTORE POP PUSH2 0x568 PUSH2 0xA19 PUSH1 0x20 SHL PUSH1 0x20 SHR JUMP JUMPDEST PUSH20 0xFFFFFFFFFFFFFFFFFFFFFFFFFFFFFFFFFFFFFFFF AND DUP3 PUSH20 0xFFFFFFFFFFFFFFFFFFFFFFFFFFFFFFFFFFFFFFFF AND DUP5 PUSH32 0x2F8788117E7EFF1D82E926EC794901D17C78024A50270940304540A733656F0D PUSH1 0x40 MLOAD PUSH1 0x40 MLOAD DUP1 SWAP2 SUB SWAP1 LOG4 PUSH1 0x1 SWAP1 POP PUSH2 0x5D0 JUMP JUMPDEST PUSH1 0x0 SWAP1 POP JUMPDEST SWAP3 SWAP2 POP POP JUMP JUMPDEST PUSH1 0x0 PUSH20 0xFFFFFFFFFFFFFFFFFFFFFFFFFFFFFFFFFFFFFFFF AND DUP3 PUSH20 0xFFFFFFFFFFFFFFFFFFFFFFFFFFFFFFFFFFFFFFFF AND SUB PUSH2 0x648 JUMPI PUSH1 0x0 PUSH1 0x40 MLOAD PUSH32 0xEC442F0500000000000000000000000000000000000000000000000000000000 DUP2 MSTORE PUSH1 0x4 ADD PUSH2 0x63F SWAP2 SWAP1 PUSH2 0x1046 JUMP JUMPDEST PUSH1 0x40 MLOAD DUP1 SWAP2 SUB SWAP1 REVERT JUMPDEST PUSH2 0x65A PUSH1 0x0 DUP4 DUP4 PUSH2 0xA21 PUSH1 0x20 SHL PUSH1 0x20 SHR JUMP JUMPDEST POP POP JUMP JUMPDEST PUSH1 0x0 DUP5 MLOAD SUB PUSH2 0x699 JUMPI PUSH1 0x40 MLOAD PUSH32 0x19C7070A00000000000000000000000000000000000000000000000000000000 DUP2 MSTORE PUSH1 0x4 ADD PUSH1 0x40 MLOAD DUP1 SWAP2 SUB SWAP1 REVERT JUMPDEST PUSH1 0x0 DUP3 SUB PUSH2 0x6D3 JUMPI PUSH1 0x40 MLOAD PUSH32 0x2689AC4300000000000000000000000000000000000000000000000000000000 DUP2 MSTORE PUSH1 0x4 ADD PUSH1 0x40 MLOAD DUP1 SWAP2 SUB SWAP1 REVERT JUMPDEST PUSH1 0x0 PUSH1 0xD DUP6 PUSH1 0x40 MLOAD PUSH2 0x6E5 SWAP2 SWAP1 PUSH2 0x122B JUMP JUMPDEST SWAP1 DUP2 MSTORE PUSH1 0x20 ADD PUSH1 0x40 MLOAD DUP1 SWAP2 SUB SWAP1 KECCAK256 PUSH1 0x0 ADD SLOAD EQ PUSH2 0x739 JUMPI DUP4 PUSH1 0x40 MLOAD PUSH32 0xA094D48D00000000000000000000000000000000000000000000000000000000 DUP2 MSTORE PUSH1 0x4 ADD PUSH2 0x730 SWAP2 SWAP1 PUSH2 0x128C JUMP JUMPDEST PUSH1 0x40 MLOAD DUP1 SWAP2 SUB SWAP1 REVERT JUMPDEST PUSH1 0xC DUP5 SWAP1 DUP1 PUSH1 0x1 DUP2 SLOAD ADD DUP1 DUP3 SSTORE DUP1 SWAP2 POP POP PUSH1 0x1 SWAP1 SUB SWAP1 PUSH1 0x0 MSTORE PUSH1 0x20 PUSH1 0x0 KECCAK256 ADD PUSH1 0x0 SWAP1 SWAP2 SWAP1 SWAP2 SWAP1 SWAP2 POP SWAP1 DUP2 PUSH2 0x76D SWAP2 SWAP1 PUSH2 0xF65 JUMP JUMPDEST POP PUSH1 0x40 MLOAD DUP1 PUSH1 0x60 ADD PUSH1 0x40 MSTORE DUP1 DUP4 DUP2 MSTORE PUSH1 0x20 ADD DUP5 PUSH20 0xFFFFFFFFFFFFFFFFFFFFFFFFFFFFFFFFFFFFFFFF AND DUP2 MSTORE PUSH1 0x20 ADD DUP3 PUSH1 0xFF AND DUP2 MSTORE POP PUSH1 0xD DUP6 PUSH1 0x40 MLOAD PUSH2 0x7B2 SWAP2 SWAP1 PUSH2 0x122B JUMP JUMPDEST SWAP1 DUP2 MSTORE PUSH1 0x20 ADD PUSH1 0x40 MLOAD DUP1 SWAP2 SUB SWAP1 KECCAK256 PUSH1 0x0 DUP3 ADD MLOAD DUP2 PUSH1 0x0 ADD SSTORE PUSH1 0x20 DUP3 ADD MLOAD DUP2 PUSH1 0x1 ADD PUSH1 0x0 PUSH2 0x100 EXP DUP2 SLOAD DUP2 PUSH20 0xFFFFFFFFFFFFFFFFFFFFFFFFFFFFFFFFFFFFFFFF MUL NOT AND SWAP1 DUP4 PUSH20 0xFFFFFFFFFFFFFFFFFFFFFFFFFFFFFFFFFFFFFFFF AND MUL OR SWAP1 SSTORE POP PUSH1 0x40 DUP3 ADD MLOAD DUP2 PUSH1 0x1 ADD PUSH1 0x14 PUSH2 0x100 EXP DUP2 SLOAD DUP2 PUSH1 0xFF MUL NOT AND SWAP1 DUP4 PUSH1 0xFF AND MUL OR SWAP1 SSTORE POP SWAP1 POP POP PUSH32 0x84390A2096E2BF5A86745AE76997944B0F161F904F842EE21F1669A5DC93361B DUP5 DUP5 DUP5 PUSH1 0x40 MLOAD PUSH2 0x868 SWAP4 SWAP3 SWAP2 SWAP1 PUSH2 0x12AE JUMP JUMPDEST PUSH1 0x40 MLOAD DUP1 SWAP2 SUB SWAP1 LOG1 POP POP POP POP JUMP JUMPDEST PUSH1 0x0 PUSH1 0x5 PUSH1 0x0 SWAP1 SLOAD SWAP1 PUSH2 0x100 EXP SWAP1 DIV PUSH20 0xFFFFFFFFFFFFFFFFFFFFFFFFFFFFFFFFFFFFFFFF AND SWAP1 POP DUP2 PUSH1 0x5 PUSH1 0x0 PUSH2 0x100 EXP DUP2 SLOAD DUP2 PUSH20 0xFFFFFFFFFFFFFFFFFFFFFFFFFFFFFFFFFFFFFFFF MUL NOT AND SWAP1 DUP4 PUSH20 0xFFFFFFFFFFFFFFFFFFFFFFFFFFFFFFFFFFFFFFFF AND MUL OR SWAP1 SSTORE POP DUP2 PUSH20 0xFFFFFFFFFFFFFFFFFFFFFFFFFFFFFFFFFFFFFFFF AND DUP2 PUSH20 0xFFFFFFFFFFFFFFFFFFFFFFFFFFFFFFFFFFFFFFFF AND PUSH32 0x8BE0079C531659141344CD1FD0A4F28419497F9722A3DAAFE3B4186F6B6457E0 PUSH1 0x40 MLOAD PUSH1 0x40 MLOAD DUP1 SWAP2 SUB SWAP1 LOG3 POP POP JUMP JUMPDEST PUSH1 0x0 DUP1 DUP3 SWAP1 POP PUSH1 0x1F DUP2 MLOAD GT ISZERO PUSH2 0x989 JUMPI DUP3 PUSH1 0x40 MLOAD PUSH32 0x305A27A900000000000000000000000000000000000000000000000000000000 DUP2 MSTORE PUSH1 0x4 ADD PUSH2 0x980 SWAP2 SWAP1 PUSH2 0x128C JUMP JUMPDEST PUSH1 0x40 MLOAD DUP1 SWAP2 SUB SWAP1 REVERT JUMPDEST DUP1 MLOAD DUP2 PUSH2 0x995 SWAP1 PUSH2 0x131C JUMP JUMPDEST PUSH1 0x0 SHR OR PUSH1 0x0 SHL SWAP2 POP POP SWAP2 SWAP1 POP JUMP JUMPDEST PUSH1 0x0 DUP2 SWAP1 POP SWAP2 SWAP1 POP JUMP JUMPDEST PUSH1 0x0 PUSH1 0x9 PUSH1 0x0 DUP5 DUP2 MSTORE PUSH1 0x20 ADD SWAP1 DUP2 MSTORE PUSH1 0x20 ADD PUSH1 0x0 KECCAK256 PUSH1 0x0 ADD PUSH1 0x0 DUP4 PUSH20 0xFFFFFFFFFFFFFFFFFFFFFFFFFFFFFFFFFFFFFFFF AND PUSH20 0xFFFFFFFFFFFFFFFFFFFFFFFFFFFFFFFFFFFFFFFF AND DUP2 MSTORE PUSH1 0x20 ADD SWAP1 DUP2 MSTORE PUSH1 0x20 ADD PUSH1 0x0 KECCAK256 PUSH1 0x0 SWAP1 SLOAD SWAP1 PUSH2 0x100 EXP SWAP1 DIV PUSH1 0xFF AND SWAP1 POP SWAP3 SWAP2 POP POP JUMP JUMPDEST PUSH1 0x0 CALLER SWAP1 POP SWAP1 JUMP JUMPDEST PUSH1 0x0 PUSH20 0xFFFFFFFFFFFFFFFFFFFFFFFFFFFFFFFFFFFFFFFF AND DUP4 PUSH20 0xFFFFFFFFFFFFFFFFFFFFFFFFFFFFFFFFFFFFFFFF AND SUB PUSH2 0xA73 JUMPI DUP1 PUSH1 0x2 PUSH1 0x0 DUP3 DUP3 SLOAD PUSH2 0xA67 SWAP2 SWAP1 PUSH2 0x13B2 JUMP JUMPDEST SWAP3 POP POP DUP2 SWAP1 SSTORE POP PUSH2 0xB46 JUMP JUMPDEST PUSH1 0x0 DUP1 PUSH1 0x0 DUP6 PUSH20 0xFFFFFFFFFFFFFFFFFFFFFFFFFFFFFFFFFFFFFFFF AND PUSH20 0xFFFFFFFFFFFFFFFFFFFFFFFFFFFFFFFFFFFFFFFF AND DUP2 MSTORE PUSH1 0x20 ADD SWAP1 DUP2 MSTORE PUSH1 0x20 ADD PUSH1 0x0 KECCAK256 SLOAD SWAP1 POP DUP2 DUP2 LT ISZERO PUSH2 0xAFF JUMPI DUP4 DUP2 DUP4 PUSH1 0x40 MLOAD PUSH32 0xE450D38C00000000000000000000000000000000000000000000000000000000 DUP2 MSTORE PUSH1 0x4 ADD PUSH2 0xAF6 SWAP4 SWAP3 SWAP2 SWAP1 PUSH2 0x13E6 JUMP JUMPDEST PUSH1 0x40 MLOAD DUP1 SWAP2 SUB SWAP1 REVERT JUMPDEST DUP2 DUP2 SUB PUSH1 0x0 DUP1 DUP7 PUSH20 0xFFFFFFFFFFFFFFFFFFFFFFFFFFFFFFFFFFFFFFFF AND PUSH20 0xFFFFFFFFFFFFFFFFFFFFFFFFFFFFFFFFFFFFFFFF AND DUP2 MSTORE PUSH1 0x20 ADD SWAP1 DUP2 MSTORE PUSH1 0x20 ADD PUSH1 0x0 KECCAK256 DUP2 SWAP1 SSTORE POP POP JUMPDEST PUSH1 0x0 PUSH20 0xFFFFFFFFFFFFFFFFFFFFFFFFFFFFFFFFFFFFFFFF AND DUP3 PUSH20 0xFFFFFFFFFFFFFFFFFFFFFFFFFFFFFFFFFFFFFFFF AND SUB PUSH2 0xB8F JUMPI DUP1 PUSH1 0x2 PUSH1 0x0 DUP3 DUP3 SLOAD SUB SWAP3 POP POP DUP2 SWAP1 SSTORE POP PUSH2 0xBDC JUMP JUMPDEST DUP1 PUSH1 0x0 DUP1 DUP5 PUSH20 0xFFFFFFFFFFFFFFFFFFFFFFFFFFFFFFFFFFFFFFFF AND PUSH20 0xFFFFFFFFFFFFFFFFFFFFFFFFFFFFFFFFFFFFFFFF AND DUP2 MSTORE PUSH1 0x20 ADD SWAP1 DUP2 MSTORE PUSH1 0x20 ADD PUSH1 0x0 KECCAK256 PUSH1 0x0 DUP3 DUP3 SLOAD ADD SWAP3 POP POP DUP2 SWAP1 SSTORE POP JUMPDEST DUP2 PUSH20 0xFFFFFFFFFFFFFFFFFFFFFFFFFFFFFFFFFFFFFFFF AND DUP4 PUSH20 0xFFFFFFFFFFFFFFFFFFFFFFFFFFFFFFFFFFFFFFFF AND PUSH32 0xDDF252AD1BE2C89B69C2B068FC378DAA952BA7F163C4A11628F55A4DF523B3EF DUP4 PUSH1 0x40 MLOAD PUSH2 0xC39 SWAP2 SWAP1 PUSH2 0x141D JUMP JUMPDEST PUSH1 0x40 MLOAD DUP1 SWAP2 SUB SWAP1 LOG3 POP POP POP JUMP JUMPDEST PUSH1 0x0 DUP1 REVERT JUMPDEST PUSH1 0x0 PUSH20 0xFFFFFFFFFFFFFFFFFFFFFFFFFFFFFFFFFFFFFFFF DUP3 AND SWAP1 POP SWAP2 SWAP1 POP JUMP JUMPDEST PUSH1 0x0 PUSH2 0xC76 DUP3 PUSH2 0xC4B JUMP JUMPDEST SWAP1 POP SWAP2 SWAP1 POP JUMP JUMPDEST PUSH2 0xC86 DUP2 PUSH2 0xC6B JUMP JUMPDEST DUP2 EQ PUSH2 0xC91 JUMPI PUSH1 0x0 DUP1 REVERT JUMPDEST POP JUMP JUMPDEST PUSH1 0x0 DUP2 MLOAD SWAP1 POP PUSH2 0xCA3 DUP2 PUSH2 0xC7D JUMP JUMPDEST SWAP3 SWAP2 POP POP JUMP JUMPDEST PUSH1 0x0 DUP2 SWAP1 POP SWAP2 SWAP1 POP JUMP JUMPDEST PUSH2 0xCBC DUP2 PUSH2 0xCA9 JUMP JUMPDEST DUP2 EQ PUSH2 0xCC7 JUMPI PUSH1 0x0 DUP1 REVERT JUMPDEST POP JUMP JUMPDEST PUSH1 0x0 DUP2 MLOAD SWAP1 POP PUSH2 0xCD9 DUP2 PUSH2 0xCB3 JUMP JUMPDEST SWAP3 SWAP2 POP POP JUMP JUMPDEST PUSH1 0x0 DUP1 PUSH1 0x40 DUP4 DUP6 SUB SLT ISZERO PUSH2 0xCF6 JUMPI PUSH2 0xCF5 PUSH2 0xC46 JUMP JUMPDEST JUMPDEST PUSH1 0x0 PUSH2 0xD04 DUP6 DUP3 DUP7 ADD PUSH2 0xC94 JUMP JUMPDEST SWAP3 POP POP PUSH1 0x20 PUSH2 0xD15 DUP6 DUP3 DUP7 ADD PUSH2 0xCCA JUMP JUMPDEST SWAP2 POP POP SWAP3 POP SWAP3 SWAP1 POP JUMP JUMPDEST PUSH1 0x0 DUP2 MLOAD SWAP1 POP SWAP2 SWAP1 POP JUMP JUMPDEST PUSH32 0x4E487B7100000000000000000000000000000000000000000000000000000000 PUSH1 0x0 MSTORE PUSH1 0x41 PUSH1 0x4 MSTORE PUSH1 0x24 PUSH1 0x0 REVERT JUMPDEST PUSH32 0x4E487B7100000000000000000000000000000000000000000000000000000000 PUSH1 0x0 MSTORE PUSH1 0x22 PUSH1 0x4 MSTORE PUSH1 0x24 PUSH1 0x0 REVERT JUMPDEST PUSH1 0x0 PUSH1 0x2 DUP3 DIV SWAP1 POP PUSH1 0x1 DUP3 AND DUP1 PUSH2 0xDA0 JUMPI PUSH1 0x7F DUP3 AND SWAP2 POP JUMPDEST PUSH1 0x20 DUP3 LT DUP2 SUB PUSH2 0xDB3 JUMPI PUSH2 0xDB2 PUSH2 0xD59 JUMP JUMPDEST JUMPDEST POP SWAP2 SWAP1 POP JUMP JUMPDEST PUSH1 0x0 DUP2 SWAP1 POP DUP2 PUSH1 0x0 MSTORE PUSH1 0x20 PUSH1 0x0 KECCAK256 SWAP1 POP SWAP2 SWAP1 POP JUMP JUMPDEST PUSH1 0x0 PUSH1 0x20 PUSH1 0x1F DUP4 ADD DIV SWAP1 POP SWAP2 SWAP1 POP JUMP JUMPDEST PUSH1 0x0 DUP3 DUP3 SHL SWAP1 POP SWAP3 SWAP2 POP POP JUMP JUMPDEST PUSH1 0x0 PUSH1 0x8 DUP4 MUL PUSH2 0xE1B PUSH32 0xFFFFFFFFFFFFFFFFFFFFFFFFFFFFFFFFFFFFFFFFFFFFFFFFFFFFFFFFFFFFFFFF DUP3 PUSH2 0xDDE JUMP JUMPDEST PUSH2 0xE25 DUP7 DUP4 PUSH2 0xDDE JUMP JUMPDEST SWAP6 POP DUP1 NOT DUP5 AND SWAP4 POP DUP1 DUP7 AND DUP5 OR SWAP3 POP POP POP SWAP4 SWAP3 POP POP POP JUMP JUMPDEST PUSH1 0x0 DUP2 SWAP1 POP SWAP2 SWAP1 POP JUMP JUMPDEST PUSH1 0x0 PUSH2 0xE62 PUSH2 0xE5D PUSH2 0xE58 DUP5 PUSH2 0xCA9 JUMP JUMPDEST PUSH2 0xE3D JUMP JUMPDEST PUSH2 0xCA9 JUMP JUMPDEST SWAP1 POP SWAP2 SWAP1 POP JUMP JUMPDEST PUSH1 0x0 DUP2 SWAP1 POP SWAP2 SWAP1 POP JUMP JUMPDEST PUSH2 0xE7C DUP4 PUSH2 0xE47 JUMP JUMPDEST PUSH2 0xE90 PUSH2 0xE88 DUP3 PUSH2 0xE69 JUMP JUMPDEST DUP5 DUP5 SLOAD PUSH2 0xDEB JUMP JUMPDEST DUP3 SSTORE POP POP POP POP JUMP JUMPDEST PUSH1 0x0 SWAP1 JUMP JUMPDEST PUSH2 0xEA5 PUSH2 0xE98 JUMP JUMPDEST PUSH2 0xEB0 DUP2 DUP5 DUP5 PUSH2 0xE73 JUMP JUMPDEST POP POP POP JUMP JUMPDEST JUMPDEST DUP2 DUP2 LT ISZERO PUSH2 0xED4 JUMPI PUSH2 0xEC9 PUSH1 0x0 DUP3 PUSH2 0xE9D JUMP JUMPDEST PUSH1 0x1 DUP2 ADD SWAP1 POP PUSH2 0xEB6 JUMP JUMPDEST POP POP JUMP JUMPDEST PUSH1 0x1F DUP3 GT ISZERO PUSH2 0xF19 JUMPI PUSH2 0xEEA DUP2 PUSH2 0xDB9 JUMP JUMPDEST PUSH2 0xEF3 DUP5 PUSH2 0xDCE JUMP JUMPDEST DUP2 ADD PUSH1 0x20 DUP6 LT ISZERO PUSH2 0xF02 JUMPI DUP2 SWAP1 POP JUMPDEST PUSH2 0xF16 PUSH2 0xF0E DUP6 PUSH2 0xDCE JUMP JUMPDEST DUP4 ADD DUP3 PUSH2 0xEB5 JUMP JUMPDEST POP POP JUMPDEST POP POP POP JUMP JUMPDEST PUSH1 0x0 DUP3 DUP3 SHR SWAP1 POP SWAP3 SWAP2 POP POP JUMP JUMPDEST PUSH1 0x0 PUSH2 0xF3C PUSH1 0x0 NOT DUP5 PUSH1 0x8 MUL PUSH2 0xF1E JUMP JUMPDEST NOT DUP1 DUP4 AND SWAP2 POP POP SWAP3 SWAP2 POP POP JUMP JUMPDEST PUSH1 0x0 PUSH2 0xF55 DUP4 DUP4 PUSH2 0xF2B JUMP JUMPDEST SWAP2 POP DUP3 PUSH1 0x2 MUL DUP3 OR SWAP1 POP SWAP3 SWAP2 POP POP JUMP JUMPDEST PUSH2 0xF6E DUP3 PUSH2 0xD1F JUMP JUMPDEST PUSH8 0xFFFFFFFFFFFFFFFF DUP2 GT ISZERO PUSH2 0xF87 JUMPI PUSH2 0xF86 PUSH2 0xD2A JUMP JUMPDEST JUMPDEST PUSH2 0xF91 DUP3 SLOAD PUSH2 0xD88 JUMP JUMPDEST PUSH2 0xF9C DUP3 DUP3 DUP6 PUSH2 0xED8 JUMP JUMPDEST PUSH1 0x0 PUSH1 0x20 SWAP1 POP PUSH1 0x1F DUP4 GT PUSH1 0x1 DUP2 EQ PUSH2 0xFCF JUMPI PUSH1 0x0 DUP5 ISZERO PUSH2 0xFBD JUMPI DUP3 DUP8 ADD MLOAD SWAP1 POP JUMPDEST PUSH2 0xFC7 DUP6 DUP3 PUSH2 0xF49 JUMP JUMPDEST DUP7 SSTORE POP PUSH2 0x102F JUMP JUMPDEST PUSH1 0x1F NOT DUP5 AND PUSH2 0xFDD DUP7 PUSH2 0xDB9 JUMP JUMPDEST PUSH1 0x0 JUMPDEST DUP3 DUP2 LT ISZERO PUSH2 0x1005 JUMPI DUP5 DUP10 ADD MLOAD DUP3 SSTORE PUSH1 0x1 DUP3 ADD SWAP2 POP PUSH1 0x20 DUP6 ADD SWAP5 POP PUSH1 0x20 DUP2 ADD SWAP1 POP PUSH2 0xFE0 JUMP JUMPDEST DUP7 DUP4 LT ISZERO PUSH2 0x1022 JUMPI DUP5 DUP10 ADD MLOAD PUSH2 0x101E PUSH1 0x1F DUP10 AND DUP3 PUSH2 0xF2B JUMP JUMPDEST DUP4 SSTORE POP JUMPDEST PUSH1 0x1 PUSH1 0x2 DUP9 MUL ADD DUP9 SSTORE POP POP POP JUMPDEST POP POP POP POP POP POP JUMP JUMPDEST PUSH2 0x1040 DUP2 PUSH2 0xC6B JUMP JUMPDEST DUP3 MSTORE POP POP JUMP JUMPDEST PUSH1 0x0 PUSH1 0x20 DUP3 ADD SWAP1 POP PUSH2 0x105B PUSH1 0x0 DUP4 ADD DUP5 PUSH2 0x1037 JUMP JUMPDEST SWAP3 SWAP2 POP POP JUMP JUMPDEST PUSH1 0x0 DUP3 DUP3 MSTORE PUSH1 0x20 DUP3 ADD SWAP1 POP SWAP3 SWAP2 POP POP JUMP JUMPDEST PUSH32 0x496E76616C696420696E697469616C206F776E65720000000000000000000000 PUSH1 0x0 DUP3 ADD MSTORE POP JUMP JUMPDEST PUSH1 0x0 PUSH2 0x10A8 PUSH1 0x15 DUP4 PUSH2 0x1061 JUMP JUMPDEST SWAP2 POP PUSH2 0x10B3 DUP3 PUSH2 0x1072 JUMP JUMPDEST PUSH1 0x20 DUP3 ADD SWAP1 POP SWAP2 SWAP1 POP JUMP JUMPDEST PUSH1 0x0 PUSH1 0x20 DUP3 ADD SWAP1 POP DUP2 DUP2 SUB PUSH1 0x0 DUP4 ADD MSTORE PUSH2 0x10D7 DUP2 PUSH2 0x109B JUMP JUMPDEST SWAP1 POP SWAP2 SWAP1 POP JUMP JUMPDEST PUSH32 0x436170206D7573742062652067726561746572207468616E207A65726F000000 PUSH1 0x0 DUP3 ADD MSTORE POP JUMP JUMPDEST PUSH1 0x0 PUSH2 0x1114 PUSH1 0x1D DUP4 PUSH2 0x1061 JUMP JUMPDEST SWAP2 POP PUSH2 0x111F DUP3 PUSH2 0x10DE JUMP JUMPDEST PUSH1 0x20 DUP3 ADD SWAP1 POP SWAP2 SWAP1 POP JUMP JUMPDEST PUSH1 0x0 PUSH1 0x20 DUP3 ADD SWAP1 POP DUP2 DUP2 SUB PUSH1 0x0 DUP4 ADD MSTORE PUSH2 0x1143 DUP2 PUSH2 0x1107 JUMP JUMPDEST SWAP1 POP SWAP2 SWAP1 POP JUMP JUMPDEST PUSH1 0x0 DUP2 SWAP1 POP SWAP2 SWAP1 POP JUMP JUMPDEST PUSH2 0x115D DUP2 PUSH2 0x114A JUMP JUMPDEST DUP3 MSTORE POP POP JUMP JUMPDEST PUSH2 0x116C DUP2 PUSH2 0xCA9 JUMP JUMPDEST DUP3 MSTORE POP POP JUMP JUMPDEST PUSH1 0x0 PUSH1 0xA0 DUP3 ADD SWAP1 POP PUSH2 0x1187 PUSH1 0x0 DUP4 ADD DUP9 PUSH2 0x1154 JUMP JUMPDEST PUSH2 0x1194 PUSH1 0x20 DUP4 ADD DUP8 PUSH2 0x1154 JUMP JUMPDEST PUSH2 0x11A1 PUSH1 0x40 DUP4 ADD DUP7 PUSH2 0x1154 JUMP JUMPDEST PUSH2 0x11AE PUSH1 0x60 DUP4 ADD DUP6 PUSH2 0x1163 JUMP JUMPDEST PUSH2 0x11BB PUSH1 0x80 DUP4 ADD DUP5 PUSH2 0x1037 JUMP JUMPDEST SWAP7 SWAP6 POP POP POP POP POP POP JUMP JUMPDEST PUSH1 0x0 DUP2 SWAP1 POP SWAP3 SWAP2 POP POP JUMP JUMPDEST PUSH1 0x0 JUMPDEST DUP4 DUP2 LT ISZERO PUSH2 0x11EE JUMPI DUP1 DUP3 ADD MLOAD DUP2 DUP5 ADD MSTORE PUSH1 0x20 DUP2 ADD SWAP1 POP PUSH2 0x11D3 JUMP JUMPDEST PUSH1 0x0 DUP5 DUP5 ADD MSTORE POP POP POP POP JUMP JUMPDEST PUSH1 0x0 PUSH2 0x1205 DUP3 PUSH2 0xD1F JUMP JUMPDEST PUSH2 0x120F DUP2 DUP6 PUSH2 0x11C5 JUMP JUMPDEST SWAP4 POP PUSH2 0x121F DUP2 DUP6 PUSH1 0x20 DUP7 ADD PUSH2 0x11D0 JUMP JUMPDEST DUP1 DUP5 ADD SWAP2 POP POP SWAP3 SWAP2 POP POP JUMP JUMPDEST PUSH1 0x0 PUSH2 0x1237 DUP3 DUP5 PUSH2 0x11FA JUMP JUMPDEST SWAP2 POP DUP2 SWAP1 POP SWAP3 SWAP2 POP POP JUMP JUMPDEST PUSH1 0x0 PUSH1 0x1F NOT PUSH1 0x1F DUP4 ADD AND SWAP1 POP SWAP2 SWAP1 POP JUMP JUMPDEST PUSH1 0x0 PUSH2 0x125E DUP3 PUSH2 0xD1F JUMP JUMPDEST PUSH2 0x1268 DUP2 DUP6 PUSH2 0x1061 JUMP JUMPDEST SWAP4 POP PUSH2 0x1278 DUP2 DUP6 PUSH1 0x20 DUP7 ADD PUSH2 0x11D0 JUMP JUMPDEST PUSH2 0x1281 DUP2 PUSH2 0x1242 JUMP JUMPDEST DUP5 ADD SWAP2 POP POP SWAP3 SWAP2 POP POP JUMP JUMPDEST PUSH1 0x0 PUSH1 0x20 DUP3 ADD SWAP1 POP DUP2 DUP2 SUB PUSH1 0x0 DUP4 ADD MSTORE PUSH2 0x12A6 DUP2 DUP5 PUSH2 0x1253 JUMP JUMPDEST SWAP1 POP SWAP3 SWAP2 POP POP JUMP JUMPDEST PUSH1 0x0 PUSH1 0x60 DUP3 ADD SWAP1 POP DUP2 DUP2 SUB PUSH1 0x0 DUP4 ADD MSTORE PUSH2 0x12C8 DUP2 DUP7 PUSH2 0x1253 JUMP JUMPDEST SWAP1 POP PUSH2 0x12D7 PUSH1 0x20 DUP4 ADD DUP6 PUSH2 0x1037 JUMP JUMPDEST PUSH2 0x12E4 PUSH1 0x40 DUP4 ADD DUP5 PUSH2 0x1163 JUMP JUMPDEST SWAP5 SWAP4 POP POP POP POP JUMP JUMPDEST PUSH1 0x0 DUP2 MLOAD SWAP1 POP SWAP2 SWAP1 POP JUMP JUMPDEST PUSH1 0x0 DUP2 SWAP1 POP PUSH1 0x20 DUP3 ADD SWAP1 POP SWAP2 SWAP1 POP JUMP JUMPDEST PUSH1 0x0 PUSH2 0x1313 DUP3 MLOAD PUSH2 0x114A JUMP JUMPDEST DUP1 SWAP2 POP POP SWAP2 SWAP1 POP JUMP JUMPDEST PUSH1 0x0 PUSH2 0x1327 DUP3 PUSH2 0x12EC JUMP JUMPDEST DUP3 PUSH2 0x1331 DUP5 PUSH2 0x12F7 JUMP JUMPDEST SWAP1 POP PUSH2 0x133C DUP2 PUSH2 0x1307 JUMP JUMPDEST SWAP3 POP PUSH1 0x20 DUP3 LT ISZERO PUSH2 0x137C JUMPI PUSH2 0x1377 PUSH32 0xFFFFFFFFFFFFFFFFFFFFFFFFFFFFFFFFFFFFFFFFFFFFFFFFFFFFFFFFFFFFFFFF DUP4 PUSH1 0x20 SUB PUSH1 0x8 MUL PUSH2 0xDDE JUMP JUMPDEST DUP4 AND SWAP3 POP JUMPDEST POP POP SWAP2 SWAP1 POP JUMP JUMPDEST PUSH32 0x4E487B7100000000000000000000000000000000000000000000000000000000 PUSH1 0x0 MSTORE PUSH1 0x11 PUSH1 0x4 MSTORE PUSH1 0x24 PUSH1 0x0 REVERT JUMPDEST PUSH1 0x0 PUSH2 0x13BD DUP3 PUSH2 0xCA9 JUMP JUMPDEST SWAP2 POP PUSH2 0x13C8 DUP4 PUSH2 0xCA9 JUMP JUMPDEST SWAP3 POP DUP3 DUP3 ADD SWAP1 POP DUP1 DUP3 GT ISZERO PUSH2 0x13E0 JUMPI PUSH2 0x13DF PUSH2 0x1383 JUMP JUMPDEST JUMPDEST SWAP3 SWAP2 POP POP JUMP JUMPDEST PUSH1 0x0 PUSH1 0x60 DUP3 ADD SWAP1 POP PUSH2 0x13FB PUSH1 0x0 DUP4 ADD DUP7 PUSH2 0x1037 JUMP JUMPDEST PUSH2 0x1408 PUSH1 0x20 DUP4 ADD DUP6 PUSH2 0x1163 JUMP JUMPDEST PUSH2 0x1415 PUSH1 0x40 DUP4 ADD DUP5 PUSH2 0x1163 JUMP JUMPDEST SWAP5 SWAP4 POP POP POP POP JUMP JUMPDEST PUSH1 0x0 PUSH1 0x20 DUP3 ADD SWAP1 POP PUSH2 0x1432 PUSH1 0x0 DUP4 ADD DUP5 PUSH2 0x1163 JUMP JUMPDEST SWAP3 SWAP2 POP POP JUMP JUMPDEST PUSH1 0x80 MLOAD PUSH1 0xA0 MLOAD PUSH1 0xC0 MLOAD PUSH1 0xE0 MLOAD PUSH2 0x100 MLOAD PUSH2 0x120 MLOAD PUSH2 0x140 MLOAD PUSH2 0x160 MLOAD PUSH2 0x4F6E PUSH2 0x14A4 PUSH1 0x0 CODECOPY PUSH1 0x0 DUP2 DUP2 PUSH2 0xE37 ADD MSTORE PUSH2 0x1BB8 ADD MSTORE PUSH1 0x0 PUSH2 0x2386 ADD MSTORE PUSH1 0x0 PUSH2 0x234B ADD MSTORE PUSH1 0x0 PUSH2 0x30DA ADD MSTORE PUSH1 0x0 PUSH2 0x30B9 ADD MSTORE PUSH1 0x0 PUSH2 0x1F9A ADD MSTORE PUSH1 0x0 PUSH2 0x1FF0 ADD MSTORE PUSH1 0x0 PUSH2 0x2019 ADD MSTORE PUSH2 0x4F6E PUSH1 0x0 RETURN INVALID PUSH1 0x80 PUSH1 0x40 MSTORE CALLVALUE DUP1 ISZERO PUSH2 0x10 JUMPI PUSH1 0x0 DUP1 REVERT JUMPDEST POP PUSH1 0x4 CALLDATASIZE LT PUSH2 0x23D JUMPI PUSH1 0x0 CALLDATALOAD PUSH1 0xE0 SHR DUP1 PUSH4 0x79CC6790 GT PUSH2 0x13B JUMPI DUP1 PUSH4 0xA96FFD64 GT PUSH2 0xB8 JUMPI DUP1 PUSH4 0xDB0CA857 GT PUSH2 0x7C JUMPI DUP1 PUSH4 0xDB0CA857 EQ PUSH2 0x6E2 JUMPI DUP1 PUSH4 0xDD62ED3E EQ PUSH2 0x6FE JUMPI DUP1 PUSH4 0xEC81B483 EQ PUSH2 0x72E JUMPI DUP1 PUSH4 0xF2FDE38B EQ PUSH2 0x74C JUMPI DUP1 PUSH4 0xFD48A1E6 EQ PUSH2 0x768 JUMPI PUSH2 0x23D JUMP JUMPDEST DUP1 PUSH4 0xA96FFD64 EQ PUSH2 0x63E JUMPI DUP1 PUSH4 0xD3C7C2C7 EQ PUSH2 0x66E JUMPI DUP1 PUSH4 0xD505ACCF EQ PUSH2 0x68C JUMPI DUP1 PUSH4 0xD5391393 EQ PUSH2 0x6A8 JUMPI DUP1 PUSH4 0xD547741F EQ PUSH2 0x6C6 JUMPI PUSH2 0x23D JUMP JUMPDEST DUP1 PUSH4 0x8E0AD1CC GT PUSH2 0xFF JUMPI DUP1 PUSH4 0x8E0AD1CC EQ PUSH2 0x572 JUMPI DUP1 PUSH4 0x91D14854 EQ PUSH2 0x5A2 JUMPI DUP1 PUSH4 0x95D89B41 EQ PUSH2 0x5D2 JUMPI DUP1 PUSH4 0xA217FDDF EQ PUSH2 0x5F0 JUMPI DUP1 PUSH4 0xA9059CBB EQ PUSH2 0x60E JUMPI PUSH2 0x23D JUMP JUMPDEST DUP1 PUSH4 0x79CC6790 EQ PUSH2 0x4C8 JUMPI DUP1 PUSH4 0x7ECEBE00 EQ PUSH2 0x4E4 JUMPI DUP1 PUSH4 0x84B0196E EQ PUSH2 0x514 JUMPI DUP1 PUSH4 0x883F24EC EQ PUSH2 0x538 JUMPI DUP1 PUSH4 0x8DA5CB5B EQ PUSH2 0x554 JUMPI PUSH2 0x23D JUMP JUMPDEST DUP1 PUSH4 0x2F2FF15D GT PUSH2 0x1C9 JUMPI DUP1 PUSH4 0x42966C68 GT PUSH2 0x18D JUMPI DUP1 PUSH4 0x42966C68 EQ PUSH2 0x422 JUMPI DUP1 PUSH4 0x587BBCA2 EQ PUSH2 0x43E JUMPI DUP1 PUSH4 0x5C975ABB EQ PUSH2 0x470 JUMPI DUP1 PUSH4 0x70A08231 EQ PUSH2 0x48E JUMPI DUP1 PUSH4 0x715018A6 EQ PUSH2 0x4BE JUMPI PUSH2 0x23D JUMP JUMPDEST DUP1 PUSH4 0x2F2FF15D EQ PUSH2 0x392 JUMPI DUP1 PUSH4 0x313CE567 EQ PUSH2 0x3AE JUMPI DUP1 PUSH4 0x3644E515 EQ PUSH2 0x3CC JUMPI DUP1 PUSH4 0x36568ABE EQ PUSH2 0x3EA JUMPI DUP1 PUSH4 0x40C10F19 EQ PUSH2 0x406 JUMPI PUSH2 0x23D JUMP JUMPDEST DUP1 PUSH4 0x16C38B3C GT PUSH2 0x210 JUMPI DUP1 PUSH4 0x16C38B3C EQ PUSH2 0x2DC JUMPI DUP1 PUSH4 0x17456E56 EQ PUSH2 0x2F8 JUMPI DUP1 PUSH4 0x18160DDD EQ PUSH2 0x314 JUMPI DUP1 PUSH4 0x23B872DD EQ PUSH2 0x332 JUMPI DUP1 PUSH4 0x248A9CA3 EQ PUSH2 0x362 JUMPI PUSH2 0x23D JUMP JUMPDEST DUP1 PUSH4 0x1FFC9A7 EQ PUSH2 0x242 JUMPI DUP1 PUSH4 0x6FDDE03 EQ PUSH2 0x272 JUMPI DUP1 PUSH4 0x95EA7B3 EQ PUSH2 0x290 JUMPI DUP1 PUSH4 0x14C360A2 EQ PUSH2 0x2C0 JUMPI JUMPDEST PUSH1 0x0 DUP1 REVERT JUMPDEST PUSH2 0x25C PUSH1 0x4 DUP1 CALLDATASIZE SUB DUP2 ADD SWAP1 PUSH2 0x257 SWAP2 SWAP1 PUSH2 0x3782 JUMP JUMPDEST PUSH2 0x786 JUMP JUMPDEST PUSH1 0x40 MLOAD PUSH2 0x269 SWAP2 SWAP1 PUSH2 0x37CA JUMP JUMPDEST PUSH1 0x40 MLOAD DUP1 SWAP2 SUB SWAP1 RETURN JUMPDEST PUSH2 0x27A PUSH2 0x800 JUMP JUMPDEST PUSH1 0x40 MLOAD PUSH2 0x287 SWAP2 SWAP1 PUSH2 0x3875 JUMP JUMPDEST PUSH1 0x40 MLOAD DUP1 SWAP2 SUB SWAP1 RETURN JUMPDEST PUSH2 0x2AA PUSH1 0x4 DUP1 CALLDATASIZE SUB DUP2 ADD SWAP1 PUSH2 0x2A5 SWAP2 SWAP1 PUSH2 0x392B JUMP JUMPDEST PUSH2 0x892 JUMP JUMPDEST PUSH1 0x40 MLOAD PUSH2 0x2B7 SWAP2 SWAP1 PUSH2 0x37CA JUMP JUMPDEST PUSH1 0x40 MLOAD DUP1 SWAP2 SUB SWAP1 RETURN JUMPDEST PUSH2 0x2DA PUSH1 0x4 DUP1 CALLDATASIZE SUB DUP2 ADD SWAP1 PUSH2 0x2D5 SWAP2 SWAP1 PUSH2 0x39D0 JUMP JUMPDEST PUSH2 0x8B5 JUMP JUMPDEST STOP JUMPDEST PUSH2 0x2F6 PUSH1 0x4 DUP1 CALLDATASIZE SUB DUP2 ADD SWAP1 PUSH2 0x2F1 SWAP2 SWAP1 PUSH2 0x3A5C JUMP JUMPDEST PUSH2 0xA6C JUMP JUMPDEST STOP JUMPDEST PUSH2 0x312 PUSH1 0x4 DUP1 CALLDATASIZE SUB DUP2 ADD SWAP1 PUSH2 0x30D SWAP2 SWAP1 PUSH2 0x3A89 JUMP JUMPDEST PUSH2 0xAEA JUMP JUMPDEST STOP JUMPDEST PUSH2 0x31C PUSH2 0xC73 JUMP JUMPDEST PUSH1 0x40 MLOAD PUSH2 0x329 SWAP2 SWAP1 PUSH2 0x3AF8 JUMP JUMPDEST PUSH1 0x40 MLOAD DUP1 SWAP2 SUB SWAP1 RETURN JUMPDEST PUSH2 0x34C PUSH1 0x4 DUP1 CALLDATASIZE SUB DUP2 ADD SWAP1 PUSH2 0x347 SWAP2 SWAP1 PUSH2 0x3B13 JUMP JUMPDEST PUSH2 0xC7D JUMP JUMPDEST PUSH1 0x40 MLOAD PUSH2 0x359 SWAP2 SWAP1 PUSH2 0x37CA JUMP JUMPDEST PUSH1 0x40 MLOAD DUP1 SWAP2 SUB SWAP1 RETURN JUMPDEST PUSH2 0x37C PUSH1 0x4 DUP1 CALLDATASIZE SUB DUP2 ADD SWAP1 PUSH2 0x377 SWAP2 SWAP1 PUSH2 0x3B9C JUMP JUMPDEST PUSH2 0xCAC JUMP JUMPDEST PUSH1 0x40 MLOAD PUSH2 0x389 SWAP2 SWAP1 PUSH2 0x3BD8 JUMP JUMPDEST PUSH1 0x40 MLOAD DUP1 SWAP2 SUB SWAP1 RETURN JUMPDEST PUSH2 0x3AC PUSH1 0x4 DUP1 CALLDATASIZE SUB DUP2 ADD SWAP1 PUSH2 0x3A7 SWAP2 SWAP1 PUSH2 0x3BF3 JUMP JUMPDEST PUSH2 0xCCC JUMP JUMPDEST STOP JUMPDEST PUSH2 0x3B6 PUSH2 0xCEE JUMP JUMPDEST PUSH1 0x40 MLOAD PUSH2 0x3C3 SWAP2 SWAP1 PUSH2 0x3C4F JUMP JUMPDEST PUSH1 0x40 MLOAD DUP1 SWAP2 SUB SWAP1 RETURN JUMPDEST PUSH2 0x3D4 PUSH2 0xCF7 JUMP JUMPDEST PUSH1 0x40 MLOAD PUSH2 0x3E1 SWAP2 SWAP1 PUSH2 0x3BD8 JUMP JUMPDEST PUSH1 0x40 MLOAD DUP1 SWAP2 SUB SWAP1 RETURN JUMPDEST PUSH2 0x404 PUSH1 0x4 DUP1 CALLDATASIZE SUB DUP2 ADD SWAP1 PUSH2 0x3FF SWAP2 SWAP1 PUSH2 0x3BF3 JUMP JUMPDEST PUSH2 0xD06 JUMP JUMPDEST STOP JUMPDEST PUSH2 0x420 PUSH1 0x4 DUP1 CALLDATASIZE SUB DUP2 ADD SWAP1 PUSH2 0x41B SWAP2 SWAP1 PUSH2 0x392B JUMP JUMPDEST PUSH2 0xD81 JUMP JUMPDEST STOP JUMPDEST PUSH2 0x43C PUSH1 0x4 DUP1 CALLDATASIZE SUB DUP2 ADD SWAP1 PUSH2 0x437 SWAP2 SWAP1 PUSH2 0x3C6A JUMP JUMPDEST PUSH2 0xF07 JUMP JUMPDEST STOP JUMPDEST PUSH2 0x458 PUSH1 0x4 DUP1 CALLDATASIZE SUB DUP2 ADD SWAP1 PUSH2 0x453 SWAP2 SWAP1 PUSH2 0x3DC7 JUMP JUMPDEST PUSH2 0xFEB JUMP JUMPDEST PUSH1 0x40 MLOAD PUSH2 0x467 SWAP4 SWAP3 SWAP2 SWAP1 PUSH2 0x3E1F JUMP JUMPDEST PUSH1 0x40 MLOAD DUP1 SWAP2 SUB SWAP1 RETURN JUMPDEST PUSH2 0x478 PUSH2 0x1058 JUMP JUMPDEST PUSH1 0x40 MLOAD PUSH2 0x485 SWAP2 SWAP1 PUSH2 0x37CA JUMP JUMPDEST PUSH1 0x40 MLOAD DUP1 SWAP2 SUB SWAP1 RETURN JUMPDEST PUSH2 0x4A8 PUSH1 0x4 DUP1 CALLDATASIZE SUB DUP2 ADD SWAP1 PUSH2 0x4A3 SWAP2 SWAP1 PUSH2 0x3E56 JUMP JUMPDEST PUSH2 0x106B JUMP JUMPDEST PUSH1 0x40 MLOAD PUSH2 0x4B5 SWAP2 SWAP1 PUSH2 0x3AF8 JUMP JUMPDEST PUSH1 0x40 MLOAD DUP1 SWAP2 SUB SWAP1 RETURN JUMPDEST PUSH2 0x4C6 PUSH2 0x10B3 JUMP JUMPDEST STOP JUMPDEST PUSH2 0x4E2 PUSH1 0x4 DUP1 CALLDATASIZE SUB DUP2 ADD SWAP1 PUSH2 0x4DD SWAP2 SWAP1 PUSH2 0x392B JUMP JUMPDEST PUSH2 0x10C7 JUMP JUMPDEST STOP JUMPDEST PUSH2 0x4FE PUSH1 0x4 DUP1 CALLDATASIZE SUB DUP2 ADD SWAP1 PUSH2 0x4F9 SWAP2 SWAP1 PUSH2 0x3E56 JUMP JUMPDEST PUSH2 0x10E7 JUMP JUMPDEST PUSH1 0x40 MLOAD PUSH2 0x50B SWAP2 SWAP1 PUSH2 0x3AF8 JUMP JUMPDEST PUSH1 0x40 MLOAD DUP1 SWAP2 SUB SWAP1 RETURN JUMPDEST PUSH2 0x51C PUSH2 0x10F9 JUMP JUMPDEST PUSH1 0x40 MLOAD PUSH2 0x52F SWAP8 SWAP7 SWAP6 SWAP5 SWAP4 SWAP3 SWAP2 SWAP1 PUSH2 0x3F7C JUMP JUMPDEST PUSH1 0x40 MLOAD DUP1 SWAP2 SUB SWAP1 RETURN JUMPDEST PUSH2 0x552 PUSH1 0x4 DUP1 CALLDATASIZE SUB DUP2 ADD SWAP1 PUSH2 0x54D SWAP2 SWAP1 PUSH2 0x402C JUMP JUMPDEST PUSH2 0x11A3 JUMP JUMPDEST STOP JUMPDEST PUSH2 0x55C PUSH2 0x1275 JUMP JUMPDEST PUSH1 0x40 MLOAD PUSH2 0x569 SWAP2 SWAP1 PUSH2 0x40B4 JUMP JUMPDEST PUSH1 0x40 MLOAD DUP1 SWAP2 SUB SWAP1 RETURN JUMPDEST PUSH2 0x58C PUSH1 0x4 DUP1 CALLDATASIZE SUB DUP2 ADD SWAP1 PUSH2 0x587 SWAP2 SWAP1 PUSH2 0x40CF JUMP JUMPDEST PUSH2 0x129F JUMP JUMPDEST PUSH1 0x40 MLOAD PUSH2 0x599 SWAP2 SWAP1 PUSH2 0x417C JUMP JUMPDEST PUSH1 0x40 MLOAD DUP1 SWAP2 SUB SWAP1 RETURN JUMPDEST PUSH2 0x5BC PUSH1 0x4 DUP1 CALLDATASIZE SUB DUP2 ADD SWAP1 PUSH2 0x5B7 SWAP2 SWAP1 PUSH2 0x3BF3 JUMP JUMPDEST PUSH2 0x13A8 JUMP JUMPDEST PUSH1 0x40 MLOAD PUSH2 0x5C9 SWAP2 SWAP1 PUSH2 0x37CA JUMP JUMPDEST PUSH1 0x40 MLOAD DUP1 SWAP2 SUB SWAP1 RETURN JUMPDEST PUSH2 0x5DA PUSH2 0x1413 JUMP JUMPDEST PUSH1 0x40 MLOAD PUSH2 0x5E7 SWAP2 SWAP1 PUSH2 0x3875 JUMP JUMPDEST PUSH1 0x40 MLOAD DUP1 SWAP2 SUB SWAP1 RETURN JUMPDEST PUSH2 0x5F8 PUSH2 0x14A5 JUMP JUMPDEST PUSH1 0x40 MLOAD PUSH2 0x605 SWAP2 SWAP1 PUSH2 0x3BD8 JUMP JUMPDEST PUSH1 0x40 MLOAD DUP1 SWAP2 SUB SWAP1 RETURN JUMPDEST PUSH2 0x628 PUSH1 0x4 DUP1 CALLDATASIZE SUB DUP2 ADD SWAP1 PUSH2 0x623 SWAP2 SWAP1 PUSH2 0x392B JUMP JUMPDEST PUSH2 0x14AC JUMP JUMPDEST PUSH1 0x40 MLOAD PUSH2 0x635 SWAP2 SWAP1 PUSH2 0x37CA JUMP JUMPDEST PUSH1 0x40 MLOAD DUP1 SWAP2 SUB SWAP1 RETURN JUMPDEST PUSH2 0x658 PUSH1 0x4 DUP1 CALLDATASIZE SUB DUP2 ADD SWAP1 PUSH2 0x653 SWAP2 SWAP1 PUSH2 0x4197 JUMP JUMPDEST PUSH2 0x14CF JUMP JUMPDEST PUSH1 0x40 MLOAD PUSH2 0x665 SWAP2 SWAP1 PUSH2 0x3AF8 JUMP JUMPDEST PUSH1 0x40 MLOAD DUP1 SWAP2 SUB SWAP1 RETURN JUMPDEST PUSH2 0x676 PUSH2 0x1620 JUMP JUMPDEST PUSH1 0x40 MLOAD PUSH2 0x683 SWAP2 SWAP1 PUSH2 0x4317 JUMP JUMPDEST PUSH1 0x40 MLOAD DUP1 SWAP2 SUB SWAP1 RETURN JUMPDEST PUSH2 0x6A6 PUSH1 0x4 DUP1 CALLDATASIZE SUB DUP2 ADD SWAP1 PUSH2 0x6A1 SWAP2 SWAP1 PUSH2 0x4339 JUMP JUMPDEST PUSH2 0x16F9 JUMP JUMPDEST STOP JUMPDEST PUSH2 0x6B0 PUSH2 0x1841 JUMP JUMPDEST PUSH1 0x40 MLOAD PUSH2 0x6BD SWAP2 SWAP1 PUSH2 0x3BD8 JUMP JUMPDEST PUSH1 0x40 MLOAD DUP1 SWAP2 SUB SWAP1 RETURN JUMPDEST PUSH2 0x6E0 PUSH1 0x4 DUP1 CALLDATASIZE SUB DUP2 ADD SWAP1 PUSH2 0x6DB SWAP2 SWAP1 PUSH2 0x3BF3 JUMP JUMPDEST PUSH2 0x1865 JUMP JUMPDEST STOP JUMPDEST PUSH2 0x6FC PUSH1 0x4 DUP1 CALLDATASIZE SUB DUP2 ADD SWAP1 PUSH2 0x6F7 SWAP2 SWAP1 PUSH2 0x4197 JUMP JUMPDEST PUSH2 0x1887 JUMP JUMPDEST STOP JUMPDEST PUSH2 0x718 PUSH1 0x4 DUP1 CALLDATASIZE SUB DUP2 ADD SWAP1 PUSH2 0x713 SWAP2 SWAP1 PUSH2 0x43DB JUMP JUMPDEST PUSH2 0x1B2F JUMP JUMPDEST PUSH1 0x40 MLOAD PUSH2 0x725 SWAP2 SWAP1 PUSH2 0x3AF8 JUMP JUMPDEST PUSH1 0x40 MLOAD DUP1 SWAP2 SUB SWAP1 RETURN JUMPDEST PUSH2 0x736 PUSH2 0x1BB6 JUMP JUMPDEST PUSH1 0x40 MLOAD PUSH2 0x743 SWAP2 SWAP1 PUSH2 0x3AF8 JUMP JUMPDEST PUSH1 0x40 MLOAD DUP1 SWAP2 SUB SWAP1 RETURN JUMPDEST PUSH2 0x766 PUSH1 0x4 DUP1 CALLDATASIZE SUB DUP2 ADD SWAP1 PUSH2 0x761 SWAP2 SWAP1 PUSH2 0x3E56 JUMP JUMPDEST PUSH2 0x1BDA JUMP JUMPDEST STOP JUMPDEST PUSH2 0x770 PUSH2 0x1C60 JUMP JUMPDEST PUSH1 0x40 MLOAD PUSH2 0x77D SWAP2 SWAP1 PUSH2 0x3BD8 JUMP JUMPDEST PUSH1 0x40 MLOAD DUP1 SWAP2 SUB SWAP1 RETURN JUMPDEST PUSH1 0x0 PUSH32 0x7965DB0B00000000000000000000000000000000000000000000000000000000 PUSH28 0xFFFFFFFFFFFFFFFFFFFFFFFFFFFFFFFFFFFFFFFFFFFFFFFFFFFFFFFF NOT AND DUP3 PUSH28 0xFFFFFFFFFFFFFFFFFFFFFFFFFFFFFFFFFFFFFFFFFFFFFFFFFFFFFFFF NOT AND EQ DUP1 PUSH2 0x7F9 JUMPI POP PUSH2 0x7F8 DUP3 PUSH2 0x1C84 JUMP JUMPDEST JUMPDEST SWAP1 POP SWAP2 SWAP1 POP JUMP JUMPDEST PUSH1 0x60 PUSH1 0x3 DUP1 SLOAD PUSH2 0x80F SWAP1 PUSH2 0x444A JUMP JUMPDEST DUP1 PUSH1 0x1F ADD PUSH1 0x20 DUP1 SWAP2 DIV MUL PUSH1 0x20 ADD PUSH1 0x40 MLOAD SWAP1 DUP2 ADD PUSH1 0x40 MSTORE DUP1 SWAP3 SWAP2 SWAP1 DUP2 DUP2 MSTORE PUSH1 0x20 ADD DUP3 DUP1 SLOAD PUSH2 0x83B SWAP1 PUSH2 0x444A JUMP JUMPDEST DUP1 ISZERO PUSH2 0x888 JUMPI DUP1 PUSH1 0x1F LT PUSH2 0x85D JUMPI PUSH2 0x100 DUP1 DUP4 SLOAD DIV MUL DUP4 MSTORE SWAP2 PUSH1 0x20 ADD SWAP2 PUSH2 0x888 JUMP JUMPDEST DUP3 ADD SWAP2 SWAP1 PUSH1 0x0 MSTORE PUSH1 0x20 PUSH1 0x0 KECCAK256 SWAP1 JUMPDEST DUP2 SLOAD DUP2 MSTORE SWAP1 PUSH1 0x1 ADD SWAP1 PUSH1 0x20 ADD DUP1 DUP4 GT PUSH2 0x86B JUMPI DUP3 SWAP1 SUB PUSH1 0x1F AND DUP3 ADD SWAP2 JUMPDEST POP POP POP POP POP SWAP1 POP SWAP1 JUMP JUMPDEST PUSH1 0x0 DUP1 PUSH2 0x89D PUSH2 0x1CEE JUMP JUMPDEST SWAP1 POP PUSH2 0x8AA DUP2 DUP6 DUP6 PUSH2 0x1CF6 JUMP JUMPDEST PUSH1 0x1 SWAP2 POP POP SWAP3 SWAP2 POP POP JUMP JUMPDEST PUSH32 0xE9EB2D474DBF4AD0AF01DBC745EC0E55D70CA9366FE9B52307997E913BAD905C PUSH2 0x8DF DUP2 PUSH2 0x1D08 JUMP JUMPDEST PUSH1 0xB PUSH1 0x0 SWAP1 SLOAD SWAP1 PUSH2 0x100 EXP SWAP1 DIV PUSH1 0xFF AND ISZERO PUSH2 0x92F JUMPI PUSH1 0x40 MLOAD PUSH32 0x8C379A000000000000000000000000000000000000000000000000000000000 DUP2 MSTORE PUSH1 0x4 ADD PUSH2 0x926 SWAP1 PUSH2 0x44C7 JUMP JUMPDEST PUSH1 0x40 MLOAD DUP1 SWAP2 SUB SWAP1 REVERT JUMPDEST PUSH1 0x0 DUP5 DUP5 SWAP1 POP SUB PUSH2 0x96C JUMPI PUSH1 0x40 MLOAD PUSH32 0x19C7070A00000000000000000000000000000000000000000000000000000000 DUP2 MSTORE PUSH1 0x4 ADD PUSH1 0x40 MLOAD DUP1 SWAP2 SUB SWAP1 REVERT JUMPDEST PUSH1 0x0 DUP3 SUB PUSH2 0x9A6 JUMPI PUSH1 0x40 MLOAD PUSH32 0x2689AC4300000000000000000000000000000000000000000000000000000000 DUP2 MSTORE PUSH1 0x4 ADD PUSH1 0x40 MLOAD DUP1 SWAP2 SUB SWAP1 REVERT JUMPDEST PUSH1 0x0 PUSH1 0xD DUP6 DUP6 PUSH1 0x40 MLOAD PUSH2 0x9BA SWAP3 SWAP2 SWAP1 PUSH2 0x4517 JUMP JUMPDEST SWAP1 DUP2 MSTORE PUSH1 0x20 ADD PUSH1 0x40 MLOAD DUP1 SWAP2 SUB SWAP1 KECCAK256 SWAP1 POP PUSH1 0x0 DUP2 PUSH1 0x0 ADD SLOAD SUB PUSH2 0xA15 JUMPI DUP5 DUP5 PUSH1 0x40 MLOAD PUSH32 0xC16FC3AD00000000000000000000000000000000000000000000000000000000 DUP2 MSTORE PUSH1 0x4 ADD PUSH2 0xA0C SWAP3 SWAP2 SWAP1 PUSH2 0x455D JUMP JUMPDEST PUSH1 0x40 MLOAD DUP1 SWAP2 SUB SWAP1 REVERT JUMPDEST PUSH1 0x0 DUP2 PUSH1 0x0 ADD SLOAD SWAP1 POP DUP4 DUP3 PUSH1 0x0 ADD DUP2 SWAP1 SSTORE POP PUSH32 0x301886E6C7C3689607C20B38181FEBF7ED6A192D69F4FD79065FD0FC869323B6 DUP7 DUP7 DUP4 DUP8 PUSH1 0x40 MLOAD PUSH2 0xA5C SWAP5 SWAP4 SWAP3 SWAP2 SWAP1 PUSH2 0x4581 JUMP JUMPDEST PUSH1 0x40 MLOAD DUP1 SWAP2 SUB SWAP1 LOG1 POP POP POP POP POP POP JUMP JUMPDEST PUSH1 0x0 DUP1 SHL PUSH2 0xA79 DUP2 PUSH2 0x1D08 JUMP JUMPDEST DUP2 ISZERO ISZERO PUSH1 0xB PUSH1 0x0 SWAP1 SLOAD SWAP1 PUSH2 0x100 EXP SWAP1 DIV PUSH1 0xFF AND ISZERO ISZERO SUB ISZERO PUSH2 0xAE6 JUMPI DUP2 PUSH1 0xB PUSH1 0x0 PUSH2 0x100 EXP DUP2 SLOAD DUP2 PUSH1 0xFF MUL NOT AND SWAP1 DUP4 ISZERO ISZERO MUL OR SWAP1 SSTORE POP PUSH32 0x9E3A5E37224532DEA67B89FACE185703738A228A6E8A23DEE546960180D3BE64 DUP3 PUSH1 0x40 MLOAD PUSH2 0xADD SWAP2 SWAP1 PUSH2 0x37CA JUMP JUMPDEST PUSH1 0x40 MLOAD DUP1 SWAP2 SUB SWAP1 LOG1 JUMPDEST POP POP JUMP JUMPDEST PUSH32 0xE9EB2D474DBF4AD0AF01DBC745EC0E55D70CA9366FE9B52307997E913BAD905C PUSH2 0xB14 DUP2 PUSH2 0x1D08 JUMP JUMPDEST PUSH1 0xB PUSH1 0x0 SWAP1 SLOAD SWAP1 PUSH2 0x100 EXP SWAP1 DIV PUSH1 0xFF AND ISZERO PUSH2 0xB64 JUMPI PUSH1 0x40 MLOAD PUSH32 0x8C379A000000000000000000000000000000000000000000000000000000000 DUP2 MSTORE PUSH1 0x4 ADD PUSH2 0xB5B SWAP1 PUSH2 0x44C7 JUMP JUMPDEST PUSH1 0x40 MLOAD DUP1 SWAP2 SUB SWAP1 REVERT JUMPDEST PUSH1 0x0 DUP5 DUP5 SWAP1 POP SUB PUSH2 0xBA1 JUMPI PUSH1 0x40 MLOAD PUSH32 0x19C7070A00000000000000000000000000000000000000000000000000000000 DUP2 MSTORE PUSH1 0x4 ADD PUSH1 0x40 MLOAD DUP1 SWAP2 SUB SWAP1 REVERT JUMPDEST PUSH1 0x0 PUSH1 0xD DUP6 DUP6 PUSH1 0x40 MLOAD PUSH2 0xBB5 SWAP3 SWAP2 SWAP1 PUSH2 0x4517 JUMP JUMPDEST SWAP1 DUP2 MSTORE PUSH1 0x20 ADD PUSH1 0x40 MLOAD DUP1 SWAP2 SUB SWAP1 KECCAK256 PUSH1 0x0 ADD SLOAD SUB PUSH2 0xC0B JUMPI DUP4 DUP4 PUSH1 0x40 MLOAD PUSH32 0xC16FC3AD00000000000000000000000000000000000000000000000000000000 DUP2 MSTORE PUSH1 0x4 ADD PUSH2 0xC02 SWAP3 SWAP2 SWAP1 PUSH2 0x455D JUMP JUMPDEST PUSH1 0x40 MLOAD DUP1 SWAP2 SUB SWAP1 REVERT JUMPDEST DUP2 PUSH1 0xD DUP6 DUP6 PUSH1 0x40 MLOAD PUSH2 0xC1E SWAP3 SWAP2 SWAP1 PUSH2 0x4517 JUMP JUMPDEST SWAP1 DUP2 MSTORE PUSH1 0x20 ADD PUSH1 0x40 MLOAD DUP1 SWAP2 SUB SWAP1 KECCAK256 PUSH1 0x1 ADD PUSH1 0x0 PUSH2 0x100 EXP DUP2 SLOAD DUP2 PUSH20 0xFFFFFFFFFFFFFFFFFFFFFFFFFFFFFFFFFFFFFFFF MUL NOT AND SWAP1 DUP4 PUSH20 0xFFFFFFFFFFFFFFFFFFFFFFFFFFFFFFFFFFFFFFFF AND MUL OR SWAP1 SSTORE POP POP POP POP POP JUMP JUMPDEST PUSH1 0x0 PUSH1 0x2 SLOAD SWAP1 POP SWAP1 JUMP JUMPDEST PUSH1 0x0 DUP1 PUSH2 0xC88 PUSH2 0x1CEE JUMP JUMPDEST SWAP1 POP PUSH2 0xC95 DUP6 DUP3 DUP6 PUSH2 0x1D1C JUMP JUMPDEST PUSH2 0xCA0 DUP6 DUP6 DUP6 PUSH2 0x1DB0 JUMP JUMPDEST PUSH1 0x1 SWAP2 POP POP SWAP4 SWAP3 POP POP POP JUMP JUMPDEST PUSH1 0x0 PUSH1 0x9 PUSH1 0x0 DUP4 DUP2 MSTORE PUSH1 0x20 ADD SWAP1 DUP2 MSTORE PUSH1 0x20 ADD PUSH1 0x0 KECCAK256 PUSH1 0x1 ADD SLOAD SWAP1 POP SWAP2 SWAP1 POP JUMP JUMPDEST PUSH2 0xCD5 DUP3 PUSH2 0xCAC JUMP JUMPDEST PUSH2 0xCDE DUP2 PUSH2 0x1D08 JUMP JUMPDEST PUSH2 0xCE8 DUP4 DUP4 PUSH2 0x1EA4 JUMP JUMPDEST POP POP POP POP JUMP JUMPDEST PUSH1 0x0 PUSH1 0x12 SWAP1 POP SWAP1 JUMP JUMPDEST PUSH1 0x0 PUSH2 0xD01 PUSH2 0x1F96 JUMP JUMPDEST SWAP1 POP SWAP1 JUMP JUMPDEST PUSH2 0xD0E PUSH2 0x1CEE JUMP JUMPDEST PUSH20 0xFFFFFFFFFFFFFFFFFFFFFFFFFFFFFFFFFFFFFFFF AND DUP2 PUSH20 0xFFFFFFFFFFFFFFFFFFFFFFFFFFFFFFFFFFFFFFFF AND EQ PUSH2 0xD72 JUMPI PUSH1 0x40 MLOAD PUSH32 0x6697B23200000000000000000000000000000000000000000000000000000000 DUP2 MSTORE PUSH1 0x4 ADD PUSH1 0x40 MLOAD DUP1 SWAP2 SUB SWAP1 REVERT JUMPDEST PUSH2 0xD7C DUP3 DUP3 PUSH2 0x204D JUMP JUMPDEST POP POP POP JUMP JUMPDEST PUSH32 0x9F2DF0FED2C77648DE5860A4CC508CD0818C85B8B8A1AB4CEEEF8D981C8956A6 PUSH2 0xDAB DUP2 PUSH2 0x1D08 JUMP JUMPDEST PUSH1 0xB PUSH1 0x0 SWAP1 SLOAD SWAP1 PUSH2 0x100 EXP SWAP1 DIV PUSH1 0xFF AND ISZERO PUSH2 0xDFB JUMPI PUSH1 0x40 MLOAD PUSH32 0x8C379A000000000000000000000000000000000000000000000000000000000 DUP2 MSTORE PUSH1 0x4 ADD PUSH2 0xDF2 SWAP1 PUSH2 0x44C7 JUMP JUMPDEST PUSH1 0x40 MLOAD DUP1 SWAP2 SUB SWAP1 REVERT JUMPDEST PUSH1 0x0 DUP3 SUB PUSH2 0xE35 JUMPI PUSH1 0x40 MLOAD PUSH32 0x1F2A200500000000000000000000000000000000000000000000000000000000 DUP2 MSTORE PUSH1 0x4 ADD PUSH1 0x40 MLOAD DUP1 SWAP2 SUB SWAP1 REVERT JUMPDEST PUSH32 0x0 DUP3 PUSH2 0xE5F PUSH2 0xC73 JUMP JUMPDEST PUSH2 0xE69 SWAP2 SWAP1 PUSH2 0x45F0 JUMP JUMPDEST GT ISZERO PUSH2 0xEAA JUMPI PUSH1 0x40 MLOAD PUSH32 0x8C379A000000000000000000000000000000000000000000000000000000000 DUP2 MSTORE PUSH1 0x4 ADD PUSH2 0xEA1 SWAP1 PUSH2 0x4670 JUMP JUMPDEST PUSH1 0x40 MLOAD DUP1 SWAP2 SUB SWAP1 REVERT JUMPDEST PUSH2 0xEB4 DUP4 DUP4 PUSH2 0x2140 JUMP JUMPDEST DUP3 PUSH20 0xFFFFFFFFFFFFFFFFFFFFFFFFFFFFFFFFFFFFFFFF AND PUSH32 0x3F2C9D57C068687834F0DE942A9BABB9E5ACAB57D516D3480A3C16EE165A4273 DUP4 PUSH1 0x40 MLOAD PUSH2 0xEFA SWAP2 SWAP1 PUSH2 0x3AF8 JUMP JUMPDEST PUSH1 0x40 MLOAD DUP1 SWAP2 SUB SWAP1 LOG2 POP POP POP JUMP JUMPDEST PUSH1 0xB PUSH1 0x0 SWAP1 SLOAD SWAP1 PUSH2 0x100 EXP SWAP1 DIV PUSH1 0xFF AND ISZERO PUSH2 0xF57 JUMPI PUSH1 0x40 MLOAD PUSH32 0x8C379A000000000000000000000000000000000000000000000000000000000 DUP2 MSTORE PUSH1 0x4 ADD PUSH2 0xF4E SWAP1 PUSH2 0x44C7 JUMP JUMPDEST PUSH1 0x40 MLOAD DUP1 SWAP2 SUB SWAP1 REVERT JUMPDEST PUSH1 0x0 DUP2 SUB PUSH2 0xF91 JUMPI PUSH1 0x40 MLOAD PUSH32 0x1F2A200500000000000000000000000000000000000000000000000000000000 DUP2 MSTORE PUSH1 0x4 ADD PUSH1 0x40 MLOAD DUP1 SWAP2 SUB SWAP1 REVERT JUMPDEST PUSH2 0xF9A DUP2 PUSH2 0x21C2 JUMP JUMPDEST CALLER PUSH20 0xFFFFFFFFFFFFFFFFFFFFFFFFFFFFFFFFFFFFFFFF AND PUSH32 0xFD38818F5291BF0BB3A2A48AADC06BA8757865D1DABD804585338AAB3009DCB6 DUP3 PUSH1 0x40 MLOAD PUSH2 0xFE0 SWAP2 SWAP1 PUSH2 0x3AF8 JUMP JUMPDEST PUSH1 0x40 MLOAD DUP1 SWAP2 SUB SWAP1 LOG2 POP JUMP JUMPDEST PUSH1 0xD DUP2 DUP1 MLOAD PUSH1 0x20 DUP2 ADD DUP3 ADD DUP1 MLOAD DUP5 DUP3 MSTORE PUSH1 0x20 DUP4 ADD PUSH1 0x20 DUP6 ADD KECCAK256 DUP2 DUP4 MSTORE DUP1 SWAP6 POP POP POP POP POP POP PUSH1 0x0 SWAP2 POP SWAP1 POP DUP1 PUSH1 0x0 ADD SLOAD SWAP1 DUP1 PUSH1 0x1 ADD PUSH1 0x0 SWAP1 SLOAD SWAP1 PUSH2 0x100 EXP SWAP1 DIV PUSH20 0xFFFFFFFFFFFFFFFFFFFFFFFFFFFFFFFFFFFFFFFF AND SWAP1 DUP1 PUSH1 0x1 ADD PUSH1 0x14 SWAP1 SLOAD SWAP1 PUSH2 0x100 EXP SWAP1 DIV PUSH1 0xFF AND SWAP1 POP DUP4 JUMP JUMPDEST PUSH1 0xB PUSH1 0x0 SWAP1 SLOAD SWAP1 PUSH2 0x100 EXP SWAP1 DIV PUSH1 0xFF AND DUP2 JUMP JUMPDEST PUSH1 0x0 DUP1 PUSH1 0x0 DUP4 PUSH20 0xFFFFFFFFFFFFFFFFFFFFFFFFFFFFFFFFFFFFFFFF AND PUSH20 0xFFFFFFFFFFFFFFFFFFFFFFFFFFFFFFFFFFFFFFFF AND DUP2 MSTORE PUSH1 0x20 ADD SWAP1 DUP2 MSTORE PUSH1 0x20 ADD PUSH1 0x0 KECCAK256 SLOAD SWAP1 POP SWAP2 SWAP1 POP JUMP JUMPDEST PUSH2 0x10BB PUSH2 0x21D6 JUMP JUMPDEST PUSH2 0x10C5 PUSH1 0x0 PUSH2 0x225D JUMP JUMPDEST JUMP JUMPDEST PUSH2 0x10D9 DUP3 PUSH2 0x10D3 PUSH2 0x1CEE JUMP JUMPDEST DUP4 PUSH2 0x1D1C JUMP JUMPDEST PUSH2 0x10E3 DUP3 DUP3 PUSH2 0x2277 JUMP JUMPDEST POP POP JUMP JUMPDEST PUSH1 0x0 PUSH2 0x10F2 DUP3 PUSH2 0x22F9 JUMP JUMPDEST SWAP1 POP SWAP2 SWAP1 POP JUMP JUMPDEST PUSH1 0x0 PUSH1 0x60 DUP1 PUSH1 0x0 DUP1 PUSH1 0x0 PUSH1 0x60 PUSH2 0x110D PUSH2 0x2342 JUMP JUMPDEST PUSH2 0x1115 PUSH2 0x237D JUMP JUMPDEST CHAINID ADDRESS PUSH1 0x0 DUP1 SHL PUSH1 0x0 PUSH8 0xFFFFFFFFFFFFFFFF DUP2 GT ISZERO PUSH2 0x1136 JUMPI PUSH2 0x1135 PUSH2 0x3C9C JUMP JUMPDEST JUMPDEST PUSH1 0x40 MLOAD SWAP1 DUP1 DUP3 MSTORE DUP1 PUSH1 0x20 MUL PUSH1 0x20 ADD DUP3 ADD PUSH1 0x40 MSTORE DUP1 ISZERO PUSH2 0x1164 JUMPI DUP2 PUSH1 0x20 ADD PUSH1 0x20 DUP3 MUL DUP1 CALLDATASIZE DUP4 CALLDATACOPY DUP1 DUP3 ADD SWAP2 POP POP SWAP1 POP JUMPDEST POP PUSH32 0xF00000000000000000000000000000000000000000000000000000000000000 SWAP6 SWAP5 SWAP4 SWAP3 SWAP2 SWAP1 SWAP7 POP SWAP7 POP SWAP7 POP SWAP7 POP SWAP7 POP SWAP7 POP SWAP7 POP SWAP1 SWAP2 SWAP3 SWAP4 SWAP5 SWAP6 SWAP7 JUMP JUMPDEST PUSH32 0xE9EB2D474DBF4AD0AF01DBC745EC0E55D70CA9366FE9B52307997E913BAD905C PUSH2 0x11CD DUP2 PUSH2 0x1D08 JUMP JUMPDEST PUSH1 0xB PUSH1 0x0 SWAP1 SLOAD SWAP1 PUSH2 0x100 EXP SWAP1 DIV PUSH1 0xFF AND ISZERO PUSH2 0x121D JUMPI PUSH1 0x40 MLOAD PUSH32 0x8C379A000000000000000000000000000000000000000000000000000000000 DUP2 MSTORE PUSH1 0x4 ADD PUSH2 0x1214 SWAP1 PUSH2 0x44C7 JUMP JUMPDEST PUSH1 0x40 MLOAD DUP1 SWAP2 SUB SWAP1 REVERT JUMPDEST PUSH2 0x126D DUP7 DUP7 DUP1 DUP1 PUSH1 0x1F ADD PUSH1 0x20 DUP1 SWAP2 DIV MUL PUSH1 0x20 ADD PUSH1 0x40 MLOAD SWAP1 DUP2 ADD PUSH1 0x40 MSTORE DUP1 SWAP4 SWAP3 SWAP2 SWAP1 DUP2 DUP2 MSTORE PUSH1 0x20 ADD DUP4 DUP4 DUP1 DUP3 DUP5 CALLDATACOPY PUSH1 0x0 DUP2 DUP5 ADD MSTORE PUSH1 0x1F NOT PUSH1 0x1F DUP3 ADD AND SWAP1 POP DUP1 DUP4 ADD SWAP3 POP POP POP POP POP POP POP DUP6 DUP6 DUP6 PUSH2 0x23B8 JUMP JUMPDEST POP POP POP POP POP POP JUMP JUMPDEST PUSH1 0x0 PUSH1 0x5 PUSH1 0x0 SWAP1 SLOAD SWAP1 PUSH2 0x100 EXP SWAP1 DIV PUSH20 0xFFFFFFFFFFFFFFFFFFFFFFFFFFFFFFFFFFFFFFFF AND SWAP1 POP SWAP1 JUMP JUMPDEST PUSH2 0x12A7 PUSH2 0x36DC JUMP JUMPDEST PUSH1 0x0 PUSH1 0xD DUP5 DUP5 PUSH1 0x40 MLOAD PUSH2 0x12BB SWAP3 SWAP2 SWAP1 PUSH2 0x4517 JUMP JUMPDEST SWAP1 DUP2 MSTORE PUSH1 0x20 ADD PUSH1 0x40 MLOAD DUP1 SWAP2 SUB SWAP1 KECCAK256 PUSH1 0x40 MLOAD DUP1 PUSH1 0x60 ADD PUSH1 0x40 MSTORE SWAP1 DUP2 PUSH1 0x0 DUP3 ADD SLOAD DUP2 MSTORE PUSH1 0x20 ADD PUSH1 0x1 DUP3 ADD PUSH1 0x0 SWAP1 SLOAD SWAP1 PUSH2 0x100 EXP SWAP1 DIV PUSH20 0xFFFFFFFFFFFFFFFFFFFFFFFFFFFFFFFFFFFFFFFF AND PUSH20 0xFFFFFFFFFFFFFFFFFFFFFFFFFFFFFFFFFFFFFFFF AND PUSH20 0xFFFFFFFFFFFFFFFFFFFFFFFFFFFFFFFFFFFFFFFF AND DUP2 MSTORE PUSH1 0x20 ADD PUSH1 0x1 DUP3 ADD PUSH1 0x14 SWAP1 SLOAD SWAP1 PUSH2 0x100 EXP SWAP1 DIV PUSH1 0xFF AND PUSH1 0xFF AND PUSH1 0xFF AND DUP2 MSTORE POP POP SWAP1 POP PUSH1 0x0 DUP2 PUSH1 0x0 ADD MLOAD SUB PUSH2 0x139E JUMPI DUP4 DUP4 PUSH1 0x40 MLOAD PUSH32 0xC16FC3AD00000000000000000000000000000000000000000000000000000000 DUP2 MSTORE PUSH1 0x4 ADD PUSH2 0x1395 SWAP3 SWAP2 SWAP1 PUSH2 0x455D JUMP JUMPDEST PUSH1 0x40 MLOAD DUP1 SWAP2 SUB SWAP1 REVERT JUMPDEST DUP1 SWAP2 POP POP SWAP3 SWAP2 POP POP JUMP JUMPDEST PUSH1 0x0 PUSH1 0x9 PUSH1 0x0 DUP5 DUP2 MSTORE PUSH1 0x20 ADD SWAP1 DUP2 MSTORE PUSH1 0x20 ADD PUSH1 0x0 KECCAK256 PUSH1 0x0 ADD PUSH1 0x0 DUP4 PUSH20 0xFFFFFFFFFFFFFFFFFFFFFFFFFFFFFFFFFFFFFFFF AND PUSH20 0xFFFFFFFFFFFFFFFFFFFFFFFFFFFFFFFFFFFFFFFF AND DUP2 MSTORE PUSH1 0x20 ADD SWAP1 DUP2 MSTORE PUSH1 0x20 ADD PUSH1 0x0 KECCAK256 PUSH1 0x0 SWAP1 SLOAD SWAP1 PUSH2 0x100 EXP SWAP1 DIV PUSH1 0xFF AND SWAP1 POP SWAP3 SWAP2 POP POP JUMP JUMPDEST PUSH1 0x60 PUSH1 0x4 DUP1 SLOAD PUSH2 0x1422 SWAP1 PUSH2 0x444A JUMP JUMPDEST DUP1 PUSH1 0x1F ADD PUSH1 0x20 DUP1 SWAP2 DIV MUL PUSH1 0x20 ADD PUSH1 0x40 MLOAD SWAP1 DUP2 ADD PUSH1 0x40 MSTORE DUP1 SWAP3 SWAP2 SWAP1 DUP2 DUP2 MSTORE PUSH1 0x20 ADD DUP3 DUP1 SLOAD PUSH2 0x144E SWAP1 PUSH2 0x444A JUMP JUMPDEST DUP1 ISZERO PUSH2 0x149B JUMPI DUP1 PUSH1 0x1F LT PUSH2 0x1470 JUMPI PUSH2 0x100 DUP1 DUP4 SLOAD DIV MUL DUP4 MSTORE SWAP2 PUSH1 0x20 ADD SWAP2 PUSH2 0x149B JUMP JUMPDEST DUP3 ADD SWAP2 SWAP1 PUSH1 0x0 MSTORE PUSH1 0x20 PUSH1 0x0 KECCAK256 SWAP1 JUMPDEST DUP2 SLOAD DUP2 MSTORE SWAP1 PUSH1 0x1 ADD SWAP1 PUSH1 0x20 ADD DUP1 DUP4 GT PUSH2 0x147E JUMPI DUP3 SWAP1 SUB PUSH1 0x1F AND DUP3 ADD SWAP2 JUMPDEST POP POP POP POP POP SWAP1 POP SWAP1 JUMP JUMPDEST PUSH1 0x0 DUP1 SHL DUP2 JUMP JUMPDEST PUSH1 0x0 DUP1 PUSH2 0x14B7 PUSH2 0x1CEE JUMP JUMPDEST SWAP1 POP PUSH2 0x14C4 DUP2 DUP6 DUP6 PUSH2 0x1DB0 JUMP JUMPDEST PUSH1 0x1 SWAP2 POP POP SWAP3 SWAP2 POP POP JUMP JUMPDEST PUSH1 0x0 DUP1 DUP4 SUB PUSH2 0x150A JUMPI PUSH1 0x40 MLOAD PUSH32 0x1F2A200500000000000000000000000000000000000000000000000000000000 DUP2 MSTORE PUSH1 0x4 ADD PUSH1 0x40 MLOAD DUP1 SWAP2 SUB SWAP1 REVERT JUMPDEST PUSH1 0x0 PUSH1 0xD DUP7 DUP7 PUSH1 0x40 MLOAD PUSH2 0x151E SWAP3 SWAP2 SWAP1 PUSH2 0x4517 JUMP JUMPDEST SWAP1 DUP2 MSTORE PUSH1 0x20 ADD PUSH1 0x40 MLOAD DUP1 SWAP2 SUB SWAP1 KECCAK256 PUSH1 0x40 MLOAD DUP1 PUSH1 0x60 ADD PUSH1 0x40 MSTORE SWAP1 DUP2 PUSH1 0x0 DUP3 ADD SLOAD DUP2 MSTORE PUSH1 0x20 ADD PUSH1 0x1 DUP3 ADD PUSH1 0x0 SWAP1 SLOAD SWAP1 PUSH2 0x100 EXP SWAP1 DIV PUSH20 0xFFFFFFFFFFFFFFFFFFFFFFFFFFFFFFFFFFFFFFFF AND PUSH20 0xFFFFFFFFFFFFFFFFFFFFFFFFFFFFFFFFFFFFFFFF AND PUSH20 0xFFFFFFFFFFFFFFFFFFFFFFFFFFFFFFFFFFFFFFFF AND DUP2 MSTORE PUSH1 0x20 ADD PUSH1 0x1 DUP3 ADD PUSH1 0x14 SWAP1 SLOAD SWAP1 PUSH2 0x100 EXP SWAP1 DIV PUSH1 0xFF AND PUSH1 0xFF AND PUSH1 0xFF AND DUP2 MSTORE POP POP SWAP1 POP PUSH1 0x0 DUP2 PUSH1 0x0 ADD MLOAD SUB PUSH2 0x1601 JUMPI DUP6 DUP6 PUSH1 0x40 MLOAD PUSH32 0xC16FC3AD00000000000000000000000000000000000000000000000000000000 DUP2 MSTORE PUSH1 0x4 ADD PUSH2 0x15F8 SWAP3 SWAP2 SWAP1 PUSH2 0x455D JUMP JUMPDEST PUSH1 0x40 MLOAD DUP1 SWAP2 SUB SWAP1 REVERT JUMPDEST PUSH2 0x1615 DUP5 DUP3 PUSH1 0x0 ADD MLOAD DUP4 PUSH1 0x40 ADD MLOAD DUP7 PUSH2 0x25D0 JUMP JUMPDEST SWAP2 POP POP SWAP5 SWAP4 POP POP POP POP JUMP JUMPDEST PUSH1 0x60 PUSH1 0xC DUP1 SLOAD DUP1 PUSH1 0x20 MUL PUSH1 0x20 ADD PUSH1 0x40 MLOAD SWAP1 DUP2 ADD PUSH1 0x40 MSTORE DUP1 SWAP3 SWAP2 SWAP1 DUP2 DUP2 MSTORE PUSH1 0x20 ADD PUSH1 0x0 SWAP1 JUMPDEST DUP3 DUP3 LT ISZERO PUSH2 0x16F0 JUMPI DUP4 DUP3 SWAP1 PUSH1 0x0 MSTORE PUSH1 0x20 PUSH1 0x0 KECCAK256 ADD DUP1 SLOAD PUSH2 0x1663 SWAP1 PUSH2 0x444A JUMP JUMPDEST DUP1 PUSH1 0x1F ADD PUSH1 0x20 DUP1 SWAP2 DIV MUL PUSH1 0x20 ADD PUSH1 0x40 MLOAD SWAP1 DUP2 ADD PUSH1 0x40 MSTORE DUP1 SWAP3 SWAP2 SWAP1 DUP2 DUP2 MSTORE PUSH1 0x20 ADD DUP3 DUP1 SLOAD PUSH2 0x168F SWAP1 PUSH2 0x444A JUMP JUMPDEST DUP1 ISZERO PUSH2 0x16DC JUMPI DUP1 PUSH1 0x1F LT PUSH2 0x16B1 JUMPI PUSH2 0x100 DUP1 DUP4 SLOAD DIV MUL DUP4 MSTORE SWAP2 PUSH1 0x20 ADD SWAP2 PUSH2 0x16DC JUMP JUMPDEST DUP3 ADD SWAP2 SWAP1 PUSH1 0x0 MSTORE PUSH1 0x20 PUSH1 0x0 KECCAK256 SWAP1 JUMPDEST DUP2 SLOAD DUP2 MSTORE SWAP1 PUSH1 0x1 ADD SWAP1 PUSH1 0x20 ADD DUP1 DUP4 GT PUSH2 0x16BF JUMPI DUP3 SWAP1 SUB PUSH1 0x1F AND DUP3 ADD SWAP2 JUMPDEST POP POP POP POP POP DUP2 MSTORE PUSH1 0x20 ADD SWAP1 PUSH1 0x1 ADD SWAP1 PUSH2 0x1644 JUMP JUMPDEST POP POP POP POP SWAP1 POP SWAP1 JUMP JUMPDEST DUP4 TIMESTAMP GT ISZERO PUSH2 0x173E JUMPI DUP4 PUSH1 0x40 MLOAD PUSH32 0x6279130200000000000000000000000000000000000000000000000000000000 DUP2 MSTORE PUSH1 0x4 ADD PUSH2 0x1735 SWAP2 SWAP1 PUSH2 0x3AF8 JUMP JUMPDEST PUSH1 0x40 MLOAD DUP1 SWAP2 SUB SWAP1 REVERT JUMPDEST PUSH1 0x0 PUSH32 0x6E71EDAE12B1B97F4D1F60370FEF10105FA2FAAE0126114A169C64845D6126C9 DUP9 DUP9 DUP9 PUSH2 0x176D DUP13 PUSH2 0x2634 JUMP JUMPDEST DUP10 PUSH1 0x40 MLOAD PUSH1 0x20 ADD PUSH2 0x1783 SWAP7 SWAP6 SWAP5 SWAP4 SWAP3 SWAP2 SWAP1 PUSH2 0x4690 JUMP JUMPDEST PUSH1 0x40 MLOAD PUSH1 0x20 DUP2 DUP4 SUB SUB DUP2 MSTORE SWAP1 PUSH1 0x40 MSTORE DUP1 MLOAD SWAP1 PUSH1 0x20 ADD KECCAK256 SWAP1 POP PUSH1 0x0 PUSH2 0x17A6 DUP3 PUSH2 0x268B JUMP JUMPDEST SWAP1 POP PUSH1 0x0 PUSH2 0x17B6 DUP3 DUP8 DUP8 DUP8 PUSH2 0x26A5 JUMP JUMPDEST SWAP1 POP DUP10 PUSH20 0xFFFFFFFFFFFFFFFFFFFFFFFFFFFFFFFFFFFFFFFF AND DUP2 PUSH20 0xFFFFFFFFFFFFFFFFFFFFFFFFFFFFFFFFFFFFFFFF AND EQ PUSH2 0x182A JUMPI DUP1 DUP11 PUSH1 0x40 MLOAD PUSH32 0x4B800E4600000000000000000000000000000000000000000000000000000000 DUP2 MSTORE PUSH1 0x4 ADD PUSH2 0x1821 SWAP3 SWAP2 SWAP1 PUSH2 0x46F1 JUMP JUMPDEST PUSH1 0x40 MLOAD DUP1 SWAP2 SUB SWAP1 REVERT JUMPDEST PUSH2 0x1835 DUP11 DUP11 DUP11 PUSH2 0x1CF6 JUMP JUMPDEST POP POP POP POP POP POP POP POP POP POP JUMP JUMPDEST PUSH32 0x9F2DF0FED2C77648DE5860A4CC508CD0818C85B8B8A1AB4CEEEF8D981C8956A6 DUP2 JUMP JUMPDEST PUSH2 0x186E DUP3 PUSH2 0xCAC JUMP JUMPDEST PUSH2 0x1877 DUP2 PUSH2 0x1D08 JUMP JUMPDEST PUSH2 0x1881 DUP4 DUP4 PUSH2 0x204D JUMP JUMPDEST POP POP POP POP JUMP JUMPDEST PUSH2 0x188F PUSH2 0x26D5 JUMP JUMPDEST PUSH1 0xB PUSH1 0x0 SWAP1 SLOAD SWAP1 PUSH2 0x100 EXP SWAP1 DIV PUSH1 0xFF AND ISZERO PUSH2 0x18DF JUMPI PUSH1 0x40 MLOAD PUSH32 0x8C379A000000000000000000000000000000000000000000000000000000000 DUP2 MSTORE PUSH1 0x4 ADD PUSH2 0x18D6 SWAP1 PUSH2 0x44C7 JUMP JUMPDEST PUSH1 0x40 MLOAD DUP1 SWAP2 SUB SWAP1 REVERT JUMPDEST PUSH1 0x0 DUP3 SUB PUSH2 0x1919 JUMPI PUSH1 0x40 MLOAD PUSH32 0x1F2A200500000000000000000000000000000000000000000000000000000000 DUP2 MSTORE PUSH1 0x4 ADD PUSH1 0x40 MLOAD DUP1 SWAP2 SUB SWAP1 REVERT JUMPDEST PUSH1 0x0 DUP5 DUP5 SWAP1 POP SUB PUSH2 0x1956 JUMPI PUSH1 0x40 MLOAD PUSH32 0x19C7070A00000000000000000000000000000000000000000000000000000000 DUP2 MSTORE PUSH1 0x4 ADD PUSH1 0x40 MLOAD DUP1 SWAP2 SUB SWAP1 REVERT JUMPDEST PUSH1 0x0 PUSH1 0xD DUP6 DUP6 PUSH1 0x40 MLOAD PUSH2 0x196A SWAP3 SWAP2 SWAP1 PUSH2 0x4517 JUMP JUMPDEST SWAP1 DUP2 MSTORE PUSH1 0x20 ADD PUSH1 0x40 MLOAD DUP1 SWAP2 SUB SWAP1 KECCAK256 PUSH1 0x40 MLOAD DUP1 PUSH1 0x60 ADD PUSH1 0x40 MSTORE SWAP1 DUP2 PUSH1 0x0 DUP3 ADD SLOAD DUP2 MSTORE PUSH1 0x20 ADD PUSH1 0x1 DUP3 ADD PUSH1 0x0 SWAP1 SLOAD SWAP1 PUSH2 0x100 EXP SWAP1 DIV PUSH20 0xFFFFFFFFFFFFFFFFFFFFFFFFFFFFFFFFFFFFFFFF AND PUSH20 0xFFFFFFFFFFFFFFFFFFFFFFFFFFFFFFFFFFFFFFFF AND PUSH20 0xFFFFFFFFFFFFFFFFFFFFFFFFFFFFFFFFFFFFFFFF AND DUP2 MSTORE PUSH1 0x20 ADD PUSH1 0x1 DUP3 ADD PUSH1 0x14 SWAP1 SLOAD SWAP1 PUSH2 0x100 EXP SWAP1 DIV PUSH1 0xFF AND PUSH1 0xFF AND PUSH1 0xFF AND DUP2 MSTORE POP POP SWAP1 POP PUSH1 0x0 DUP2 PUSH1 0x0 ADD MLOAD SUB PUSH2 0x1A4D JUMPI DUP5 DUP5 PUSH1 0x40 MLOAD PUSH32 0xC16FC3AD00000000000000000000000000000000000000000000000000000000 DUP2 MSTORE PUSH1 0x4 ADD PUSH2 0x1A44 SWAP3 SWAP2 SWAP1 PUSH2 0x455D JUMP JUMPDEST PUSH1 0x40 MLOAD DUP1 SWAP2 SUB SWAP1 REVERT JUMPDEST PUSH1 0x0 PUSH2 0x1A63 DUP5 DUP4 PUSH1 0x0 ADD MLOAD DUP5 PUSH1 0x40 ADD MLOAD DUP7 PUSH2 0x25D0 JUMP JUMPDEST SWAP1 POP PUSH1 0x0 DUP2 SUB PUSH2 0x1A9F JUMPI PUSH1 0x40 MLOAD PUSH32 0x2689AC4300000000000000000000000000000000000000000000000000000000 DUP2 MSTORE PUSH1 0x4 ADD PUSH1 0x40 MLOAD DUP1 SWAP2 SUB SWAP1 REVERT JUMPDEST DUP3 ISZERO PUSH2 0x1AB9 JUMPI PUSH2 0x1AB4 DUP3 PUSH1 0x20 ADD MLOAD DUP6 DUP4 PUSH2 0x271B JUMP JUMPDEST PUSH2 0x1AC9 JUMP JUMPDEST PUSH2 0x1AC8 DUP3 PUSH1 0x20 ADD MLOAD DUP6 DUP4 PUSH2 0x2A0A JUMP JUMPDEST JUMPDEST CALLER PUSH20 0xFFFFFFFFFFFFFFFFFFFFFFFFFFFFFFFFFFFFFFFF AND PUSH32 0xB2352DB38D4EA2A35D8061501D14D4177E27825AFDAA66C6D1C37DEDAD76DE4C DUP8 DUP8 DUP8 DUP6 DUP9 PUSH1 0x40 MLOAD PUSH2 0x1B17 SWAP6 SWAP5 SWAP4 SWAP3 SWAP2 SWAP1 PUSH2 0x471A JUMP JUMPDEST PUSH1 0x40 MLOAD DUP1 SWAP2 SUB SWAP1 LOG2 POP POP PUSH2 0x1B29 PUSH2 0x2C3D JUMP JUMPDEST POP POP POP POP JUMP JUMPDEST PUSH1 0x0 PUSH1 0x1 PUSH1 0x0 DUP5 PUSH20 0xFFFFFFFFFFFFFFFFFFFFFFFFFFFFFFFFFFFFFFFF AND PUSH20 0xFFFFFFFFFFFFFFFFFFFFFFFFFFFFFFFFFFFFFFFF AND DUP2 MSTORE PUSH1 0x20 ADD SWAP1 DUP2 MSTORE PUSH1 0x20 ADD PUSH1 0x0 KECCAK256 PUSH1 0x0 DUP4 PUSH20 0xFFFFFFFFFFFFFFFFFFFFFFFFFFFFFFFFFFFFFFFF AND PUSH20 0xFFFFFFFFFFFFFFFFFFFFFFFFFFFFFFFFFFFFFFFF AND DUP2 MSTORE PUSH1 0x20 ADD SWAP1 DUP2 MSTORE PUSH1 0x20 ADD PUSH1 0x0 KECCAK256 SLOAD SWAP1 POP SWAP3 SWAP2 POP POP JUMP JUMPDEST PUSH32 0x0 DUP2 JUMP JUMPDEST PUSH2 0x1BE2 PUSH2 0x21D6 JUMP JUMPDEST PUSH1 0x0 PUSH20 0xFFFFFFFFFFFFFFFFFFFFFFFFFFFFFFFFFFFFFFFF AND DUP2 PUSH20 0xFFFFFFFFFFFFFFFFFFFFFFFFFFFFFFFFFFFFFFFF AND SUB PUSH2 0x1C54 JUMPI PUSH1 0x0 PUSH1 0x40 MLOAD PUSH32 0x1E4FBDF700000000000000000000000000000000000000000000000000000000 DUP2 MSTORE PUSH1 0x4 ADD PUSH2 0x1C4B SWAP2 SWAP1 PUSH2 0x40B4 JUMP JUMPDEST PUSH1 0x40 MLOAD DUP1 SWAP2 SUB SWAP1 REVERT JUMPDEST PUSH2 0x1C5D DUP2 PUSH2 0x225D JUMP JUMPDEST POP JUMP JUMPDEST PUSH32 0xE9EB2D474DBF4AD0AF01DBC745EC0E55D70CA9366FE9B52307997E913BAD905C DUP2 JUMP JUMPDEST PUSH1 0x0 PUSH32 0x1FFC9A700000000000000000000000000000000000000000000000000000000 PUSH28 0xFFFFFFFFFFFFFFFFFFFFFFFFFFFFFFFFFFFFFFFFFFFFFFFFFFFFFFFF NOT AND DUP3 PUSH28 0xFFFFFFFFFFFFFFFFFFFFFFFFFFFFFFFFFFFFFFFFFFFFFFFFFFFFFFFF NOT AND EQ SWAP1 POP SWAP2 SWAP1 POP JUMP JUMPDEST PUSH1 0x0 CALLER SWAP1 POP SWAP1 JUMP JUMPDEST PUSH2 0x1D03 DUP4 DUP4 DUP4 PUSH1 0x1 PUSH2 0x2C47 JUMP JUMPDEST POP POP POP JUMP JUMPDEST PUSH2 0x1D19 DUP2 PUSH2 0x1D14 PUSH2 0x1CEE JUMP JUMPDEST PUSH2 0x2E1E JUMP JUMPDEST POP JUMP JUMPDEST PUSH1 0x0 PUSH2 0x1D28 DUP5 DUP5 PUSH2 0x1B2F JUMP JUMPDEST SWAP1 POP PUSH32 0xFFFFFFFFFFFFFFFFFFFFFFFFFFFFFFFFFFFFFFFFFFFFFFFFFFFFFFFFFFFFFFFF DUP2 EQ PUSH2 0x1DAA JUMPI DUP2 DUP2 LT ISZERO PUSH2 0x1D9A JUMPI DUP3 DUP2 DUP4 PUSH1 0x40 MLOAD PUSH32 0xFB8F41B200000000000000000000000000000000000000000000000000000000 DUP2 MSTORE PUSH1 0x4 ADD PUSH2 0x1D91 SWAP4 SWAP3 SWAP2 SWAP1 PUSH2 0x4768 JUMP JUMPDEST PUSH1 0x40 MLOAD DUP1 SWAP2 SUB SWAP1 REVERT JUMPDEST PUSH2 0x1DA9 DUP5 DUP5 DUP5 DUP5 SUB PUSH1 0x0 PUSH2 0x2C47 JUMP JUMPDEST JUMPDEST POP POP POP POP JUMP JUMPDEST PUSH1 0x0 PUSH20 0xFFFFFFFFFFFFFFFFFFFFFFFFFFFFFFFFFFFFFFFF AND DUP4 PUSH20 0xFFFFFFFFFFFFFFFFFFFFFFFFFFFFFFFFFFFFFFFF AND SUB PUSH2 0x1E22 JUMPI PUSH1 0x0 PUSH1 0x40 MLOAD PUSH32 0x96C6FD1E00000000000000000000000000000000000000000000000000000000 DUP2 MSTORE PUSH1 0x4 ADD PUSH2 0x1E19 SWAP2 SWAP1 PUSH2 0x40B4 JUMP JUMPDEST PUSH1 0x40 MLOAD DUP1 SWAP2 SUB SWAP1 REVERT JUMPDEST PUSH1 0x0 PUSH20 0xFFFFFFFFFFFFFFFFFFFFFFFFFFFFFFFFFFFFFFFF AND DUP3 PUSH20 0xFFFFFFFFFFFFFFFFFFFFFFFFFFFFFFFFFFFFFFFF AND SUB PUSH2 0x1E94 JUMPI PUSH1 0x0 PUSH1 0x40 MLOAD PUSH32 0xEC442F0500000000000000000000000000000000000000000000000000000000 DUP2 MSTORE PUSH1 0x4 ADD PUSH2 0x1E8B SWAP2 SWAP1 PUSH2 0x40B4 JUMP JUMPDEST PUSH1 0x40 MLOAD DUP1 SWAP2 SUB SWAP1 REVERT JUMPDEST PUSH2 0x1E9F DUP4 DUP4 DUP4 PUSH2 0x2E6F JUMP JUMPDEST POP POP POP JUMP JUMPDEST PUSH1 0x0 PUSH2 0x1EB0 DUP4 DUP4 PUSH2 0x13A8 JUMP JUMPDEST PUSH2 0x1F8B JUMPI PUSH1 0x1 PUSH1 0x9 PUSH1 0x0 DUP6 DUP2 MSTORE PUSH1 0x20 ADD SWAP1 DUP2 MSTORE PUSH1 0x20 ADD PUSH1 0x0 KECCAK256 PUSH1 0x0 ADD PUSH1 0x0 DUP5 PUSH20 0xFFFFFFFFFFFFFFFFFFFFFFFFFFFFFFFFFFFFFFFF AND PUSH20 0xFFFFFFFFFFFFFFFFFFFFFFFFFFFFFFFFFFFFFFFF AND DUP2 MSTORE PUSH1 0x20 ADD SWAP1 DUP2 MSTORE PUSH1 0x20 ADD PUSH1 0x0 KECCAK256 PUSH1 0x0 PUSH2 0x100 EXP DUP2 SLOAD DUP2 PUSH1 0xFF MUL NOT AND SWAP1 DUP4 ISZERO ISZERO MUL OR SWAP1 SSTORE POP PUSH2 0x1F28 PUSH2 0x1CEE JUMP JUMPDEST PUSH20 0xFFFFFFFFFFFFFFFFFFFFFFFFFFFFFFFFFFFFFFFF AND DUP3 PUSH20 0xFFFFFFFFFFFFFFFFFFFFFFFFFFFFFFFFFFFFFFFF AND DUP5 PUSH32 0x2F8788117E7EFF1D82E926EC794901D17C78024A50270940304540A733656F0D PUSH1 0x40 MLOAD PUSH1 0x40 MLOAD DUP1 SWAP2 SUB SWAP1 LOG4 PUSH1 0x1 SWAP1 POP PUSH2 0x1F90 JUMP JUMPDEST PUSH1 0x0 SWAP1 POP JUMPDEST SWAP3 SWAP2 POP POP JUMP JUMPDEST PUSH1 0x0 PUSH32 0x0 PUSH20 0xFFFFFFFFFFFFFFFFFFFFFFFFFFFFFFFFFFFFFFFF AND ADDRESS PUSH20 0xFFFFFFFFFFFFFFFFFFFFFFFFFFFFFFFFFFFFFFFF AND EQ DUP1 ISZERO PUSH2 0x2012 JUMPI POP PUSH32 0x0 CHAINID EQ JUMPDEST ISZERO PUSH2 0x203F JUMPI PUSH32 0x0 SWAP1 POP PUSH2 0x204A JUMP JUMPDEST PUSH2 0x2047 PUSH2 0x3094 JUMP JUMPDEST SWAP1 POP JUMPDEST SWAP1 JUMP JUMPDEST PUSH1 0x0 PUSH2 0x2059 DUP4 DUP4 PUSH2 0x13A8 JUMP JUMPDEST ISZERO PUSH2 0x2135 JUMPI PUSH1 0x0 PUSH1 0x9 PUSH1 0x0 DUP6 DUP2 MSTORE PUSH1 0x20 ADD SWAP1 DUP2 MSTORE PUSH1 0x20 ADD PUSH1 0x0 KECCAK256 PUSH1 0x0 ADD PUSH1 0x0 DUP5 PUSH20 0xFFFFFFFFFFFFFFFFFFFFFFFFFFFFFFFFFFFFFFFF AND PUSH20 0xFFFFFFFFFFFFFFFFFFFFFFFFFFFFFFFFFFFFFFFF AND DUP2 MSTORE PUSH1 0x20 ADD SWAP1 DUP2 MSTORE PUSH1 0x20 ADD PUSH1 0x0 KECCAK256 PUSH1 0x0 PUSH2 0x100 EXP DUP2 SLOAD DUP2 PUSH1 0xFF MUL NOT AND SWAP1 DUP4 ISZERO ISZERO MUL OR SWAP1 SSTORE POP PUSH2 0x20D2 PUSH2 0x1CEE JUMP JUMPDEST PUSH20 0xFFFFFFFFFFFFFFFFFFFFFFFFFFFFFFFFFFFFFFFF AND DUP3 PUSH20 0xFFFFFFFFFFFFFFFFFFFFFFFFFFFFFFFFFFFFFFFF AND DUP5 PUSH32 0xF6391F5C32D9C69D2A47EA670B442974B53935D1EDC7FD64EB21E047A839171B PUSH1 0x40 MLOAD PUSH1 0x40 MLOAD DUP1 SWAP2 SUB SWAP1 LOG4 PUSH1 0x1 SWAP1 POP PUSH2 0x213A JUMP JUMPDEST PUSH1 0x0 SWAP1 POP JUMPDEST SWAP3 SWAP2 POP POP JUMP JUMPDEST PUSH1 0x0 PUSH20 0xFFFFFFFFFFFFFFFFFFFFFFFFFFFFFFFFFFFFFFFF AND DUP3 PUSH20 0xFFFFFFFFFFFFFFFFFFFFFFFFFFFFFFFFFFFFFFFF AND SUB PUSH2 0x21B2 JUMPI PUSH1 0x0 PUSH1 0x40 MLOAD PUSH32 0xEC442F0500000000000000000000000000000000000000000000000000000000 DUP2 MSTORE PUSH1 0x4 ADD PUSH2 0x21A9 SWAP2 SWAP1 PUSH2 0x40B4 JUMP JUMPDEST PUSH1 0x40 MLOAD DUP1 SWAP2 SUB SWAP1 REVERT JUMPDEST PUSH2 0x21BE PUSH1 0x0 DUP4 DUP4 PUSH2 0x2E6F JUMP JUMPDEST POP POP JUMP JUMPDEST PUSH2 0x21D3 PUSH2 0x21CD PUSH2 0x1CEE JUMP JUMPDEST DUP3 PUSH2 0x2277 JUMP JUMPDEST POP JUMP JUMPDEST PUSH2 0x21DE PUSH2 0x1CEE JUMP JUMPDEST PUSH20 0xFFFFFFFFFFFFFFFFFFFFFFFFFFFFFFFFFFFFFFFF AND PUSH2 0x21FC PUSH2 0x1275 JUMP JUMPDEST PUSH20 0xFFFFFFFFFFFFFFFFFFFFFFFFFFFFFFFFFFFFFFFF AND EQ PUSH2 0x225B JUMPI PUSH2 0x221F PUSH2 0x1CEE JUMP JUMPDEST PUSH1 0x40 MLOAD PUSH32 0x118CDAA700000000000000000000000000000000000000000000000000000000 DUP2 MSTORE PUSH1 0x4 ADD PUSH2 0x2252 SWAP2 SWAP1 PUSH2 0x40B4 JUMP JUMPDEST PUSH1 0x40 MLOAD DUP1 SWAP2 SUB SWAP1 REVERT JUMPDEST JUMP JUMPDEST PUSH2 0x2266 DUP2 PUSH2 0x312A JUMP JUMPDEST PUSH2 0x2273 PUSH1 0x0 DUP1 SHL DUP3 PUSH2 0x1EA4 JUMP JUMPDEST POP POP JUMP JUMPDEST PUSH1 0x0 PUSH20 0xFFFFFFFFFFFFFFFFFFFFFFFFFFFFFFFFFFFFFFFF AND DUP3 PUSH20 0xFFFFFFFFFFFFFFFFFFFFFFFFFFFFFFFFFFFFFFFF AND SUB PUSH2 0x22E9 JUMPI PUSH1 0x0 PUSH1 0x40 MLOAD PUSH32 0x96C6FD1E00000000000000000000000000000000000000000000000000000000 DUP2 MSTORE PUSH1 0x4 ADD PUSH2 0x22E0 SWAP2 SWAP1 PUSH2 0x40B4 JUMP JUMPDEST PUSH1 0x40 MLOAD DUP1 SWAP2 SUB SWAP1 REVERT JUMPDEST PUSH2 0x22F5 DUP3 PUSH1 0x0 DUP4 PUSH2 0x2E6F JUMP JUMPDEST POP POP JUMP JUMPDEST PUSH1 0x0 PUSH1 0x8 PUSH1 0x0 DUP4 PUSH20 0xFFFFFFFFFFFFFFFFFFFFFFFFFFFFFFFFFFFFFFFF AND PUSH20 0xFFFFFFFFFFFFFFFFFFFFFFFFFFFFFFFFFFFFFFFF AND DUP2 MSTORE PUSH1 0x20 ADD SWAP1 DUP2 MSTORE PUSH1 0x20 ADD PUSH1 0x0 KECCAK256 SLOAD SWAP1 POP SWAP2 SWAP1 POP JUMP JUMPDEST PUSH1 0x60 PUSH2 0x2378 PUSH1 0x6 PUSH32 0x0 PUSH2 0x31F0 SWAP1 SWAP2 SWAP1 PUSH4 0xFFFFFFFF AND JUMP JUMPDEST SWAP1 POP SWAP1 JUMP JUMPDEST PUSH1 0x60 PUSH2 0x23B3 PUSH1 0x7 PUSH32 0x0 PUSH2 0x31F0 SWAP1 SWAP2 SWAP1 PUSH4 0xFFFFFFFF AND JUMP JUMPDEST SWAP1 POP SWAP1 JUMP JUMPDEST PUSH1 0x0 DUP5 MLOAD SUB PUSH2 0x23F3 JUMPI PUSH1 0x40 MLOAD PUSH32 0x19C7070A00000000000000000000000000000000000000000000000000000000 DUP2 MSTORE PUSH1 0x4 ADD PUSH1 0x40 MLOAD DUP1 SWAP2 SUB SWAP1 REVERT JUMPDEST PUSH1 0x0 DUP3 SUB PUSH2 0x242D JUMPI PUSH1 0x40 MLOAD PUSH32 0x2689AC4300000000000000000000000000000000000000000000000000000000 DUP2 MSTORE PUSH1 0x4 ADD PUSH1 0x40 MLOAD DUP1 SWAP2 SUB SWAP1 REVERT JUMPDEST PUSH1 0x0 PUSH1 0xD DUP6 PUSH1 0x40 MLOAD PUSH2 0x243F SWAP2 SWAP1 PUSH2 0x47D0 JUMP JUMPDEST SWAP1 DUP2 MSTORE PUSH1 0x20 ADD PUSH1 0x40 MLOAD DUP1 SWAP2 SUB SWAP1 KECCAK256 PUSH1 0x0 ADD SLOAD EQ PUSH2 0x2493 JUMPI DUP4 PUSH1 0x40 MLOAD PUSH32 0xA094D48D00000000000000000000000000000000000000000000000000000000 DUP2 MSTORE PUSH1 0x4 ADD PUSH2 0x248A SWAP2 SWAP1 PUSH2 0x3875 JUMP JUMPDEST PUSH1 0x40 MLOAD DUP1 SWAP2 SUB SWAP1 REVERT JUMPDEST PUSH1 0xC DUP5 SWAP1 DUP1 PUSH1 0x1 DUP2 SLOAD ADD DUP1 DUP3 SSTORE DUP1 SWAP2 POP POP PUSH1 0x1 SWAP1 SUB SWAP1 PUSH1 0x0 MSTORE PUSH1 0x20 PUSH1 0x0 KECCAK256 ADD PUSH1 0x0 SWAP1 SWAP2 SWAP1 SWAP2 SWAP1 SWAP2 POP SWAP1 DUP2 PUSH2 0x24C7 SWAP2 SWAP1 PUSH2 0x4993 JUMP JUMPDEST POP PUSH1 0x40 MLOAD DUP1 PUSH1 0x60 ADD PUSH1 0x40 MSTORE DUP1 DUP4 DUP2 MSTORE PUSH1 0x20 ADD DUP5 PUSH20 0xFFFFFFFFFFFFFFFFFFFFFFFFFFFFFFFFFFFFFFFF AND DUP2 MSTORE PUSH1 0x20 ADD DUP3 PUSH1 0xFF AND DUP2 MSTORE POP PUSH1 0xD DUP6 PUSH1 0x40 MLOAD PUSH2 0x250C SWAP2 SWAP1 PUSH2 0x47D0 JUMP JUMPDEST SWAP1 DUP2 MSTORE PUSH1 0x20 ADD PUSH1 0x40 MLOAD DUP1 SWAP2 SUB SWAP1 KECCAK256 PUSH1 0x0 DUP3 ADD MLOAD DUP2 PUSH1 0x0 ADD SSTORE PUSH1 0x20 DUP3 ADD MLOAD DUP2 PUSH1 0x1 ADD PUSH1 0x0 PUSH2 0x100 EXP DUP2 SLOAD DUP2 PUSH20 0xFFFFFFFFFFFFFFFFFFFFFFFFFFFFFFFFFFFFFFFF MUL NOT AND SWAP1 DUP4 PUSH20 0xFFFFFFFFFFFFFFFFFFFFFFFFFFFFFFFFFFFFFFFF AND MUL OR SWAP1 SSTORE POP PUSH1 0x40 DUP3 ADD MLOAD DUP2 PUSH1 0x1 ADD PUSH1 0x14 PUSH2 0x100 EXP DUP2 SLOAD DUP2 PUSH1 0xFF MUL NOT AND SWAP1 DUP4 PUSH1 0xFF AND MUL OR SWAP1 SSTORE POP SWAP1 POP POP PUSH32 0x84390A2096E2BF5A86745AE76997944B0F161F904F842EE21F1669A5DC93361B DUP5 DUP5 DUP5 PUSH1 0x40 MLOAD PUSH2 0x25C2 SWAP4 SWAP3 SWAP2 SWAP1 PUSH2 0x4A65 JUMP JUMPDEST PUSH1 0x40 MLOAD DUP1 SWAP2 SUB SWAP1 LOG1 POP POP POP POP JUMP JUMPDEST PUSH1 0x0 DUP1 PUSH2 0x25DE DUP7 DUP6 DUP6 PUSH2 0x32A0 JUMP JUMPDEST SWAP1 POP DUP3 PUSH2 0x2609 JUMPI PUSH8 0xDE0B6B3A7640000 DUP6 DUP3 PUSH2 0x25FA SWAP2 SWAP1 PUSH2 0x4AA3 JUMP JUMPDEST PUSH2 0x2604 SWAP2 SWAP1 PUSH2 0x4B14 JUMP JUMPDEST PUSH2 0x2629 JUMP JUMPDEST DUP5 PUSH8 0xDE0B6B3A7640000 DUP3 PUSH2 0x261E SWAP2 SWAP1 PUSH2 0x4AA3 JUMP JUMPDEST PUSH2 0x2628 SWAP2 SWAP1 PUSH2 0x4B14 JUMP JUMPDEST JUMPDEST SWAP2 POP POP SWAP5 SWAP4 POP POP POP POP JUMP JUMPDEST PUSH1 0x0 PUSH1 0x8 PUSH1 0x0 DUP4 PUSH20 0xFFFFFFFFFFFFFFFFFFFFFFFFFFFFFFFFFFFFFFFF AND PUSH20 0xFFFFFFFFFFFFFFFFFFFFFFFFFFFFFFFFFFFFFFFF AND DUP2 MSTORE PUSH1 0x20 ADD SWAP1 DUP2 MSTORE PUSH1 0x20 ADD PUSH1 0x0 KECCAK256 PUSH1 0x0 DUP2 SLOAD DUP1 SWAP3 SWAP2 SWAP1 PUSH1 0x1 ADD SWAP2 SWAP1 POP SSTORE SWAP1 POP SWAP2 SWAP1 POP JUMP JUMPDEST PUSH1 0x0 PUSH2 0x269E PUSH2 0x2698 PUSH2 0x1F96 JUMP JUMPDEST DUP4 PUSH2 0x337F JUMP JUMPDEST SWAP1 POP SWAP2 SWAP1 POP JUMP JUMPDEST PUSH1 0x0 DUP1 PUSH1 0x0 DUP1 PUSH2 0x26B7 DUP9 DUP9 DUP9 DUP9 PUSH2 0x33C0 JUMP JUMPDEST SWAP3 POP SWAP3 POP SWAP3 POP PUSH2 0x26C7 DUP3 DUP3 PUSH2 0x34B4 JUMP JUMPDEST DUP3 SWAP4 POP POP POP POP SWAP5 SWAP4 POP POP POP POP JUMP JUMPDEST PUSH1 0x2 PUSH1 0xA SLOAD SUB PUSH2 0x2711 JUMPI PUSH1 0x40 MLOAD PUSH32 0x3EE5AEB500000000000000000000000000000000000000000000000000000000 DUP2 MSTORE PUSH1 0x4 ADD PUSH1 0x40 MLOAD DUP1 SWAP2 SUB SWAP1 REVERT JUMPDEST PUSH1 0x2 PUSH1 0xA DUP2 SWAP1 SSTORE POP JUMP JUMPDEST PUSH1 0x0 PUSH20 0xFFFFFFFFFFFFFFFFFFFFFFFFFFFFFFFFFFFFFFFF AND DUP4 PUSH20 0xFFFFFFFFFFFFFFFFFFFFFFFFFFFFFFFFFFFFFFFF AND EQ PUSH2 0x297E JUMPI PUSH1 0x0 DUP4 SWAP1 POP DUP3 DUP2 PUSH20 0xFFFFFFFFFFFFFFFFFFFFFFFFFFFFFFFFFFFFFFFF AND PUSH4 0x70A08231 CALLER PUSH1 0x40 MLOAD DUP3 PUSH4 0xFFFFFFFF AND PUSH1 0xE0 SHL DUP2 MSTORE PUSH1 0x4 ADD PUSH2 0x278E SWAP2 SWAP1 PUSH2 0x40B4 JUMP JUMPDEST PUSH1 0x20 PUSH1 0x40 MLOAD DUP1 DUP4 SUB DUP2 DUP7 GAS STATICCALL ISZERO DUP1 ISZERO PUSH2 0x27AB JUMPI RETURNDATASIZE PUSH1 0x0 DUP1 RETURNDATACOPY RETURNDATASIZE PUSH1 0x0 REVERT JUMPDEST POP POP POP POP PUSH1 0x40 MLOAD RETURNDATASIZE PUSH1 0x1F NOT PUSH1 0x1F DUP3 ADD AND DUP3 ADD DUP1 PUSH1 0x40 MSTORE POP DUP2 ADD SWAP1 PUSH2 0x27CF SWAP2 SWAP1 PUSH2 0x4B5A JUMP JUMPDEST LT ISZERO PUSH2 0x2807 JUMPI PUSH1 0x40 MLOAD PUSH32 0xE4455CAE00000000000000000000000000000000000000000000000000000000 DUP2 MSTORE PUSH1 0x4 ADD PUSH1 0x40 MLOAD DUP1 SWAP2 SUB SWAP1 REVERT JUMPDEST DUP3 DUP2 PUSH20 0xFFFFFFFFFFFFFFFFFFFFFFFFFFFFFFFFFFFFFFFF AND PUSH4 0xDD62ED3E CALLER ADDRESS PUSH1 0x40 MLOAD DUP4 PUSH4 0xFFFFFFFF AND PUSH1 0xE0 SHL DUP2 MSTORE PUSH1 0x4 ADD PUSH2 0x2843 SWAP3 SWAP2 SWAP1 PUSH2 0x46F1 JUMP JUMPDEST PUSH1 0x20 PUSH1 0x40 MLOAD DUP1 DUP4 SUB DUP2 DUP7 GAS STATICCALL ISZERO DUP1 ISZERO PUSH2 0x2860 JUMPI RETURNDATASIZE PUSH1 0x0 DUP1 RETURNDATACOPY RETURNDATASIZE PUSH1 0x0 REVERT JUMPDEST POP POP POP POP PUSH1 0x40 MLOAD RETURNDATASIZE PUSH1 0x1F NOT PUSH1 0x1F DUP3 ADD AND DUP3 ADD DUP1 PUSH1 0x40 MSTORE POP DUP2 ADD SWAP1 PUSH2 0x2884 SWAP2 SWAP1 PUSH2 0x4B5A JUMP JUMPDEST LT ISZERO PUSH2 0x28BC JUMPI PUSH1 0x40 MLOAD PUSH32 0x13BE252B00000000000000000000000000000000000000000000000000000000 DUP2 MSTORE PUSH1 0x4 ADD PUSH1 0x40 MLOAD DUP1 SWAP2 SUB SWAP1 REVERT JUMPDEST PUSH1 0x0 DUP2 PUSH20 0xFFFFFFFFFFFFFFFFFFFFFFFFFFFFFFFFFFFFFFFF AND PUSH4 0x23B872DD CALLER ADDRESS DUP8 PUSH1 0x40 MLOAD DUP5 PUSH4 0xFFFFFFFF AND PUSH1 0xE0 SHL DUP2 MSTORE PUSH1 0x4 ADD PUSH2 0x28FB SWAP4 SWAP3 SWAP2 SWAP1 PUSH2 0x4B87 JUMP JUMPDEST PUSH1 0x20 PUSH1 0x40 MLOAD DUP1 DUP4 SUB DUP2 PUSH1 0x0 DUP8 GAS CALL ISZERO DUP1 ISZERO PUSH2 0x291A JUMPI RETURNDATASIZE PUSH1 0x0 DUP1 RETURNDATACOPY RETURNDATASIZE PUSH1 0x0 REVERT JUMPDEST POP POP POP POP PUSH1 0x40 MLOAD RETURNDATASIZE PUSH1 0x1F NOT PUSH1 0x1F DUP3 ADD AND DUP3 ADD DUP1 PUSH1 0x40 MSTORE POP DUP2 ADD SWAP1 PUSH2 0x293E SWAP2 SWAP1 PUSH2 0x4BD3 JUMP JUMPDEST SWAP1 POP DUP1 PUSH2 0x2977 JUMPI PUSH1 0x40 MLOAD PUSH32 0x45C4B0200000000000000000000000000000000000000000000000000000000 DUP2 MSTORE PUSH1 0x4 ADD PUSH1 0x40 MLOAD DUP1 SWAP2 SUB SWAP1 REVERT JUMPDEST POP POP PUSH2 0x29B8 JUMP JUMPDEST DUP2 CALLVALUE EQ PUSH2 0x29B7 JUMPI PUSH1 0x40 MLOAD PUSH32 0x8DE8EC2000000000000000000000000000000000000000000000000000000000 DUP2 MSTORE PUSH1 0x4 ADD PUSH1 0x40 MLOAD DUP1 SWAP2 SUB SWAP1 REVERT JUMPDEST JUMPDEST DUP1 PUSH2 0x29C2 ADDRESS PUSH2 0x106B JUMP JUMPDEST LT ISZERO PUSH2 0x29FA JUMPI PUSH1 0x40 MLOAD PUSH32 0x786E0A9900000000000000000000000000000000000000000000000000000000 DUP2 MSTORE PUSH1 0x4 ADD PUSH1 0x40 MLOAD DUP1 SWAP2 SUB SWAP1 REVERT JUMPDEST PUSH2 0x2A05 ADDRESS CALLER DUP4 PUSH2 0x1DB0 JUMP JUMPDEST POP POP POP JUMP JUMPDEST DUP2 PUSH2 0x2A14 CALLER PUSH2 0x106B JUMP JUMPDEST LT ISZERO PUSH2 0x2A4C JUMPI PUSH1 0x40 MLOAD PUSH32 0xB5537C300000000000000000000000000000000000000000000000000000000 DUP2 MSTORE PUSH1 0x4 ADD PUSH1 0x40 MLOAD DUP1 SWAP2 SUB SWAP1 REVERT JUMPDEST PUSH2 0x2A57 CALLER ADDRESS DUP5 PUSH2 0x1DB0 JUMP JUMPDEST PUSH1 0x0 PUSH20 0xFFFFFFFFFFFFFFFFFFFFFFFFFFFFFFFFFFFFFFFF AND DUP4 PUSH20 0xFFFFFFFFFFFFFFFFFFFFFFFFFFFFFFFFFFFFFFFF AND EQ PUSH2 0x2BFD JUMPI PUSH1 0x0 DUP4 SWAP1 POP DUP2 DUP2 PUSH20 0xFFFFFFFFFFFFFFFFFFFFFFFFFFFFFFFFFFFFFFFF AND PUSH4 0x70A08231 ADDRESS PUSH1 0x40 MLOAD DUP3 PUSH4 0xFFFFFFFF AND PUSH1 0xE0 SHL DUP2 MSTORE PUSH1 0x4 ADD PUSH2 0x2ACA SWAP2 SWAP1 PUSH2 0x40B4 JUMP JUMPDEST PUSH1 0x20 PUSH1 0x40 MLOAD DUP1 DUP4 SUB DUP2 DUP7 GAS STATICCALL ISZERO DUP1 ISZERO PUSH2 0x2AE7 JUMPI RETURNDATASIZE PUSH1 0x0 DUP1 RETURNDATACOPY RETURNDATASIZE PUSH1 0x0 REVERT JUMPDEST POP POP POP POP PUSH1 0x40 MLOAD RETURNDATASIZE PUSH1 0x1F NOT PUSH1 0x1F DUP3 ADD AND DUP3 ADD DUP1 PUSH1 0x40 MSTORE POP DUP2 ADD SWAP1 PUSH2 0x2B0B SWAP2 SWAP1 PUSH2 0x4B5A JUMP JUMPDEST LT ISZERO PUSH2 0x2B43 JUMPI PUSH1 0x40 MLOAD PUSH32 0x904DB1FF00000000000000000000000000000000000000000000000000000000 DUP2 MSTORE PUSH1 0x4 ADD PUSH1 0x40 MLOAD DUP1 SWAP2 SUB SWAP1 REVERT JUMPDEST DUP1 PUSH20 0xFFFFFFFFFFFFFFFFFFFFFFFFFFFFFFFFFFFFFFFF AND PUSH4 0xA9059CBB CALLER DUP5 PUSH1 0x40 MLOAD DUP4 PUSH4 0xFFFFFFFF AND PUSH1 0xE0 SHL DUP2 MSTORE PUSH1 0x4 ADD PUSH2 0x2B7E SWAP3 SWAP2 SWAP1 PUSH2 0x4C00 JUMP JUMPDEST PUSH1 0x20 PUSH1 0x40 MLOAD DUP1 DUP4 SUB DUP2 PUSH1 0x0 DUP8 GAS CALL ISZERO DUP1 ISZERO PUSH2 0x2B9D JUMPI RETURNDATASIZE PUSH1 0x0 DUP1 RETURNDATACOPY RETURNDATASIZE PUSH1 0x0 REVERT JUMPDEST POP POP POP POP PUSH1 0x40 MLOAD RETURNDATASIZE PUSH1 0x1F NOT PUSH1 0x1F DUP3 ADD AND DUP3 ADD DUP1 PUSH1 0x40 MSTORE POP DUP2 ADD SWAP1 PUSH2 0x2BC1 SWAP2 SWAP1 PUSH2 0x4BD3 JUMP JUMPDEST PUSH2 0x2BF7 JUMPI PUSH1 0x40 MLOAD PUSH32 0x45C4B0200000000000000000000000000000000000000000000000000000000 DUP2 MSTORE PUSH1 0x4 ADD PUSH1 0x40 MLOAD DUP1 SWAP2 SUB SWAP1 REVERT JUMPDEST POP PUSH2 0x2C38 JUMP JUMPDEST PUSH1 0x40 MLOAD PUSH32 0x8C379A000000000000000000000000000000000000000000000000000000000 DUP2 MSTORE PUSH1 0x4 ADD PUSH2 0x2C2F SWAP1 PUSH2 0x4C75 JUMP JUMPDEST PUSH1 0x40 MLOAD DUP1 SWAP2 SUB SWAP1 REVERT JUMPDEST POP POP POP JUMP JUMPDEST PUSH1 0x1 PUSH1 0xA DUP2 SWAP1 SSTORE POP JUMP JUMPDEST PUSH1 0x0 PUSH20 0xFFFFFFFFFFFFFFFFFFFFFFFFFFFFFFFFFFFFFFFF AND DUP5 PUSH20 0xFFFFFFFFFFFFFFFFFFFFFFFFFFFFFFFFFFFFFFFF AND SUB PUSH2 0x2CB9 JUMPI PUSH1 0x0 PUSH1 0x40 MLOAD PUSH32 0xE602DF0500000000000000000000000000000000000000000000000000000000 DUP2 MSTORE PUSH1 0x4 ADD PUSH2 0x2CB0 SWAP2 SWAP1 PUSH2 0x40B4 JUMP JUMPDEST PUSH1 0x40 MLOAD DUP1 SWAP2 SUB SWAP1 REVERT JUMPDEST PUSH1 0x0 PUSH20 0xFFFFFFFFFFFFFFFFFFFFFFFFFFFFFFFFFFFFFFFF AND DUP4 PUSH20 0xFFFFFFFFFFFFFFFFFFFFFFFFFFFFFFFFFFFFFFFF AND SUB PUSH2 0x2D2B JUMPI PUSH1 0x0 PUSH1 0x40 MLOAD PUSH32 0x94280D6200000000000000000000000000000000000000000000000000000000 DUP2 MSTORE PUSH1 0x4 ADD PUSH2 0x2D22 SWAP2 SWAP1 PUSH2 0x40B4 JUMP JUMPDEST PUSH1 0x40 MLOAD DUP1 SWAP2 SUB SWAP1 REVERT JUMPDEST DUP2 PUSH1 0x1 PUSH1 0x0 DUP7 PUSH20 0xFFFFFFFFFFFFFFFFFFFFFFFFFFFFFFFFFFFFFFFF AND PUSH20 0xFFFFFFFFFFFFFFFFFFFFFFFFFFFFFFFFFFFFFFFF AND DUP2 MSTORE PUSH1 0x20 ADD SWAP1 DUP2 MSTORE PUSH1 0x20 ADD PUSH1 0x0 KECCAK256 PUSH1 0x0 DUP6 PUSH20 0xFFFFFFFFFFFFFFFFFFFFFFFFFFFFFFFFFFFFFFFF AND PUSH20 0xFFFFFFFFFFFFFFFFFFFFFFFFFFFFFFFFFFFFFFFF AND DUP2 MSTORE PUSH1 0x20 ADD SWAP1 DUP2 MSTORE PUSH1 0x20 ADD PUSH1 0x0 KECCAK256 DUP2 SWAP1 SSTORE POP DUP1 ISZERO PUSH2 0x2E18 JUMPI DUP3 PUSH20 0xFFFFFFFFFFFFFFFFFFFFFFFFFFFFFFFFFFFFFFFF AND DUP5 PUSH20 0xFFFFFFFFFFFFFFFFFFFFFFFFFFFFFFFFFFFFFFFF AND PUSH32 0x8C5BE1E5EBEC7D5BD14F71427D1E84F3DD0314C0F7B2291E5B200AC8C7C3B925 DUP5 PUSH1 0x40 MLOAD PUSH2 0x2E0F SWAP2 SWAP1 PUSH2 0x3AF8 JUMP JUMPDEST PUSH1 0x40 MLOAD DUP1 SWAP2 SUB SWAP1 LOG3 JUMPDEST POP POP POP POP JUMP JUMPDEST PUSH2 0x2E28 DUP3 DUP3 PUSH2 0x13A8 JUMP JUMPDEST PUSH2 0x2E6B JUMPI DUP1 DUP3 PUSH1 0x40 MLOAD PUSH32 0xE2517D3F00000000000000000000000000000000000000000000000000000000 DUP2 MSTORE PUSH1 0x4 ADD PUSH2 0x2E62 SWAP3 SWAP2 SWAP1 PUSH2 0x4C95 JUMP JUMPDEST PUSH1 0x40 MLOAD DUP1 SWAP2 SUB SWAP1 REVERT JUMPDEST POP POP JUMP JUMPDEST PUSH1 0x0 PUSH20 0xFFFFFFFFFFFFFFFFFFFFFFFFFFFFFFFFFFFFFFFF AND DUP4 PUSH20 0xFFFFFFFFFFFFFFFFFFFFFFFFFFFFFFFFFFFFFFFF AND SUB PUSH2 0x2EC1 JUMPI DUP1 PUSH1 0x2 PUSH1 0x0 DUP3 DUP3 SLOAD PUSH2 0x2EB5 SWAP2 SWAP1 PUSH2 0x45F0 JUMP JUMPDEST SWAP3 POP POP DUP2 SWAP1 SSTORE POP PUSH2 0x2F94 JUMP JUMPDEST PUSH1 0x0 DUP1 PUSH1 0x0 DUP6 PUSH20 0xFFFFFFFFFFFFFFFFFFFFFFFFFFFFFFFFFFFFFFFF AND PUSH20 0xFFFFFFFFFFFFFFFFFFFFFFFFFFFFFFFFFFFFFFFF AND DUP2 MSTORE PUSH1 0x20 ADD SWAP1 DUP2 MSTORE PUSH1 0x20 ADD PUSH1 0x0 KECCAK256 SLOAD SWAP1 POP DUP2 DUP2 LT ISZERO PUSH2 0x2F4D JUMPI DUP4 DUP2 DUP4 PUSH1 0x40 MLOAD PUSH32 0xE450D38C00000000000000000000000000000000000000000000000000000000 DUP2 MSTORE PUSH1 0x4 ADD PUSH2 0x2F44 SWAP4 SWAP3 SWAP2 SWAP1 PUSH2 0x4768 JUMP JUMPDEST PUSH1 0x40 MLOAD DUP1 SWAP2 SUB SWAP1 REVERT JUMPDEST DUP2 DUP2 SUB PUSH1 0x0 DUP1 DUP7 PUSH20 0xFFFFFFFFFFFFFFFFFFFFFFFFFFFFFFFFFFFFFFFF AND PUSH20 0xFFFFFFFFFFFFFFFFFFFFFFFFFFFFFFFFFFFFFFFF AND DUP2 MSTORE PUSH1 0x20 ADD SWAP1 DUP2 MSTORE PUSH1 0x20 ADD PUSH1 0x0 KECCAK256 DUP2 SWAP1 SSTORE POP POP JUMPDEST PUSH1 0x0 PUSH20 0xFFFFFFFFFFFFFFFFFFFFFFFFFFFFFFFFFFFFFFFF AND DUP3 PUSH20 0xFFFFFFFFFFFFFFFFFFFFFFFFFFFFFFFFFFFFFFFF AND SUB PUSH2 0x2FDD JUMPI DUP1 PUSH1 0x2 PUSH1 0x0 DUP3 DUP3 SLOAD SUB SWAP3 POP POP DUP2 SWAP1 SSTORE POP PUSH2 0x302A JUMP JUMPDEST DUP1 PUSH1 0x0 DUP1 DUP5 PUSH20 0xFFFFFFFFFFFFFFFFFFFFFFFFFFFFFFFFFFFFFFFF AND PUSH20 0xFFFFFFFFFFFFFFFFFFFFFFFFFFFFFFFFFFFFFFFF AND DUP2 MSTORE PUSH1 0x20 ADD SWAP1 DUP2 MSTORE PUSH1 0x20 ADD PUSH1 0x0 KECCAK256 PUSH1 0x0 DUP3 DUP3 SLOAD ADD SWAP3 POP POP DUP2 SWAP1 SSTORE POP JUMPDEST DUP2 PUSH20 0xFFFFFFFFFFFFFFFFFFFFFFFFFFFFFFFFFFFFFFFF AND DUP4 PUSH20 0xFFFFFFFFFFFFFFFFFFFFFFFFFFFFFFFFFFFFFFFF AND PUSH32 0xDDF252AD1BE2C89B69C2B068FC378DAA952BA7F163C4A11628F55A4DF523B3EF DUP4 PUSH1 0x40 MLOAD PUSH2 0x3087 SWAP2 SWAP1 PUSH2 0x3AF8 JUMP JUMPDEST PUSH1 0x40 MLOAD DUP1 SWAP2 SUB SWAP1 LOG3 POP POP POP JUMP JUMPDEST PUSH1 0x0 PUSH32 0x8B73C3C69BB8FE3D512ECC4CF759CC79239F7B179B0FFACAA9A75D522B39400F PUSH32 0x0 PUSH32 0x0 CHAINID ADDRESS PUSH1 0x40 MLOAD PUSH1 0x20 ADD PUSH2 0x310F SWAP6 SWAP5 SWAP4 SWAP3 SWAP2 SWAP1 PUSH2 0x4CBE JUMP JUMPDEST PUSH1 0x40 MLOAD PUSH1 0x20 DUP2 DUP4 SUB SUB DUP2 MSTORE SWAP1 PUSH1 0x40 MSTORE DUP1 MLOAD SWAP1 PUSH1 0x20 ADD KECCAK256 SWAP1 POP SWAP1 JUMP JUMPDEST PUSH1 0x0 PUSH1 0x5 PUSH1 0x0 SWAP1 SLOAD SWAP1 PUSH2 0x100 EXP SWAP1 DIV PUSH20 0xFFFFFFFFFFFFFFFFFFFFFFFFFFFFFFFFFFFFFFFF AND SWAP1 POP DUP2 PUSH1 0x5 PUSH1 0x0 PUSH2 0x100 EXP DUP2 SLOAD DUP2 PUSH20 0xFFFFFFFFFFFFFFFFFFFFFFFFFFFFFFFFFFFFFFFF MUL NOT AND SWAP1 DUP4 PUSH20 0xFFFFFFFFFFFFFFFFFFFFFFFFFFFFFFFFFFFFFFFF AND MUL OR SWAP1 SSTORE POP DUP2 PUSH20 0xFFFFFFFFFFFFFFFFFFFFFFFFFFFFFFFFFFFFFFFF AND DUP2 PUSH20 0xFFFFFFFFFFFFFFFFFFFFFFFFFFFFFFFFFFFFFFFF AND PUSH32 0x8BE0079C531659141344CD1FD0A4F28419497F9722A3DAAFE3B4186F6B6457E0 PUSH1 0x40 MLOAD PUSH1 0x40 MLOAD DUP1 SWAP2 SUB SWAP1 LOG3 POP POP JUMP JUMPDEST PUSH1 0x60 PUSH1 0xFF PUSH1 0x0 SHL DUP4 EQ PUSH2 0x320D JUMPI PUSH2 0x3206 DUP4 PUSH2 0x3618 JUMP JUMPDEST SWAP1 POP PUSH2 0x329A JUMP JUMPDEST DUP2 DUP1 SLOAD PUSH2 0x3219 SWAP1 PUSH2 0x444A JUMP JUMPDEST DUP1 PUSH1 0x1F ADD PUSH1 0x20 DUP1 SWAP2 DIV MUL PUSH1 0x20 ADD PUSH1 0x40 MLOAD SWAP1 DUP2 ADD PUSH1 0x40 MSTORE DUP1 SWAP3 SWAP2 SWAP1 DUP2 DUP2 MSTORE PUSH1 0x20 ADD DUP3 DUP1 SLOAD PUSH2 0x3245 SWAP1 PUSH2 0x444A JUMP JUMPDEST DUP1 ISZERO PUSH2 0x3292 JUMPI DUP1 PUSH1 0x1F LT PUSH2 0x3267 JUMPI PUSH2 0x100 DUP1 DUP4 SLOAD DIV MUL DUP4 MSTORE SWAP2 PUSH1 0x20 ADD SWAP2 PUSH2 0x3292 JUMP JUMPDEST DUP3 ADD SWAP2 SWAP1 PUSH1 0x0 MSTORE PUSH1 0x20 PUSH1 0x0 KECCAK256 SWAP1 JUMPDEST DUP2 SLOAD DUP2 MSTORE SWAP1 PUSH1 0x1 ADD SWAP1 PUSH1 0x20 ADD DUP1 DUP4 GT PUSH2 0x3275 JUMPI DUP3 SWAP1 SUB PUSH1 0x1F AND DUP3 ADD SWAP2 JUMPDEST POP POP POP POP POP SWAP1 POP JUMPDEST SWAP3 SWAP2 POP POP JUMP JUMPDEST PUSH1 0x0 PUSH1 0x12 DUP4 PUSH1 0xFF AND SUB PUSH2 0x32B5 JUMPI DUP4 SWAP1 POP PUSH2 0x3378 JUMP JUMPDEST PUSH1 0x0 PUSH1 0x12 DUP5 PUSH1 0xFF AND LT PUSH2 0x32D4 JUMPI PUSH1 0x12 DUP5 PUSH2 0x32CF SWAP2 SWAP1 PUSH2 0x4D11 JUMP JUMPDEST PUSH2 0x32E2 JUMP JUMPDEST DUP4 PUSH1 0x12 PUSH2 0x32E1 SWAP2 SWAP1 PUSH2 0x4D11 JUMP JUMPDEST JUMPDEST PUSH1 0xFF AND SWAP1 POP DUP3 PUSH2 0x3332 JUMPI PUSH1 0x12 DUP5 PUSH1 0xFF AND LT PUSH2 0x3314 JUMPI DUP1 PUSH1 0xA PUSH2 0x3304 SWAP2 SWAP1 PUSH2 0x4E79 JUMP JUMPDEST DUP6 PUSH2 0x330F SWAP2 SWAP1 PUSH2 0x4AA3 JUMP JUMPDEST PUSH2 0x332D JUMP JUMPDEST DUP1 PUSH1 0xA PUSH2 0x3321 SWAP2 SWAP1 PUSH2 0x4E79 JUMP JUMPDEST DUP6 PUSH2 0x332C SWAP2 SWAP1 PUSH2 0x4B14 JUMP JUMPDEST JUMPDEST PUSH2 0x3374 JUMP JUMPDEST PUSH1 0x12 DUP5 PUSH1 0xFF AND LT PUSH2 0x335A JUMPI DUP1 PUSH1 0xA PUSH2 0x334A SWAP2 SWAP1 PUSH2 0x4E79 JUMP JUMPDEST DUP6 PUSH2 0x3355 SWAP2 SWAP1 PUSH2 0x4B14 JUMP JUMPDEST PUSH2 0x3373 JUMP JUMPDEST DUP1 PUSH1 0xA PUSH2 0x3367 SWAP2 SWAP1 PUSH2 0x4E79 JUMP JUMPDEST DUP6 PUSH2 0x3372 SWAP2 SWAP1 PUSH2 0x4AA3 JUMP JUMPDEST JUMPDEST JUMPDEST SWAP2 POP POP JUMPDEST SWAP4 SWAP3 POP POP POP JUMP JUMPDEST PUSH1 0x0 PUSH1 0x40 MLOAD PUSH32 0x1901000000000000000000000000000000000000000000000000000000000000 DUP2 MSTORE DUP4 PUSH1 0x2 DUP3 ADD MSTORE DUP3 PUSH1 0x22 DUP3 ADD MSTORE PUSH1 0x42 DUP2 KECCAK256 SWAP2 POP POP SWAP3 SWAP2 POP POP JUMP JUMPDEST PUSH1 0x0 DUP1 PUSH1 0x0 PUSH32 0x7FFFFFFFFFFFFFFFFFFFFFFFFFFFFFFF5D576E7357A4501DDFE92F46681B20A0 DUP5 PUSH1 0x0 SHR GT ISZERO PUSH2 0x3400 JUMPI PUSH1 0x0 PUSH1 0x3 DUP6 SWAP3 POP SWAP3 POP SWAP3 POP PUSH2 0x34AA JUMP JUMPDEST PUSH1 0x0 PUSH1 0x1 DUP9 DUP9 DUP9 DUP9 PUSH1 0x40 MLOAD PUSH1 0x0 DUP2 MSTORE PUSH1 0x20 ADD PUSH1 0x40 MSTORE PUSH1 0x40 MLOAD PUSH2 0x3425 SWAP5 SWAP4 SWAP3 SWAP2 SWAP1 PUSH2 0x4EC4 JUMP JUMPDEST PUSH1 0x20 PUSH1 0x40 MLOAD PUSH1 0x20 DUP2 SUB SWAP1 DUP1 DUP5 SUB SWAP1 DUP6 GAS STATICCALL ISZERO DUP1 ISZERO PUSH2 0x3447 JUMPI RETURNDATASIZE PUSH1 0x0 DUP1 RETURNDATACOPY RETURNDATASIZE PUSH1 0x0 REVERT JUMPDEST POP POP POP PUSH1 0x20 PUSH1 0x40 MLOAD SUB MLOAD SWAP1 POP PUSH1 0x0 PUSH20 0xFFFFFFFFFFFFFFFFFFFFFFFFFFFFFFFFFFFFFFFF AND DUP2 PUSH20 0xFFFFFFFFFFFFFFFFFFFFFFFFFFFFFFFFFFFFFFFF AND SUB PUSH2 0x349B JUMPI PUSH1 0x0 PUSH1 0x1 PUSH1 0x0 DUP1 SHL SWAP4 POP SWAP4 POP SWAP4 POP POP PUSH2 0x34AA JUMP JUMPDEST DUP1 PUSH1 0x0 DUP1 PUSH1 0x0 SHL SWAP4 POP SWAP4 POP SWAP4 POP POP JUMPDEST SWAP5 POP SWAP5 POP SWAP5 SWAP2 POP POP JUMP JUMPDEST PUSH1 0x0 PUSH1 0x3 DUP2 GT ISZERO PUSH2 0x34C8 JUMPI PUSH2 0x34C7 PUSH2 0x4F09 JUMP JUMPDEST JUMPDEST DUP3 PUSH1 0x3 DUP2 GT ISZERO PUSH2 0x34DB JUMPI PUSH2 0x34DA PUSH2 0x4F09 JUMP JUMPDEST JUMPDEST SUB ISZERO PUSH2 0x3614 JUMPI PUSH1 0x1 PUSH1 0x3 DUP2 GT ISZERO PUSH2 0x34F5 JUMPI PUSH2 0x34F4 PUSH2 0x4F09 JUMP JUMPDEST JUMPDEST DUP3 PUSH1 0x3 DUP2 GT ISZERO PUSH2 0x3508 JUMPI PUSH2 0x3507 PUSH2 0x4F09 JUMP JUMPDEST JUMPDEST SUB PUSH2 0x353F JUMPI PUSH1 0x40 MLOAD PUSH32 0xF645EEDF00000000000000000000000000000000000000000000000000000000 DUP2 MSTORE PUSH1 0x4 ADD PUSH1 0x40 MLOAD DUP1 SWAP2 SUB SWAP1 REVERT JUMPDEST PUSH1 0x2 PUSH1 0x3 DUP2 GT ISZERO PUSH2 0x3553 JUMPI PUSH2 0x3552 PUSH2 0x4F09 JUMP JUMPDEST JUMPDEST DUP3 PUSH1 0x3 DUP2 GT ISZERO PUSH2 0x3566 JUMPI PUSH2 0x3565 PUSH2 0x4F09 JUMP JUMPDEST JUMPDEST SUB PUSH2 0x35AB JUMPI DUP1 PUSH1 0x0 SHR PUSH1 0x40 MLOAD PUSH32 0xFCE698F700000000000000000000000000000000000000000000000000000000 DUP2 MSTORE PUSH1 0x4 ADD PUSH2 0x35A2 SWAP2 SWAP1 PUSH2 0x3AF8 JUMP JUMPDEST PUSH1 0x40 MLOAD DUP1 SWAP2 SUB SWAP1 REVERT JUMPDEST PUSH1 0x3 DUP1 DUP2 GT ISZERO PUSH2 0x35BE JUMPI PUSH2 0x35BD PUSH2 0x4F09 JUMP JUMPDEST JUMPDEST DUP3 PUSH1 0x3 DUP2 GT ISZERO PUSH2 0x35D1 JUMPI PUSH2 0x35D0 PUSH2 0x4F09 JUMP JUMPDEST JUMPDEST SUB PUSH2 0x3613 JUMPI DUP1 PUSH1 0x40 MLOAD PUSH32 0xD78BCE0C00000000000000000000000000000000000000000000000000000000 DUP2 MSTORE PUSH1 0x4 ADD PUSH2 0x360A SWAP2 SWAP1 PUSH2 0x3BD8 JUMP JUMPDEST PUSH1 0x40 MLOAD DUP1 SWAP2 SUB SWAP1 REVERT JUMPDEST JUMPDEST POP POP JUMP JUMPDEST PUSH1 0x60 PUSH1 0x0 PUSH2 0x3625 DUP4 PUSH2 0x368C JUMP JUMPDEST SWAP1 POP PUSH1 0x0 PUSH1 0x20 PUSH8 0xFFFFFFFFFFFFFFFF DUP2 GT ISZERO PUSH2 0x3644 JUMPI PUSH2 0x3643 PUSH2 0x3C9C JUMP JUMPDEST JUMPDEST PUSH1 0x40 MLOAD SWAP1 DUP1 DUP3 MSTORE DUP1 PUSH1 0x1F ADD PUSH1 0x1F NOT AND PUSH1 0x20 ADD DUP3 ADD PUSH1 0x40 MSTORE DUP1 ISZERO PUSH2 0x3676 JUMPI DUP2 PUSH1 0x20 ADD PUSH1 0x1 DUP3 MUL DUP1 CALLDATASIZE DUP4 CALLDATACOPY DUP1 DUP3 ADD SWAP2 POP POP SWAP1 POP JUMPDEST POP SWAP1 POP DUP2 DUP2 MSTORE DUP4 PUSH1 0x20 DUP3 ADD MSTORE DUP1 SWAP3 POP POP POP SWAP2 SWAP1 POP JUMP JUMPDEST PUSH1 0x0 DUP1 PUSH1 0xFF DUP4 PUSH1 0x0 SHR AND SWAP1 POP PUSH1 0x1F DUP2 GT ISZERO PUSH2 0x36D3 JUMPI PUSH1 0x40 MLOAD PUSH32 0xB3512B0C00000000000000000000000000000000000000000000000000000000 DUP2 MSTORE PUSH1 0x4 ADD PUSH1 0x40 MLOAD DUP1 SWAP2 SUB SWAP1 REVERT JUMPDEST DUP1 SWAP2 POP POP SWAP2 SWAP1 POP JUMP JUMPDEST PUSH1 0x40 MLOAD DUP1 PUSH1 0x60 ADD PUSH1 0x40 MSTORE DUP1 PUSH1 0x0 DUP2 MSTORE PUSH1 0x20 ADD PUSH1 0x0 PUSH20 0xFFFFFFFFFFFFFFFFFFFFFFFFFFFFFFFFFFFFFFFF AND DUP2 MSTORE PUSH1 0x20 ADD PUSH1 0x0 PUSH1 0xFF AND DUP2 MSTORE POP SWAP1 JUMP JUMPDEST PUSH1 0x0 PUSH1 0x40 MLOAD SWAP1 POP SWAP1 JUMP JUMPDEST PUSH1 0x0 DUP1 REVERT JUMPDEST PUSH1 0x0 DUP1 REVERT JUMPDEST PUSH1 0x0 PUSH32 0xFFFFFFFF00000000000000000000000000000000000000000000000000000000 DUP3 AND SWAP1 POP SWAP2 SWAP1 POP JUMP JUMPDEST PUSH2 0x375F DUP2 PUSH2 0x372A JUMP JUMPDEST DUP2 EQ PUSH2 0x376A JUMPI PUSH1 0x0 DUP1 REVERT JUMPDEST POP JUMP JUMPDEST PUSH1 0x0 DUP2 CALLDATALOAD SWAP1 POP PUSH2 0x377C DUP2 PUSH2 0x3756 JUMP JUMPDEST SWAP3 SWAP2 POP POP JUMP JUMPDEST PUSH1 0x0 PUSH1 0x20 DUP3 DUP5 SUB SLT ISZERO PUSH2 0x3798 JUMPI PUSH2 0x3797 PUSH2 0x3720 JUMP JUMPDEST JUMPDEST PUSH1 0x0 PUSH2 0x37A6 DUP5 DUP3 DUP6 ADD PUSH2 0x376D JUMP JUMPDEST SWAP2 POP POP SWAP3 SWAP2 POP POP JUMP JUMPDEST PUSH1 0x0 DUP2 ISZERO ISZERO SWAP1 POP SWAP2 SWAP1 POP JUMP JUMPDEST PUSH2 0x37C4 DUP2 PUSH2 0x37AF JUMP JUMPDEST DUP3 MSTORE POP POP JUMP JUMPDEST PUSH1 0x0 PUSH1 0x20 DUP3 ADD SWAP1 POP PUSH2 0x37DF PUSH1 0x0 DUP4 ADD DUP5 PUSH2 0x37BB JUMP JUMPDEST SWAP3 SWAP2 POP POP JUMP JUMPDEST PUSH1 0x0 DUP2 MLOAD SWAP1 POP SWAP2 SWAP1 POP JUMP JUMPDEST PUSH1 0x0 DUP3 DUP3 MSTORE PUSH1 0x20 DUP3 ADD SWAP1 POP SWAP3 SWAP2 POP POP JUMP JUMPDEST PUSH1 0x0 JUMPDEST DUP4 DUP2 LT ISZERO PUSH2 0x381F JUMPI DUP1 DUP3 ADD MLOAD DUP2 DUP5 ADD MSTORE PUSH1 0x20 DUP2 ADD SWAP1 POP PUSH2 0x3804 JUMP JUMPDEST PUSH1 0x0 DUP5 DUP5 ADD MSTORE POP POP POP POP JUMP JUMPDEST PUSH1 0x0 PUSH1 0x1F NOT PUSH1 0x1F DUP4 ADD AND SWAP1 POP SWAP2 SWAP1 POP JUMP JUMPDEST PUSH1 0x0 PUSH2 0x3847 DUP3 PUSH2 0x37E5 JUMP JUMPDEST PUSH2 0x3851 DUP2 DUP6 PUSH2 0x37F0 JUMP JUMPDEST SWAP4 POP PUSH2 0x3861 DUP2 DUP6 PUSH1 0x20 DUP7 ADD PUSH2 0x3801 JUMP JUMPDEST PUSH2 0x386A DUP2 PUSH2 0x382B JUMP JUMPDEST DUP5 ADD SWAP2 POP POP SWAP3 SWAP2 POP POP JUMP JUMPDEST PUSH1 0x0 PUSH1 0x20 DUP3 ADD SWAP1 POP DUP2 DUP2 SUB PUSH1 0x0 DUP4 ADD MSTORE PUSH2 0x388F DUP2 DUP5 PUSH2 0x383C JUMP JUMPDEST SWAP1 POP SWAP3 SWAP2 POP POP JUMP JUMPDEST PUSH1 0x0 PUSH20 0xFFFFFFFFFFFFFFFFFFFFFFFFFFFFFFFFFFFFFFFF DUP3 AND SWAP1 POP SWAP2 SWAP1 POP JUMP JUMPDEST PUSH1 0x0 PUSH2 0x38C2 DUP3 PUSH2 0x3897 JUMP JUMPDEST SWAP1 POP SWAP2 SWAP1 POP JUMP JUMPDEST PUSH2 0x38D2 DUP2 PUSH2 0x38B7 JUMP JUMPDEST DUP2 EQ PUSH2 0x38DD JUMPI PUSH1 0x0 DUP1 REVERT JUMPDEST POP JUMP JUMPDEST PUSH1 0x0 DUP2 CALLDATALOAD SWAP1 POP PUSH2 0x38EF DUP2 PUSH2 0x38C9 JUMP JUMPDEST SWAP3 SWAP2 POP POP JUMP JUMPDEST PUSH1 0x0 DUP2 SWAP1 POP SWAP2 SWAP1 POP JUMP JUMPDEST PUSH2 0x3908 DUP2 PUSH2 0x38F5 JUMP JUMPDEST DUP2 EQ PUSH2 0x3913 JUMPI PUSH1 0x0 DUP1 REVERT JUMPDEST POP JUMP JUMPDEST PUSH1 0x0 DUP2 CALLDATALOAD SWAP1 POP PUSH2 0x3925 DUP2 PUSH2 0x38FF JUMP JUMPDEST SWAP3 SWAP2 POP POP JUMP JUMPDEST PUSH1 0x0 DUP1 PUSH1 0x40 DUP4 DUP6 SUB SLT ISZERO PUSH2 0x3942 JUMPI PUSH2 0x3941 PUSH2 0x3720 JUMP JUMPDEST JUMPDEST PUSH1 0x0 PUSH2 0x3950 DUP6 DUP3 DUP7 ADD PUSH2 0x38E0 JUMP JUMPDEST SWAP3 POP POP PUSH1 0x20 PUSH2 0x3961 DUP6 DUP3 DUP7 ADD PUSH2 0x3916 JUMP JUMPDEST SWAP2 POP POP SWAP3 POP SWAP3 SWAP1 POP JUMP JUMPDEST PUSH1 0x0 DUP1 REVERT JUMPDEST PUSH1 0x0 DUP1 REVERT JUMPDEST PUSH1 0x0 DUP1 REVERT JUMPDEST PUSH1 0x0 DUP1 DUP4 PUSH1 0x1F DUP5 ADD SLT PUSH2 0x3990 JUMPI PUSH2 0x398F PUSH2 0x396B JUMP JUMPDEST JUMPDEST DUP3 CALLDATALOAD SWAP1 POP PUSH8 0xFFFFFFFFFFFFFFFF DUP2 GT ISZERO PUSH2 0x39AD JUMPI PUSH2 0x39AC PUSH2 0x3970 JUMP JUMPDEST JUMPDEST PUSH1 0x20 DUP4 ADD SWAP2 POP DUP4 PUSH1 0x1 DUP3 MUL DUP4 ADD GT ISZERO PUSH2 0x39C9 JUMPI PUSH2 0x39C8 PUSH2 0x3975 JUMP JUMPDEST JUMPDEST SWAP3 POP SWAP3 SWAP1 POP JUMP JUMPDEST PUSH1 0x0 DUP1 PUSH1 0x0 PUSH1 0x40 DUP5 DUP7 SUB SLT ISZERO PUSH2 0x39E9 JUMPI PUSH2 0x39E8 PUSH2 0x3720 JUMP JUMPDEST JUMPDEST PUSH1 0x0 DUP5 ADD CALLDATALOAD PUSH8 0xFFFFFFFFFFFFFFFF DUP2 GT ISZERO PUSH2 0x3A07 JUMPI PUSH2 0x3A06 PUSH2 0x3725 JUMP JUMPDEST JUMPDEST PUSH2 0x3A13 DUP7 DUP3 DUP8 ADD PUSH2 0x397A JUMP JUMPDEST SWAP4 POP SWAP4 POP POP PUSH1 0x20 PUSH2 0x3A26 DUP7 DUP3 DUP8 ADD PUSH2 0x3916 JUMP JUMPDEST SWAP2 POP POP SWAP3 POP SWAP3 POP SWAP3 JUMP JUMPDEST PUSH2 0x3A39 DUP2 PUSH2 0x37AF JUMP JUMPDEST DUP2 EQ PUSH2 0x3A44 JUMPI PUSH1 0x0 DUP1 REVERT JUMPDEST POP JUMP JUMPDEST PUSH1 0x0 DUP2 CALLDATALOAD SWAP1 POP PUSH2 0x3A56 DUP2 PUSH2 0x3A30 JUMP JUMPDEST SWAP3 SWAP2 POP POP JUMP JUMPDEST PUSH1 0x0 PUSH1 0x20 DUP3 DUP5 SUB SLT ISZERO PUSH2 0x3A72 JUMPI PUSH2 0x3A71 PUSH2 0x3720 JUMP JUMPDEST JUMPDEST PUSH1 0x0 PUSH2 0x3A80 DUP5 DUP3 DUP6 ADD PUSH2 0x3A47 JUMP JUMPDEST SWAP2 POP POP SWAP3 SWAP2 POP POP JUMP JUMPDEST PUSH1 0x0 DUP1 PUSH1 0x0 PUSH1 0x40 DUP5 DUP7 SUB SLT ISZERO PUSH2 0x3AA2 JUMPI PUSH2 0x3AA1 PUSH2 0x3720 JUMP JUMPDEST JUMPDEST PUSH1 0x0 DUP5 ADD CALLDATALOAD PUSH8 0xFFFFFFFFFFFFFFFF DUP2 GT ISZERO PUSH2 0x3AC0 JUMPI PUSH2 0x3ABF PUSH2 0x3725 JUMP JUMPDEST JUMPDEST PUSH2 0x3ACC DUP7 DUP3 DUP8 ADD PUSH2 0x397A JUMP JUMPDEST SWAP4 POP SWAP4 POP POP PUSH1 0x20 PUSH2 0x3ADF DUP7 DUP3 DUP8 ADD PUSH2 0x38E0 JUMP JUMPDEST SWAP2 POP POP SWAP3 POP SWAP3 POP SWAP3 JUMP JUMPDEST PUSH2 0x3AF2 DUP2 PUSH2 0x38F5 JUMP JUMPDEST DUP3 MSTORE POP POP JUMP JUMPDEST PUSH1 0x0 PUSH1 0x20 DUP3 ADD SWAP1 POP PUSH2 0x3B0D PUSH1 0x0 DUP4 ADD DUP5 PUSH2 0x3AE9 JUMP JUMPDEST SWAP3 SWAP2 POP POP JUMP JUMPDEST PUSH1 0x0 DUP1 PUSH1 0x0 PUSH1 0x60 DUP5 DUP7 SUB SLT ISZERO PUSH2 0x3B2C JUMPI PUSH2 0x3B2B PUSH2 0x3720 JUMP JUMPDEST JUMPDEST PUSH1 0x0 PUSH2 0x3B3A DUP7 DUP3 DUP8 ADD PUSH2 0x38E0 JUMP JUMPDEST SWAP4 POP POP PUSH1 0x20 PUSH2 0x3B4B DUP7 DUP3 DUP8 ADD PUSH2 0x38E0 JUMP JUMPDEST SWAP3 POP POP PUSH1 0x40 PUSH2 0x3B5C DUP7 DUP3 DUP8 ADD PUSH2 0x3916 JUMP JUMPDEST SWAP2 POP POP SWAP3 POP SWAP3 POP SWAP3 JUMP JUMPDEST PUSH1 0x0 DUP2 SWAP1 POP SWAP2 SWAP1 POP JUMP JUMPDEST PUSH2 0x3B79 DUP2 PUSH2 0x3B66 JUMP JUMPDEST DUP2 EQ PUSH2 0x3B84 JUMPI PUSH1 0x0 DUP1 REVERT JUMPDEST POP JUMP JUMPDEST PUSH1 0x0 DUP2 CALLDATALOAD SWAP1 POP PUSH2 0x3B96 DUP2 PUSH2 0x3B70 JUMP JUMPDEST SWAP3 SWAP2 POP POP JUMP JUMPDEST PUSH1 0x0 PUSH1 0x20 DUP3 DUP5 SUB SLT ISZERO PUSH2 0x3BB2 JUMPI PUSH2 0x3BB1 PUSH2 0x3720 JUMP JUMPDEST JUMPDEST PUSH1 0x0 PUSH2 0x3BC0 DUP5 DUP3 DUP6 ADD PUSH2 0x3B87 JUMP JUMPDEST SWAP2 POP POP SWAP3 SWAP2 POP POP JUMP JUMPDEST PUSH2 0x3BD2 DUP2 PUSH2 0x3B66 JUMP JUMPDEST DUP3 MSTORE POP POP JUMP JUMPDEST PUSH1 0x0 PUSH1 0x20 DUP3 ADD SWAP1 POP PUSH2 0x3BED PUSH1 0x0 DUP4 ADD DUP5 PUSH2 0x3BC9 JUMP JUMPDEST SWAP3 SWAP2 POP POP JUMP JUMPDEST PUSH1 0x0 DUP1 PUSH1 0x40 DUP4 DUP6 SUB SLT ISZERO PUSH2 0x3C0A JUMPI PUSH2 0x3C09 PUSH2 0x3720 JUMP JUMPDEST JUMPDEST PUSH1 0x0 PUSH2 0x3C18 DUP6 DUP3 DUP7 ADD PUSH2 0x3B87 JUMP JUMPDEST SWAP3 POP POP PUSH1 0x20 PUSH2 0x3C29 DUP6 DUP3 DUP7 ADD PUSH2 0x38E0 JUMP JUMPDEST SWAP2 POP POP SWAP3 POP SWAP3 SWAP1 POP JUMP JUMPDEST PUSH1 0x0 PUSH1 0xFF DUP3 AND SWAP1 POP SWAP2 SWAP1 POP JUMP JUMPDEST PUSH2 0x3C49 DUP2 PUSH2 0x3C33 JUMP JUMPDEST DUP3 MSTORE POP POP JUMP JUMPDEST PUSH1 0x0 PUSH1 0x20 DUP3 ADD SWAP1 POP PUSH2 0x3C64 PUSH1 0x0 DUP4 ADD DUP5 PUSH2 0x3C40 JUMP JUMPDEST SWAP3 SWAP2 POP POP JUMP JUMPDEST PUSH1 0x0 PUSH1 0x20 DUP3 DUP5 SUB SLT ISZERO PUSH2 0x3C80 JUMPI PUSH2 0x3C7F PUSH2 0x3720 JUMP JUMPDEST JUMPDEST PUSH1 0x0 PUSH2 0x3C8E DUP5 DUP3 DUP6 ADD PUSH2 0x3916 JUMP JUMPDEST SWAP2 POP POP SWAP3 SWAP2 POP POP JUMP JUMPDEST PUSH1 0x0 DUP1 REVERT JUMPDEST PUSH32 0x4E487B7100000000000000000000000000000000000000000000000000000000 PUSH1 0x0 MSTORE PUSH1 0x41 PUSH1 0x4 MSTORE PUSH1 0x24 PUSH1 0x0 REVERT JUMPDEST PUSH2 0x3CD4 DUP3 PUSH2 0x382B JUMP JUMPDEST DUP2 ADD DUP2 DUP2 LT PUSH8 0xFFFFFFFFFFFFFFFF DUP3 GT OR ISZERO PUSH2 0x3CF3 JUMPI PUSH2 0x3CF2 PUSH2 0x3C9C JUMP JUMPDEST JUMPDEST DUP1 PUSH1 0x40 MSTORE POP POP POP JUMP JUMPDEST PUSH1 0x0 PUSH2 0x3D06 PUSH2 0x3716 JUMP JUMPDEST SWAP1 POP PUSH2 0x3D12 DUP3 DUP3 PUSH2 0x3CCB JUMP JUMPDEST SWAP2 SWAP1 POP JUMP JUMPDEST PUSH1 0x0 PUSH8 0xFFFFFFFFFFFFFFFF DUP3 GT ISZERO PUSH2 0x3D32 JUMPI PUSH2 0x3D31 PUSH2 0x3C9C JUMP JUMPDEST JUMPDEST PUSH2 0x3D3B DUP3 PUSH2 0x382B JUMP JUMPDEST SWAP1 POP PUSH1 0x20 DUP2 ADD SWAP1 POP SWAP2 SWAP1 POP JUMP JUMPDEST DUP3 DUP2 DUP4 CALLDATACOPY PUSH1 0x0 DUP4 DUP4 ADD MSTORE POP POP POP JUMP JUMPDEST PUSH1 0x0 PUSH2 0x3D6A PUSH2 0x3D65 DUP5 PUSH2 0x3D17 JUMP JUMPDEST PUSH2 0x3CFC JUMP JUMPDEST SWAP1 POP DUP3 DUP2 MSTORE PUSH1 0x20 DUP2 ADD DUP5 DUP5 DUP5 ADD GT ISZERO PUSH2 0x3D86 JUMPI PUSH2 0x3D85 PUSH2 0x3C97 JUMP JUMPDEST JUMPDEST PUSH2 0x3D91 DUP5 DUP3 DUP6 PUSH2 0x3D48 JUMP JUMPDEST POP SWAP4 SWAP3 POP POP POP JUMP JUMPDEST PUSH1 0x0 DUP3 PUSH1 0x1F DUP4 ADD SLT PUSH2 0x3DAE JUMPI PUSH2 0x3DAD PUSH2 0x396B JUMP JUMPDEST JUMPDEST DUP2 CALLDATALOAD PUSH2 0x3DBE DUP5 DUP3 PUSH1 0x20 DUP7 ADD PUSH2 0x3D57 JUMP JUMPDEST SWAP2 POP POP SWAP3 SWAP2 POP POP JUMP JUMPDEST PUSH1 0x0 PUSH1 0x20 DUP3 DUP5 SUB SLT ISZERO PUSH2 0x3DDD JUMPI PUSH2 0x3DDC PUSH2 0x3720 JUMP JUMPDEST JUMPDEST PUSH1 0x0 DUP3 ADD CALLDATALOAD PUSH8 0xFFFFFFFFFFFFFFFF DUP2 GT ISZERO PUSH2 0x3DFB JUMPI PUSH2 0x3DFA PUSH2 0x3725 JUMP JUMPDEST JUMPDEST PUSH2 0x3E07 DUP5 DUP3 DUP6 ADD PUSH2 0x3D99 JUMP JUMPDEST SWAP2 POP POP SWAP3 SWAP2 POP POP JUMP JUMPDEST PUSH2 0x3E19 DUP2 PUSH2 0x38B7 JUMP JUMPDEST DUP3 MSTORE POP POP JUMP JUMPDEST PUSH1 0x0 PUSH1 0x60 DUP3 ADD SWAP1 POP PUSH2 0x3E34 PUSH1 0x0 DUP4 ADD DUP7 PUSH2 0x3AE9 JUMP JUMPDEST PUSH2 0x3E41 PUSH1 0x20 DUP4 ADD DUP6 PUSH2 0x3E10 JUMP JUMPDEST PUSH2 0x3E4E PUSH1 0x40 DUP4 ADD DUP5 PUSH2 0x3C40 JUMP JUMPDEST SWAP5 SWAP4 POP POP POP POP JUMP JUMPDEST PUSH1 0x0 PUSH1 0x20 DUP3 DUP5 SUB SLT ISZERO PUSH2 0x3E6C JUMPI PUSH2 0x3E6B PUSH2 0x3720 JUMP JUMPDEST JUMPDEST PUSH1 0x0 PUSH2 0x3E7A DUP5 DUP3 DUP6 ADD PUSH2 0x38E0 JUMP JUMPDEST SWAP2 POP POP SWAP3 SWAP2 POP POP JUMP JUMPDEST PUSH1 0x0 PUSH32 0xFF00000000000000000000000000000000000000000000000000000000000000 DUP3 AND SWAP1 POP SWAP2 SWAP1 POP JUMP JUMPDEST PUSH2 0x3EB8 DUP2 PUSH2 0x3E83 JUMP JUMPDEST DUP3 MSTORE POP POP JUMP JUMPDEST PUSH1 0x0 DUP2 MLOAD SWAP1 POP SWAP2 SWAP1 POP JUMP JUMPDEST PUSH1 0x0 DUP3 DUP3 MSTORE PUSH1 0x20 DUP3 ADD SWAP1 POP SWAP3 SWAP2 POP POP JUMP JUMPDEST PUSH1 0x0 DUP2 SWAP1 POP PUSH1 0x20 DUP3 ADD SWAP1 POP SWAP2 SWAP1 POP JUMP JUMPDEST PUSH2 0x3EF3 DUP2 PUSH2 0x38F5 JUMP JUMPDEST DUP3 MSTORE POP POP JUMP JUMPDEST PUSH1 0x0 PUSH2 0x3F05 DUP4 DUP4 PUSH2 0x3EEA JUMP JUMPDEST PUSH1 0x20 DUP4 ADD SWAP1 POP SWAP3 SWAP2 POP POP JUMP JUMPDEST PUSH1 0x0 PUSH1 0x20 DUP3 ADD SWAP1 POP SWAP2 SWAP1 POP JUMP JUMPDEST PUSH1 0x0 PUSH2 0x3F29 DUP3 PUSH2 0x3EBE JUMP JUMPDEST PUSH2 0x3F33 DUP2 DUP6 PUSH2 0x3EC9 JUMP JUMPDEST SWAP4 POP PUSH2 0x3F3E DUP4 PUSH2 0x3EDA JUMP JUMPDEST DUP1 PUSH1 0x0 JUMPDEST DUP4 DUP2 LT ISZERO PUSH2 0x3F6F JUMPI DUP2 MLOAD PUSH2 0x3F56 DUP9 DUP3 PUSH2 0x3EF9 JUMP JUMPDEST SWAP8 POP PUSH2 0x3F61 DUP4 PUSH2 0x3F11 JUMP JUMPDEST SWAP3 POP POP PUSH1 0x1 DUP2 ADD SWAP1 POP PUSH2 0x3F42 JUMP JUMPDEST POP DUP6 SWAP4 POP POP POP POP SWAP3 SWAP2 POP POP JUMP JUMPDEST PUSH1 0x0 PUSH1 0xE0 DUP3 ADD SWAP1 POP PUSH2 0x3F91 PUSH1 0x0 DUP4 ADD DUP11 PUSH2 0x3EAF JUMP JUMPDEST DUP2 DUP2 SUB PUSH1 0x20 DUP4 ADD MSTORE PUSH2 0x3FA3 DUP2 DUP10 PUSH2 0x383C JUMP JUMPDEST SWAP1 POP DUP2 DUP2 SUB PUSH1 0x40 DUP4 ADD MSTORE PUSH2 0x3FB7 DUP2 DUP9 PUSH2 0x383C JUMP JUMPDEST SWAP1 POP PUSH2 0x3FC6 PUSH1 0x60 DUP4 ADD DUP8 PUSH2 0x3AE9 JUMP JUMPDEST PUSH2 0x3FD3 PUSH1 0x80 DUP4 ADD DUP7 PUSH2 0x3E10 JUMP JUMPDEST PUSH2 0x3FE0 PUSH1 0xA0 DUP4 ADD DUP6 PUSH2 0x3BC9 JUMP JUMPDEST DUP2 DUP2 SUB PUSH1 0xC0 DUP4 ADD MSTORE PUSH2 0x3FF2 DUP2 DUP5 PUSH2 0x3F1E JUMP JUMPDEST SWAP1 POP SWAP9 SWAP8 POP POP POP POP POP POP POP POP JUMP JUMPDEST PUSH2 0x4009 DUP2 PUSH2 0x3C33 JUMP JUMPDEST DUP2 EQ PUSH2 0x4014 JUMPI PUSH1 0x0 DUP1 REVERT JUMPDEST POP JUMP JUMPDEST PUSH1 0x0 DUP2 CALLDATALOAD SWAP1 POP PUSH2 0x4026 DUP2 PUSH2 0x4000 JUMP JUMPDEST SWAP3 SWAP2 POP POP JUMP JUMPDEST PUSH1 0x0 DUP1 PUSH1 0x0 DUP1 PUSH1 0x0 PUSH1 0x80 DUP7 DUP9 SUB SLT ISZERO PUSH2 0x4048 JUMPI PUSH2 0x4047 PUSH2 0x3720 JUMP JUMPDEST JUMPDEST PUSH1 0x0 DUP7 ADD CALLDATALOAD PUSH8 0xFFFFFFFFFFFFFFFF DUP2 GT ISZERO PUSH2 0x4066 JUMPI PUSH2 0x4065 PUSH2 0x3725 JUMP JUMPDEST JUMPDEST PUSH2 0x4072 DUP9 DUP3 DUP10 ADD PUSH2 0x397A JUMP JUMPDEST SWAP6 POP SWAP6 POP POP PUSH1 0x20 PUSH2 0x4085 DUP9 DUP3 DUP10 ADD PUSH2 0x38E0 JUMP JUMPDEST SWAP4 POP POP PUSH1 0x40 PUSH2 0x4096 DUP9 DUP3 DUP10 ADD PUSH2 0x3916 JUMP JUMPDEST SWAP3 POP POP PUSH1 0x60 PUSH2 0x40A7 DUP9 DUP3 DUP10 ADD PUSH2 0x4017 JUMP JUMPDEST SWAP2 POP POP SWAP3 SWAP6 POP SWAP3 SWAP6 SWAP1 SWAP4 POP JUMP JUMPDEST PUSH1 0x0 PUSH1 0x20 DUP3 ADD SWAP1 POP PUSH2 0x40C9 PUSH1 0x0 DUP4 ADD DUP5 PUSH2 0x3E10 JUMP JUMPDEST SWAP3 SWAP2 POP POP JUMP JUMPDEST PUSH1 0x0 DUP1 PUSH1 0x20 DUP4 DUP6 SUB SLT ISZERO PUSH2 0x40E6 JUMPI PUSH2 0x40E5 PUSH2 0x3720 JUMP JUMPDEST JUMPDEST PUSH1 0x0 DUP4 ADD CALLDATALOAD PUSH8 0xFFFFFFFFFFFFFFFF DUP2 GT ISZERO PUSH2 0x4104 JUMPI PUSH2 0x4103 PUSH2 0x3725 JUMP JUMPDEST JUMPDEST PUSH2 0x4110 DUP6 DUP3 DUP7 ADD PUSH2 0x397A JUMP JUMPDEST SWAP3 POP SWAP3 POP POP SWAP3 POP SWAP3 SWAP1 POP JUMP JUMPDEST PUSH2 0x4125 DUP2 PUSH2 0x38B7 JUMP JUMPDEST DUP3 MSTORE POP POP JUMP JUMPDEST PUSH2 0x4134 DUP2 PUSH2 0x3C33 JUMP JUMPDEST DUP3 MSTORE POP POP JUMP JUMPDEST PUSH1 0x60 DUP3 ADD PUSH1 0x0 DUP3 ADD MLOAD PUSH2 0x4150 PUSH1 0x0 DUP6 ADD DUP3 PUSH2 0x3EEA JUMP JUMPDEST POP PUSH1 0x20 DUP3 ADD MLOAD PUSH2 0x4163 PUSH1 0x20 DUP6 ADD DUP3 PUSH2 0x411C JUMP JUMPDEST POP PUSH1 0x40 DUP3 ADD MLOAD PUSH2 0x4176 PUSH1 0x40 DUP6 ADD DUP3 PUSH2 0x412B JUMP JUMPDEST POP POP POP POP JUMP JUMPDEST PUSH1 0x0 PUSH1 0x60 DUP3 ADD SWAP1 POP PUSH2 0x4191 PUSH1 0x0 DUP4 ADD DUP5 PUSH2 0x413A JUMP JUMPDEST SWAP3 SWAP2 POP POP JUMP JUMPDEST PUSH1 0x0 DUP1 PUSH1 0x0 DUP1 PUSH1 0x60 DUP6 DUP8 SUB SLT ISZERO PUSH2 0x41B1 JUMPI PUSH2 0x41B0 PUSH2 0x3720 JUMP JUMPDEST JUMPDEST PUSH1 0x0 DUP6 ADD CALLDATALOAD PUSH8 0xFFFFFFFFFFFFFFFF DUP2 GT ISZERO PUSH2 0x41CF JUMPI PUSH2 0x41CE PUSH2 0x3725 JUMP JUMPDEST JUMPDEST PUSH2 0x41DB DUP8 DUP3 DUP9 ADD PUSH2 0x397A JUMP JUMPDEST SWAP5 POP SWAP5 POP POP PUSH1 0x20 PUSH2 0x41EE DUP8 DUP3 DUP9 ADD PUSH2 0x3916 JUMP JUMPDEST SWAP3 POP POP PUSH1 0x40 PUSH2 0x41FF DUP8 DUP3 DUP9 ADD PUSH2 0x3A47 JUMP JUMPDEST SWAP2 POP POP SWAP3 SWAP6 SWAP2 SWAP5 POP SWAP3 POP JUMP JUMPDEST PUSH1 0x0 DUP2 MLOAD SWAP1 POP SWAP2 SWAP1 POP JUMP JUMPDEST PUSH1 0x0 DUP3 DUP3 MSTORE PUSH1 0x20 DUP3 ADD SWAP1 POP SWAP3 SWAP2 POP POP JUMP JUMPDEST PUSH1 0x0 DUP2 SWAP1 POP PUSH1 0x20 DUP3 ADD SWAP1 POP SWAP2 SWAP1 POP JUMP JUMPDEST PUSH1 0x0 DUP3 DUP3 MSTORE PUSH1 0x20 DUP3 ADD SWAP1 POP SWAP3 SWAP2 POP POP JUMP JUMPDEST PUSH1 0x0 PUSH2 0x4253 DUP3 PUSH2 0x37E5 JUMP JUMPDEST PUSH2 0x425D DUP2 DUP6 PUSH2 0x4237 JUMP JUMPDEST SWAP4 POP PUSH2 0x426D DUP2 DUP6 PUSH1 0x20 DUP7 ADD PUSH2 0x3801 JUMP JUMPDEST PUSH2 0x4276 DUP2 PUSH2 0x382B JUMP JUMPDEST DUP5 ADD SWAP2 POP POP SWAP3 SWAP2 POP POP JUMP JUMPDEST PUSH1 0x0 PUSH2 0x428D DUP4 DUP4 PUSH2 0x4248 JUMP JUMPDEST SWAP1 POP SWAP3 SWAP2 POP POP JUMP JUMPDEST PUSH1 0x0 PUSH1 0x20 DUP3 ADD SWAP1 POP SWAP2 SWAP1 POP JUMP JUMPDEST PUSH1 0x0 PUSH2 0x42AD DUP3 PUSH2 0x420B JUMP JUMPDEST PUSH2 0x42B7 DUP2 DUP6 PUSH2 0x4216 JUMP JUMPDEST SWAP4 POP DUP4 PUSH1 0x20 DUP3 MUL DUP6 ADD PUSH2 0x42C9 DUP6 PUSH2 0x4227 JUMP JUMPDEST DUP1 PUSH1 0x0 JUMPDEST DUP6 DUP2 LT ISZERO PUSH2 0x4305 JUMPI DUP5 DUP5 SUB DUP10 MSTORE DUP2 MLOAD PUSH2 0x42E6 DUP6 DUP3 PUSH2 0x4281 JUMP JUMPDEST SWAP5 POP PUSH2 0x42F1 DUP4 PUSH2 0x4295 JUMP JUMPDEST SWAP3 POP PUSH1 0x20 DUP11 ADD SWAP10 POP POP PUSH1 0x1 DUP2 ADD SWAP1 POP PUSH2 0x42CD JUMP JUMPDEST POP DUP3 SWAP8 POP DUP8 SWAP6 POP POP POP POP POP POP SWAP3 SWAP2 POP POP JUMP JUMPDEST PUSH1 0x0 PUSH1 0x20 DUP3 ADD SWAP1 POP DUP2 DUP2 SUB PUSH1 0x0 DUP4 ADD MSTORE PUSH2 0x4331 DUP2 DUP5 PUSH2 0x42A2 JUMP JUMPDEST SWAP1 POP SWAP3 SWAP2 POP POP JUMP JUMPDEST PUSH1 0x0 DUP1 PUSH1 0x0 DUP1 PUSH1 0x0 DUP1 PUSH1 0x0 PUSH1 0xE0 DUP9 DUP11 SUB SLT ISZERO PUSH2 0x4358 JUMPI PUSH2 0x4357 PUSH2 0x3720 JUMP JUMPDEST JUMPDEST PUSH1 0x0 PUSH2 0x4366 DUP11 DUP3 DUP12 ADD PUSH2 0x38E0 JUMP JUMPDEST SWAP8 POP POP PUSH1 0x20 PUSH2 0x4377 DUP11 DUP3 DUP12 ADD PUSH2 0x38E0 JUMP JUMPDEST SWAP7 POP POP PUSH1 0x40 PUSH2 0x4388 DUP11 DUP3 DUP12 ADD PUSH2 0x3916 JUMP JUMPDEST SWAP6 POP POP PUSH1 0x60 PUSH2 0x4399 DUP11 DUP3 DUP12 ADD PUSH2 0x3916 JUMP JUMPDEST SWAP5 POP POP PUSH1 0x80 PUSH2 0x43AA DUP11 DUP3 DUP12 ADD PUSH2 0x4017 JUMP JUMPDEST SWAP4 POP POP PUSH1 0xA0 PUSH2 0x43BB DUP11 DUP3 DUP12 ADD PUSH2 0x3B87 JUMP JUMPDEST SWAP3 POP POP PUSH1 0xC0 PUSH2 0x43CC DUP11 DUP3 DUP12 ADD PUSH2 0x3B87 JUMP JUMPDEST SWAP2 POP POP SWAP3 SWAP6 SWAP9 SWAP2 SWAP5 SWAP8 POP SWAP3 SWAP6 POP JUMP JUMPDEST PUSH1 0x0 DUP1 PUSH1 0x40 DUP4 DUP6 SUB SLT ISZERO PUSH2 0x43F2 JUMPI PUSH2 0x43F1 PUSH2 0x3720 JUMP JUMPDEST JUMPDEST PUSH1 0x0 PUSH2 0x4400 DUP6 DUP3 DUP7 ADD PUSH2 0x38E0 JUMP JUMPDEST SWAP3 POP POP PUSH1 0x20 PUSH2 0x4411 DUP6 DUP3 DUP7 ADD PUSH2 0x38E0 JUMP JUMPDEST SWAP2 POP POP SWAP3 POP SWAP3 SWAP1 POP JUMP JUMPDEST PUSH32 0x4E487B7100000000000000000000000000000000000000000000000000000000 PUSH1 0x0 MSTORE PUSH1 0x22 PUSH1 0x4 MSTORE PUSH1 0x24 PUSH1 0x0 REVERT JUMPDEST PUSH1 0x0 PUSH1 0x2 DUP3 DIV SWAP1 POP PUSH1 0x1 DUP3 AND DUP1 PUSH2 0x4462 JUMPI PUSH1 0x7F DUP3 AND SWAP2 POP JUMPDEST PUSH1 0x20 DUP3 LT DUP2 SUB PUSH2 0x4475 JUMPI PUSH2 0x4474 PUSH2 0x441B JUMP JUMPDEST JUMPDEST POP SWAP2 SWAP1 POP JUMP JUMPDEST PUSH32 0x436F6E7472616374207061757365640000000000000000000000000000000000 PUSH1 0x0 DUP3 ADD MSTORE POP JUMP JUMPDEST PUSH1 0x0 PUSH2 0x44B1 PUSH1 0xF DUP4 PUSH2 0x37F0 JUMP JUMPDEST SWAP2 POP PUSH2 0x44BC DUP3 PUSH2 0x447B JUMP JUMPDEST PUSH1 0x20 DUP3 ADD SWAP1 POP SWAP2 SWAP1 POP JUMP JUMPDEST PUSH1 0x0 PUSH1 0x20 DUP3 ADD SWAP1 POP DUP2 DUP2 SUB PUSH1 0x0 DUP4 ADD MSTORE PUSH2 0x44E0 DUP2 PUSH2 0x44A4 JUMP JUMPDEST SWAP1 POP SWAP2 SWAP1 POP JUMP JUMPDEST PUSH1 0x0 DUP2 SWAP1 POP SWAP3 SWAP2 POP POP JUMP JUMPDEST PUSH1 0x0 PUSH2 0x44FE DUP4 DUP6 PUSH2 0x44E7 JUMP JUMPDEST SWAP4 POP PUSH2 0x450B DUP4 DUP6 DUP5 PUSH2 0x3D48 JUMP JUMPDEST DUP3 DUP5 ADD SWAP1 POP SWAP4 SWAP3 POP POP POP JUMP JUMPDEST PUSH1 0x0 PUSH2 0x4524 DUP3 DUP5 DUP7 PUSH2 0x44F2 JUMP JUMPDEST SWAP2 POP DUP2 SWAP1 POP SWAP4 SWAP3 POP POP POP JUMP JUMPDEST PUSH1 0x0 PUSH2 0x453C DUP4 DUP6 PUSH2 0x37F0 JUMP JUMPDEST SWAP4 POP PUSH2 0x4549 DUP4 DUP6 DUP5 PUSH2 0x3D48 JUMP JUMPDEST PUSH2 0x4552 DUP4 PUSH2 0x382B JUMP JUMPDEST DUP5 ADD SWAP1 POP SWAP4 SWAP3 POP POP POP JUMP JUMPDEST PUSH1 0x0 PUSH1 0x20 DUP3 ADD SWAP1 POP DUP2 DUP2 SUB PUSH1 0x0 DUP4 ADD MSTORE PUSH2 0x4578 DUP2 DUP5 DUP7 PUSH2 0x4530 JUMP JUMPDEST SWAP1 POP SWAP4 SWAP3 POP POP POP JUMP JUMPDEST PUSH1 0x0 PUSH1 0x60 DUP3 ADD SWAP1 POP DUP2 DUP2 SUB PUSH1 0x0 DUP4 ADD MSTORE PUSH2 0x459C DUP2 DUP7 DUP9 PUSH2 0x4530 JUMP JUMPDEST SWAP1 POP PUSH2 0x45AB PUSH1 0x20 DUP4 ADD DUP6 PUSH2 0x3AE9 JUMP JUMPDEST PUSH2 0x45B8 PUSH1 0x40 DUP4 ADD DUP5 PUSH2 0x3AE9 JUMP JUMPDEST SWAP6 SWAP5 POP POP POP POP POP JUMP JUMPDEST PUSH32 0x4E487B7100000000000000000000000000000000000000000000000000000000 PUSH1 0x0 MSTORE PUSH1 0x11 PUSH1 0x4 MSTORE PUSH1 0x24 PUSH1 0x0 REVERT JUMPDEST PUSH1 0x0 PUSH2 0x45FB DUP3 PUSH2 0x38F5 JUMP JUMPDEST SWAP2 POP PUSH2 0x4606 DUP4 PUSH2 0x38F5 JUMP JUMPDEST SWAP3 POP DUP3 DUP3 ADD SWAP1 POP DUP1 DUP3 GT ISZERO PUSH2 0x461E JUMPI PUSH2 0x461D PUSH2 0x45C1 JUMP JUMPDEST JUMPDEST SWAP3 SWAP2 POP POP JUMP JUMPDEST PUSH32 0x4361702065786365656465640000000000000000000000000000000000000000 PUSH1 0x0 DUP3 ADD MSTORE POP JUMP JUMPDEST PUSH1 0x0 PUSH2 0x465A PUSH1 0xC DUP4 PUSH2 0x37F0 JUMP JUMPDEST SWAP2 POP PUSH2 0x4665 DUP3 PUSH2 0x4624 JUMP JUMPDEST PUSH1 0x20 DUP3 ADD SWAP1 POP SWAP2 SWAP1 POP JUMP JUMPDEST PUSH1 0x0 PUSH1 0x20 DUP3 ADD SWAP1 POP DUP2 DUP2 SUB PUSH1 0x0 DUP4 ADD MSTORE PUSH2 0x4689 DUP2 PUSH2 0x464D JUMP JUMPDEST SWAP1 POP SWAP2 SWAP1 POP JUMP JUMPDEST PUSH1 0x0 PUSH1 0xC0 DUP3 ADD SWAP1 POP PUSH2 0x46A5 PUSH1 0x0 DUP4 ADD DUP10 PUSH2 0x3BC9 JUMP JUMPDEST PUSH2 0x46B2 PUSH1 0x20 DUP4 ADD DUP9 PUSH2 0x3E10 JUMP JUMPDEST PUSH2 0x46BF PUSH1 0x40 DUP4 ADD DUP8 PUSH2 0x3E10 JUMP JUMPDEST PUSH2 0x46CC PUSH1 0x60 DUP4 ADD DUP7 PUSH2 0x3AE9 JUMP JUMPDEST PUSH2 0x46D9 PUSH1 0x80 DUP4 ADD DUP6 PUSH2 0x3AE9 JUMP JUMPDEST PUSH2 0x46E6 PUSH1 0xA0 DUP4 ADD DUP5 PUSH2 0x3AE9 JUMP JUMPDEST SWAP8 SWAP7 POP POP POP POP POP POP POP JUMP JUMPDEST PUSH1 0x0 PUSH1 0x40 DUP3 ADD SWAP1 POP PUSH2 0x4706 PUSH1 0x0 DUP4 ADD DUP6 PUSH2 0x3E10 JUMP JUMPDEST PUSH2 0x4713 PUSH1 0x20 DUP4 ADD DUP5 PUSH2 0x3E10 JUMP JUMPDEST SWAP4 SWAP3 POP POP POP JUMP JUMPDEST PUSH1 0x0 PUSH1 0x80 DUP3 ADD SWAP1 POP DUP2 DUP2 SUB PUSH1 0x0 DUP4 ADD MSTORE PUSH2 0x4735 DUP2 DUP8 DUP10 PUSH2 0x4530 JUMP JUMPDEST SWAP1 POP PUSH2 0x4744 PUSH1 0x20 DUP4 ADD DUP7 PUSH2 0x3AE9 JUMP JUMPDEST PUSH2 0x4751 PUSH1 0x40 DUP4 ADD DUP6 PUSH2 0x3AE9 JUMP JUMPDEST PUSH2 0x475E PUSH1 0x60 DUP4 ADD DUP5 PUSH2 0x37BB JUMP JUMPDEST SWAP7 SWAP6 POP POP POP POP POP POP JUMP JUMPDEST PUSH1 0x0 PUSH1 0x60 DUP3 ADD SWAP1 POP PUSH2 0x477D PUSH1 0x0 DUP4 ADD DUP7 PUSH2 0x3E10 JUMP JUMPDEST PUSH2 0x478A PUSH1 0x20 DUP4 ADD DUP6 PUSH2 0x3AE9 JUMP JUMPDEST PUSH2 0x4797 PUSH1 0x40 DUP4 ADD DUP5 PUSH2 0x3AE9 JUMP JUMPDEST SWAP5 SWAP4 POP POP POP POP JUMP JUMPDEST PUSH1 0x0 PUSH2 0x47AA DUP3 PUSH2 0x37E5 JUMP JUMPDEST PUSH2 0x47B4 DUP2 DUP6 PUSH2 0x44E7 JUMP JUMPDEST SWAP4 POP PUSH2 0x47C4 DUP2 DUP6 PUSH1 0x20 DUP7 ADD PUSH2 0x3801 JUMP JUMPDEST DUP1 DUP5 ADD SWAP2 POP POP SWAP3 SWAP2 POP POP JUMP JUMPDEST PUSH1 0x0 PUSH2 0x47DC DUP3 DUP5 PUSH2 0x479F JUMP JUMPDEST SWAP2 POP DUP2 SWAP1 POP SWAP3 SWAP2 POP POP JUMP JUMPDEST PUSH1 0x0 DUP2 SWAP1 POP DUP2 PUSH1 0x0 MSTORE PUSH1 0x20 PUSH1 0x0 KECCAK256 SWAP1 POP SWAP2 SWAP1 POP JUMP JUMPDEST PUSH1 0x0 PUSH1 0x20 PUSH1 0x1F DUP4 ADD DIV SWAP1 POP SWAP2 SWAP1 POP JUMP JUMPDEST PUSH1 0x0 DUP3 DUP3 SHL SWAP1 POP SWAP3 SWAP2 POP POP JUMP JUMPDEST PUSH1 0x0 PUSH1 0x8 DUP4 MUL PUSH2 0x4849 PUSH32 0xFFFFFFFFFFFFFFFFFFFFFFFFFFFFFFFFFFFFFFFFFFFFFFFFFFFFFFFFFFFFFFFF DUP3 PUSH2 0x480C JUMP JUMPDEST PUSH2 0x4853 DUP7 DUP4 PUSH2 0x480C JUMP JUMPDEST SWAP6 POP DUP1 NOT DUP5 AND SWAP4 POP DUP1 DUP7 AND DUP5 OR SWAP3 POP POP POP SWAP4 SWAP3 POP POP POP JUMP JUMPDEST PUSH1 0x0 DUP2 SWAP1 POP SWAP2 SWAP1 POP JUMP JUMPDEST PUSH1 0x0 PUSH2 0x4890 PUSH2 0x488B PUSH2 0x4886 DUP5 PUSH2 0x38F5 JUMP JUMPDEST PUSH2 0x486B JUMP JUMPDEST PUSH2 0x38F5 JUMP JUMPDEST SWAP1 POP SWAP2 SWAP1 POP JUMP JUMPDEST PUSH1 0x0 DUP2 SWAP1 POP SWAP2 SWAP1 POP JUMP JUMPDEST PUSH2 0x48AA DUP4 PUSH2 0x4875 JUMP JUMPDEST PUSH2 0x48BE PUSH2 0x48B6 DUP3 PUSH2 0x4897 JUMP JUMPDEST DUP5 DUP5 SLOAD PUSH2 0x4819 JUMP JUMPDEST DUP3 SSTORE POP POP POP POP JUMP JUMPDEST PUSH1 0x0 SWAP1 JUMP JUMPDEST PUSH2 0x48D3 PUSH2 0x48C6 JUMP JUMPDEST PUSH2 0x48DE DUP2 DUP5 DUP5 PUSH2 0x48A1 JUMP JUMPDEST POP POP POP JUMP JUMPDEST JUMPDEST DUP2 DUP2 LT ISZERO PUSH2 0x4902 JUMPI PUSH2 0x48F7 PUSH1 0x0 DUP3 PUSH2 0x48CB JUMP JUMPDEST PUSH1 0x1 DUP2 ADD SWAP1 POP PUSH2 0x48E4 JUMP JUMPDEST POP POP JUMP JUMPDEST PUSH1 0x1F DUP3 GT ISZERO PUSH2 0x4947 JUMPI PUSH2 0x4918 DUP2 PUSH2 0x47E7 JUMP JUMPDEST PUSH2 0x4921 DUP5 PUSH2 0x47FC JUMP JUMPDEST DUP2 ADD PUSH1 0x20 DUP6 LT ISZERO PUSH2 0x4930 JUMPI DUP2 SWAP1 POP JUMPDEST PUSH2 0x4944 PUSH2 0x493C DUP6 PUSH2 0x47FC JUMP JUMPDEST DUP4 ADD DUP3 PUSH2 0x48E3 JUMP JUMPDEST POP POP JUMPDEST POP POP POP JUMP JUMPDEST PUSH1 0x0 DUP3 DUP3 SHR SWAP1 POP SWAP3 SWAP2 POP POP JUMP JUMPDEST PUSH1 0x0 PUSH2 0x496A PUSH1 0x0 NOT DUP5 PUSH1 0x8 MUL PUSH2 0x494C JUMP JUMPDEST NOT DUP1 DUP4 AND SWAP2 POP POP SWAP3 SWAP2 POP POP JUMP JUMPDEST PUSH1 0x0 PUSH2 0x4983 DUP4 DUP4 PUSH2 0x4959 JUMP JUMPDEST SWAP2 POP DUP3 PUSH1 0x2 MUL DUP3 OR SWAP1 POP SWAP3 SWAP2 POP POP JUMP JUMPDEST PUSH2 0x499C DUP3 PUSH2 0x37E5 JUMP JUMPDEST PUSH8 0xFFFFFFFFFFFFFFFF DUP2 GT ISZERO PUSH2 0x49B5 JUMPI PUSH2 0x49B4 PUSH2 0x3C9C JUMP JUMPDEST JUMPDEST PUSH2 0x49BF DUP3 SLOAD PUSH2 0x444A JUMP JUMPDEST PUSH2 0x49CA DUP3 DUP3 DUP6 PUSH2 0x4906 JUMP JUMPDEST PUSH1 0x0 PUSH1 0x20 SWAP1 POP PUSH1 0x1F DUP4 GT PUSH1 0x1 DUP2 EQ PUSH2 0x49FD JUMPI PUSH1 0x0 DUP5 ISZERO PUSH2 0x49EB JUMPI DUP3 DUP8 ADD MLOAD SWAP1 POP JUMPDEST PUSH2 0x49F5 DUP6 DUP3 PUSH2 0x4977 JUMP JUMPDEST DUP7 SSTORE POP PUSH2 0x4A5D JUMP JUMPDEST PUSH1 0x1F NOT DUP5 AND PUSH2 0x4A0B DUP7 PUSH2 0x47E7 JUMP JUMPDEST PUSH1 0x0 JUMPDEST DUP3 DUP2 LT ISZERO PUSH2 0x4A33 JUMPI DUP5 DUP10 ADD MLOAD DUP3 SSTORE PUSH1 0x1 DUP3 ADD SWAP2 POP PUSH1 0x20 DUP6 ADD SWAP5 POP PUSH1 0x20 DUP2 ADD SWAP1 POP PUSH2 0x4A0E JUMP JUMPDEST DUP7 DUP4 LT ISZERO PUSH2 0x4A50 JUMPI DUP5 DUP10 ADD MLOAD PUSH2 0x4A4C PUSH1 0x1F DUP10 AND DUP3 PUSH2 0x4959 JUMP JUMPDEST DUP4 SSTORE POP JUMPDEST PUSH1 0x1 PUSH1 0x2 DUP9 MUL ADD DUP9 SSTORE POP POP POP JUMPDEST POP POP POP POP POP POP JUMP JUMPDEST PUSH1 0x0 PUSH1 0x60 DUP3 ADD SWAP1 POP DUP2 DUP2 SUB PUSH1 0x0 DUP4 ADD MSTORE PUSH2 0x4A7F DUP2 DUP7 PUSH2 0x383C JUMP JUMPDEST SWAP1 POP PUSH2 0x4A8E PUSH1 0x20 DUP4 ADD DUP6 PUSH2 0x3E10 JUMP JUMPDEST PUSH2 0x4A9B PUSH1 0x40 DUP4 ADD DUP5 PUSH2 0x3AE9 JUMP JUMPDEST SWAP5 SWAP4 POP POP POP POP JUMP JUMPDEST PUSH1 0x0 PUSH2 0x4AAE DUP3 PUSH2 0x38F5 JUMP JUMPDEST SWAP2 POP PUSH2 0x4AB9 DUP4 PUSH2 0x38F5 JUMP JUMPDEST SWAP3 POP DUP3 DUP3 MUL PUSH2 0x4AC7 DUP2 PUSH2 0x38F5 JUMP JUMPDEST SWAP2 POP DUP3 DUP3 DIV DUP5 EQ DUP4 ISZERO OR PUSH2 0x4ADE JUMPI PUSH2 0x4ADD PUSH2 0x45C1 JUMP JUMPDEST JUMPDEST POP SWAP3 SWAP2 POP POP JUMP JUMPDEST PUSH32 0x4E487B7100000000000000000000000000000000000000000000000000000000 PUSH1 0x0 MSTORE PUSH1 0x12 PUSH1 0x4 MSTORE PUSH1 0x24 PUSH1 0x0 REVERT JUMPDEST PUSH1 0x0 PUSH2 0x4B1F DUP3 PUSH2 0x38F5 JUMP JUMPDEST SWAP2 POP PUSH2 0x4B2A DUP4 PUSH2 0x38F5 JUMP JUMPDEST SWAP3 POP DUP3 PUSH2 0x4B3A JUMPI PUSH2 0x4B39 PUSH2 0x4AE5 JUMP JUMPDEST JUMPDEST DUP3 DUP3 DIV SWAP1 POP SWAP3 SWAP2 POP POP JUMP JUMPDEST PUSH1 0x0 DUP2 MLOAD SWAP1 POP PUSH2 0x4B54 DUP2 PUSH2 0x38FF JUMP JUMPDEST SWAP3 SWAP2 POP POP JUMP JUMPDEST PUSH1 0x0 PUSH1 0x20 DUP3 DUP5 SUB SLT ISZERO PUSH2 0x4B70 JUMPI PUSH2 0x4B6F PUSH2 0x3720 JUMP JUMPDEST JUMPDEST PUSH1 0x0 PUSH2 0x4B7E DUP5 DUP3 DUP6 ADD PUSH2 0x4B45 JUMP JUMPDEST SWAP2 POP POP SWAP3 SWAP2 POP POP JUMP JUMPDEST PUSH1 0x0 PUSH1 0x60 DUP3 ADD SWAP1 POP PUSH2 0x4B9C PUSH1 0x0 DUP4 ADD DUP7 PUSH2 0x3E10 JUMP JUMPDEST PUSH2 0x4BA9 PUSH1 0x20 DUP4 ADD DUP6 PUSH2 0x3E10 JUMP JUMPDEST PUSH2 0x4BB6 PUSH1 0x40 DUP4 ADD DUP5 PUSH2 0x3AE9 JUMP JUMPDEST SWAP5 SWAP4 POP POP POP POP JUMP JUMPDEST PUSH1 0x0 DUP2 MLOAD SWAP1 POP PUSH2 0x4BCD DUP2 PUSH2 0x3A30 JUMP JUMPDEST SWAP3 SWAP2 POP POP JUMP JUMPDEST PUSH1 0x0 PUSH1 0x20 DUP3 DUP5 SUB SLT ISZERO PUSH2 0x4BE9 JUMPI PUSH2 0x4BE8 PUSH2 0x3720 JUMP JUMPDEST JUMPDEST PUSH1 0x0 PUSH2 0x4BF7 DUP5 DUP3 DUP6 ADD PUSH2 0x4BBE JUMP JUMPDEST SWAP2 POP POP SWAP3 SWAP2 POP POP JUMP JUMPDEST PUSH1 0x0 PUSH1 0x40 DUP3 ADD SWAP1 POP PUSH2 0x4C15 PUSH1 0x0 DUP4 ADD DUP6 PUSH2 0x3E10 JUMP JUMPDEST PUSH2 0x4C22 PUSH1 0x20 DUP4 ADD DUP5 PUSH2 0x3AE9 JUMP JUMPDEST SWAP4 SWAP3 POP POP POP JUMP JUMPDEST PUSH32 0x4554482073656C6C696E67206E6F7420696D706C656D656E7465640000000000 PUSH1 0x0 DUP3 ADD MSTORE POP JUMP JUMPDEST PUSH1 0x0 PUSH2 0x4C5F PUSH1 0x1B DUP4 PUSH2 0x37F0 JUMP JUMPDEST SWAP2 POP PUSH2 0x4C6A DUP3 PUSH2 0x4C29 JUMP JUMPDEST PUSH1 0x20 DUP3 ADD SWAP1 POP SWAP2 SWAP1 POP JUMP JUMPDEST PUSH1 0x0 PUSH1 0x20 DUP3 ADD SWAP1 POP DUP2 DUP2 SUB PUSH1 0x0 DUP4 ADD MSTORE PUSH2 0x4C8E DUP2 PUSH2 0x4C52 JUMP JUMPDEST SWAP1 POP SWAP2 SWAP1 POP JUMP JUMPDEST PUSH1 0x0 PUSH1 0x40 DUP3 ADD SWAP1 POP PUSH2 0x4CAA PUSH1 0x0 DUP4 ADD DUP6 PUSH2 0x3E10 JUMP JUMPDEST PUSH2 0x4CB7 PUSH1 0x20 DUP4 ADD DUP5 PUSH2 0x3BC9 JUMP JUMPDEST SWAP4 SWAP3 POP POP POP JUMP JUMPDEST PUSH1 0x0 PUSH1 0xA0 DUP3 ADD SWAP1 POP PUSH2 0x4CD3 PUSH1 0x0 DUP4 ADD DUP9 PUSH2 0x3BC9 JUMP JUMPDEST PUSH2 0x4CE0 PUSH1 0x20 DUP4 ADD DUP8 PUSH2 0x3BC9 JUMP JUMPDEST PUSH2 0x4CED PUSH1 0x40 DUP4 ADD DUP7 PUSH2 0x3BC9 JUMP JUMPDEST PUSH2 0x4CFA PUSH1 0x60 DUP4 ADD DUP6 PUSH2 0x3AE9 JUMP JUMPDEST PUSH2 0x4D07 PUSH1 0x80 DUP4 ADD DUP5 PUSH2 0x3E10 JUMP JUMPDEST SWAP7 SWAP6 POP POP POP POP POP POP JUMP JUMPDEST PUSH1 0x0 PUSH2 0x4D1C DUP3 PUSH2 0x3C33 JUMP JUMPDEST SWAP2 POP PUSH2 0x4D27 DUP4 PUSH2 0x3C33 JUMP JUMPDEST SWAP3 POP DUP3 DUP3 SUB SWAP1 POP PUSH1 0xFF DUP2 GT ISZERO PUSH2 0x4D40 JUMPI PUSH2 0x4D3F PUSH2 0x45C1 JUMP JUMPDEST JUMPDEST SWAP3 SWAP2 POP POP JUMP JUMPDEST PUSH1 0x0 DUP2 PUSH1 0x1 SHR SWAP1 POP SWAP2 SWAP1 POP JUMP JUMPDEST PUSH1 0x0 DUP1 DUP3 SWAP2 POP DUP4 SWAP1 POP JUMPDEST PUSH1 0x1 DUP6 GT ISZERO PUSH2 0x4D9D JUMPI DUP1 DUP7 DIV DUP2 GT ISZERO PUSH2 0x4D79 JUMPI PUSH2 0x4D78 PUSH2 0x45C1 JUMP JUMPDEST JUMPDEST PUSH1 0x1 DUP6 AND ISZERO PUSH2 0x4D88 JUMPI DUP1 DUP3 MUL SWAP2 POP JUMPDEST DUP1 DUP2 MUL SWAP1 POP PUSH2 0x4D96 DUP6 PUSH2 0x4D46 JUMP JUMPDEST SWAP5 POP PUSH2 0x4D5D JUMP JUMPDEST SWAP5 POP SWAP5 SWAP3 POP POP POP JUMP JUMPDEST PUSH1 0x0 DUP3 PUSH2 0x4DB6 JUMPI PUSH1 0x1 SWAP1 POP PUSH2 0x4E72 JUMP JUMPDEST DUP2 PUSH2 0x4DC4 JUMPI PUSH1 0x0 SWAP1 POP PUSH2 0x4E72 JUMP JUMPDEST DUP2 PUSH1 0x1 DUP2 EQ PUSH2 0x4DDA JUMPI PUSH1 0x2 DUP2 EQ PUSH2 0x4DE4 JUMPI PUSH2 0x4E13 JUMP JUMPDEST PUSH1 0x1 SWAP2 POP POP PUSH2 0x4E72 JUMP JUMPDEST PUSH1 0xFF DUP5 GT ISZERO PUSH2 0x4DF6 JUMPI PUSH2 0x4DF5 PUSH2 0x45C1 JUMP JUMPDEST JUMPDEST DUP4 PUSH1 0x2 EXP SWAP2 POP DUP5 DUP3 GT ISZERO PUSH2 0x4E0D JUMPI PUSH2 0x4E0C PUSH2 0x45C1 JUMP JUMPDEST JUMPDEST POP PUSH2 0x4E72 JUMP JUMPDEST POP PUSH1 0x20 DUP4 LT PUSH2 0x133 DUP4 LT AND PUSH1 0x4E DUP5 LT PUSH1 0xB DUP5 LT AND OR ISZERO PUSH2 0x4E48 JUMPI DUP3 DUP3 EXP SWAP1 POP DUP4 DUP2 GT ISZERO PUSH2 0x4E43 JUMPI PUSH2 0x4E42 PUSH2 0x45C1 JUMP JUMPDEST JUMPDEST PUSH2 0x4E72 JUMP JUMPDEST PUSH2 0x4E55 DUP5 DUP5 DUP5 PUSH1 0x1 PUSH2 0x4D53 JUMP JUMPDEST SWAP3 POP SWAP1 POP DUP2 DUP5 DIV DUP2 GT ISZERO PUSH2 0x4E6C JUMPI PUSH2 0x4E6B PUSH2 0x45C1 JUMP JUMPDEST JUMPDEST DUP2 DUP2 MUL SWAP1 POP JUMPDEST SWAP4 SWAP3 POP POP POP JUMP JUMPDEST PUSH1 0x0 PUSH2 0x4E84 DUP3 PUSH2 0x38F5 JUMP JUMPDEST SWAP2 POP PUSH2 0x4E8F DUP4 PUSH2 0x38F5 JUMP JUMPDEST SWAP3 POP PUSH2 0x4EBC PUSH32 0xFFFFFFFFFFFFFFFFFFFFFFFFFFFFFFFFFFFFFFFFFFFFFFFFFFFFFFFFFFFFFFFF DUP5 DUP5 PUSH2 0x4DA6 JUMP JUMPDEST SWAP1 POP SWAP3 SWAP2 POP POP JUMP JUMPDEST PUSH1 0x0 PUSH1 0x80 DUP3 ADD SWAP1 POP PUSH2 0x4ED9 PUSH1 0x0 DUP4 ADD DUP8 PUSH2 0x3BC9 JUMP JUMPDEST PUSH2 0x4EE6 PUSH1 0x20 DUP4 ADD DUP7 PUSH2 0x3C40 JUMP JUMPDEST PUSH2 0x4EF3 PUSH1 0x40 DUP4 ADD DUP6 PUSH2 0x3BC9 JUMP JUMPDEST PUSH2 0x4F00 PUSH1 0x60 DUP4 ADD DUP5 PUSH2 0x3BC9 JUMP JUMPDEST SWAP6 SWAP5 POP POP POP POP POP JUMP JUMPDEST PUSH32 0x4E487B7100000000000000000000000000000000000000000000000000000000 PUSH1 0x0 MSTORE PUSH1 0x21 PUSH1 0x4 MSTORE PUSH1 0x24 PUSH1 0x0 REVERT INVALID LOG2 PUSH5 0x6970667358 0x22 SLT KECCAK256 0xF CODECOPY DELEGATECALL 0xC6 0xD0 PUSH12 0x70077927EA86D5EC0BC10998 0xB9 PUSH28 0x8060FD5C190CBBE13166933364736F6C634300081C00330000000000 "},"methodIdentifiers":{"CAP()":"ec81b483","DEFAULT_ADMIN_ROLE()":"a217fddf","DOMAIN_SEPARATOR()":"3644e515","EXCHANGE_MANAGER_ROLE()":"fd48a1e6","MINTER_ROLE()":"d5391393","addSupportedToken(string,address,uint256,uint8)":"883f24ec","allowance(address,address)":"dd62ed3e","approve(address,uint256)":"095ea7b3","balanceOf(address)":"70a08231","burn(uint256)":"42966c68","burnFrom(address,uint256)":"79cc6790","calculateExchange(string,uint256,bool)":"a96ffd64","decimals()":"313ce567","eip712Domain()":"84b0196e","exchange(string,uint256,bool)":"db0ca857","getRoleAdmin(bytes32)":"248a9ca3","getSupportedTokens()":"d3c7c2c7","getTokenInfo(string)":"8e0ad1cc","grantRole(bytes32,address)":"2f2ff15d","hasRole(bytes32,address)":"91d14854","mint(address,uint256)":"40c10f19","name()":"06fdde03","nonces(address)":"7ecebe00","owner()":"8da5cb5b","paused()":"5c975abb","permit(address,address,uint256,uint256,uint8,bytes32,bytes32)":"d505accf","renounceOwnership()":"715018a6","renounceRole(bytes32,address)":"36568abe","revokeRole(bytes32,address)":"d547741f","setPaused(bool)":"16c38b3c","setTokenAddress(string,address)":"17456e56","supportsInterface(bytes4)":"01ffc9a7","symbol()":"95d89b41","tokenInfo(string)":"587bbca2","totalSupply()":"18160ddd","transfer(address,uint256)":"a9059cbb","transferFrom(address,address,uint256)":"23b872dd","transferOwnership(address)":"f2fde38b","updateExchangeRate(string,uint256)":"14c360a2"}},"storageLayout":{"storage":[{"astId":715,"contract":"contracts/DajuToken.sol:DajuToken","label":"_balances","offset":0,"slot":"0","type":"t_mapping(t_address,t_uint256)"},{"astId":721,"contract":"contracts/DajuToken.sol:DajuToken","label":"_allowances","offset":0,"slot":"1","type":"t_mapping(t_address,t_mapping(t_address,t_uint256))"},{"astId":723,"contract":"contracts/DajuToken.sol:DajuToken","label":"_totalSupply","offset":0,"slot":"2","type":"t_uint256"},{"astId":725,"contract":"contracts/DajuToken.sol:DajuToken","label":"_name","offset":0,"slot":"3","type":"t_string_storage"},{"astId":727,"contract":"contracts/DajuToken.sol:DajuToken","label":"_symbol","offset":0,"slot":"4","type":"t_string_storage"},{"astId":387,"contract":"contracts/DajuToken.sol:DajuToken","label":"_owner","offset":0,"slot":"5","type":"t_address"},{"astId":2681,"contract":"contracts/DajuToken.sol:DajuToken","label":"_nameFallback","offset":0,"slot":"6","type":"t_string_storage"},{"astId":2683,"contract":"contracts/DajuToken.sol:DajuToken","label":"_versionFallback","offset":0,"slot":"7","type":"t_string_storage"},{"astId":1591,"contract":"contracts/DajuToken.sol:DajuToken","label":"_nonces","offset":0,"slot":"8","type":"t_mapping(t_address,t_uint256)"},{"astId":26,"contract":"contracts/DajuToken.sol:DajuToken","label":"_roles","offset":0,"slot":"9","type":"t_mapping(t_bytes32,t_struct(RoleData)21_storage)"},{"astId":1656,"contract":"contracts/DajuToken.sol:DajuToken","label":"_status","offset":0,"slot":"10","type":"t_uint256"},{"astId":4176,"contract":"contracts/DajuToken.sol:DajuToken","label":"paused","offset":0,"slot":"11","type":"t_bool"},{"astId":4179,"contract":"contracts/DajuToken.sol:DajuToken","label":"supportedTokens","offset":0,"slot":"12","type":"t_array(t_string_storage)dyn_storage"},{"astId":4184,"contract":"contracts/DajuToken.sol:DajuToken","label":"tokenInfo","offset":0,"slot":"13","type":"t_mapping(t_string_memory_ptr,t_struct(TokenInfo)4191_storage)"}],"types":{"t_address":{"encoding":"inplace","label":"address","numberOfBytes":"20"},"t_array(t_string_storage)dyn_storage":{"base":"t_string_storage","encoding":"dynamic_array","label":"string[]","numberOfBytes":"32"},"t_bool":{"encoding":"inplace","label":"bool","numberOfBytes":"1"},"t_bytes32":{"encoding":"inplace","label":"bytes32","numberOfBytes":"32"},"t_mapping(t_address,t_bool)":{"encoding":"mapping","key":"t_address","label":"mapping(address => bool)","numberOfBytes":"32","value":"t_bool"},"t_mapping(t_address,t_mapping(t_address,t_uint256))":{"encoding":"mapping","key":"t_address","label":"mapping(address => mapping(address => uint256))","numberOfBytes":"32","value":"t_mapping(t_address,t_uint256)"},"t_mapping(t_address,t_uint256)":{"encoding":"mapping","key":"t_address","label":"mapping(address => uint256)","numberOfBytes":"32","value":"t_uint256"},"t_mapping(t_bytes32,t_struct(RoleData)21_storage)":{"encoding":"mapping","key":"t_bytes32","label":"mapping(bytes32 => struct AccessControl.RoleData)","numberOfBytes":"32","value":"t_struct(RoleData)21_storage"},"t_mapping(t_string_memory_ptr,t_struct(TokenInfo)4191_storage)":{"encoding":"mapping","key":"t_string_memory_ptr","label":"mapping(string => struct DajuToken.TokenInfo)","numberOfBytes":"32","value":"t_struct(TokenInfo)4191_storage"},"t_string_memory_ptr":{"encoding":"bytes","label":"string","numberOfBytes":"32"},"t_string_storage":{"encoding":"bytes","label":"string","numberOfBytes":"32"},"t_struct(RoleData)21_storage":{"encoding":"inplace","label":"struct AccessControl.RoleData","members":[{"astId":18,"contract":"contracts/DajuToken.sol:DajuToken","label":"hasRole","offset":0,"slot":"0","type":"t_mapping(t_address,t_bool)"},{"astId":20,"contract":"contracts/DajuToken.sol:DajuToken","label":"adminRole","offset":0,"slot":"1","type":"t_bytes32"}],"numberOfBytes":"64"},"t_struct(TokenInfo)4191_storage":{"encoding":"inplace","label":"struct DajuToken.TokenInfo","members":[{"astId":4186,"contract":"contracts/DajuToken.sol:DajuToken","label":"rate","offset":0,"slot":"0","type":"t_uint256"},{"astId":4188,"contract":"contracts/DajuToken.sol:DajuToken","label":"tokenAddress","offset":0,"slot":"1","type":"t_address"},{"astId":4190,"contract":"contracts/DajuToken.sol:DajuToken","label":"decimals","offset":20,"slot":"1","type":"t_uint8"}],"numberOfBytes":"64"},"t_uint256":{"encoding":"inplace","label":"uint256","numberOfBytes":"32"},"t_uint8":{"encoding":"inplace","label":"uint8","numberOfBytes":"1"}}}}}}